{
  "contractName": "ZonuletZDEX",
  "abi": [
    {
      "inputs": [],
      "stateMutability": "nonpayable",
      "type": "constructor"
    },
    {
      "inputs": [],
      "name": "uniswapRouter",
      "outputs": [
        {
          "internalType": "contract IUniswapV2Router02",
          "name": "",
          "type": "address"
        }
      ],
      "stateMutability": "view",
      "type": "function",
      "constant": true
    },
    {
      "stateMutability": "payable",
      "type": "receive",
      "payable": true
    },
    {
      "inputs": [
        {
          "internalType": "uint256",
          "name": "zonuAmount",
          "type": "uint256"
        },
        {
          "internalType": "uint256",
          "name": "deadline",
          "type": "uint256"
        }
      ],
      "name": "zonulet",
      "outputs": [],
      "stateMutability": "payable",
      "type": "function",
      "payable": true
    },
    {
      "inputs": [
        {
          "internalType": "uint256",
          "name": "zonuAmount",
          "type": "uint256"
        }
      ],
      "name": "getEstimatedMATICforZONU",
      "outputs": [
        {
          "internalType": "uint256[]",
          "name": "",
          "type": "uint256[]"
        }
      ],
      "stateMutability": "view",
      "type": "function",
      "constant": true
    },
    {
      "inputs": [
        {
          "internalType": "uint256",
          "name": "maticAmount",
          "type": "uint256"
        }
      ],
      "name": "getEstimatedZONUforMATIC",
      "outputs": [
        {
          "internalType": "uint256[]",
          "name": "",
          "type": "uint256[]"
        }
      ],
      "stateMutability": "view",
      "type": "function",
      "constant": true
    }
  ],
  "bytecode": "0x6080604052600180546001600160a01b03191673496a89968fb0e0effe32db03102b613084239ed317905534801561003657600080fd5b50600080546001600160a01b0319167392eb06c72201974b74264b14c6fdb316ab335ae717905561083e8061006c6000396000f3fe6080604052600436106100435760003560e01c806302d1578d1461004f5780636fd0f92f14610085578063735de9f71461009a578063a9b518a4146100d257600080fd5b3661004a57005b600080fd5b34801561005b57600080fd5b5061006f61006a3660046106c3565b6100f2565b60405161007c9190610742565b60405180910390f35b6100986100933660046106dc565b610186565b005b3480156100a657600080fd5b506000546100ba906001600160a01b031681565b6040516001600160a01b03909116815260200161007c565b3480156100de57600080fd5b5061006f6100ed3660046106c3565b6103ac565b6000546060906001600160a01b0316631f00ca748361010f6103c9565b6040518363ffffffff1660e01b815260040161012c929190610786565b60006040518083038186803b15801561014457600080fd5b505afa158015610158573d6000803e3d6000fd5b505050506040513d6000823e601f3d908101601f1916820160405261018091908101906105fe565b92915050565b60408051600280825260608201835260009260208301908036833701905050905060008054906101000a90046001600160a01b03166001600160a01b031663ad5c46486040518163ffffffff1660e01b815260040160206040518083038186803b1580156101f357600080fd5b505afa158015610207573d6000803e3d6000fd5b505050506040513d601f19601f8201168201806040525081019061022b91906105ce565b8160008151811061023e5761023e6107dc565b6001600160a01b039283166020918202929092010152600180548351921691839190811061026e5761026e6107dc565b6001600160a01b03928316602091820292909201015260005460405163fb3bdb4160e01b815291169063fb3bdb419034906102b39087908690339089906004016107a7565b6000604051808303818588803b1580156102cc57600080fd5b505af11580156102e0573d6000803e3d6000fd5b50505050506040513d6000823e601f3d908101601f1916820160405261030991908101906105fe565b50604051600090339047908381818185875af1925050503d806000811461034c576040519150601f19603f3d011682016040523d82523d6000602084013e610351565b606091505b50509050806103a65760405162461bcd60e51b815260206004820152601d60248201527f7a6f6e756c6574207a61702042495420726566756e64206661696c6564000000604482015260640160405180910390fd5b50505050565b6000546060906001600160a01b031663d06ca61f8361010f6104d2565b6040805160028082526060808301845292600092919060208301908036833701905050905060008054906101000a90046001600160a01b03166001600160a01b031663ad5c46486040518163ffffffff1660e01b815260040160206040518083038186803b15801561043a57600080fd5b505afa15801561044e573d6000803e3d6000fd5b505050506040513d601f19601f8201168201806040525081019061047291906105ce565b81600081518110610485576104856107dc565b6001600160a01b03928316602091820292909201015260018054835192169183919081106104b5576104b56107dc565b6001600160a01b0390921660209283029190910190910152919050565b6040805160028082526060808301845292600092919060208301908036833750506001805483519394506001600160a01b0316928492508110610517576105176107dc565b60200260200101906001600160a01b031690816001600160a01b03168152505060008054906101000a90046001600160a01b03166001600160a01b031663ad5c46486040518163ffffffff1660e01b815260040160206040518083038186803b15801561058357600080fd5b505afa158015610597573d6000803e3d6000fd5b505050506040513d601f19601f820116820180604052508101906105bb91906105ce565b816000815181106104b5576104b56107dc565b6000602082840312156105e057600080fd5b81516001600160a01b03811681146105f757600080fd5b9392505050565b6000602080838503121561061157600080fd5b825167ffffffffffffffff8082111561062957600080fd5b818501915085601f83011261063d57600080fd5b81518181111561064f5761064f6107f2565b8060051b604051601f19603f83011681018181108582111715610674576106746107f2565b604052828152858101935084860182860187018a101561069357600080fd5b600095505b838610156106b6578051855260019590950194938601938601610698565b5098975050505050505050565b6000602082840312156106d557600080fd5b5035919050565b600080604083850312156106ef57600080fd5b50508035926020909101359150565b600081518084526020808501945080840160005b838110156107375781516001600160a01b031687529582019590820190600101610712565b509495945050505050565b6020808252825182820181905260009190848201906040850190845b8181101561077a5783518352928401929184019160010161075e565b50909695505050505050565b82815260406020820152600061079f60408301846106fe565b949350505050565b8481526080602082015260006107c060808301866106fe565b6001600160a01b03949094166040830152506060015292915050565b634e487b7160e01b600052603260045260246000fd5b634e487b7160e01b600052604160045260246000fdfea2646970667358221220ab7ecb1e1cc8131d19244ee19489b32aea89f3d7ec0f8a725d90f356e663e15b64736f6c63430008070033",
  "immutableReferences": {},
  "source": "//              \n//           \n//                        \n//                       \n//        \n//                                                                        \n// SPDX-License-Identifier: MIT\n\npragma solidity 0.8.7;\n\ninterface IUniswapV2Router01 {\n    function factory() external pure returns (address);\n    function WETH() external pure returns (address);\n\n    function addLiquidity(\n        address tokenA,\n        address tokenB,\n        uint amountADesired,\n        uint amountBDesired,\n        uint amountAMin,\n        uint amountBMin,\n        address to,\n        uint deadline\n    ) external returns (uint amountA, uint amountB, uint liquidity);\n    function addLiquidityETH(\n        address token,\n        uint amountTokenDesired,\n        uint amountTokenMin,\n        uint amountETHMin,\n        address to,\n        uint deadline\n    ) external payable returns (uint amountToken, uint amountETH, uint liquidity);\n    function removeLiquidity(\n        address tokenA,\n        address tokenB,\n        uint liquidity,\n        uint amountAMin,\n        uint amountBMin,\n        address to,\n        uint deadline\n    ) external returns (uint amountA, uint amountB);\n    function removeLiquidityETH(\n        address token,\n        uint liquidity,\n        uint amountTokenMin,\n        uint amountETHMin,\n        address to,\n        uint deadline\n    ) external returns (uint amountToken, uint amountETH);\n    function removeLiquidityWithPermit(\n        address tokenA,\n        address tokenB,\n        uint liquidity,\n        uint amountAMin,\n        uint amountBMin,\n        address to,\n        uint deadline,\n        bool approveMax, uint8 v, bytes32 r, bytes32 s\n    ) external returns (uint amountA, uint amountB);\n    function removeLiquidityETHWithPermit(\n        address token,\n        uint liquidity,\n        uint amountTokenMin,\n        uint amountETHMin,\n        address to,\n        uint deadline,\n        bool approveMax, uint8 v, bytes32 r, bytes32 s\n    ) external returns (uint amountToken, uint amountETH);\n    function swapExactTokensForTokens(\n        uint amountIn,\n        uint amountOutMin,\n        address[] calldata path,\n        address to,\n        uint deadline\n    ) external returns (uint[] memory amounts);\n    function swapTokensForExactTokens(\n        uint amountOut,\n        uint amountInMax,\n        address[] calldata path,\n        address to,\n        uint deadline\n    ) external returns (uint[] memory amounts);\n    function swapExactETHForTokens(uint amountOutMin, address[] calldata path, address to, uint deadline)\n        external\n        payable\n        returns (uint[] memory amounts);\n    function swapTokensForExactETH(uint amountOut, uint amountInMax, address[] calldata path, address to, uint deadline)\n        external\n        returns (uint[] memory amounts);\n    function swapExactTokensForETH(uint amountIn, uint amountOutMin, address[] calldata path, address to, uint deadline)\n        external\n        returns (uint[] memory amounts);\n    function swapETHForExactTokens(uint amountOut, address[] calldata path, address to, uint deadline)\n        external\n        payable\n        returns (uint[] memory amounts);\n\n    function quote(uint amountA, uint reserveA, uint reserveB) external pure returns (uint amountB);\n    function getAmountOut(uint amountIn, uint reserveIn, uint reserveOut) external pure returns (uint amountOut);\n    function getAmountIn(uint amountOut, uint reserveIn, uint reserveOut) external pure returns (uint amountIn);\n    function getAmountsOut(uint amountIn, address[] calldata path) external view returns (uint[] memory amounts);\n    function getAmountsIn(uint amountOut, address[] calldata path) external view returns (uint[] memory amounts);\n}\n\n// File: https://github.com/Uniswap/uniswap-v2-periphery/blob/master/contracts/interfaces/IUniswapV2Router02.sol\n\npragma solidity >=0.6.2;\n\n\ninterface IUniswapV2Router02 is IUniswapV2Router01 {\n    function removeLiquidityETHSupportingFeeOnTransferTokens(\n        address token,\n        uint liquidity,\n        uint amountTokenMin,\n        uint amountETHMin,\n        address to,\n        uint deadline\n    ) external returns (uint amountETH);\n    function removeLiquidityETHWithPermitSupportingFeeOnTransferTokens(\n        address token,\n        uint liquidity,\n        uint amountTokenMin,\n        uint amountETHMin,\n        address to,\n        uint deadline,\n        bool approveMax, uint8 v, bytes32 r, bytes32 s\n    ) external returns (uint amountETH);\n\n    function swapExactTokensForTokensSupportingFeeOnTransferTokens(\n        uint amountIn,\n        uint amountOutMin,\n        address[] calldata path,\n        address to,\n        uint deadline\n    ) external;\n    function swapExactETHForTokensSupportingFeeOnTransferTokens(\n        uint amountOutMin,\n        address[] calldata path,\n        address to,\n        uint deadline\n    ) external payable;\n    function swapExactTokensForETHSupportingFeeOnTransferTokens(\n        uint amountIn,\n        uint amountOutMin,\n        address[] calldata path,\n        address to,\n        uint deadline\n    ) external;\n}\n\n// File: ZonuletZDEX.sol\n\npragma solidity >0.8.0;\n\n\n\ncontract ZonuletZDEX {\n  address internal constant UNISWAP_ROUTER_ADDRESS = 0x92EB06c72201974b74264B14C6FDB316AB335ae7; //  Router\n\n  IUniswapV2Router02 public uniswapRouter;\n  address private zonu = 0x496a89968Fb0e0EffE32Db03102B613084239ED3;\n\n  constructor() {\n    uniswapRouter = IUniswapV2Router02(UNISWAP_ROUTER_ADDRESS);\n  }\n  \n  function zonulet(uint zonuAmount, uint deadline) public payable {\n    address[] memory path = new address[](2);\n    path[0] = uniswapRouter.WETH();\n    path[1] = zonu;\n\n    uniswapRouter.swapETHForExactTokens{ value: msg.value }(zonuAmount, path, msg.sender, deadline);\n    \n    (bool success,) = msg.sender.call{ value: address(this).balance }(\"\");\n    require(success, \"zonulet zap BIT refund failed\");\n  }\n  \n  function getEstimatedMATICforZONU(uint zonuAmount) public view returns (uint[] memory) {\n    return uniswapRouter.getAmountsIn(zonuAmount, getPathForMATICtoZONU());\n  }\n  \n    function getEstimatedZONUforMATIC(uint maticAmount) public view returns (uint[] memory) {\n    return uniswapRouter.getAmountsOut(maticAmount, getPathForZONUtoMATIC());\n  }\n\n  function getPathForMATICtoZONU() private view returns (address[] memory) {\n    address[] memory path = new address[](2);\n    path[0] = uniswapRouter.WETH();\n    path[1] = zonu;\n    \n    return path;\n  }\n  \n  function getPathForZONUtoMATIC() private view returns (address[] memory) {\n    address[] memory path = new address[](2);\n    path[1] = zonu;\n    path[0] = uniswapRouter.WETH();\n    \n    return path;\n  }\n  \n  // important to receive ETH\n  receive() payable external {}\n}",
  "sourcePath": "/mnt/e/ETH-DENVER/INFURA/truffle/contracts/ZonuletZDEX.sol",
  "compiler": {
    "name": "solc",
    "version": "0.8.7+commit.e28d00a7.Emscripten.clang"
  },
  "schemaVersion": "3.4.12",
  "updatedAt": "2023-02-28T15:25:40.841Z",
  "networkType": "ethereum",
  "devdoc": {
    "kind": "dev",
    "methods": {},
    "version": 1
  },
  "userdoc": {
    "kind": "user",
    "methods": {},
    "version": 1
  }
}