{
  "contractName": "ZonuletNFTSale",
  "abi": [
    {
      "inputs": [
        {
          "internalType": "contract ZonuletNFT",
          "name": "_zonuletNFT",
          "type": "address"
        }
      ],
      "stateMutability": "nonpayable",
      "type": "constructor"
    },
    {
      "anonymous": false,
      "inputs": [
        {
          "indexed": false,
          "internalType": "uint256",
          "name": "_tokenId",
          "type": "uint256"
        },
        {
          "indexed": false,
          "internalType": "address",
          "name": "_buyer",
          "type": "address"
        },
        {
          "indexed": false,
          "internalType": "uint256",
          "name": "_price",
          "type": "uint256"
        }
      ],
      "name": "BoughtNFT",
      "type": "event"
    },
    {
      "anonymous": false,
      "inputs": [
        {
          "indexed": false,
          "internalType": "uint256",
          "name": "_tokenId",
          "type": "uint256"
        },
        {
          "indexed": false,
          "internalType": "address",
          "name": "_gifter",
          "type": "address"
        },
        {
          "indexed": false,
          "internalType": "address",
          "name": "_receiver",
          "type": "address"
        }
      ],
      "name": "GiftedNFT",
      "type": "event"
    },
    {
      "inputs": [],
      "name": "ZONU",
      "outputs": [
        {
          "internalType": "address",
          "name": "",
          "type": "address"
        }
      ],
      "stateMutability": "view",
      "type": "function",
      "constant": true
    },
    {
      "inputs": [],
      "name": "zonuletNFT",
      "outputs": [
        {
          "internalType": "contract ZonuletNFT",
          "name": "",
          "type": "address"
        }
      ],
      "stateMutability": "view",
      "type": "function",
      "constant": true
    },
    {
      "inputs": [
        {
          "internalType": "address",
          "name": "_owner",
          "type": "address"
        },
        {
          "internalType": "uint256",
          "name": "_tokenId",
          "type": "uint256"
        },
        {
          "internalType": "uint256",
          "name": "_price",
          "type": "uint256"
        }
      ],
      "name": "BuyNFT",
      "outputs": [],
      "stateMutability": "payable",
      "type": "function",
      "payable": true
    },
    {
      "inputs": [
        {
          "internalType": "address",
          "name": "_owner",
          "type": "address"
        },
        {
          "internalType": "uint256",
          "name": "_tokenId",
          "type": "uint256"
        },
        {
          "internalType": "uint256",
          "name": "_price",
          "type": "uint256"
        }
      ],
      "name": "AuctionSold",
      "outputs": [],
      "stateMutability": "payable",
      "type": "function",
      "payable": true
    },
    {
      "inputs": [
        {
          "internalType": "address",
          "name": "_gifter",
          "type": "address"
        },
        {
          "internalType": "uint256",
          "name": "_tokenId",
          "type": "uint256"
        },
        {
          "internalType": "address",
          "name": "_receiver",
          "type": "address"
        }
      ],
      "name": "GiftNFT",
      "outputs": [],
      "stateMutability": "payable",
      "type": "function",
      "payable": true
    }
  ],
  "bytecode": "0x60a06040527f496a89968fb0e0effe32db03102b613084239ed300000000000000000000000060805234801561003457600080fd5b506040516109e53803806109e583398101604081905261005391610086565b60008054306001600160a01b031991821617909155600180549091166001600160a01b03929092169190911790556100b6565b60006020828403121561009857600080fd5b81516001600160a01b03811681146100af57600080fd5b9392505050565b60805160601c61090b6100da600039600081816061015261043e015261090b6000f3fe60806040526004361061004a5760003560e01c806306e6caad1461004f57806332a73af71461009f5780635be1ddda146100b45780635d963241146100b4578063983ddbe2146100c7575b600080fd5b34801561005b57600080fd5b506100837f000000000000000000000000000000000000000000000000000000000000000081565b6040516001600160a01b03909116815260200160405180910390f35b6100b26100ad3660046106e1565b6100e7565b005b6100b26100c2366004610723565b61030c565b3480156100d357600080fd5b50600154610083906001600160a01b031681565b806001600160a01b0316836001600160a01b0316141561010657600080fd5b6001546040516331a9108f60e11b81526004810184905233916001600160a01b031690636352211e9060240160206040518083038186803b15801561014a57600080fd5b505afa15801561015e573d6000803e3d6000fd5b505050506040513d601f19601f8201168201806040525081019061018291906106bd565b6001600160a01b03161461019557600080fd5b336001600160a01b038416146101f15760405162461bcd60e51b815260206004820152601760248201527f4f6e6c79206f776e65722063616e2067696674204e4654000000000000000000604482015260640160405180910390fd5b6001546040516323b872dd60e01b81526001600160a01b038581166004830152838116602483015260448201859052909116906323b872dd90606401600060405180830381600087803b15801561024757600080fd5b505af115801561025b573d6000803e3d6000fd5b50506001546040516316875c1160e01b8152600481018690526001600160a01b0390911692506316875c119150602401600060405180830381600087803b1580156102a557600080fd5b505af11580156102b9573d6000803e3d6000fd5b5050604080518581526001600160a01b03878116602083015285168183015290517f076ab3c32614c4e17da999e88c733bcf65509b9481261530a4370338629073d49350908190036060019150a1505050565b6001546040516331a9108f60e11b8152600481018490526001600160a01b03858116921690636352211e9060240160206040518083038186803b15801561035257600080fd5b505afa158015610366573d6000803e3d6000fd5b505050506040513d601f19601f8201168201806040525081019061038a91906106bd565b6001600160a01b03161461039d57600080fd5b60015460405163061ba2f160e01b8152600481018490526000916001600160a01b03169063061ba2f19060240160006040518083038186803b1580156103e257600080fd5b505afa1580156103f6573d6000803e3d6000fd5b505050506040513d6000823e601f3d908101601f1916820160405261041e919081019061077a565b9650505085851493506104349250505057600080fd5b6001600160a01b037f0000000000000000000000000000000000000000000000000000000000000000166323b872dd338661047786670de0b6b3a764000061087a565b6040516001600160e01b031960e086901b1681526001600160a01b0393841660048201529290911660248301526044820152606401602060405180830381600087803b1580156104c657600080fd5b505af11580156104da573d6000803e3d6000fd5b505050506040513d601f19601f820116820180604052508101906104fe9190610758565b506001546040516323b872dd60e01b81526001600160a01b03868116600483015233602483015260448201869052909116906323b872dd90606401600060405180830381600087803b15801561055357600080fd5b505af1158015610567573d6000803e3d6000fd5b50506001546040516316875c1160e01b8152600481018790526001600160a01b0390911692506316875c119150602401600060405180830381600087803b1580156105b157600080fd5b505af11580156105c5573d6000803e3d6000fd5b5050604080518681523360208201529081018590527fb6a905095cc0da6554868381c57c41a8a986dbee5b595c4921562f0bfc29c16b9250606001905060405180910390a150505050565b600082601f83011261062157600080fd5b815167ffffffffffffffff8082111561063c5761063c6108a7565b604051601f8301601f19908116603f01168101908282118183101715610664576106646108a7565b8160405283815260209250868385880101111561068057600080fd5b600091505b838210156106a25785820183015181830184015290820190610685565b838211156106b35760008385830101525b9695505050505050565b6000602082840312156106cf57600080fd5b81516106da816108bd565b9392505050565b6000806000606084860312156106f657600080fd5b8335610701816108bd565b9250602084013591506040840135610718816108bd565b809150509250925092565b60008060006060848603121561073857600080fd5b8335610743816108bd565b95602085013595506040909401359392505050565b60006020828403121561076a57600080fd5b815180151581146106da57600080fd5b600080600080600080600060e0888a03121561079557600080fd5b875167ffffffffffffffff808211156107ad57600080fd5b6107b98b838c01610610565b985060208a01519150808211156107cf57600080fd5b6107db8b838c01610610565b975060408a01519150808211156107f157600080fd5b6107fd8b838c01610610565b965060608a015191508082111561081357600080fd5b61081f8b838c01610610565b955060808a015191508082111561083557600080fd5b6108418b838c01610610565b945060a08a015191508082111561085757600080fd5b506108648a828b01610610565b92505060c0880151905092959891949750929550565b60008160001904831182151516156108a257634e487b7160e01b600052601160045260246000fd5b500290565b634e487b7160e01b600052604160045260246000fd5b6001600160a01b03811681146108d257600080fd5b5056fea26469706673582212203eb608c208a876c4621f3005ab7b66d91a5b8f06effe1eb6e24addceb2d169ef64736f6c63430008070033",
  "immutableReferences": {
    "645": [
      {
        "length": 32,
        "start": 97
      },
      {
        "length": 32,
        "start": 1086
      }
    ]
  },
  "source": "//              \n//           \n//                        \n//                       \n//        \n//                                                                        \n// SPDX-License-Identifier: MIT\n\npragma solidity 0.8.7;\n\nimport \"./ZonuletNFT.sol\";\nimport \"../openzeppelin/token/ERC721/extensions/ERC721Full.sol\";\nimport \"../openzeppelin/token/ERC20/IERC20.sol\";\nimport \"../openzeppelin/token/ERC20/extensions/IERC20Metadata.sol\";\nimport \"../openzeppelin/access/Ownable.sol\";\nimport \"../openzeppelin/utils/math/SafeMath.sol\";\nimport \"../openzeppelin/utils/math/SafeMathInt.sol\";\nimport \"../openzeppelin/utils/math/SafeMathUint.sol\";\nimport \"../openzeppelin/token/ERC20/ERC20.sol\";\n\ncontract ZonuletNFTSale {\n\n    address admin;\n    ZonuletNFT public zonuletNFT;\n\n    address public immutable ZONU = address(0x496a89968Fb0e0EffE32Db03102B613084239ED3); \n\n    event BoughtNFT(uint256 _tokenId, address _buyer, uint256 _price);\n\n    event GiftedNFT(uint256 _tokenId, address _gifter, address _receiver);\n\n    constructor(ZonuletNFT _zonuletNFT) {\n        admin = address(this);\n        zonuletNFT = _zonuletNFT;\n    }\n\n    function BuyNFT(address _owner, uint256 _tokenId, uint256 _price) public payable {\n        require(zonuletNFT.ownerOf(_tokenId) == _owner);\n        uint price;\n        (, , , , , , price) = zonuletNFT.imageData(_tokenId);\n        require(_price == price);\n\n        IERC20(ZONU).transferFrom(msg.sender, _owner, _price*1e18);\n        zonuletNFT.transferFrom(_owner, msg.sender, _tokenId);\n        zonuletNFT.nftSold(_tokenId);\n        emit BoughtNFT(_tokenId, msg.sender, _price);\n    }\n\n    function AuctionSold(address _owner, uint256 _tokenId, uint256 _price) public payable {\n        require(zonuletNFT.ownerOf(_tokenId) == _owner);\n        uint price;\n        (, , , , , , price) = zonuletNFT.imageData(_tokenId);\n        require(_price == price);\n\n        IERC20(ZONU).transferFrom(msg.sender, _owner, _price*1e18);\n        zonuletNFT.transferFrom(_owner, msg.sender, _tokenId);\n        zonuletNFT.nftSold(_tokenId);\n        emit BoughtNFT(_tokenId, msg.sender, _price);\n    }\n\n    function GiftNFT(address _gifter, uint256 _tokenId, address _receiver) public payable {\n        require(_gifter != _receiver);\n        require(zonuletNFT.ownerOf(_tokenId) == msg.sender);\n        require(msg.sender == _gifter, \"Only owner can gift NFT\");\n\n        zonuletNFT.transferFrom(_gifter, _receiver, _tokenId);\n        zonuletNFT.nftSold(_tokenId);\n        emit GiftedNFT(_tokenId, _gifter, _receiver);\n    }\n\n}",
  "sourcePath": "/mnt/e/ETH-DENVER/INFURA/truffle/contracts/ZonuletNFTSale.sol",
  "compiler": {
    "name": "solc",
    "version": "0.8.7+commit.e28d00a7.Emscripten.clang"
  },
  "schemaVersion": "3.4.12",
  "updatedAt": "2023-02-28T15:25:40.677Z",
  "networkType": "ethereum",
  "devdoc": {
    "kind": "dev",
    "methods": {},
    "version": 1
  },
  "userdoc": {
    "kind": "user",
    "methods": {},
    "version": 1
  }
}