{
  "contractName": "ZonuletZDEX",
  "abi": [
    {
      "inputs": [],
      "stateMutability": "nonpayable",
      "type": "constructor"
    },
    {
      "inputs": [],
      "name": "uniswapRouter",
      "outputs": [
        {
          "internalType": "contract IUniswapV2Router02",
          "name": "",
          "type": "address"
        }
      ],
      "stateMutability": "view",
      "type": "function",
      "constant": true
    },
    {
      "stateMutability": "payable",
      "type": "receive",
      "payable": true
    },
    {
      "inputs": [
        {
          "internalType": "uint256",
          "name": "zonuAmount",
          "type": "uint256"
        },
        {
          "internalType": "uint256",
          "name": "deadline",
          "type": "uint256"
        }
      ],
      "name": "zonulet",
      "outputs": [],
      "stateMutability": "payable",
      "type": "function",
      "payable": true
    },
    {
      "inputs": [
        {
          "internalType": "uint256",
          "name": "zonuAmount",
          "type": "uint256"
        }
      ],
      "name": "getEstimatedMANTLEforZONU",
      "outputs": [
        {
          "internalType": "uint256[]",
          "name": "",
          "type": "uint256[]"
        }
      ],
      "stateMutability": "view",
      "type": "function",
      "constant": true
    },
    {
      "inputs": [
        {
          "internalType": "uint256",
          "name": "roseAmount",
          "type": "uint256"
        }
      ],
      "name": "getEstimatedZONUforMANTLE",
      "outputs": [
        {
          "internalType": "uint256[]",
          "name": "",
          "type": "uint256[]"
        }
      ],
      "stateMutability": "view",
      "type": "function",
      "constant": true
    }
  ],
  "bytecode": "0x608060405273216ed590cb7ec3417cab82699ae493522fecf580600160006101000a81548173ffffffffffffffffffffffffffffffffffffffff021916908373ffffffffffffffffffffffffffffffffffffffff16021790555034801561006557600080fd5b5073590ead7f6ef611db78347edf8906b7ca463886096000806101000a81548173ffffffffffffffffffffffffffffffffffffffff021916908373ffffffffffffffffffffffffffffffffffffffff160217905550610faa806100c96000396000f3fe6080604052600436106100435760003560e01c80636fd0f92f1461004f578063735de9f71461006b57806374f8ba1b14610096578063d268c6b4146100d35761004a565b3661004a57005b600080fd5b61006960048036038101906100649190610921565b610110565b005b34801561007757600080fd5b50610080610407565b60405161008d91906109e0565b60405180910390f35b3480156100a257600080fd5b506100bd60048036038101906100b891906109fb565b61042b565b6040516100ca9190610ae6565b60405180910390f35b3480156100df57600080fd5b506100fa60048036038101906100f591906109fb565b6104dc565b6040516101079190610ae6565b60405180910390f35b6000600267ffffffffffffffff81111561012d5761012c610b08565b5b60405190808252806020026020018201604052801561015b5781602001602082028036833780820191505090505b50905060008054906101000a900473ffffffffffffffffffffffffffffffffffffffff1673ffffffffffffffffffffffffffffffffffffffff1663ad5c46486040518163ffffffff1660e01b8152600401602060405180830381865afa1580156101c9573d6000803e3d6000fd5b505050506040513d601f19601f820116820180604052508101906101ed9190610b75565b8160008151811061020157610200610ba2565b5b602002602001019073ffffffffffffffffffffffffffffffffffffffff16908173ffffffffffffffffffffffffffffffffffffffff1681525050600160009054906101000a900473ffffffffffffffffffffffffffffffffffffffff168160018151811061027257610271610ba2565b5b602002602001019073ffffffffffffffffffffffffffffffffffffffff16908173ffffffffffffffffffffffffffffffffffffffff168152505060008054906101000a900473ffffffffffffffffffffffffffffffffffffffff1673ffffffffffffffffffffffffffffffffffffffff1663fb3bdb4134858433876040518663ffffffff1660e01b815260040161030c9493929190610cad565b60006040518083038185885af115801561032a573d6000803e3d6000fd5b50505050506040513d6000823e3d601f19601f820116820180604052508101906103549190610e38565b5060003373ffffffffffffffffffffffffffffffffffffffff164760405161037b90610eb2565b60006040518083038185875af1925050503d80600081146103b8576040519150601f19603f3d011682016040523d82523d6000602084013e6103bd565b606091505b5050905080610401576040517f08c379a00000000000000000000000000000000000000000000000000000000081526004016103f890610f24565b60405180910390fd5b50505050565b60008054906101000a900473ffffffffffffffffffffffffffffffffffffffff1681565b606060008054906101000a900473ffffffffffffffffffffffffffffffffffffffff1673ffffffffffffffffffffffffffffffffffffffff16631f00ca748361047261058d565b6040518363ffffffff1660e01b815260040161048f929190610f44565b600060405180830381865afa1580156104ac573d6000803e3d6000fd5b505050506040513d6000823e3d601f19601f820116820180604052508101906104d59190610e38565b9050919050565b606060008054906101000a900473ffffffffffffffffffffffffffffffffffffffff1673ffffffffffffffffffffffffffffffffffffffff1663d06ca61f83610523610732565b6040518363ffffffff1660e01b8152600401610540929190610f44565b600060405180830381865afa15801561055d573d6000803e3d6000fd5b505050506040513d6000823e3d601f19601f820116820180604052508101906105869190610e38565b9050919050565b60606000600267ffffffffffffffff8111156105ac576105ab610b08565b5b6040519080825280602002602001820160405280156105da5781602001602082028036833780820191505090505b50905060008054906101000a900473ffffffffffffffffffffffffffffffffffffffff1673ffffffffffffffffffffffffffffffffffffffff1663ad5c46486040518163ffffffff1660e01b8152600401602060405180830381865afa158015610648573d6000803e3d6000fd5b505050506040513d601f19601f8201168201806040525081019061066c9190610b75565b816000815181106106805761067f610ba2565b5b602002602001019073ffffffffffffffffffffffffffffffffffffffff16908173ffffffffffffffffffffffffffffffffffffffff1681525050600160009054906101000a900473ffffffffffffffffffffffffffffffffffffffff16816001815181106106f1576106f0610ba2565b5b602002602001019073ffffffffffffffffffffffffffffffffffffffff16908173ffffffffffffffffffffffffffffffffffffffff16815250508091505090565b60606000600267ffffffffffffffff81111561075157610750610b08565b5b60405190808252806020026020018201604052801561077f5781602001602082028036833780820191505090505b509050600160009054906101000a900473ffffffffffffffffffffffffffffffffffffffff16816001815181106107b9576107b8610ba2565b5b602002602001019073ffffffffffffffffffffffffffffffffffffffff16908173ffffffffffffffffffffffffffffffffffffffff168152505060008054906101000a900473ffffffffffffffffffffffffffffffffffffffff1673ffffffffffffffffffffffffffffffffffffffff1663ad5c46486040518163ffffffff1660e01b8152600401602060405180830381865afa15801561085e573d6000803e3d6000fd5b505050506040513d601f19601f820116820180604052508101906108829190610b75565b8160008151811061089657610895610ba2565b5b602002602001019073ffffffffffffffffffffffffffffffffffffffff16908173ffffffffffffffffffffffffffffffffffffffff16815250508091505090565b6000604051905090565b600080fd5b600080fd5b6000819050919050565b6108fe816108eb565b811461090957600080fd5b50565b60008135905061091b816108f5565b92915050565b60008060408385031215610938576109376108e1565b5b60006109468582860161090c565b92505060206109578582860161090c565b9150509250929050565b600073ffffffffffffffffffffffffffffffffffffffff82169050919050565b6000819050919050565b60006109a66109a161099c84610961565b610981565b610961565b9050919050565b60006109b88261098b565b9050919050565b60006109ca826109ad565b9050919050565b6109da816109bf565b82525050565b60006020820190506109f560008301846109d1565b92915050565b600060208284031215610a1157610a106108e1565b5b6000610a1f8482850161090c565b91505092915050565b600081519050919050565b600082825260208201905092915050565b6000819050602082019050919050565b610a5d816108eb565b82525050565b6000610a6f8383610a54565b60208301905092915050565b6000602082019050919050565b6000610a9382610a28565b610a9d8185610a33565b9350610aa883610a44565b8060005b83811015610ad9578151610ac08882610a63565b9750610acb83610a7b565b925050600181019050610aac565b5085935050505092915050565b60006020820190508181036000830152610b008184610a88565b905092915050565b7f4e487b7100000000000000000000000000000000000000000000000000000000600052604160045260246000fd5b6000610b4282610961565b9050919050565b610b5281610b37565b8114610b5d57600080fd5b50565b600081519050610b6f81610b49565b92915050565b600060208284031215610b8b57610b8a6108e1565b5b6000610b9984828501610b60565b91505092915050565b7f4e487b7100000000000000000000000000000000000000000000000000000000600052603260045260246000fd5b610bda816108eb565b82525050565b600081519050919050565b600082825260208201905092915050565b6000819050602082019050919050565b610c1581610b37565b82525050565b6000610c278383610c0c565b60208301905092915050565b6000602082019050919050565b6000610c4b82610be0565b610c558185610beb565b9350610c6083610bfc565b8060005b83811015610c91578151610c788882610c1b565b9750610c8383610c33565b925050600181019050610c64565b5085935050505092915050565b610ca781610b37565b82525050565b6000608082019050610cc26000830187610bd1565b8181036020830152610cd48186610c40565b9050610ce36040830185610c9e565b610cf06060830184610bd1565b95945050505050565b600080fd5b6000601f19601f8301169050919050565b610d1882610cfe565b810181811067ffffffffffffffff82111715610d3757610d36610b08565b5b80604052505050565b6000610d4a6108d7565b9050610d568282610d0f565b919050565b600067ffffffffffffffff821115610d7657610d75610b08565b5b602082029050602081019050919050565b600080fd5b600081519050610d9b816108f5565b92915050565b6000610db4610daf84610d5b565b610d40565b90508083825260208201905060208402830185811115610dd757610dd6610d87565b5b835b81811015610e005780610dec8882610d8c565b845260208401935050602081019050610dd9565b5050509392505050565b600082601f830112610e1f57610e1e610cf9565b5b8151610e2f848260208601610da1565b91505092915050565b600060208284031215610e4e57610e4d6108e1565b5b600082015167ffffffffffffffff811115610e6c57610e6b6108e6565b5b610e7884828501610e0a565b91505092915050565b600081905092915050565b50565b6000610e9c600083610e81565b9150610ea782610e8c565b600082019050919050565b6000610ebd82610e8f565b9150819050919050565b600082825260208201905092915050565b7f7a6f6e756c6574207a617020524f534520726566756e64206661696c65640000600082015250565b6000610f0e601e83610ec7565b9150610f1982610ed8565b602082019050919050565b60006020820190508181036000830152610f3d81610f01565b9050919050565b6000604082019050610f596000830185610bd1565b8181036020830152610f6b8184610c40565b9050939250505056fea2646970667358221220d5b5d8f10ccce21524a27404670cbdd1fb1d429e7baa7298f38919efec0eacec64736f6c63430008120033",
  "immutableReferences": {},
  "source": "//              \r\n//           \r\n//                        \r\n//                       \r\n//        \r\n//                                                                        \r\n// zonulet.io\r\n// SPDX-License-Identifier: MIT\r\n\r\n// File: https://github.com/Uniswap/uniswap-v2-periphery/blob/master/contracts/interfaces/IUniswapV2Router01.sol\r\n\r\npragma solidity >=0.6.2;\r\n\r\ninterface IUniswapV2Router01 {\r\n    function factory() external pure returns (address);\r\n    function WETH() external pure returns (address);\r\n\r\n    function addLiquidity(\r\n        address tokenA,\r\n        address tokenB,\r\n        uint amountADesired,\r\n        uint amountBDesired,\r\n        uint amountAMin,\r\n        uint amountBMin,\r\n        address to,\r\n        uint deadline\r\n    ) external returns (uint amountA, uint amountB, uint liquidity);\r\n    function addLiquidityETH(\r\n        address token,\r\n        uint amountTokenDesired,\r\n        uint amountTokenMin,\r\n        uint amountETHMin,\r\n        address to,\r\n        uint deadline\r\n    ) external payable returns (uint amountToken, uint amountETH, uint liquidity);\r\n    function removeLiquidity(\r\n        address tokenA,\r\n        address tokenB,\r\n        uint liquidity,\r\n        uint amountAMin,\r\n        uint amountBMin,\r\n        address to,\r\n        uint deadline\r\n    ) external returns (uint amountA, uint amountB);\r\n    function removeLiquidityETH(\r\n        address token,\r\n        uint liquidity,\r\n        uint amountTokenMin,\r\n        uint amountETHMin,\r\n        address to,\r\n        uint deadline\r\n    ) external returns (uint amountToken, uint amountETH);\r\n    function removeLiquidityWithPermit(\r\n        address tokenA,\r\n        address tokenB,\r\n        uint liquidity,\r\n        uint amountAMin,\r\n        uint amountBMin,\r\n        address to,\r\n        uint deadline,\r\n        bool approveMax, uint8 v, bytes32 r, bytes32 s\r\n    ) external returns (uint amountA, uint amountB);\r\n    function removeLiquidityETHWithPermit(\r\n        address token,\r\n        uint liquidity,\r\n        uint amountTokenMin,\r\n        uint amountETHMin,\r\n        address to,\r\n        uint deadline,\r\n        bool approveMax, uint8 v, bytes32 r, bytes32 s\r\n    ) external returns (uint amountToken, uint amountETH);\r\n    function swapExactTokensForTokens(\r\n        uint amountIn,\r\n        uint amountOutMin,\r\n        address[] calldata path,\r\n        address to,\r\n        uint deadline\r\n    ) external returns (uint[] memory amounts);\r\n    function swapTokensForExactTokens(\r\n        uint amountOut,\r\n        uint amountInMax,\r\n        address[] calldata path,\r\n        address to,\r\n        uint deadline\r\n    ) external returns (uint[] memory amounts);\r\n    function swapExactETHForTokens(uint amountOutMin, address[] calldata path, address to, uint deadline)\r\n        external\r\n        payable\r\n        returns (uint[] memory amounts);\r\n    function swapTokensForExactETH(uint amountOut, uint amountInMax, address[] calldata path, address to, uint deadline)\r\n        external\r\n        returns (uint[] memory amounts);\r\n    function swapExactTokensForETH(uint amountIn, uint amountOutMin, address[] calldata path, address to, uint deadline)\r\n        external\r\n        returns (uint[] memory amounts);\r\n    function swapETHForExactTokens(uint amountOut, address[] calldata path, address to, uint deadline)\r\n        external\r\n        payable\r\n        returns (uint[] memory amounts);\r\n\r\n    function quote(uint amountA, uint reserveA, uint reserveB) external pure returns (uint amountB);\r\n    function getAmountOut(uint amountIn, uint reserveIn, uint reserveOut) external pure returns (uint amountOut);\r\n    function getAmountIn(uint amountOut, uint reserveIn, uint reserveOut) external pure returns (uint amountIn);\r\n    function getAmountsOut(uint amountIn, address[] calldata path) external view returns (uint[] memory amounts);\r\n    function getAmountsIn(uint amountOut, address[] calldata path) external view returns (uint[] memory amounts);\r\n}\r\n\r\n// File: https://github.com/Uniswap/uniswap-v2-periphery/blob/master/contracts/interfaces/IUniswapV2Router02.sol\r\n\r\npragma solidity >=0.6.2;\r\n\r\n\r\ninterface IUniswapV2Router02 is IUniswapV2Router01 {\r\n    function removeLiquidityETHSupportingFeeOnTransferTokens(\r\n        address token,\r\n        uint liquidity,\r\n        uint amountTokenMin,\r\n        uint amountETHMin,\r\n        address to,\r\n        uint deadline\r\n    ) external returns (uint amountETH);\r\n    function removeLiquidityETHWithPermitSupportingFeeOnTransferTokens(\r\n        address token,\r\n        uint liquidity,\r\n        uint amountTokenMin,\r\n        uint amountETHMin,\r\n        address to,\r\n        uint deadline,\r\n        bool approveMax, uint8 v, bytes32 r, bytes32 s\r\n    ) external returns (uint amountETH);\r\n\r\n    function swapExactTokensForTokensSupportingFeeOnTransferTokens(\r\n        uint amountIn,\r\n        uint amountOutMin,\r\n        address[] calldata path,\r\n        address to,\r\n        uint deadline\r\n    ) external;\r\n    function swapExactETHForTokensSupportingFeeOnTransferTokens(\r\n        uint amountOutMin,\r\n        address[] calldata path,\r\n        address to,\r\n        uint deadline\r\n    ) external payable;\r\n    function swapExactTokensForETHSupportingFeeOnTransferTokens(\r\n        uint amountIn,\r\n        uint amountOutMin,\r\n        address[] calldata path,\r\n        address to,\r\n        uint deadline\r\n    ) external;\r\n}\r\n\r\n// File: ZonuletZDEX.sol\r\n\r\npragma solidity >0.8.0;\r\n\r\ncontract ZonuletZDEX {\r\n  address internal constant UNISWAP_ROUTER_ADDRESS = 0x590eaD7F6Ef611db78347EdF8906B7CA46388609; //  Router\r\n\r\n  IUniswapV2Router02 public uniswapRouter;\r\n  address private zonu = 0x216eD590Cb7Ec3417CAb82699ae493522fECf580;\r\n\r\n  constructor() {\r\n    uniswapRouter = IUniswapV2Router02(UNISWAP_ROUTER_ADDRESS);\r\n  }\r\n  \r\n  function zonulet(uint zonuAmount, uint deadline) public payable {\r\n    address[] memory path = new address[](2);\r\n    path[0] = uniswapRouter.WETH();\r\n    path[1] = zonu;\r\n\r\n    uniswapRouter.swapETHForExactTokens{ value: msg.value }(zonuAmount, path, msg.sender, deadline);\r\n    \r\n    // refund leftover ROSE to user\r\n    (bool success,) = msg.sender.call{ value: address(this).balance }(\"\");\r\n    require(success, \"zonulet zap ROSE refund failed\");\r\n  }\r\n  \r\n  function getEstimatedMANTLEforZONU(uint zonuAmount) public view returns (uint[] memory) {\r\n    return uniswapRouter.getAmountsIn(zonuAmount, getPathForMANTLEtoZONU());\r\n  }\r\n  \r\n    function getEstimatedZONUforMANTLE(uint roseAmount) public view returns (uint[] memory) {\r\n    return uniswapRouter.getAmountsOut(roseAmount, getPathForZONUtoMANTLE());\r\n  }\r\n\r\n  function getPathForMANTLEtoZONU() private view returns (address[] memory) {\r\n    address[] memory path = new address[](2);\r\n    path[0] = uniswapRouter.WETH();\r\n    path[1] = zonu;\r\n    \r\n    return path;\r\n  }\r\n  \r\n  function getPathForZONUtoMANTLE() private view returns (address[] memory) {\r\n    address[] memory path = new address[](2);\r\n    path[1] = zonu;\r\n    path[0] = uniswapRouter.WETH();\r\n    \r\n    return path;\r\n  }\r\n  \r\n  // important to receive ETH\r\n  receive() payable external {}\r\n}",
  "sourcePath": "/mnt/e/ETH-DENVER/INFURA/truffle/contracts/ZonuletZDEX.sol",
  "compiler": {
    "name": "solc",
    "version": "0.8.18+commit.87f61d96.Emscripten.clang"
  },
  "schemaVersion": "3.4.12",
  "updatedAt": "2023-02-26T03:31:51.865Z",
  "networkType": "ethereum",
  "devdoc": {
    "kind": "dev",
    "methods": {},
    "version": 1
  },
  "userdoc": {
    "kind": "user",
    "methods": {},
    "version": 1
  }
}