{
  "contractName": "ZonuletBlacklist",
  "abi": [
    {
      "inputs": [],
      "stateMutability": "nonpayable",
      "type": "constructor"
    },
    {
      "anonymous": false,
      "inputs": [
        {
          "indexed": true,
          "internalType": "address",
          "name": "hashAddress",
          "type": "address"
        },
        {
          "indexed": false,
          "internalType": "bool",
          "name": "blacklisted",
          "type": "bool"
        }
      ],
      "name": "SetBlackListedAddress",
      "type": "event"
    },
    {
      "anonymous": false,
      "inputs": [
        {
          "indexed": true,
          "internalType": "uint256",
          "name": "nftID",
          "type": "uint256"
        },
        {
          "indexed": false,
          "internalType": "bool",
          "name": "blacklisted",
          "type": "bool"
        }
      ],
      "name": "SetBlackListedNFT",
      "type": "event"
    },
    {
      "inputs": [
        {
          "internalType": "uint256",
          "name": "",
          "type": "uint256"
        }
      ],
      "name": "idupdates",
      "outputs": [
        {
          "internalType": "uint256",
          "name": "",
          "type": "uint256"
        }
      ],
      "stateMutability": "view",
      "type": "function",
      "constant": true
    },
    {
      "inputs": [],
      "name": "owner",
      "outputs": [
        {
          "internalType": "address",
          "name": "",
          "type": "address"
        }
      ],
      "stateMutability": "view",
      "type": "function",
      "constant": true
    },
    {
      "inputs": [
        {
          "internalType": "uint256",
          "name": "",
          "type": "uint256"
        }
      ],
      "name": "updates",
      "outputs": [
        {
          "internalType": "address",
          "name": "",
          "type": "address"
        }
      ],
      "stateMutability": "view",
      "type": "function",
      "constant": true
    },
    {
      "inputs": [
        {
          "internalType": "address",
          "name": "addy",
          "type": "address"
        },
        {
          "internalType": "bool",
          "name": "blacklisted",
          "type": "bool"
        }
      ],
      "name": "setBlackListedAddress",
      "outputs": [],
      "stateMutability": "nonpayable",
      "type": "function"
    },
    {
      "inputs": [
        {
          "internalType": "uint256",
          "name": "nftID",
          "type": "uint256"
        },
        {
          "internalType": "bool",
          "name": "blacklisted",
          "type": "bool"
        }
      ],
      "name": "setBlackListedNFT",
      "outputs": [],
      "stateMutability": "nonpayable",
      "type": "function"
    },
    {
      "inputs": [
        {
          "internalType": "address",
          "name": "blAddress",
          "type": "address"
        }
      ],
      "name": "getBlackListedAddress",
      "outputs": [
        {
          "internalType": "bool",
          "name": "",
          "type": "bool"
        }
      ],
      "stateMutability": "view",
      "type": "function",
      "constant": true
    },
    {
      "inputs": [
        {
          "internalType": "uint256",
          "name": "nftID",
          "type": "uint256"
        }
      ],
      "name": "getBlackListedNFT",
      "outputs": [
        {
          "internalType": "bool",
          "name": "",
          "type": "bool"
        }
      ],
      "stateMutability": "view",
      "type": "function",
      "constant": true
    },
    {
      "inputs": [],
      "name": "AddyCount",
      "outputs": [
        {
          "internalType": "uint256",
          "name": "",
          "type": "uint256"
        }
      ],
      "stateMutability": "view",
      "type": "function",
      "constant": true
    },
    {
      "inputs": [],
      "name": "IDCount",
      "outputs": [
        {
          "internalType": "uint256",
          "name": "",
          "type": "uint256"
        }
      ],
      "stateMutability": "view",
      "type": "function",
      "constant": true
    }
  ],
  "bytecode": "0x608060405234801561001057600080fd5b5033600460006101000a81548173ffffffffffffffffffffffffffffffffffffffff021916908373ffffffffffffffffffffffffffffffffffffffff1602179055506107ba806100616000396000f3fe608060405234801561001057600080fd5b50600436106100935760003560e01c8063c31d497811610066578063c31d497814610120578063c4b82ced14610150578063d51756d114610180578063e49de1641461019e578063eb2f6657146101ba57610093565b806302d4e4a514610098578063262acdd6146100b65780638da5cb5b146100d2578063b4c2f727146100f0575b600080fd5b6100a06101ea565b6040516100ad9190610574565b60405180910390f35b6100d060048036038101906100cb919061062a565b6101f7565b005b6100da61035c565b6040516100e79190610679565b60405180910390f35b61010a600480360381019061010591906106c0565b610382565b6040516101179190610679565b60405180910390f35b61013a600480360381019061013591906106c0565b6103c1565b6040516101479190610574565b60405180910390f35b61016a600480360381019061016591906106c0565b6103e5565b60405161017791906106fc565b60405180910390f35b61018861040f565b6040516101959190610574565b60405180910390f35b6101b860048036038101906101b39190610717565b61041c565b005b6101d460048036038101906101cf9190610757565b610506565b6040516101e191906106fc565b60405180910390f35b6000600280549050905090565b600460009054906101000a900473ffffffffffffffffffffffffffffffffffffffff1673ffffffffffffffffffffffffffffffffffffffff163373ffffffffffffffffffffffffffffffffffffffff161461025157600080fd5b6002829080600181540180825580915050600190039060005260206000200160009091909190916101000a81548173ffffffffffffffffffffffffffffffffffffffff021916908373ffffffffffffffffffffffffffffffffffffffff160217905550806000808473ffffffffffffffffffffffffffffffffffffffff1673ffffffffffffffffffffffffffffffffffffffff16815260200190815260200160002060006101000a81548160ff0219169083151502179055508173ffffffffffffffffffffffffffffffffffffffff167f2c04beadb1bf14656d5ffec10e6441acac147e3cc32e4a1c1212ea66025cce218260405161035091906106fc565b60405180910390a25050565b600460009054906101000a900473ffffffffffffffffffffffffffffffffffffffff1681565b6002818154811061039257600080fd5b906000526020600020016000915054906101000a900473ffffffffffffffffffffffffffffffffffffffff1681565b600381815481106103d157600080fd5b906000526020600020016000915090505481565b60006001600083815260200190815260200160002060009054906101000a900460ff169050919050565b6000600380549050905090565b600460009054906101000a900473ffffffffffffffffffffffffffffffffffffffff1673ffffffffffffffffffffffffffffffffffffffff163373ffffffffffffffffffffffffffffffffffffffff161461047657600080fd5b6003829080600181540180825580915050600190039060005260206000200160009091909190915055806001600084815260200190815260200160002060006101000a81548160ff021916908315150217905550817fd6c6abec4fa0c09cb72b272239f57046acb4b941be66c8fe6cf027db2f2082f6826040516104fa91906106fc565b60405180910390a25050565b60008060008373ffffffffffffffffffffffffffffffffffffffff1673ffffffffffffffffffffffffffffffffffffffff16815260200190815260200160002060009054906101000a900460ff169050919050565b6000819050919050565b61056e8161055b565b82525050565b60006020820190506105896000830184610565565b92915050565b600080fd5b600073ffffffffffffffffffffffffffffffffffffffff82169050919050565b60006105bf82610594565b9050919050565b6105cf816105b4565b81146105da57600080fd5b50565b6000813590506105ec816105c6565b92915050565b60008115159050919050565b610607816105f2565b811461061257600080fd5b50565b600081359050610624816105fe565b92915050565b600080604083850312156106415761064061058f565b5b600061064f858286016105dd565b925050602061066085828601610615565b9150509250929050565b610673816105b4565b82525050565b600060208201905061068e600083018461066a565b92915050565b61069d8161055b565b81146106a857600080fd5b50565b6000813590506106ba81610694565b92915050565b6000602082840312156106d6576106d561058f565b5b60006106e4848285016106ab565b91505092915050565b6106f6816105f2565b82525050565b600060208201905061071160008301846106ed565b92915050565b6000806040838503121561072e5761072d61058f565b5b600061073c858286016106ab565b925050602061074d85828601610615565b9150509250929050565b60006020828403121561076d5761076c61058f565b5b600061077b848285016105dd565b9150509291505056fea2646970667358221220937dd2dbf0af42d94df5cd418b9600de1e90e3213defc33e2fac38d4dc04a41364736f6c63430008120033",
  "immutableReferences": {},
  "source": "//              \r\n//           \r\n//                        \r\n//                       \r\n//        \r\n//                                                                        \r\n// zonulet.io\r\n// SPDX-License-Identifier: MIT\r\n\r\npragma solidity ^0.8.0;\r\n\r\ncontract ZonuletBlacklist {\r\n    \r\n    mapping (address => bool) private blacklistedaddy;\r\n    \r\n    mapping (uint => bool) private blacklistedid;\r\n    \r\n    address[] public updates;\r\n    \r\n    uint[] public idupdates;\r\n\r\n    event SetBlackListedAddress(address indexed hashAddress, bool blacklisted);\r\n    \r\n    event SetBlackListedNFT(uint indexed nftID, bool blacklisted);\r\n    \r\n    address public owner;\r\n\r\n    constructor ()  {\r\n       owner = msg.sender;\r\n    }\r\n\r\n    modifier onlyOwner() {\r\n        require(msg.sender == owner);\r\n        _;\r\n    }\r\n\r\n    function setBlackListedAddress(address addy, bool blacklisted) public onlyOwner {\r\n        \r\n        updates.push(addy);\r\n        \r\n        blacklistedaddy[addy] = blacklisted;\r\n\r\n        emit SetBlackListedAddress(addy, blacklisted);\r\n    }\r\n    \r\n    function setBlackListedNFT(uint nftID, bool blacklisted) public onlyOwner {\r\n        \r\n        idupdates.push(nftID);\r\n        \r\n        blacklistedid[nftID] = blacklisted;\r\n\r\n        emit SetBlackListedNFT(nftID, blacklisted);\r\n    }\r\n\r\n    function getBlackListedAddress(address blAddress) public view returns (bool) {\r\n        return blacklistedaddy[blAddress];\r\n    }\r\n    \r\n    function getBlackListedNFT(uint nftID) public view returns (bool) {\r\n        return blacklistedid[nftID];\r\n    }\r\n    \r\n    function AddyCount() public view returns (uint) {\r\n        return updates.length;\r\n    }\r\n    \r\n    function IDCount() public view returns (uint) {\r\n        return idupdates.length;\r\n    }\r\n}",
  "sourcePath": "/mnt/e/ETH-DENVER/INFURA/truffle/contracts/ZonuletBlacklist.sol",
  "compiler": {
    "name": "solc",
    "version": "0.8.18+commit.87f61d96.Emscripten.clang"
  },
  "schemaVersion": "3.4.12",
  "updatedAt": "2023-02-26T03:31:51.828Z",
  "networkType": "ethereum",
  "devdoc": {
    "kind": "dev",
    "methods": {},
    "version": 1
  },
  "userdoc": {
    "kind": "user",
    "methods": {},
    "version": 1
  }
}