{
  "contractName": "ZonuletAvatars",
  "abi": [
    {
      "anonymous": false,
      "inputs": [
        {
          "indexed": true,
          "internalType": "address",
          "name": "hashAddress",
          "type": "address"
        },
        {
          "indexed": false,
          "internalType": "string",
          "name": "hash",
          "type": "string"
        },
        {
          "indexed": false,
          "internalType": "string",
          "name": "mimetype",
          "type": "string"
        }
      ],
      "name": "SetAvatar",
      "type": "event"
    },
    {
      "inputs": [
        {
          "internalType": "uint256",
          "name": "",
          "type": "uint256"
        }
      ],
      "name": "updates",
      "outputs": [
        {
          "internalType": "address",
          "name": "",
          "type": "address"
        }
      ],
      "stateMutability": "view",
      "type": "function",
      "constant": true
    },
    {
      "inputs": [
        {
          "internalType": "string",
          "name": "hash",
          "type": "string"
        },
        {
          "internalType": "string",
          "name": "mimetype",
          "type": "string"
        },
        {
          "internalType": "string",
          "name": "name",
          "type": "string"
        },
        {
          "internalType": "string",
          "name": "bio",
          "type": "string"
        },
        {
          "internalType": "string",
          "name": "twitter",
          "type": "string"
        },
        {
          "internalType": "string",
          "name": "instagram",
          "type": "string"
        },
        {
          "internalType": "string",
          "name": "website",
          "type": "string"
        },
        {
          "internalType": "string",
          "name": "email",
          "type": "string"
        }
      ],
      "name": "setAvatar",
      "outputs": [],
      "stateMutability": "nonpayable",
      "type": "function"
    },
    {
      "inputs": [
        {
          "internalType": "address",
          "name": "hashAddress",
          "type": "address"
        }
      ],
      "name": "getIPFSHash",
      "outputs": [
        {
          "internalType": "string",
          "name": "",
          "type": "string"
        }
      ],
      "stateMutability": "view",
      "type": "function",
      "constant": true
    },
    {
      "inputs": [
        {
          "internalType": "address",
          "name": "hashAddress",
          "type": "address"
        }
      ],
      "name": "getMIMEType",
      "outputs": [
        {
          "internalType": "string",
          "name": "",
          "type": "string"
        }
      ],
      "stateMutability": "view",
      "type": "function",
      "constant": true
    },
    {
      "inputs": [
        {
          "internalType": "address",
          "name": "hashAddress",
          "type": "address"
        }
      ],
      "name": "getName",
      "outputs": [
        {
          "internalType": "string",
          "name": "",
          "type": "string"
        }
      ],
      "stateMutability": "view",
      "type": "function",
      "constant": true
    },
    {
      "inputs": [
        {
          "internalType": "address",
          "name": "hashAddress",
          "type": "address"
        }
      ],
      "name": "getBio",
      "outputs": [
        {
          "internalType": "string",
          "name": "",
          "type": "string"
        }
      ],
      "stateMutability": "view",
      "type": "function",
      "constant": true
    },
    {
      "inputs": [
        {
          "internalType": "address",
          "name": "hashAddress",
          "type": "address"
        }
      ],
      "name": "getTwitter",
      "outputs": [
        {
          "internalType": "string",
          "name": "",
          "type": "string"
        }
      ],
      "stateMutability": "view",
      "type": "function",
      "constant": true
    },
    {
      "inputs": [
        {
          "internalType": "address",
          "name": "hashAddress",
          "type": "address"
        }
      ],
      "name": "getInstagram",
      "outputs": [
        {
          "internalType": "string",
          "name": "",
          "type": "string"
        }
      ],
      "stateMutability": "view",
      "type": "function",
      "constant": true
    },
    {
      "inputs": [
        {
          "internalType": "address",
          "name": "hashAddress",
          "type": "address"
        }
      ],
      "name": "getWebsite",
      "outputs": [
        {
          "internalType": "string",
          "name": "",
          "type": "string"
        }
      ],
      "stateMutability": "view",
      "type": "function",
      "constant": true
    },
    {
      "inputs": [
        {
          "internalType": "address",
          "name": "hashAddress",
          "type": "address"
        }
      ],
      "name": "getEmail",
      "outputs": [
        {
          "internalType": "string",
          "name": "",
          "type": "string"
        }
      ],
      "stateMutability": "view",
      "type": "function",
      "constant": true
    },
    {
      "inputs": [],
      "name": "UpdateCount",
      "outputs": [
        {
          "internalType": "uint256",
          "name": "",
          "type": "uint256"
        }
      ],
      "stateMutability": "view",
      "type": "function",
      "constant": true
    }
  ],
  "bytecode": "0x608060405234801561001057600080fd5b50611330806100206000396000f3fe608060405234801561001057600080fd5b50600436106100a95760003560e01c80638d179b86116100715780638d179b861461019e5780639df9cdf1146101bc578063b4c2f727146101ec578063c05e9dec1461021c578063cb0ab4251461024c578063f8e93bad1461027c576100a9565b806316356464146100ae57806329865e17146100de5780633fd0bf171461010e5780634fa7353c1461013e5780635fd4b08a1461016e575b600080fd5b6100c860048036038101906100c39190610e20565b610298565b6040516100d59190611082565b60405180910390f35b6100f860048036038101906100f39190610e20565b610369565b6040516101059190611082565b60405180910390f35b61012860048036038101906101239190610e20565b61043a565b6040516101359190611082565b60405180910390f35b61015860048036038101906101539190610e20565b61050b565b6040516101659190611082565b60405180910390f35b61018860048036038101906101839190610e20565b6105dc565b6040516101959190611082565b60405180910390f35b6101a66106ad565b6040516101b391906110db565b60405180910390f35b6101d660048036038101906101d19190610e20565b6106ba565b6040516101e39190611082565b60405180910390f35b61020660048036038101906102019190610fe3565b61078b565b6040516102139190611067565b60405180910390f35b61023660048036038101906102319190610e20565b6107ca565b6040516102439190611082565b60405180910390f35b61026660048036038101906102619190610e20565b61089b565b6040516102739190611082565b60405180910390f35b61029660048036038101906102919190610e4d565b61096b565b005b6060600160008373ffffffffffffffffffffffffffffffffffffffff1673ffffffffffffffffffffffffffffffffffffffff16815260200190815260200160002080546102e4906111e6565b80601f0160208091040260200160405190810160405280929190818152602001828054610310906111e6565b801561035d5780601f106103325761010080835404028352916020019161035d565b820191906000526020600020905b81548152906001019060200180831161034057829003601f168201915b50505050509050919050565b6060600460008373ffffffffffffffffffffffffffffffffffffffff1673ffffffffffffffffffffffffffffffffffffffff16815260200190815260200160002080546103b5906111e6565b80601f01602080910402602001604051908101604052809291908181526020018280546103e1906111e6565b801561042e5780601f106104035761010080835404028352916020019161042e565b820191906000526020600020905b81548152906001019060200180831161041157829003601f168201915b50505050509050919050565b6060600360008373ffffffffffffffffffffffffffffffffffffffff1673ffffffffffffffffffffffffffffffffffffffff1681526020019081526020016000208054610486906111e6565b80601f01602080910402602001604051908101604052809291908181526020018280546104b2906111e6565b80156104ff5780601f106104d4576101008083540402835291602001916104ff565b820191906000526020600020905b8154815290600101906020018083116104e257829003601f168201915b50505050509050919050565b6060600760008373ffffffffffffffffffffffffffffffffffffffff1673ffffffffffffffffffffffffffffffffffffffff1681526020019081526020016000208054610557906111e6565b80601f0160208091040260200160405190810160405280929190818152602001828054610583906111e6565b80156105d05780601f106105a5576101008083540402835291602001916105d0565b820191906000526020600020905b8154815290600101906020018083116105b357829003601f168201915b50505050509050919050565b6060600260008373ffffffffffffffffffffffffffffffffffffffff1673ffffffffffffffffffffffffffffffffffffffff1681526020019081526020016000208054610628906111e6565b80601f0160208091040260200160405190810160405280929190818152602001828054610654906111e6565b80156106a15780601f10610676576101008083540402835291602001916106a1565b820191906000526020600020905b81548152906001019060200180831161068457829003601f168201915b50505050509050919050565b6000600880549050905090565b6060600560008373ffffffffffffffffffffffffffffffffffffffff1673ffffffffffffffffffffffffffffffffffffffff1681526020019081526020016000208054610706906111e6565b80601f0160208091040260200160405190810160405280929190818152602001828054610732906111e6565b801561077f5780601f106107545761010080835404028352916020019161077f565b820191906000526020600020905b81548152906001019060200180831161076257829003601f168201915b50505050509050919050565b6008818154811061079b57600080fd5b906000526020600020016000915054906101000a900473ffffffffffffffffffffffffffffffffffffffff1681565b6060600660008373ffffffffffffffffffffffffffffffffffffffff1673ffffffffffffffffffffffffffffffffffffffff1681526020019081526020016000208054610816906111e6565b80601f0160208091040260200160405190810160405280929190818152602001828054610842906111e6565b801561088f5780601f106108645761010080835404028352916020019161088f565b820191906000526020600020905b81548152906001019060200180831161087257829003601f168201915b50505050509050919050565b60606000808373ffffffffffffffffffffffffffffffffffffffff1673ffffffffffffffffffffffffffffffffffffffff16815260200190815260200160002080546108e6906111e6565b80601f0160208091040260200160405190810160405280929190818152602001828054610912906111e6565b801561095f5780601f106109345761010080835404028352916020019161095f565b820191906000526020600020905b81548152906001019060200180831161094257829003601f168201915b50505050509050919050565b602e88511461097957600080fd5b600087511161098757600080fd5b6008339080600181540180825580915050600190039060005260206000200160009091909190916101000a81548173ffffffffffffffffffffffffffffffffffffffff021916908373ffffffffffffffffffffffffffffffffffffffff160217905550876000803373ffffffffffffffffffffffffffffffffffffffff1673ffffffffffffffffffffffffffffffffffffffff1681526020019081526020016000209080519060200190610a3c929190610ce3565b5086600160003373ffffffffffffffffffffffffffffffffffffffff1673ffffffffffffffffffffffffffffffffffffffff1681526020019081526020016000209080519060200190610a90929190610ce3565b5085600260003373ffffffffffffffffffffffffffffffffffffffff1673ffffffffffffffffffffffffffffffffffffffff1681526020019081526020016000209080519060200190610ae4929190610ce3565b5084600360003373ffffffffffffffffffffffffffffffffffffffff1673ffffffffffffffffffffffffffffffffffffffff1681526020019081526020016000209080519060200190610b38929190610ce3565b5083600460003373ffffffffffffffffffffffffffffffffffffffff1673ffffffffffffffffffffffffffffffffffffffff1681526020019081526020016000209080519060200190610b8c929190610ce3565b5080600760003373ffffffffffffffffffffffffffffffffffffffff1673ffffffffffffffffffffffffffffffffffffffff1681526020019081526020016000209080519060200190610be0929190610ce3565b5082600560003373ffffffffffffffffffffffffffffffffffffffff1673ffffffffffffffffffffffffffffffffffffffff1681526020019081526020016000209080519060200190610c34929190610ce3565b5081600660003373ffffffffffffffffffffffffffffffffffffffff1673ffffffffffffffffffffffffffffffffffffffff1681526020019081526020016000209080519060200190610c88929190610ce3565b503373ffffffffffffffffffffffffffffffffffffffff167fe95887b385db7c01adb9b3e5778ff748421592afd4743e205be1f5153e7bf75f8989604051610cd19291906110a4565b60405180910390a25050505050505050565b828054610cef906111e6565b90600052602060002090601f016020900481019282610d115760008555610d58565b82601f10610d2a57805160ff1916838001178555610d58565b82800160010185558215610d58579182015b82811115610d57578251825591602001919060010190610d3c565b5b509050610d659190610d69565b5090565b5b80821115610d82576000816000905550600101610d6a565b5090565b6000610d99610d948461111b565b6110f6565b905082815260208101848484011115610db557610db46112ac565b5b610dc08482856111a4565b509392505050565b600081359050610dd7816112cc565b92915050565b600082601f830112610df257610df16112a7565b5b8135610e02848260208601610d86565b91505092915050565b600081359050610e1a816112e3565b92915050565b600060208284031215610e3657610e356112b6565b5b6000610e4484828501610dc8565b91505092915050565b600080600080600080600080610100898b031215610e6e57610e6d6112b6565b5b600089013567ffffffffffffffff811115610e8c57610e8b6112b1565b5b610e988b828c01610ddd565b985050602089013567ffffffffffffffff811115610eb957610eb86112b1565b5b610ec58b828c01610ddd565b975050604089013567ffffffffffffffff811115610ee657610ee56112b1565b5b610ef28b828c01610ddd565b965050606089013567ffffffffffffffff811115610f1357610f126112b1565b5b610f1f8b828c01610ddd565b955050608089013567ffffffffffffffff811115610f4057610f3f6112b1565b5b610f4c8b828c01610ddd565b94505060a089013567ffffffffffffffff811115610f6d57610f6c6112b1565b5b610f798b828c01610ddd565b93505060c089013567ffffffffffffffff811115610f9a57610f996112b1565b5b610fa68b828c01610ddd565b92505060e089013567ffffffffffffffff811115610fc757610fc66112b1565b5b610fd38b828c01610ddd565b9150509295985092959890939650565b600060208284031215610ff957610ff86112b6565b5b600061100784828501610e0b565b91505092915050565b61101981611168565b82525050565b600061102a8261114c565b6110348185611157565b93506110448185602086016111b3565b61104d816112bb565b840191505092915050565b6110618161119a565b82525050565b600060208201905061107c6000830184611010565b92915050565b6000602082019050818103600083015261109c818461101f565b905092915050565b600060408201905081810360008301526110be818561101f565b905081810360208301526110d2818461101f565b90509392505050565b60006020820190506110f06000830184611058565b92915050565b6000611100611111565b905061110c8282611218565b919050565b6000604051905090565b600067ffffffffffffffff82111561113657611135611278565b5b61113f826112bb565b9050602081019050919050565b600081519050919050565b600082825260208201905092915050565b60006111738261117a565b9050919050565b600073ffffffffffffffffffffffffffffffffffffffff82169050919050565b6000819050919050565b82818337600083830152505050565b60005b838110156111d15780820151818401526020810190506111b6565b838111156111e0576000848401525b50505050565b600060028204905060018216806111fe57607f821691505b6020821081141561121257611211611249565b5b50919050565b611221826112bb565b810181811067ffffffffffffffff821117156112405761123f611278565b5b80604052505050565b7f4e487b7100000000000000000000000000000000000000000000000000000000600052602260045260246000fd5b7f4e487b7100000000000000000000000000000000000000000000000000000000600052604160045260246000fd5b600080fd5b600080fd5b600080fd5b600080fd5b6000601f19601f8301169050919050565b6112d581611168565b81146112e057600080fd5b50565b6112ec8161119a565b81146112f757600080fd5b5056fea2646970667358221220fceac1a27301651ef5908b3e843bc8e8cb6c6d7c27c53a5e3724f03ad8137d6764736f6c63430008070033",
  "immutableReferences": {},
  "source": "//              \n//           \n//                        \n//                       \n//        \n//                                                                        \n// SPDX-License-Identifier: MIT\n\npragma solidity ^0.8.0;\n\ncontract ZonuletAvatars {\n    mapping (address => string) private ipfsHashes;\n    mapping (address => string) private mimeTypes;\n    mapping (address => string) private names;\n    mapping (address => string) private bios;\n    mapping (address => string) private twitters;\n    mapping (address => string) private instagrams;\n    mapping (address => string) private websites;\n    mapping (address => string) private emails;\n\n    \n    address[] public updates;\n\n    event SetAvatar(address indexed hashAddress, string hash, string mimetype);\n\n    function setAvatar(\n        string memory hash, \n        string memory mimetype, \n        string memory name, \n        string memory bio, \n        string memory twitter, \n        string memory instagram, \n        string memory website, \n        string memory email) public {\n        require(bytes(hash).length == 46);\n        require(bytes(mimetype).length > 0);\n        \n        updates.push(msg.sender);\n        \n        ipfsHashes[msg.sender] = hash;\n        mimeTypes[msg.sender] = mimetype;\n        names[msg.sender] = name;\n        bios[msg.sender] = bio;\n        twitters[msg.sender] = twitter;\n        emails[msg.sender] = email;\n        instagrams[msg.sender] = instagram;\n        websites[msg.sender] = website;\n\n        emit SetAvatar(msg.sender, hash, mimetype);\n    }\n\n    function getIPFSHash(address hashAddress) public view returns (string memory) {\n        return ipfsHashes[hashAddress];\n    }\n\n    function getMIMEType(address hashAddress) public view returns (string memory) {\n        return mimeTypes[hashAddress];\n    }\n    \n    function getName(address hashAddress) public view returns (string memory) {\n        return names[hashAddress];\n    }\n    \n    function getBio(address hashAddress) public view returns (string memory) {\n        return bios[hashAddress];\n    }\n    \n    function getTwitter(address hashAddress) public view returns (string memory) {\n        return twitters[hashAddress];\n    }\n\n    function getInstagram(address hashAddress) public view returns (string memory) {\n        return instagrams[hashAddress];\n    }\n\n    function getWebsite(address hashAddress) public view returns (string memory) {\n        return websites[hashAddress];\n    }   \n\n    function getEmail(address hashAddress) public view returns (string memory) {\n        return emails[hashAddress];\n    }\n\n    function UpdateCount() public view returns (uint) {\n        return updates.length;\n    }\n}",
  "sourcePath": "/mnt/d/MANTLE-HACKATHON/Frontend-v1/src/contracts/ZonuletAvatars.sol",
  "compiler": {
    "name": "solc",
    "version": "0.8.7+commit.e28d00a7.Emscripten.clang"
  },
  "schemaVersion": "3.4.11",
  "updatedAt": "2023-02-14T10:20:11.746Z",
  "networkType": "ethereum",
  "devdoc": {
    "kind": "dev",
    "methods": {},
    "version": 1
  },
  "userdoc": {
    "kind": "user",
    "methods": {},
    "version": 1
  }
}