{
  "contractName": "ZonuletNFTAds",
  "abi": [
    {
      "inputs": [
        {
          "internalType": "contract ZonuletNFT",
          "name": "_zonuletNFT",
          "type": "address"
        }
      ],
      "stateMutability": "nonpayable",
      "type": "constructor"
    },
    {
      "anonymous": false,
      "inputs": [
        {
          "indexed": false,
          "internalType": "uint256",
          "name": "_tokenId",
          "type": "uint256"
        },
        {
          "indexed": false,
          "internalType": "uint256",
          "name": "_adId",
          "type": "uint256"
        },
        {
          "indexed": false,
          "internalType": "address",
          "name": "_buyer",
          "type": "address"
        },
        {
          "indexed": false,
          "internalType": "uint256",
          "name": "_timestamp",
          "type": "uint256"
        },
        {
          "indexed": false,
          "internalType": "uint256",
          "name": "_until",
          "type": "uint256"
        }
      ],
      "name": "NewAdvertisement",
      "type": "event"
    },
    {
      "inputs": [],
      "name": "ZONU",
      "outputs": [
        {
          "internalType": "address",
          "name": "",
          "type": "address"
        }
      ],
      "stateMutability": "view",
      "type": "function",
      "constant": true
    },
    {
      "inputs": [
        {
          "internalType": "uint256",
          "name": "",
          "type": "uint256"
        }
      ],
      "name": "adOwnerList",
      "outputs": [
        {
          "internalType": "uint256",
          "name": "adId",
          "type": "uint256"
        },
        {
          "internalType": "uint256",
          "name": "nftId",
          "type": "uint256"
        },
        {
          "internalType": "address",
          "name": "buyer",
          "type": "address"
        },
        {
          "internalType": "uint256",
          "name": "timestamp",
          "type": "uint256"
        },
        {
          "internalType": "uint256",
          "name": "until",
          "type": "uint256"
        }
      ],
      "stateMutability": "view",
      "type": "function",
      "constant": true
    },
    {
      "inputs": [
        {
          "internalType": "address",
          "name": "",
          "type": "address"
        }
      ],
      "name": "adOwners",
      "outputs": [
        {
          "internalType": "uint256",
          "name": "adId",
          "type": "uint256"
        },
        {
          "internalType": "uint256",
          "name": "nftId",
          "type": "uint256"
        },
        {
          "internalType": "address",
          "name": "buyer",
          "type": "address"
        },
        {
          "internalType": "uint256",
          "name": "timestamp",
          "type": "uint256"
        },
        {
          "internalType": "uint256",
          "name": "until",
          "type": "uint256"
        }
      ],
      "stateMutability": "view",
      "type": "function",
      "constant": true
    },
    {
      "inputs": [
        {
          "internalType": "uint256",
          "name": "",
          "type": "uint256"
        }
      ],
      "name": "ads",
      "outputs": [
        {
          "internalType": "uint256",
          "name": "adId",
          "type": "uint256"
        },
        {
          "internalType": "uint256",
          "name": "upvotes",
          "type": "uint256"
        },
        {
          "internalType": "uint256",
          "name": "nftId",
          "type": "uint256"
        },
        {
          "internalType": "address",
          "name": "buyer",
          "type": "address"
        },
        {
          "internalType": "uint256",
          "name": "timestamp",
          "type": "uint256"
        },
        {
          "internalType": "uint256",
          "name": "until",
          "type": "uint256"
        }
      ],
      "stateMutability": "view",
      "type": "function",
      "constant": true
    },
    {
      "inputs": [
        {
          "internalType": "uint256",
          "name": "",
          "type": "uint256"
        }
      ],
      "name": "adverts",
      "outputs": [
        {
          "internalType": "uint256",
          "name": "",
          "type": "uint256"
        }
      ],
      "stateMutability": "view",
      "type": "function",
      "constant": true
    },
    {
      "inputs": [],
      "name": "marketingAddress",
      "outputs": [
        {
          "internalType": "address",
          "name": "",
          "type": "address"
        }
      ],
      "stateMutability": "view",
      "type": "function",
      "constant": true
    },
    {
      "inputs": [
        {
          "internalType": "uint256",
          "name": "",
          "type": "uint256"
        }
      ],
      "name": "nftAds",
      "outputs": [
        {
          "internalType": "uint256",
          "name": "adId",
          "type": "uint256"
        },
        {
          "internalType": "uint256",
          "name": "nftId",
          "type": "uint256"
        },
        {
          "internalType": "address",
          "name": "buyer",
          "type": "address"
        },
        {
          "internalType": "uint256",
          "name": "timestamp",
          "type": "uint256"
        },
        {
          "internalType": "uint256",
          "name": "until",
          "type": "uint256"
        }
      ],
      "stateMutability": "view",
      "type": "function",
      "constant": true
    },
    {
      "inputs": [],
      "name": "owner",
      "outputs": [
        {
          "internalType": "address",
          "name": "",
          "type": "address"
        }
      ],
      "stateMutability": "view",
      "type": "function",
      "constant": true
    },
    {
      "inputs": [],
      "name": "zonuletNFT",
      "outputs": [
        {
          "internalType": "contract ZonuletNFT",
          "name": "",
          "type": "address"
        }
      ],
      "stateMutability": "view",
      "type": "function",
      "constant": true
    },
    {
      "inputs": [
        {
          "internalType": "uint256",
          "name": "_tokenId",
          "type": "uint256"
        }
      ],
      "name": "BuyAd90",
      "outputs": [],
      "stateMutability": "payable",
      "type": "function",
      "payable": true
    },
    {
      "inputs": [
        {
          "internalType": "uint256",
          "name": "_tokenId",
          "type": "uint256"
        }
      ],
      "name": "BuyAd60",
      "outputs": [],
      "stateMutability": "payable",
      "type": "function",
      "payable": true
    },
    {
      "inputs": [
        {
          "internalType": "uint256",
          "name": "_tokenId",
          "type": "uint256"
        }
      ],
      "name": "BuyAd30",
      "outputs": [],
      "stateMutability": "payable",
      "type": "function",
      "payable": true
    },
    {
      "inputs": [
        {
          "internalType": "uint256",
          "name": "_tokenId",
          "type": "uint256"
        }
      ],
      "name": "AdminBuyAd",
      "outputs": [],
      "stateMutability": "payable",
      "type": "function",
      "payable": true
    },
    {
      "inputs": [
        {
          "internalType": "uint256",
          "name": "_adId",
          "type": "uint256"
        }
      ],
      "name": "checkAdExpiry",
      "outputs": [
        {
          "internalType": "bool",
          "name": "success",
          "type": "bool"
        }
      ],
      "stateMutability": "view",
      "type": "function",
      "constant": true
    },
    {
      "inputs": [
        {
          "internalType": "uint256",
          "name": "_nftId",
          "type": "uint256"
        }
      ],
      "name": "checkNFTAdExpiry",
      "outputs": [
        {
          "internalType": "bool",
          "name": "success",
          "type": "bool"
        }
      ],
      "stateMutability": "view",
      "type": "function",
      "constant": true
    },
    {
      "inputs": [],
      "name": "TotalAds",
      "outputs": [
        {
          "internalType": "uint256",
          "name": "",
          "type": "uint256"
        }
      ],
      "stateMutability": "view",
      "type": "function",
      "constant": true
    },
    {
      "inputs": [
        {
          "internalType": "uint256",
          "name": "_adprice90",
          "type": "uint256"
        }
      ],
      "name": "setAdPrice90",
      "outputs": [],
      "stateMutability": "nonpayable",
      "type": "function"
    },
    {
      "inputs": [],
      "name": "getAdPrice90",
      "outputs": [
        {
          "internalType": "uint256",
          "name": "",
          "type": "uint256"
        }
      ],
      "stateMutability": "view",
      "type": "function",
      "constant": true
    },
    {
      "inputs": [
        {
          "internalType": "uint256",
          "name": "_adprice60",
          "type": "uint256"
        }
      ],
      "name": "setAdPrice60",
      "outputs": [],
      "stateMutability": "nonpayable",
      "type": "function"
    },
    {
      "inputs": [],
      "name": "getAdPrice60",
      "outputs": [
        {
          "internalType": "uint256",
          "name": "",
          "type": "uint256"
        }
      ],
      "stateMutability": "view",
      "type": "function",
      "constant": true
    },
    {
      "inputs": [
        {
          "internalType": "uint256",
          "name": "_adprice30",
          "type": "uint256"
        }
      ],
      "name": "setAdPrice30",
      "outputs": [],
      "stateMutability": "nonpayable",
      "type": "function"
    },
    {
      "inputs": [],
      "name": "getAdPrice30",
      "outputs": [
        {
          "internalType": "uint256",
          "name": "",
          "type": "uint256"
        }
      ],
      "stateMutability": "view",
      "type": "function",
      "constant": true
    }
  ],
  "bytecode": "0x60a060405273a499ce35fc84c6ea6acb1f8864c4d9f975b306bd73ffffffffffffffffffffffffffffffffffffffff1660809073ffffffffffffffffffffffffffffffffffffffff1660601b815250735b8e41597c812200dba256e24a01b6cddba04529600260006101000a81548173ffffffffffffffffffffffffffffffffffffffff021916908373ffffffffffffffffffffffffffffffffffffffff1602179055506307270e0060045563055d4a806005556302faf080600655348015620000c857600080fd5b50604051620024a2380380620024a28339818101604052810190620000ee9190620001ce565b306000806101000a81548173ffffffffffffffffffffffffffffffffffffffff021916908373ffffffffffffffffffffffffffffffffffffffff16021790555033600360006101000a81548173ffffffffffffffffffffffffffffffffffffffff021916908373ffffffffffffffffffffffffffffffffffffffff16021790555080600160006101000a81548173ffffffffffffffffffffffffffffffffffffffff021916908373ffffffffffffffffffffffffffffffffffffffff1602179055505062000267565b600081519050620001c8816200024d565b92915050565b600060208284031215620001e757620001e662000248565b5b6000620001f784828501620001b7565b91505092915050565b60006200020d8262000228565b9050919050565b6000620002218262000200565b9050919050565b600073ffffffffffffffffffffffffffffffffffffffff82169050919050565b600080fd5b620002588162000214565b81146200026457600080fd5b50565b60805160601c6122076200029b6000396000818161053b01528181610d14015281816111ea015261175301526122076000f3fe6080604052600436106101355760003560e01c8063983ddbe2116100ab578063b4fcfa0d1161006f578063b4fcfa0d146103e9578063be7e6c2d14610426578063c229926014610463578063d6a3cc1d1461048c578063e91eb974146104b7578063e98ee24b146104f857610135565b8063983ddbe214610321578063a3f889831461034c578063a42ec6fb14610377578063a5ece941146103a2578063af128685146103cd57610135565b80634a700728116100fd5780634a700728146102295780636c4829c414610252578063870741d51461029357806387ca2ee4146102af5780638da5cb5b146102cb5780638efacc1e146102f657610135565b806306e6caad1461013a57806311a7a4c014610165578063174cce80146101a75780631be3d836146101c3578063327b945a14610200575b600080fd5b34801561014657600080fd5b5061014f610539565b60405161015c9190611e9f565b60405180910390f35b34801561017157600080fd5b5061018c60048036038101906101879190611e09565b61055d565b60405161019e96959493929190611f95565b60405180910390f35b6101c160048036038101906101bc9190611e09565b6105b9565b005b3480156101cf57600080fd5b506101ea60048036038101906101e59190611e09565b610a5c565b6040516101f79190611ef1565b60405180910390f35b34801561020c57600080fd5b5061022760048036038101906102229190611e09565b610a94565b005b34801561023557600080fd5b50610250600480360381019061024b9190611e09565b610b52565b005b34801561025e57600080fd5b5061027960048036038101906102749190611daf565b610c10565b60405161028a959493929190611f42565b60405180910390f35b6102ad60048036038101906102a89190611e09565b610c66565b005b6102c960048036038101906102c49190611e09565b61113c565b005b3480156102d757600080fd5b506102e0611612565b6040516102ed9190611e9f565b60405180910390f35b34801561030257600080fd5b5061030b611638565b6040516103189190611f27565b60405180910390f35b34801561032d57600080fd5b50610336611645565b6040516103439190611f0c565b60405180910390f35b34801561035857600080fd5b5061036161166b565b60405161036e9190611f27565b60405180910390f35b34801561038357600080fd5b5061038c611675565b6040516103999190611f27565b60405180910390f35b3480156103ae57600080fd5b506103b761167f565b6040516103c49190611e9f565b60405180910390f35b6103e760048036038101906103e29190611e09565b6116a5565b005b3480156103f557600080fd5b50610410600480360381019061040b9190611e09565b611b7b565b60405161041d9190611ef1565b60405180910390f35b34801561043257600080fd5b5061044d60048036038101906104489190611e09565b611bb3565b60405161045a9190611f27565b60405180910390f35b34801561046f57600080fd5b5061048a60048036038101906104859190611e09565b611bd7565b005b34801561049857600080fd5b506104a1611c95565b6040516104ae9190611f27565b60405180910390f35b3480156104c357600080fd5b506104de60048036038101906104d99190611e09565b611c9f565b6040516104ef959493929190611f42565b60405180910390f35b34801561050457600080fd5b5061051f600480360381019061051a9190611e09565b611d05565b604051610530959493929190611f42565b60405180910390f35b7f000000000000000000000000000000000000000000000000000000000000000081565b60086020528060005260406000206000915090508060000154908060010154908060020154908060030160009054906101000a900473ffffffffffffffffffffffffffffffffffffffff16908060040154908060050154905086565b600360009054906101000a900473ffffffffffffffffffffffffffffffffffffffff1673ffffffffffffffffffffffffffffffffffffffff163373ffffffffffffffffffffffffffffffffffffffff161461061357600080fd5b600360009054906101000a900473ffffffffffffffffffffffffffffffffffffffff1673ffffffffffffffffffffffffffffffffffffffff163373ffffffffffffffffffffffffffffffffffffffff161461066d57600080fd5b600160009054906101000a900473ffffffffffffffffffffffffffffffffffffffff1673ffffffffffffffffffffffffffffffffffffffff166318160ddd6040518163ffffffff1660e01b815260040160206040518083038186803b1580156106d557600080fd5b505afa1580156106e9573d6000803e3d6000fd5b505050506040513d601f19601f8201168201806040525081019061070d9190611e36565b81111561071957600080fd5b600b81908060018154018082558091505060019003906000526020600020016000909190919091505560006001600b8054905061075691906120a6565b90504260086000838152602001908152602001600020600401819055506276a700426107829190611ff6565b6008600083815260200190815260200160002060050181905550806008600083815260200190815260200160002060000181905550336008600083815260200190815260200160002060030160006101000a81548173ffffffffffffffffffffffffffffffffffffffff021916908373ffffffffffffffffffffffffffffffffffffffff160217905550605a6008600083815260200190815260200160002060010160008282546108339190611ff6565b92505081905550816008600083815260200190815260200160002060020181905550816007600084815260200190815260200160002060010181905550806007600084815260200190815260200160002060000181905550336007600084815260200190815260200160002060020160006101000a81548173ffffffffffffffffffffffffffffffffffffffff021916908373ffffffffffffffffffffffffffffffffffffffff1602179055504260076000848152602001908152602001600020600301819055506276a7004261090a9190611ff6565b6007600084815260200190815260200160002060040181905550600a6040518060a001604052808381526020018481526020013373ffffffffffffffffffffffffffffffffffffffff1681526020014281526020016276a7004261096e9190611ff6565b8152509080600181540180825580915050600190039060005260206000209060050201600090919091909150600082015181600001556020820151816001015560408201518160020160006101000a81548173ffffffffffffffffffffffffffffffffffffffff021916908373ffffffffffffffffffffffffffffffffffffffff160217905550606082015181600301556080820151816004015550507fddeab5c56d188bd0da31b2a14b4f44e9a17231f51464a2a8ee58c327c52df831828233426276a70042610a3f9190611ff6565b604051610a50959493929190611f42565b60405180910390a15050565b60008060076000848152602001908152602001600020600401549050428111610a89576001915050610a8f565b60009150505b919050565b600360009054906101000a900473ffffffffffffffffffffffffffffffffffffffff1673ffffffffffffffffffffffffffffffffffffffff163373ffffffffffffffffffffffffffffffffffffffff1614610aee57600080fd5b600360009054906101000a900473ffffffffffffffffffffffffffffffffffffffff1673ffffffffffffffffffffffffffffffffffffffff163373ffffffffffffffffffffffffffffffffffffffff1614610b4857600080fd5b8060058190555050565b600360009054906101000a900473ffffffffffffffffffffffffffffffffffffffff1673ffffffffffffffffffffffffffffffffffffffff163373ffffffffffffffffffffffffffffffffffffffff1614610bac57600080fd5b600360009054906101000a900473ffffffffffffffffffffffffffffffffffffffff1673ffffffffffffffffffffffffffffffffffffffff163373ffffffffffffffffffffffffffffffffffffffff1614610c0657600080fd5b8060068190555050565b60096020528060005260406000206000915090508060000154908060010154908060020160009054906101000a900473ffffffffffffffffffffffffffffffffffffffff16908060030154908060040154905085565b600160009054906101000a900473ffffffffffffffffffffffffffffffffffffffff1673ffffffffffffffffffffffffffffffffffffffff166318160ddd6040518163ffffffff1660e01b815260040160206040518083038186803b158015610cce57600080fd5b505afa158015610ce2573d6000803e3d6000fd5b505050506040513d601f19601f82011682018060405250810190610d069190611e36565b811115610d1257600080fd5b7f000000000000000000000000000000000000000000000000000000000000000073ffffffffffffffffffffffffffffffffffffffff166323b872dd33600260009054906101000a900473ffffffffffffffffffffffffffffffffffffffff16670de0b6b3a7640000600454610d88919061204c565b6040518463ffffffff1660e01b8152600401610da693929190611eba565b602060405180830381600087803b158015610dc057600080fd5b505af1158015610dd4573d6000803e3d6000fd5b505050506040513d601f19601f82011682018060405250810190610df89190611ddc565b50600b81908060018154018082558091505060019003906000526020600020016000909190919091505560006001600b80549050610e3691906120a6565b90504260086000838152602001908152602001600020600401819055506276a70042610e629190611ff6565b6008600083815260200190815260200160002060050181905550806008600083815260200190815260200160002060000181905550336008600083815260200190815260200160002060030160006101000a81548173ffffffffffffffffffffffffffffffffffffffff021916908373ffffffffffffffffffffffffffffffffffffffff160217905550605a600860008381526020019081526020016000206001016000828254610f139190611ff6565b92505081905550816008600083815260200190815260200160002060020181905550816007600084815260200190815260200160002060010181905550806007600084815260200190815260200160002060000181905550336007600084815260200190815260200160002060020160006101000a81548173ffffffffffffffffffffffffffffffffffffffff021916908373ffffffffffffffffffffffffffffffffffffffff1602179055504260076000848152602001908152602001600020600301819055506276a70042610fea9190611ff6565b6007600084815260200190815260200160002060040181905550600a6040518060a001604052808381526020018481526020013373ffffffffffffffffffffffffffffffffffffffff1681526020014281526020016276a7004261104e9190611ff6565b8152509080600181540180825580915050600190039060005260206000209060050201600090919091909150600082015181600001556020820151816001015560408201518160020160006101000a81548173ffffffffffffffffffffffffffffffffffffffff021916908373ffffffffffffffffffffffffffffffffffffffff160217905550606082015181600301556080820151816004015550507fddeab5c56d188bd0da31b2a14b4f44e9a17231f51464a2a8ee58c327c52df831828233426276a7004261111f9190611ff6565b604051611130959493929190611f42565b60405180910390a15050565b600160009054906101000a900473ffffffffffffffffffffffffffffffffffffffff1673ffffffffffffffffffffffffffffffffffffffff166318160ddd6040518163ffffffff1660e01b815260040160206040518083038186803b1580156111a457600080fd5b505afa1580156111b8573d6000803e3d6000fd5b505050506040513d601f19601f820116820180604052508101906111dc9190611e36565b8111156111e857600080fd5b7f000000000000000000000000000000000000000000000000000000000000000073ffffffffffffffffffffffffffffffffffffffff166323b872dd33600260009054906101000a900473ffffffffffffffffffffffffffffffffffffffff16670de0b6b3a764000060055461125e919061204c565b6040518463ffffffff1660e01b815260040161127c93929190611eba565b602060405180830381600087803b15801561129657600080fd5b505af11580156112aa573d6000803e3d6000fd5b505050506040513d601f19601f820116820180604052508101906112ce9190611ddc565b50600b81908060018154018082558091505060019003906000526020600020016000909190919091505560006001600b8054905061130c91906120a6565b9050426008600083815260200190815260200160002060040181905550624f1a00426113389190611ff6565b6008600083815260200190815260200160002060050181905550806008600083815260200190815260200160002060000181905550336008600083815260200190815260200160002060030160006101000a81548173ffffffffffffffffffffffffffffffffffffffff021916908373ffffffffffffffffffffffffffffffffffffffff160217905550603c6008600083815260200190815260200160002060010160008282546113e99190611ff6565b92505081905550816008600083815260200190815260200160002060020181905550816007600084815260200190815260200160002060010181905550806007600084815260200190815260200160002060000181905550336007600084815260200190815260200160002060020160006101000a81548173ffffffffffffffffffffffffffffffffffffffff021916908373ffffffffffffffffffffffffffffffffffffffff160217905550426007600084815260200190815260200160002060030181905550624f1a00426114c09190611ff6565b6007600084815260200190815260200160002060040181905550600a6040518060a001604052808381526020018481526020013373ffffffffffffffffffffffffffffffffffffffff168152602001428152602001624f1a00426115249190611ff6565b8152509080600181540180825580915050600190039060005260206000209060050201600090919091909150600082015181600001556020820151816001015560408201518160020160006101000a81548173ffffffffffffffffffffffffffffffffffffffff021916908373ffffffffffffffffffffffffffffffffffffffff160217905550606082015181600301556080820151816004015550507fddeab5c56d188bd0da31b2a14b4f44e9a17231f51464a2a8ee58c327c52df83182823342624f1a00426115f59190611ff6565b604051611606959493929190611f42565b60405180910390a15050565b600360009054906101000a900473ffffffffffffffffffffffffffffffffffffffff1681565b6000600b80549050905090565b600160009054906101000a900473ffffffffffffffffffffffffffffffffffffffff1681565b6000600454905090565b6000600554905090565b600260009054906101000a900473ffffffffffffffffffffffffffffffffffffffff1681565b600160009054906101000a900473ffffffffffffffffffffffffffffffffffffffff1673ffffffffffffffffffffffffffffffffffffffff166318160ddd6040518163ffffffff1660e01b815260040160206040518083038186803b15801561170d57600080fd5b505afa158015611721573d6000803e3d6000fd5b505050506040513d601f19601f820116820180604052508101906117459190611e36565b81111561175157600080fd5b7f000000000000000000000000000000000000000000000000000000000000000073ffffffffffffffffffffffffffffffffffffffff166323b872dd33600260009054906101000a900473ffffffffffffffffffffffffffffffffffffffff16670de0b6b3a76400006006546117c7919061204c565b6040518463ffffffff1660e01b81526004016117e593929190611eba565b602060405180830381600087803b1580156117ff57600080fd5b505af1158015611813573d6000803e3d6000fd5b505050506040513d601f19601f820116820180604052508101906118379190611ddc565b50600b81908060018154018082558091505060019003906000526020600020016000909190919091505560006001600b8054905061187591906120a6565b905042600860008381526020019081526020016000206004018190555062278d00426118a19190611ff6565b6008600083815260200190815260200160002060050181905550806008600083815260200190815260200160002060000181905550336008600083815260200190815260200160002060030160006101000a81548173ffffffffffffffffffffffffffffffffffffffff021916908373ffffffffffffffffffffffffffffffffffffffff160217905550601e6008600083815260200190815260200160002060010160008282546119529190611ff6565b92505081905550816008600083815260200190815260200160002060020181905550816007600084815260200190815260200160002060010181905550806007600084815260200190815260200160002060000181905550336007600084815260200190815260200160002060020160006101000a81548173ffffffffffffffffffffffffffffffffffffffff021916908373ffffffffffffffffffffffffffffffffffffffff16021790555042600760008481526020019081526020016000206003018190555062278d0042611a299190611ff6565b6007600084815260200190815260200160002060040181905550600a6040518060a001604052808381526020018481526020013373ffffffffffffffffffffffffffffffffffffffff16815260200142815260200162278d0042611a8d9190611ff6565b8152509080600181540180825580915050600190039060005260206000209060050201600090919091909150600082015181600001556020820151816001015560408201518160020160006101000a81548173ffffffffffffffffffffffffffffffffffffffff021916908373ffffffffffffffffffffffffffffffffffffffff160217905550606082015181600301556080820151816004015550507fddeab5c56d188bd0da31b2a14b4f44e9a17231f51464a2a8ee58c327c52df8318282334262278d0042611b5e9190611ff6565b604051611b6f959493929190611f42565b60405180910390a15050565b60008060086000848152602001908152602001600020600501549050428111611ba8576001915050611bae565b60009150505b919050565b600b8181548110611bc357600080fd5b906000526020600020016000915090505481565b600360009054906101000a900473ffffffffffffffffffffffffffffffffffffffff1673ffffffffffffffffffffffffffffffffffffffff163373ffffffffffffffffffffffffffffffffffffffff1614611c3157600080fd5b600360009054906101000a900473ffffffffffffffffffffffffffffffffffffffff1673ffffffffffffffffffffffffffffffffffffffff163373ffffffffffffffffffffffffffffffffffffffff1614611c8b57600080fd5b8060048190555050565b6000600654905090565b600a8181548110611caf57600080fd5b90600052602060002090600502016000915090508060000154908060010154908060020160009054906101000a900473ffffffffffffffffffffffffffffffffffffffff16908060030154908060040154905085565b60076020528060005260406000206000915090508060000154908060010154908060020160009054906101000a900473ffffffffffffffffffffffffffffffffffffffff16908060030154908060040154905085565b600081359050611d6a8161218c565b92915050565b600081519050611d7f816121a3565b92915050565b600081359050611d94816121ba565b92915050565b600081519050611da9816121ba565b92915050565b600060208284031215611dc557611dc4612187565b5b6000611dd384828501611d5b565b91505092915050565b600060208284031215611df257611df1612187565b5b6000611e0084828501611d70565b91505092915050565b600060208284031215611e1f57611e1e612187565b5b6000611e2d84828501611d85565b91505092915050565b600060208284031215611e4c57611e4b612187565b5b6000611e5a84828501611d9a565b91505092915050565b611e6c816120da565b82525050565b611e7b816120ec565b82525050565b611e8a81612122565b82525050565b611e9981612118565b82525050565b6000602082019050611eb46000830184611e63565b92915050565b6000606082019050611ecf6000830186611e63565b611edc6020830185611e63565b611ee96040830184611e90565b949350505050565b6000602082019050611f066000830184611e72565b92915050565b6000602082019050611f216000830184611e81565b92915050565b6000602082019050611f3c6000830184611e90565b92915050565b600060a082019050611f576000830188611e90565b611f646020830187611e90565b611f716040830186611e63565b611f7e6060830185611e90565b611f8b6080830184611e90565b9695505050505050565b600060c082019050611faa6000830189611e90565b611fb76020830188611e90565b611fc46040830187611e90565b611fd16060830186611e63565b611fde6080830185611e90565b611feb60a0830184611e90565b979650505050505050565b600061200182612118565b915061200c83612118565b9250827fffffffffffffffffffffffffffffffffffffffffffffffffffffffffffffffff0382111561204157612040612158565b5b828201905092915050565b600061205782612118565b915061206283612118565b9250817fffffffffffffffffffffffffffffffffffffffffffffffffffffffffffffffff048311821515161561209b5761209a612158565b5b828202905092915050565b60006120b182612118565b91506120bc83612118565b9250828210156120cf576120ce612158565b5b828203905092915050565b60006120e5826120f8565b9050919050565b60008115159050919050565b600073ffffffffffffffffffffffffffffffffffffffff82169050919050565b6000819050919050565b600061212d82612134565b9050919050565b600061213f82612146565b9050919050565b6000612151826120f8565b9050919050565b7f4e487b7100000000000000000000000000000000000000000000000000000000600052601160045260246000fd5b600080fd5b612195816120da565b81146121a057600080fd5b50565b6121ac816120ec565b81146121b757600080fd5b50565b6121c381612118565b81146121ce57600080fd5b5056fea26469706673582212206cb4a31a803214d0a834940ab883bc8efa6066bd9e6ea4aec2c18614115e5d0464736f6c63430008070033",
  "immutableReferences": {
    "1521": [
      {
        "length": 32,
        "start": 1339
      },
      {
        "length": 32,
        "start": 3348
      },
      {
        "length": 32,
        "start": 4586
      },
      {
        "length": 32,
        "start": 5971
      }
    ]
  },
  "source": "//              \n//           \n//                        \n//                       \n//        \n//                                                                        \n// zonulet.io\n// SPDX-License-Identifier: MIT\n\npragma solidity >0.6.2;\n\nimport \"./ZonuletNFT.sol\";\n\n\n/**\n * @dev Interface of the ERC20 standard as defined in the EIP.\n */\ninterface IERC20 {\n    /**\n     * @dev Returns the amount of tokens in existence.\n     */\n    function totalSupply() external view returns (uint256);\n\n    /**\n     * @dev Returns the amount of tokens owned by `account`.\n     */\n    function balanceOf(address account) external view returns (uint256);\n\n    /**\n     * @dev Moves `amount` tokens from the caller's account to `recipient`.\n     *\n     * Returns a boolean value indicating whether the operation succeeded.\n     *\n     * Emits a {Transfer} event.\n     */\n    function transfer(address recipient, uint256 amount) external returns (bool);\n\n    /**\n     * @dev Returns the remaining number of tokens that `spender` will be\n     * allowed to spend on behalf of `owner` through {transferFrom}. This is\n     * zero by default.\n     *\n     * This value changes when {approve} or {transferFrom} are called.\n     */\n    function allowance(address owner, address spender) external view returns (uint256);\n\n    /**\n     * @dev Sets `amount` as the allowance of `spender` over the caller's tokens.\n     *\n     * Returns a boolean value indicating whether the operation succeeded.\n     *\n     * IMPORTANT: Beware that changing an allowance with this method brings the risk\n     * that someone may use both the old and the new allowance by unfortunate\n     * transaction ordering. One possible solution to mitigate this race\n     * condition is to first reduce the spender's allowance to 0 and set the\n     * desired value afterwards:\n     * https://github.com/ethereum/EIPs/issues/20#issuecomment-263524729\n     *\n     * Emits an {Approval} event.\n     */\n    function approve(address spender, uint256 amount) external returns (bool);\n\n    /**\n     * @dev Moves `amount` tokens from `sender` to `recipient` using the\n     * allowance mechanism. `amount` is then deducted from the caller's\n     * allowance.\n     *\n     * Returns a boolean value indicating whether the operation succeeded.\n     *\n     * Emits a {Transfer} event.\n     */\n    function transferFrom(\n        address sender,\n        address recipient,\n        uint256 amount\n    ) external returns (bool);\n\n    /**\n     * @dev Emitted when `value` tokens are moved from one account (`from`) to\n     * another (`to`).\n     *\n     * Note that `value` may be zero.\n     */\n    event Transfer(address indexed from, address indexed to, uint256 value);\n\n    /**\n     * @dev Emitted when the allowance of a `spender` for an `owner` is set by\n     * a call to {approve}. `value` is the new allowance.\n     */\n    event Approval(address indexed owner, address indexed spender, uint256 value);\n}\n\npragma solidity >0.6.2;\n\n/**\n * @dev Interface for the optional metadata functions from the ERC20 standard.\n *\n * _Available since v4.1._\n */\ninterface IERC20Metadata is IERC20 {\n    /**\n     * @dev Returns the name of the token.\n     */\n    function name() external view returns (string memory);\n\n    /**\n     * @dev Returns the symbol of the token.\n     */\n    function symbol() external view returns (string memory);\n\n    /**\n     * @dev Returns the decimals places of the token.\n     */\n    function decimals() external view returns (uint8);\n}\n\n// Ownable\n\npragma solidity >0.6.2;\n\ncontract Ownable is Context {\n    address private _owner;\n\n    event OwnershipTransferred(address indexed previousOwner, address indexed newOwner);\n\n    /**\n     * @dev Initializes the contract setting the deployer as the initial owner.\n     */\n    constructor () public {\n        address msgSender = _msgSender();\n        _owner = msgSender;\n        emit OwnershipTransferred(address(0), msgSender);\n    }\n\n    /**\n     * @dev Returns the address of the current owner.\n     */\n    function owner() public view returns (address) {\n        return _owner;\n    }\n\n    /**\n     * @dev Throws if called by any account other than the owner.\n     */\n    modifier onlyOwner() {\n        require(_owner == _msgSender(), \"Ownable: caller is not the owner\");\n        _;\n    }\n\n    /**\n     * @dev Leaves the contract without owner. It will not be possible to call\n     * `onlyOwner` functions anymore. Can only be called by the current owner.\n     *\n     * NOTE: Renouncing ownership will leave the contract without an owner,\n     * thereby removing any functionality that is only available to the owner.\n     */\n    function renounceOwnership() public virtual onlyOwner {\n        emit OwnershipTransferred(_owner, address(0));\n        _owner = address(0);\n    }\n\n    /**\n     * @dev Transfers ownership of the contract to a new account (`newOwner`).\n     * Can only be called by the current owner.\n     */\n    function transferOwnership(address newOwner) public virtual onlyOwner {\n        require(newOwner != address(0), \"Ownable: new owner is the zero address\");\n        emit OwnershipTransferred(_owner, newOwner);\n        _owner = newOwner;\n    }\n}\n\n// SafeMath\n\npragma solidity >0.6.2;\n\nlibrary SafeMath {\n    /**\n     * @dev Returns the addition of two unsigned integers, reverting on\n     * overflow.\n     *\n     * Counterpart to Solidity's `+` operator.\n     *\n     * Requirements:\n     *\n     * - Addition cannot overflow.\n     */\n    function add(uint256 a, uint256 b) internal pure returns (uint256) {\n        uint256 c = a + b;\n        require(c >= a, \"SafeMath: addition overflow\");\n\n        return c;\n    }\n\n    /**\n     * @dev Returns the subtraction of two unsigned integers, reverting on\n     * overflow (when the result is negative).\n     *\n     * Counterpart to Solidity's `-` operator.\n     *\n     * Requirements:\n     *\n     * - Subtraction cannot overflow.\n     */\n    function sub(uint256 a, uint256 b) internal pure returns (uint256) {\n        return sub(a, b, \"SafeMath: subtraction overflow\");\n    }\n\n    /**\n     * @dev Returns the subtraction of two unsigned integers, reverting with custom message on\n     * overflow (when the result is negative).\n     *\n     * Counterpart to Solidity's `-` operator.\n     *\n     * Requirements:\n     *\n     * - Subtraction cannot overflow.\n     */\n    function sub(uint256 a, uint256 b, string memory errorMessage) internal pure returns (uint256) {\n        require(b <= a, errorMessage);\n        uint256 c = a - b;\n\n        return c;\n    }\n\n    /**\n     * @dev Returns the multiplication of two unsigned integers, reverting on\n     * overflow.\n     *\n     * Counterpart to Solidity's `*` operator.\n     *\n     * Requirements:\n     *\n     * - Multiplication cannot overflow.\n     */\n    function mul(uint256 a, uint256 b) internal pure returns (uint256) {\n        // Gas optimization: this is cheaper than requiring 'a' not being zero, but the\n        // benefit is lost if 'b' is also tested.\n        // See: https://github.com/OpenZeppelin/openzeppelin-contracts/pull/522\n        if (a == 0) {\n            return 0;\n        }\n\n        uint256 c = a * b;\n        require(c / a == b, \"SafeMath: multiplication overflow\");\n\n        return c;\n    }\n\n    /**\n     * @dev Returns the integer division of two unsigned integers. Reverts on\n     * division by zero. The result is rounded towards zero.\n     *\n     * Counterpart to Solidity's `/` operator. Note: this function uses a\n     * `revert` opcode (which leaves remaining gas untouched) while Solidity\n     * uses an invalid opcode to revert (consuming all remaining gas).\n     *\n     * Requirements:\n     *\n     * - The divisor cannot be zero.\n     */\n    function div(uint256 a, uint256 b) internal pure returns (uint256) {\n        return div(a, b, \"SafeMath: division by zero\");\n    }\n\n    /**\n     * @dev Returns the integer division of two unsigned integers. Reverts with custom message on\n     * division by zero. The result is rounded towards zero.\n     *\n     * Counterpart to Solidity's `/` operator. Note: this function uses a\n     * `revert` opcode (which leaves remaining gas untouched) while Solidity\n     * uses an invalid opcode to revert (consuming all remaining gas).\n     *\n     * Requirements:\n     *\n     * - The divisor cannot be zero.\n     */\n    function div(uint256 a, uint256 b, string memory errorMessage) internal pure returns (uint256) {\n        require(b > 0, errorMessage);\n        uint256 c = a / b;\n        // assert(a == b * c + a % b); // There is no case in which this doesn't hold\n\n        return c;\n    }\n\n    /**\n     * @dev Returns the remainder of dividing two unsigned integers. (unsigned integer modulo),\n     * Reverts when dividing by zero.\n     *\n     * Counterpart to Solidity's `%` operator. This function uses a `revert`\n     * opcode (which leaves remaining gas untouched) while Solidity uses an\n     * invalid opcode to revert (consuming all remaining gas).\n     *\n     * Requirements:\n     *\n     * - The divisor cannot be zero.\n     */\n    function mod(uint256 a, uint256 b) internal pure returns (uint256) {\n        return mod(a, b, \"SafeMath: modulo by zero\");\n    }\n\n    /**\n     * @dev Returns the remainder of dividing two unsigned integers. (unsigned integer modulo),\n     * Reverts with custom message when dividing by zero.\n     *\n     * Counterpart to Solidity's `%` operator. This function uses a `revert`\n     * opcode (which leaves remaining gas untouched) while Solidity uses an\n     * invalid opcode to revert (consuming all remaining gas).\n     *\n     * Requirements:\n     *\n     * - The divisor cannot be zero.\n     */\n    function mod(uint256 a, uint256 b, string memory errorMessage) internal pure returns (uint256) {\n        require(b != 0, errorMessage);\n        return a % b;\n    }\n}\n\n// SafeMathInt\n\npragma solidity >0.6.2;\n\n/**\n * @title SafeMathInt\n * @dev Math operations for int256 with overflow safety checks.\n */\nlibrary SafeMathInt {\n    int256 private constant MIN_INT256 = int256(1) << 255;\n    int256 private constant MAX_INT256 = ~(int256(1) << 255);\n\n    /**\n     * @dev Multiplies two int256 variables and fails on overflow.\n     */\n    function mul(int256 a, int256 b) internal pure returns (int256) {\n        int256 c = a * b;\n\n        // Detect overflow when multiplying MIN_INT256 with -1\n        require(c != MIN_INT256 || (a & MIN_INT256) != (b & MIN_INT256));\n        require((b == 0) || (c / b == a));\n        return c;\n    }\n\n    /**\n     * @dev Division of two int256 variables and fails on overflow.\n     */\n    function div(int256 a, int256 b) internal pure returns (int256) {\n        // Prevent overflow when dividing MIN_INT256 by -1\n        require(b != -1 || a != MIN_INT256);\n\n        // Solidity already throws when dividing by 0.\n        return a / b;\n    }\n\n    /**\n     * @dev Subtracts two int256 variables and fails on overflow.\n     */\n    function sub(int256 a, int256 b) internal pure returns (int256) {\n        int256 c = a - b;\n        require((b >= 0 && c <= a) || (b < 0 && c > a));\n        return c;\n    }\n\n    /**\n     * @dev Adds two int256 variables and fails on overflow.\n     */\n    function add(int256 a, int256 b) internal pure returns (int256) {\n        int256 c = a + b;\n        require((b >= 0 && c >= a) || (b < 0 && c < a));\n        return c;\n    }\n\n    /**\n     * @dev Converts to absolute value, and fails on overflow.\n     */\n    function abs(int256 a) internal pure returns (int256) {\n        require(a != MIN_INT256);\n        return a < 0 ? -a : a;\n    }\n\n\n    function toUint256Safe(int256 a) internal pure returns (uint256) {\n        require(a >= 0);\n        return uint256(a);\n    }\n    \n}\n\n// SAFEMATHUINT\n\npragma solidity >0.6.2;\n\n/**\n * @title SafeMathUint\n * @dev Math operations with safety checks that revert on error\n */\nlibrary SafeMathUint {\n  function toInt256Safe(uint256 a) internal pure returns (int256) {\n    int256 b = int256(a);\n    require(b >= 0);\n    return b;\n  }\n}\n\n\n// ERC20\n\npragma solidity >0.6.2;\n\n/**\n * @dev Implementation of the {IERC20} interface.\n *\n * This implementation is agnostic to the way tokens are created. This means\n * that a supply mechanism has to be added in a derived contract using {_mint}.\n * For a generic mechanism see {ERC20PresetMinterPauser}.\n *\n * TIP: For a detailed writeup see our guide\n * https://forum.zeppelin.solutions/t/how-to-implement-erc20-supply-mechanisms/226[How\n * to implement supply mechanisms].\n *\n * We have followed general OpenZeppelin guidelines: functions revert instead\n * of returning `false` on failure. This behavior is nonetheless conventional\n * and does not conflict with the expectations of ERC20 applications.\n *\n * Additionally, an {Approval} event is emitted on calls to {transferFrom}.\n * This allows applications to reconstruct the allowance for all accounts just\n * by listening to said events. Other implementations of the EIP may not emit\n * these events, as it isn't required by the specification.\n *\n * Finally, the non-standard {decreaseAllowance} and {increaseAllowance}\n * functions have been added to mitigate the well-known issues around setting\n * allowances. See {IERC20-approve}.\n */\ncontract ERC20 is Context, IERC20, IERC20Metadata {\n    using SafeMath for uint256;\n\n    mapping(address => uint256) private _balances;\n\n    mapping(address => mapping(address => uint256)) private _allowances;\n\n    uint256 private _totalSupply;\n\n    string private _name;\n    string private _symbol;\n\n    /**\n     * @dev Sets the values for {name} and {symbol}.\n     *\n     * The default value of {decimals} is 18. To select a different value for\n     * {decimals} you should overload it.\n     *\n     * All two of these values are immutable: they can only be set once during\n     * construction.\n     */\n    constructor(string memory name_, string memory symbol_) public {\n        _name = name_;\n        _symbol = symbol_;\n    }\n\n    /**\n     * @dev Returns the name of the token.\n     */\n    function name() public view virtual override returns (string memory) {\n        return _name;\n    }\n\n    /**\n     * @dev Returns the symbol of the token, usually a shorter version of the\n     * name.\n     */\n    function symbol() public view virtual override returns (string memory) {\n        return _symbol;\n    }\n\n    /**\n     * @dev Returns the number of decimals used to get its user representation.\n     * For example, if `decimals` equals `2`, a balance of `505` tokens should\n     * be displayed to a user as `5,05` (`505 / 10 ** 2`).\n     *\n     * Tokens usually opt for a value of 18, imitating the relationship between\n     * Ether and Wei. This is the value {ERC20} uses, unless this function is\n     * overridden;\n     *\n     * NOTE: This information is only used for _display_ purposes: it in\n     * no way affects any of the arithmetic of the contract, including\n     * {IERC20-balanceOf} and {IERC20-transfer}.\n     */\n    function decimals() public view virtual override returns (uint8) {\n        return 18;\n    }\n\n    /**\n     * @dev See {IERC20-totalSupply}.\n     */\n    function totalSupply() public view virtual override returns (uint256) {\n        return _totalSupply;\n    }\n\n    /**\n     * @dev See {IERC20-balanceOf}.\n     */\n    function balanceOf(address account) public view virtual override returns (uint256) {\n        return _balances[account];\n    }\n\n    /**\n     * @dev See {IERC20-transfer}.\n     *\n     * Requirements:\n     *\n     * - `recipient` cannot be the zero address.\n     * - the caller must have a balance of at least `amount`.\n     */\n    function transfer(address recipient, uint256 amount) public virtual override returns (bool) {\n        _transfer(_msgSender(), recipient, amount);\n        return true;\n    }\n\n    /**\n     * @dev See {IERC20-allowance}.\n     */\n    function allowance(address owner, address spender) public view virtual override returns (uint256) {\n        return _allowances[owner][spender];\n    }\n\n    /**\n     * @dev See {IERC20-approve}.\n     *\n     * Requirements:\n     *\n     * - `spender` cannot be the zero address.\n     */\n    function approve(address spender, uint256 amount) public virtual override returns (bool) {\n        _approve(_msgSender(), spender, amount);\n        return true;\n    }\n\n    /**\n     * @dev See {IERC20-transferFrom}.\n     *\n     * Emits an {Approval} event indicating the updated allowance. This is not\n     * required by the EIP. See the note at the beginning of {ERC20}.\n     *\n     * Requirements:\n     *\n     * - `sender` and `recipient` cannot be the zero address.\n     * - `sender` must have a balance of at least `amount`.\n     * - the caller must have allowance for ``sender``'s tokens of at least\n     * `amount`.\n     */\n    function transferFrom(\n        address sender,\n        address recipient,\n        uint256 amount\n    ) public virtual override returns (bool) {\n        _transfer(sender, recipient, amount);\n        _approve(sender, _msgSender(), _allowances[sender][_msgSender()].sub(amount, \"ERC20: transfer amount exceeds allowance\"));\n        return true;\n    }\n\n    /**\n     * @dev Atomically increases the allowance granted to `spender` by the caller.\n     *\n     * This is an alternative to {approve} that can be used as a mitigation for\n     * problems described in {IERC20-approve}.\n     *\n     * Emits an {Approval} event indicating the updated allowance.\n     *\n     * Requirements:\n     *\n     * - `spender` cannot be the zero address.\n     */\n    function increaseAllowance(address spender, uint256 addedValue) public virtual returns (bool) {\n        _approve(_msgSender(), spender, _allowances[_msgSender()][spender].add(addedValue));\n        return true;\n    }\n\n    /**\n     * @dev Atomically decreases the allowance granted to `spender` by the caller.\n     *\n     * This is an alternative to {approve} that can be used as a mitigation for\n     * problems described in {IERC20-approve}.\n     *\n     * Emits an {Approval} event indicating the updated allowance.\n     *\n     * Requirements:\n     *\n     * - `spender` cannot be the zero address.\n     * - `spender` must have allowance for the caller of at least\n     * `subtractedValue`.\n     */\n    function decreaseAllowance(address spender, uint256 subtractedValue) public virtual returns (bool) {\n        _approve(_msgSender(), spender, _allowances[_msgSender()][spender].sub(subtractedValue, \"ERC20: decreased allowance below zero\"));\n        return true;\n    }\n\n    /**\n     * @dev Moves tokens `amount` from `sender` to `recipient`.\n     *\n     * This is internal function is equivalent to {transfer}, and can be used to\n     * e.g. implement automatic token fees, slashing mechanisms, etc.\n     *\n     * Emits a {Transfer} event.\n     *\n     * Requirements:\n     *\n     * - `sender` cannot be the zero address.\n     * - `recipient` cannot be the zero address.\n     * - `sender` must have a balance of at least `amount`.\n     */\n    function _transfer(\n        address sender,\n        address recipient,\n        uint256 amount\n    ) internal virtual {\n        require(sender != address(0), \"ERC20: transfer from the zero address\");\n        require(recipient != address(0), \"ERC20: transfer to the zero address\");\n\n        _beforeTokenTransfer(sender, recipient, amount);\n\n        _balances[sender] = _balances[sender].sub(amount, \"ERC20: transfer amount exceeds balance\");\n        _balances[recipient] = _balances[recipient].add(amount);\n        emit Transfer(sender, recipient, amount);\n    }\n\n    /** @dev Creates `amount` tokens and assigns them to `account`, increasing\n     * the total supply.\n     *\n     * Emits a {Transfer} event with `from` set to the zero address.\n     *\n     * Requirements:\n     *\n     * - `account` cannot be the zero address.\n     */\n    function _mint(address account, uint256 amount) internal virtual {\n        require(account != address(0), \"ERC20: mint to the zero address\");\n\n        _beforeTokenTransfer(address(0), account, amount);\n\n        _totalSupply = _totalSupply.add(amount);\n        _balances[account] = _balances[account].add(amount);\n        emit Transfer(address(0), account, amount);\n    }\n\n    /**\n     * @dev Destroys `amount` tokens from `account`, reducing the\n     * total supply.\n     *\n     * Emits a {Transfer} event with `to` set to the zero address.\n     *\n     * Requirements:\n     *\n     * - `account` cannot be the zero address.\n     * - `account` must have at least `amount` tokens.\n     */\n    function _burn(address account, uint256 amount) internal virtual {\n        require(account != address(0), \"ERC20: burn from the zero address\");\n\n        _beforeTokenTransfer(account, address(0), amount);\n\n        _balances[account] = _balances[account].sub(amount, \"ERC20: burn amount exceeds balance\");\n        _totalSupply = _totalSupply.sub(amount);\n        emit Transfer(account, address(0), amount);\n    }\n\n    /**\n     * @dev Sets `amount` as the allowance of `spender` over the `owner` s tokens.\n     *\n     * This internal function is equivalent to `approve`, and can be used to\n     * e.g. set automatic allowances for certain subsystems, etc.\n     *\n     * Emits an {Approval} event.\n     *\n     * Requirements:\n     *\n     * - `owner` cannot be the zero address.\n     * - `spender` cannot be the zero address.\n     */\n    function _approve(\n        address owner,\n        address spender,\n        uint256 amount\n    ) internal virtual {\n        require(owner != address(0), \"ERC20: approve from the zero address\");\n        require(spender != address(0), \"ERC20: approve to the zero address\");\n\n        _allowances[owner][spender] = amount;\n        emit Approval(owner, spender, amount);\n    }\n\n    /**\n     * @dev Hook that is called before any transfer of tokens. This includes\n     * minting and burning.\n     *\n     * Calling conditions:\n     *\n     * - when `from` and `to` are both non-zero, `amount` of ``from``'s tokens\n     * will be to transferred to `to`.\n     * - when `from` is zero, `amount` tokens will be minted for `to`.\n     * - when `to` is zero, `amount` of ``from``'s tokens will be burned.\n     * - `from` and `to` are never both zero.\n     *\n     * To learn more about hooks, head to xref:ROOT:extending-contracts.adoc#using-hooks[Using Hooks].\n     */\n    function _beforeTokenTransfer(\n        address from,\n        address to,\n        uint256 amount\n    ) internal virtual {}\n}\n\n\ncontract ZonuletNFTAds {\n\n    address admin;\n    ZonuletNFT public zonuletNFT;\n\n    address public immutable ZONU = address(0xA499cE35fc84C6EA6ACb1F8864C4D9F975B306bd); // ZONU\n\n    address public marketingAddress = 0x5B8e41597c812200Dba256e24a01B6CDDba04529; // personal address  \n\n    event NewAdvertisement(uint256 _tokenId, uint256 _adId, address _buyer, uint256 _timestamp, uint256 _until);\n\n    address public owner;\n\n    constructor(ZonuletNFT _zonuletNFT) public {\n        admin = address(this);\n        owner = msg.sender;\n        zonuletNFT = _zonuletNFT;\n    }\n\n    modifier onlyOwner() {\n        require(msg.sender == owner);\n        _;\n    }\n\n    uint256 adprice90 = 120000000; // 120M ZONU default\n    uint256 adprice60 = 90000000; // 90M ZONU default\n    uint256 adprice30 = 50000000; // 50M ZONU default\n\n    struct NFTAds {\n        uint adId;\n        uint nftId;\n        address buyer;\n        uint timestamp;\n        uint until;\n    }\n\n    struct Ad {\n        uint adId;\n        uint upvotes;\n        uint nftId;\n        address buyer;\n        uint timestamp;\n        uint until;\n    }\n\n    struct AdOwner {\n        uint adId;\n        uint nftId;\n        address buyer;        \n        uint timestamp;\n        uint until;\n    }\n\n    mapping(uint => NFTAds) public nftAds;\n\n    mapping(uint => Ad) public ads;\n\n    mapping(address => AdOwner) public adOwners;\n\n    AdOwner[] public adOwnerList;\n\n    // AdOwner[] public adOwners;\n\n    uint[] public adverts;\n\n    // mapping(uint => bool) _adExists;\n\n    function BuyAd90(uint256 _tokenId) public payable {\n        require(_tokenId <= zonuletNFT.totalSupply());\n        // require(!_adExists[_tokenId]);\n\n        IERC20(ZONU).transferFrom(msg.sender, marketingAddress, adprice90*1e18);\n\n        adverts.push(_tokenId);\n\n        uint _id = adverts.length -1;\n\n        ads[_id].timestamp = block.timestamp;\n        ads[_id].until = block.timestamp + 90 days;\n        ads[_id].adId = _id;\n        ads[_id].buyer = msg.sender;\n        ads[_id].upvotes += 90;\n        ads[_id].nftId = _tokenId;\n\n        nftAds[_tokenId].nftId = _tokenId;\n        nftAds[_tokenId].adId = _id;\n        nftAds[_tokenId].buyer = msg.sender;\n        nftAds[_tokenId].timestamp = block.timestamp;\n        nftAds[_tokenId].until = block.timestamp + 90 days;\n\n        // adOwners[msg.sender].push(_id);\n        // adOwners[msg.sender].nftId.push(_tokenId);\n        // adOwners[msg.sender].buyer = msg.sender;\n        // adOwners[msg.sender].timestamp.push(block.timestamp);\n        // adOwners[msg.sender].until.push(block.timestamp + 90 days);\n        adOwnerList.push(AdOwner(_id, _tokenId, msg.sender, block.timestamp, block.timestamp + 90 days));\n        \n        // _adExists[_tokenId] = true;\n\n        emit NewAdvertisement(_tokenId, _id, msg.sender, block.timestamp, block.timestamp + 90 days);\n    }\n\n    function BuyAd60(uint256 _tokenId) public payable {\n        require(_tokenId <= zonuletNFT.totalSupply());\n        // require(!_adExists[_tokenId]);\n\n        IERC20(ZONU).transferFrom(msg.sender, marketingAddress, adprice60*1e18);\n\n        adverts.push(_tokenId);\n\n        uint _id = adverts.length -1;\n\n        ads[_id].timestamp = block.timestamp;\n        ads[_id].until = block.timestamp + 60 days;\n        ads[_id].adId = _id;\n        ads[_id].buyer = msg.sender;\n        ads[_id].upvotes += 60;\n        ads[_id].nftId = _tokenId;\n\n        nftAds[_tokenId].nftId = _tokenId;\n        nftAds[_tokenId].adId = _id;\n        nftAds[_tokenId].buyer = msg.sender;\n        nftAds[_tokenId].timestamp = block.timestamp;\n        nftAds[_tokenId].until = block.timestamp + 60 days;\n\n        adOwnerList.push(AdOwner(_id, _tokenId, msg.sender, block.timestamp, block.timestamp + 60 days));\n        \n        // _adExists[_tokenId] = true;\n\n        emit NewAdvertisement(_tokenId, _id, msg.sender, block.timestamp, block.timestamp + 60 days);\n    }\n\n    function BuyAd30(uint256 _tokenId) public payable {\n        require(_tokenId <= zonuletNFT.totalSupply());\n        // require(!_adExists[_tokenId]);\n\n        IERC20(ZONU).transferFrom(msg.sender, marketingAddress, adprice30*1e18);\n\n        adverts.push(_tokenId);\n\n        uint _id = adverts.length -1;\n\n        ads[_id].timestamp = block.timestamp;\n        ads[_id].until = block.timestamp + 30 days;\n        ads[_id].adId = _id;\n        ads[_id].buyer = msg.sender;\n        ads[_id].upvotes += 30;\n        ads[_id].nftId = _tokenId;\n\n        nftAds[_tokenId].nftId = _tokenId;\n        nftAds[_tokenId].adId = _id;\n        nftAds[_tokenId].buyer = msg.sender;\n        nftAds[_tokenId].timestamp = block.timestamp;\n        nftAds[_tokenId].until = block.timestamp + 30 days;\n\n        adOwnerList.push(AdOwner(_id, _tokenId, msg.sender, block.timestamp, block.timestamp + 30 days));\n        \n        // _adExists[_tokenId] = true;\n\n        emit NewAdvertisement(_tokenId, _id, msg.sender, block.timestamp, block.timestamp + 30 days);\n    }\n\n    function AdminBuyAd(uint256 _tokenId) public payable onlyOwner {\n        require(msg.sender == owner);\n        require(_tokenId <= zonuletNFT.totalSupply());        \n\n        // IERC20(ZONU).transferFrom(msg.sender, marketingAddress, adprice90*1e18);\n\n        adverts.push(_tokenId);\n\n        uint _id = adverts.length -1;\n\n        ads[_id].timestamp = block.timestamp;\n        ads[_id].until = block.timestamp + 90 days;\n        ads[_id].adId = _id;\n        ads[_id].buyer = msg.sender;\n        ads[_id].upvotes += 90;\n        ads[_id].nftId = _tokenId;\n\n        nftAds[_tokenId].nftId = _tokenId;\n        nftAds[_tokenId].adId = _id;\n        nftAds[_tokenId].buyer = msg.sender;\n        nftAds[_tokenId].timestamp = block.timestamp;\n        nftAds[_tokenId].until = block.timestamp + 90 days;\n\n        adOwnerList.push(AdOwner(_id, _tokenId, msg.sender, block.timestamp, block.timestamp + 90 days));\n        \n        // _adExists[_tokenId] = true;\n\n        emit NewAdvertisement(_tokenId, _id, msg.sender, block.timestamp, block.timestamp + 90 days);\n    }\n\n    function checkAdExpiry(uint256 _adId) public view returns (bool success) {    \n        uint LastTimeStamp = ads[_adId].until;\n\n        if (LastTimeStamp <= block.timestamp) {\n            return true; // If LastTimeStamp is less than or equal to block.timestamp, return true (ad expired)\n        } else {\n            return false;\n        }\n    }\n\n    function checkNFTAdExpiry(uint256 _nftId) public view returns (bool success) {    \n        uint LastTimeStamp = nftAds[_nftId].until;\n\n        if (LastTimeStamp <= block.timestamp) {\n            return true; // If LastTimeStamp is less than or equal to block.timestamp, return true (ad expired)\n        } else {\n            return false;\n        }\n    }\n\n    function TotalAds() public view returns (uint) {\n        return adverts.length;\n    }\n\n    function setAdPrice90(uint256 _adprice90) public onlyOwner {\n        require(msg.sender == owner);\n        adprice90 = _adprice90;\n    }\n\n    function getAdPrice90() public view returns (uint256) {\n        return adprice90;\n    }\n\n    function setAdPrice60(uint256 _adprice60) public onlyOwner {\n        require(msg.sender == owner);\n        adprice60 = _adprice60;\n    }\n\n    function getAdPrice60() public view returns (uint256) {\n        return adprice60;\n    }\n\n    function setAdPrice30(uint256 _adprice30) public onlyOwner {\n        require(msg.sender == owner);\n        adprice30 = _adprice30;\n    }\n\n    function getAdPrice30() public view returns (uint256) {\n        return adprice30;\n    }\n\n}",
  "sourcePath": "/mnt/d/AGIN-WORKS-GITHUB/ZONULET/Zonulet-Github/New_Zonulet/src/contracts/ZonuletNFTAds.sol",
  "compiler": {
    "name": "solc",
    "version": "0.8.7+commit.e28d00a7.Emscripten.clang"
  },
  "schemaVersion": "3.4.7",
  "updatedAt": "2022-09-28T23:53:53.823Z",
  "networkType": "ethereum",
  "devdoc": {
    "kind": "dev",
    "methods": {},
    "version": 1
  },
  "userdoc": {
    "kind": "user",
    "methods": {},
    "version": 1
  }
}