{
  "contractName": "ZonuletZDEX",
  "abi": [
    {
      "inputs": [],
      "stateMutability": "nonpayable",
      "type": "constructor"
    },
    {
      "inputs": [],
      "name": "uniswapRouter",
      "outputs": [
        {
          "internalType": "contract IUniswapV2Router02",
          "name": "",
          "type": "address"
        }
      ],
      "stateMutability": "view",
      "type": "function",
      "constant": true
    },
    {
      "stateMutability": "payable",
      "type": "receive",
      "payable": true
    },
    {
      "inputs": [
        {
          "internalType": "uint256",
          "name": "zonuAmount",
          "type": "uint256"
        },
        {
          "internalType": "uint256",
          "name": "deadline",
          "type": "uint256"
        }
      ],
      "name": "zonulet",
      "outputs": [],
      "stateMutability": "payable",
      "type": "function",
      "payable": true
    },
    {
      "inputs": [
        {
          "internalType": "uint256",
          "name": "zonuAmount",
          "type": "uint256"
        }
      ],
      "name": "getEstimatedMANTLEforZONU",
      "outputs": [
        {
          "internalType": "uint256[]",
          "name": "",
          "type": "uint256[]"
        }
      ],
      "stateMutability": "view",
      "type": "function",
      "constant": true
    },
    {
      "inputs": [
        {
          "internalType": "uint256",
          "name": "roseAmount",
          "type": "uint256"
        }
      ],
      "name": "getEstimatedZONUforMANTLE",
      "outputs": [
        {
          "internalType": "uint256[]",
          "name": "",
          "type": "uint256[]"
        }
      ],
      "stateMutability": "view",
      "type": "function",
      "constant": true
    }
  ],
  "bytecode": "0x608060405273216ed590cb7ec3417cab82699ae493522fecf580600160006101000a81548173ffffffffffffffffffffffffffffffffffffffff021916908373ffffffffffffffffffffffffffffffffffffffff16021790555034801561006557600080fd5b5073590ead7f6ef611db78347edf8906b7ca463886096000806101000a81548173ffffffffffffffffffffffffffffffffffffffff021916908373ffffffffffffffffffffffffffffffffffffffff160217905550610ff1806100c96000396000f3fe6080604052600436106100435760003560e01c80636fd0f92f1461004f578063735de9f71461006b57806374f8ba1b14610096578063d268c6b4146100d35761004a565b3661004a57005b600080fd5b61006960048036038101906100649190610ab1565b610110565b005b34801561007757600080fd5b50610080610425565b60405161008d9190610ca5565b60405180910390f35b3480156100a257600080fd5b506100bd60048036038101906100b89190610a84565b610449565b6040516100ca9190610c83565b60405180910390f35b3480156100df57600080fd5b506100fa60048036038101906100f59190610a84565b610509565b6040516101079190610c83565b60405180910390f35b6000600267ffffffffffffffff81111561012d5761012c610f0d565b5b60405190808252806020026020018201604052801561015b5781602001602082028036833780820191505090505b50905060008054906101000a900473ffffffffffffffffffffffffffffffffffffffff1673ffffffffffffffffffffffffffffffffffffffff1663ad5c46486040518163ffffffff1660e01b815260040160206040518083038186803b1580156101c457600080fd5b505afa1580156101d8573d6000803e3d6000fd5b505050506040513d601f19601f820116820180604052508101906101fc9190610a0e565b816000815181106102105761020f610ede565b5b602002602001019073ffffffffffffffffffffffffffffffffffffffff16908173ffffffffffffffffffffffffffffffffffffffff1681525050600160009054906101000a900473ffffffffffffffffffffffffffffffffffffffff168160018151811061028157610280610ede565b5b602002602001019073ffffffffffffffffffffffffffffffffffffffff16908173ffffffffffffffffffffffffffffffffffffffff168152505060008054906101000a900473ffffffffffffffffffffffffffffffffffffffff1673ffffffffffffffffffffffffffffffffffffffff1663fb3bdb4134858433876040518663ffffffff1660e01b815260040161031b9493929190610d10565b6000604051808303818588803b15801561033457600080fd5b505af1158015610348573d6000803e3d6000fd5b50505050506040513d6000823e3d601f19601f820116820180604052508101906103729190610a3b565b5060003373ffffffffffffffffffffffffffffffffffffffff164760405161039990610c6e565b60006040518083038185875af1925050503d80600081146103d6576040519150601f19603f3d011682016040523d82523d6000602084013e6103db565b606091505b505090508061041f576040517f08c379a000000000000000000000000000000000000000000000000000000000815260040161041690610cc0565b60405180910390fd5b50505050565b60008054906101000a900473ffffffffffffffffffffffffffffffffffffffff1681565b606060008054906101000a900473ffffffffffffffffffffffffffffffffffffffff1673ffffffffffffffffffffffffffffffffffffffff16631f00ca74836104906105c9565b6040518363ffffffff1660e01b81526004016104ad929190610ce0565b60006040518083038186803b1580156104c557600080fd5b505afa1580156104d9573d6000803e3d6000fd5b505050506040513d6000823e3d601f19601f820116820180604052508101906105029190610a3b565b9050919050565b606060008054906101000a900473ffffffffffffffffffffffffffffffffffffffff1673ffffffffffffffffffffffffffffffffffffffff1663d06ca61f8361055061077d565b6040518363ffffffff1660e01b815260040161056d929190610ce0565b60006040518083038186803b15801561058557600080fd5b505afa158015610599573d6000803e3d6000fd5b505050506040513d6000823e3d601f19601f820116820180604052508101906105c29190610a3b565b9050919050565b60606000600267ffffffffffffffff8111156105e8576105e7610f0d565b5b6040519080825280602002602001820160405280156106165781602001602082028036833780820191505090505b50905060008054906101000a900473ffffffffffffffffffffffffffffffffffffffff1673ffffffffffffffffffffffffffffffffffffffff1663ad5c46486040518163ffffffff1660e01b815260040160206040518083038186803b15801561067f57600080fd5b505afa158015610693573d6000803e3d6000fd5b505050506040513d601f19601f820116820180604052508101906106b79190610a0e565b816000815181106106cb576106ca610ede565b5b602002602001019073ffffffffffffffffffffffffffffffffffffffff16908173ffffffffffffffffffffffffffffffffffffffff1681525050600160009054906101000a900473ffffffffffffffffffffffffffffffffffffffff168160018151811061073c5761073b610ede565b5b602002602001019073ffffffffffffffffffffffffffffffffffffffff16908173ffffffffffffffffffffffffffffffffffffffff16815250508091505090565b60606000600267ffffffffffffffff81111561079c5761079b610f0d565b5b6040519080825280602002602001820160405280156107ca5781602001602082028036833780820191505090505b509050600160009054906101000a900473ffffffffffffffffffffffffffffffffffffffff168160018151811061080457610803610ede565b5b602002602001019073ffffffffffffffffffffffffffffffffffffffff16908173ffffffffffffffffffffffffffffffffffffffff168152505060008054906101000a900473ffffffffffffffffffffffffffffffffffffffff1673ffffffffffffffffffffffffffffffffffffffff1663ad5c46486040518163ffffffff1660e01b815260040160206040518083038186803b1580156108a457600080fd5b505afa1580156108b8573d6000803e3d6000fd5b505050506040513d601f19601f820116820180604052508101906108dc9190610a0e565b816000815181106108f0576108ef610ede565b5b602002602001019073ffffffffffffffffffffffffffffffffffffffff16908173ffffffffffffffffffffffffffffffffffffffff16815250508091505090565b600061094461093f84610d81565b610d5c565b9050808382526020820190508285602086028201111561096757610966610f41565b5b60005b85811015610997578161097d88826109f9565b84526020840193506020830192505060018101905061096a565b5050509392505050565b6000815190506109b081610f8d565b92915050565b600082601f8301126109cb576109ca610f3c565b5b81516109db848260208601610931565b91505092915050565b6000813590506109f381610fa4565b92915050565b600081519050610a0881610fa4565b92915050565b600060208284031215610a2457610a23610f4b565b5b6000610a32848285016109a1565b91505092915050565b600060208284031215610a5157610a50610f4b565b5b600082015167ffffffffffffffff811115610a6f57610a6e610f46565b5b610a7b848285016109b6565b91505092915050565b600060208284031215610a9a57610a99610f4b565b5b6000610aa8848285016109e4565b91505092915050565b60008060408385031215610ac857610ac7610f4b565b5b6000610ad6858286016109e4565b9250506020610ae7858286016109e4565b9150509250929050565b6000610afd8383610b21565b60208301905092915050565b6000610b158383610c50565b60208301905092915050565b610b2a81610e3b565b82525050565b610b3981610e3b565b82525050565b6000610b4a82610dcd565b610b548185610dfd565b9350610b5f83610dad565b8060005b83811015610b90578151610b778882610af1565b9750610b8283610de3565b925050600181019050610b63565b5085935050505092915050565b6000610ba882610dd8565b610bb28185610e0e565b9350610bbd83610dbd565b8060005b83811015610bee578151610bd58882610b09565b9750610be083610df0565b925050600181019050610bc1565b5085935050505092915050565b610c0481610e77565b82525050565b6000610c17600083610e1f565b9150610c2282610f61565b600082019050919050565b6000610c3a601e83610e2a565b9150610c4582610f64565b602082019050919050565b610c5981610e6d565b82525050565b610c6881610e6d565b82525050565b6000610c7982610c0a565b9150819050919050565b60006020820190508181036000830152610c9d8184610b9d565b905092915050565b6000602082019050610cba6000830184610bfb565b92915050565b60006020820190508181036000830152610cd981610c2d565b9050919050565b6000604082019050610cf56000830185610c5f565b8181036020830152610d078184610b3f565b90509392505050565b6000608082019050610d256000830187610c5f565b8181036020830152610d378186610b3f565b9050610d466040830185610b30565b610d536060830184610c5f565b95945050505050565b6000610d66610d77565b9050610d728282610ead565b919050565b6000604051905090565b600067ffffffffffffffff821115610d9c57610d9b610f0d565b5b602082029050602081019050919050565b6000819050602082019050919050565b6000819050602082019050919050565b600081519050919050565b600081519050919050565b6000602082019050919050565b6000602082019050919050565b600082825260208201905092915050565b600082825260208201905092915050565b600081905092915050565b600082825260208201905092915050565b6000610e4682610e4d565b9050919050565b600073ffffffffffffffffffffffffffffffffffffffff82169050919050565b6000819050919050565b6000610e8282610e89565b9050919050565b6000610e9482610e9b565b9050919050565b6000610ea682610e4d565b9050919050565b610eb682610f50565b810181811067ffffffffffffffff82111715610ed557610ed4610f0d565b5b80604052505050565b7f4e487b7100000000000000000000000000000000000000000000000000000000600052603260045260246000fd5b7f4e487b7100000000000000000000000000000000000000000000000000000000600052604160045260246000fd5b600080fd5b600080fd5b600080fd5b600080fd5b6000601f19601f8301169050919050565b50565b7f7a6f6e756c6574207a617020524f534520726566756e64206661696c65640000600082015250565b610f9681610e3b565b8114610fa157600080fd5b50565b610fad81610e6d565b8114610fb857600080fd5b5056fea26469706673582212201293813703c452c516ed4f7f26c233044b2c1e03a52a0d0b97c351371d61ff1464736f6c63430008070033",
  "immutableReferences": {},
  "source": "//              \r\n//           \r\n//                        \r\n//                       \r\n//        \r\n//                                                                        \r\n// zonulet.io\r\n// SPDX-License-Identifier: MIT\r\n\r\n// File: https://github.com/Uniswap/uniswap-v2-periphery/blob/master/contracts/interfaces/IUniswapV2Router01.sol\r\n\r\npragma solidity >=0.6.2;\r\n\r\ninterface IUniswapV2Router01 {\r\n    function factory() external pure returns (address);\r\n    function WETH() external pure returns (address);\r\n\r\n    function addLiquidity(\r\n        address tokenA,\r\n        address tokenB,\r\n        uint amountADesired,\r\n        uint amountBDesired,\r\n        uint amountAMin,\r\n        uint amountBMin,\r\n        address to,\r\n        uint deadline\r\n    ) external returns (uint amountA, uint amountB, uint liquidity);\r\n    function addLiquidityETH(\r\n        address token,\r\n        uint amountTokenDesired,\r\n        uint amountTokenMin,\r\n        uint amountETHMin,\r\n        address to,\r\n        uint deadline\r\n    ) external payable returns (uint amountToken, uint amountETH, uint liquidity);\r\n    function removeLiquidity(\r\n        address tokenA,\r\n        address tokenB,\r\n        uint liquidity,\r\n        uint amountAMin,\r\n        uint amountBMin,\r\n        address to,\r\n        uint deadline\r\n    ) external returns (uint amountA, uint amountB);\r\n    function removeLiquidityETH(\r\n        address token,\r\n        uint liquidity,\r\n        uint amountTokenMin,\r\n        uint amountETHMin,\r\n        address to,\r\n        uint deadline\r\n    ) external returns (uint amountToken, uint amountETH);\r\n    function removeLiquidityWithPermit(\r\n        address tokenA,\r\n        address tokenB,\r\n        uint liquidity,\r\n        uint amountAMin,\r\n        uint amountBMin,\r\n        address to,\r\n        uint deadline,\r\n        bool approveMax, uint8 v, bytes32 r, bytes32 s\r\n    ) external returns (uint amountA, uint amountB);\r\n    function removeLiquidityETHWithPermit(\r\n        address token,\r\n        uint liquidity,\r\n        uint amountTokenMin,\r\n        uint amountETHMin,\r\n        address to,\r\n        uint deadline,\r\n        bool approveMax, uint8 v, bytes32 r, bytes32 s\r\n    ) external returns (uint amountToken, uint amountETH);\r\n    function swapExactTokensForTokens(\r\n        uint amountIn,\r\n        uint amountOutMin,\r\n        address[] calldata path,\r\n        address to,\r\n        uint deadline\r\n    ) external returns (uint[] memory amounts);\r\n    function swapTokensForExactTokens(\r\n        uint amountOut,\r\n        uint amountInMax,\r\n        address[] calldata path,\r\n        address to,\r\n        uint deadline\r\n    ) external returns (uint[] memory amounts);\r\n    function swapExactETHForTokens(uint amountOutMin, address[] calldata path, address to, uint deadline)\r\n        external\r\n        payable\r\n        returns (uint[] memory amounts);\r\n    function swapTokensForExactETH(uint amountOut, uint amountInMax, address[] calldata path, address to, uint deadline)\r\n        external\r\n        returns (uint[] memory amounts);\r\n    function swapExactTokensForETH(uint amountIn, uint amountOutMin, address[] calldata path, address to, uint deadline)\r\n        external\r\n        returns (uint[] memory amounts);\r\n    function swapETHForExactTokens(uint amountOut, address[] calldata path, address to, uint deadline)\r\n        external\r\n        payable\r\n        returns (uint[] memory amounts);\r\n\r\n    function quote(uint amountA, uint reserveA, uint reserveB) external pure returns (uint amountB);\r\n    function getAmountOut(uint amountIn, uint reserveIn, uint reserveOut) external pure returns (uint amountOut);\r\n    function getAmountIn(uint amountOut, uint reserveIn, uint reserveOut) external pure returns (uint amountIn);\r\n    function getAmountsOut(uint amountIn, address[] calldata path) external view returns (uint[] memory amounts);\r\n    function getAmountsIn(uint amountOut, address[] calldata path) external view returns (uint[] memory amounts);\r\n}\r\n\r\n// File: https://github.com/Uniswap/uniswap-v2-periphery/blob/master/contracts/interfaces/IUniswapV2Router02.sol\r\n\r\npragma solidity >=0.6.2;\r\n\r\n\r\ninterface IUniswapV2Router02 is IUniswapV2Router01 {\r\n    function removeLiquidityETHSupportingFeeOnTransferTokens(\r\n        address token,\r\n        uint liquidity,\r\n        uint amountTokenMin,\r\n        uint amountETHMin,\r\n        address to,\r\n        uint deadline\r\n    ) external returns (uint amountETH);\r\n    function removeLiquidityETHWithPermitSupportingFeeOnTransferTokens(\r\n        address token,\r\n        uint liquidity,\r\n        uint amountTokenMin,\r\n        uint amountETHMin,\r\n        address to,\r\n        uint deadline,\r\n        bool approveMax, uint8 v, bytes32 r, bytes32 s\r\n    ) external returns (uint amountETH);\r\n\r\n    function swapExactTokensForTokensSupportingFeeOnTransferTokens(\r\n        uint amountIn,\r\n        uint amountOutMin,\r\n        address[] calldata path,\r\n        address to,\r\n        uint deadline\r\n    ) external;\r\n    function swapExactETHForTokensSupportingFeeOnTransferTokens(\r\n        uint amountOutMin,\r\n        address[] calldata path,\r\n        address to,\r\n        uint deadline\r\n    ) external payable;\r\n    function swapExactTokensForETHSupportingFeeOnTransferTokens(\r\n        uint amountIn,\r\n        uint amountOutMin,\r\n        address[] calldata path,\r\n        address to,\r\n        uint deadline\r\n    ) external;\r\n}\r\n\r\n// File: ZonuletZDEX.sol\r\n\r\npragma solidity >0.8.0;\r\n\r\ncontract ZonuletZDEX {\r\n  address internal constant UNISWAP_ROUTER_ADDRESS = 0x590eaD7F6Ef611db78347EdF8906B7CA46388609; //  Router\r\n\r\n  IUniswapV2Router02 public uniswapRouter;\r\n  address private zonu = 0x216eD590Cb7Ec3417CAb82699ae493522fECf580;\r\n\r\n  constructor() {\r\n    uniswapRouter = IUniswapV2Router02(UNISWAP_ROUTER_ADDRESS);\r\n  }\r\n  \r\n  function zonulet(uint zonuAmount, uint deadline) public payable {\r\n    address[] memory path = new address[](2);\r\n    path[0] = uniswapRouter.WETH();\r\n    path[1] = zonu;\r\n\r\n    uniswapRouter.swapETHForExactTokens{ value: msg.value }(zonuAmount, path, msg.sender, deadline);\r\n    \r\n    // refund leftover ROSE to user\r\n    (bool success,) = msg.sender.call{ value: address(this).balance }(\"\");\r\n    require(success, \"zonulet zap ROSE refund failed\");\r\n  }\r\n  \r\n  function getEstimatedMANTLEforZONU(uint zonuAmount) public view returns (uint[] memory) {\r\n    return uniswapRouter.getAmountsIn(zonuAmount, getPathForMANTLEtoZONU());\r\n  }\r\n  \r\n    function getEstimatedZONUforMANTLE(uint roseAmount) public view returns (uint[] memory) {\r\n    return uniswapRouter.getAmountsOut(roseAmount, getPathForZONUtoMANTLE());\r\n  }\r\n\r\n  function getPathForMANTLEtoZONU() private view returns (address[] memory) {\r\n    address[] memory path = new address[](2);\r\n    path[0] = uniswapRouter.WETH();\r\n    path[1] = zonu;\r\n    \r\n    return path;\r\n  }\r\n  \r\n  function getPathForZONUtoMANTLE() private view returns (address[] memory) {\r\n    address[] memory path = new address[](2);\r\n    path[1] = zonu;\r\n    path[0] = uniswapRouter.WETH();\r\n    \r\n    return path;\r\n  }\r\n  \r\n  // important to receive ETH\r\n  receive() payable external {}\r\n}",
  "sourcePath": "/mnt/e/ETH-DENVER/INFURA/truffle/contracts/ZonuletZDEX.sol",
  "compiler": {
    "name": "solc",
    "version": "0.8.7+commit.e28d00a7.Emscripten.clang"
  },
  "schemaVersion": "3.4.12",
  "updatedAt": "2023-02-26T02:37:37.529Z",
  "networkType": "ethereum",
  "devdoc": {
    "kind": "dev",
    "methods": {},
    "version": 1
  },
  "userdoc": {
    "kind": "user",
    "methods": {},
    "version": 1
  }
}