{
  "contractName": "ZonuletVerified",
  "abi": [
    {
      "inputs": [],
      "stateMutability": "nonpayable",
      "type": "constructor"
    },
    {
      "anonymous": false,
      "inputs": [
        {
          "indexed": true,
          "internalType": "address",
          "name": "hashAddress",
          "type": "address"
        },
        {
          "indexed": false,
          "internalType": "bool",
          "name": "verified",
          "type": "bool"
        }
      ],
      "name": "SetVerified",
      "type": "event"
    },
    {
      "inputs": [],
      "name": "owner",
      "outputs": [
        {
          "internalType": "address",
          "name": "",
          "type": "address"
        }
      ],
      "stateMutability": "view",
      "type": "function",
      "constant": true
    },
    {
      "inputs": [
        {
          "internalType": "uint256",
          "name": "",
          "type": "uint256"
        }
      ],
      "name": "updates",
      "outputs": [
        {
          "internalType": "address",
          "name": "",
          "type": "address"
        }
      ],
      "stateMutability": "view",
      "type": "function",
      "constant": true
    },
    {
      "inputs": [
        {
          "internalType": "address",
          "name": "addy",
          "type": "address"
        },
        {
          "internalType": "bool",
          "name": "verified",
          "type": "bool"
        }
      ],
      "name": "setVerified",
      "outputs": [],
      "stateMutability": "nonpayable",
      "type": "function"
    },
    {
      "inputs": [
        {
          "internalType": "address",
          "name": "hashAddress",
          "type": "address"
        }
      ],
      "name": "getVerified",
      "outputs": [
        {
          "internalType": "bool",
          "name": "",
          "type": "bool"
        }
      ],
      "stateMutability": "view",
      "type": "function",
      "constant": true
    },
    {
      "inputs": [],
      "name": "UpdateCount",
      "outputs": [
        {
          "internalType": "uint256",
          "name": "",
          "type": "uint256"
        }
      ],
      "stateMutability": "view",
      "type": "function",
      "constant": true
    }
  ],
  "bytecode": "0x608060405234801561001057600080fd5b5033600260006101000a81548173ffffffffffffffffffffffffffffffffffffffff021916908373ffffffffffffffffffffffffffffffffffffffff16021790555061055f806100616000396000f3fe608060405234801561001057600080fd5b50600436106100575760003560e01c8063116864f01461005c5780638d179b861461008c5780638da5cb5b146100aa5780639cf5c613146100c8578063b4c2f727146100e4575b600080fd5b6100766004803603810190610071919061037f565b610114565b6040516100839190610461565b60405180910390f35b610094610169565b6040516100a1919061047c565b60405180910390f35b6100b2610176565b6040516100bf9190610446565b60405180910390f35b6100e260048036038101906100dd91906103ac565b61019c565b005b6100fe60048036038101906100f991906103ec565b610301565b60405161010b9190610446565b60405180910390f35b60008060008373ffffffffffffffffffffffffffffffffffffffff1673ffffffffffffffffffffffffffffffffffffffff16815260200190815260200160002060009054906101000a900460ff169050919050565b6000600180549050905090565b600260009054906101000a900473ffffffffffffffffffffffffffffffffffffffff1681565b600260009054906101000a900473ffffffffffffffffffffffffffffffffffffffff1673ffffffffffffffffffffffffffffffffffffffff163373ffffffffffffffffffffffffffffffffffffffff16146101f657600080fd5b6001829080600181540180825580915050600190039060005260206000200160009091909190916101000a81548173ffffffffffffffffffffffffffffffffffffffff021916908373ffffffffffffffffffffffffffffffffffffffff160217905550806000808473ffffffffffffffffffffffffffffffffffffffff1673ffffffffffffffffffffffffffffffffffffffff16815260200190815260200160002060006101000a81548160ff0219169083151502179055508173ffffffffffffffffffffffffffffffffffffffff167f10588b087899f367a886cecce4b60fe07afd4e46f9820985ce9e593b86f746bc826040516102f59190610461565b60405180910390a25050565b6001818154811061031157600080fd5b906000526020600020016000915054906101000a900473ffffffffffffffffffffffffffffffffffffffff1681565b60008135905061034f816104e4565b92915050565b600081359050610364816104fb565b92915050565b60008135905061037981610512565b92915050565b600060208284031215610395576103946104df565b5b60006103a384828501610340565b91505092915050565b600080604083850312156103c3576103c26104df565b5b60006103d185828601610340565b92505060206103e285828601610355565b9150509250929050565b600060208284031215610402576104016104df565b5b60006104108482850161036a565b91505092915050565b61042281610497565b82525050565b610431816104a9565b82525050565b610440816104d5565b82525050565b600060208201905061045b6000830184610419565b92915050565b60006020820190506104766000830184610428565b92915050565b60006020820190506104916000830184610437565b92915050565b60006104a2826104b5565b9050919050565b60008115159050919050565b600073ffffffffffffffffffffffffffffffffffffffff82169050919050565b6000819050919050565b600080fd5b6104ed81610497565b81146104f857600080fd5b50565b610504816104a9565b811461050f57600080fd5b50565b61051b816104d5565b811461052657600080fd5b5056fea2646970667358221220a8831cad6dd0b63295f1bd655c2a270b00d198d8baf309a880143808d3fa416d64736f6c63430008070033",
  "immutableReferences": {},
  "source": "//              \r\n//           \r\n//                        \r\n//                       \r\n//        \r\n//                                                                        \r\n// zonulet.io\r\n// SPDX-License-Identifier: MIT\r\n\r\npragma solidity ^0.8.0;\r\n\r\ncontract ZonuletVerified {\r\n    mapping (address => bool) private verifies;\r\n    \r\n    address[] public updates;\r\n\r\n    event SetVerified(address indexed hashAddress, bool verified);\r\n    \r\n    address public owner;\r\n\r\n    constructor ()  {\r\n       owner = msg.sender;\r\n    }\r\n\r\n    modifier onlyOwner() {\r\n        require(msg.sender == owner);\r\n        _;\r\n    }\r\n\r\n    function setVerified(address addy, bool verified) public onlyOwner {\r\n        \r\n        updates.push(addy);\r\n        \r\n        verifies[addy] = verified;\r\n\r\n        emit SetVerified(addy, verified);\r\n    }\r\n\r\n    function getVerified(address hashAddress) public view returns (bool) {\r\n        return verifies[hashAddress];\r\n    }\r\n    \r\n    function UpdateCount() public view returns (uint) {\r\n        return updates.length;\r\n    }\r\n}",
  "sourcePath": "/mnt/e/ETH-DENVER/INFURA/truffle/contracts/ZonuletVerified.sol",
  "compiler": {
    "name": "solc",
    "version": "0.8.7+commit.e28d00a7.Emscripten.clang"
  },
  "schemaVersion": "3.4.12",
  "updatedAt": "2023-02-26T02:37:37.478Z",
  "networkType": "ethereum",
  "devdoc": {
    "kind": "dev",
    "methods": {},
    "version": 1
  },
  "userdoc": {
    "kind": "user",
    "methods": {},
    "version": 1
  }
}