{
  "contractName": "ZonuletNFTLikes",
  "abi": [
    {
      "inputs": [
        {
          "internalType": "contract ZonuletNFT",
          "name": "_zonuletNFT",
          "type": "address"
        }
      ],
      "stateMutability": "nonpayable",
      "type": "constructor"
    },
    {
      "anonymous": false,
      "inputs": [
        {
          "indexed": false,
          "internalType": "uint256",
          "name": "_tokenId",
          "type": "uint256"
        },
        {
          "indexed": false,
          "internalType": "address",
          "name": "_liker",
          "type": "address"
        }
      ],
      "name": "LikedNFT",
      "type": "event"
    },
    {
      "anonymous": false,
      "inputs": [
        {
          "indexed": false,
          "internalType": "uint256",
          "name": "_tokenId",
          "type": "uint256"
        },
        {
          "indexed": false,
          "internalType": "address",
          "name": "_pacmaniser",
          "type": "address"
        }
      ],
      "name": "PacmanedNFT",
      "type": "event"
    },
    {
      "inputs": [],
      "name": "ZONU",
      "outputs": [
        {
          "internalType": "address",
          "name": "",
          "type": "address"
        }
      ],
      "stateMutability": "view",
      "type": "function",
      "constant": true
    },
    {
      "inputs": [
        {
          "internalType": "address",
          "name": "",
          "type": "address"
        }
      ],
      "name": "likers",
      "outputs": [
        {
          "internalType": "uint256",
          "name": "totallikes",
          "type": "uint256"
        }
      ],
      "stateMutability": "view",
      "type": "function",
      "constant": true
    },
    {
      "inputs": [
        {
          "internalType": "uint256",
          "name": "",
          "type": "uint256"
        }
      ],
      "name": "nftLikes",
      "outputs": [
        {
          "internalType": "uint256",
          "name": "likes",
          "type": "uint256"
        },
        {
          "internalType": "uint256",
          "name": "nftId",
          "type": "uint256"
        }
      ],
      "stateMutability": "view",
      "type": "function",
      "constant": true
    },
    {
      "inputs": [
        {
          "internalType": "uint256",
          "name": "",
          "type": "uint256"
        }
      ],
      "name": "nftPacmans",
      "outputs": [
        {
          "internalType": "uint256",
          "name": "pacmans",
          "type": "uint256"
        },
        {
          "internalType": "uint256",
          "name": "nftId",
          "type": "uint256"
        }
      ],
      "stateMutability": "view",
      "type": "function",
      "constant": true
    },
    {
      "inputs": [],
      "name": "owner",
      "outputs": [
        {
          "internalType": "address",
          "name": "",
          "type": "address"
        }
      ],
      "stateMutability": "view",
      "type": "function",
      "constant": true
    },
    {
      "inputs": [
        {
          "internalType": "address",
          "name": "",
          "type": "address"
        }
      ],
      "name": "pacmanisers",
      "outputs": [
        {
          "internalType": "uint256",
          "name": "totalpacman",
          "type": "uint256"
        }
      ],
      "stateMutability": "view",
      "type": "function",
      "constant": true
    },
    {
      "inputs": [],
      "name": "zonuletNFT",
      "outputs": [
        {
          "internalType": "contract ZonuletNFT",
          "name": "",
          "type": "address"
        }
      ],
      "stateMutability": "view",
      "type": "function",
      "constant": true
    },
    {
      "inputs": [
        {
          "internalType": "address",
          "name": "_owner",
          "type": "address"
        },
        {
          "internalType": "uint256",
          "name": "_tokenId",
          "type": "uint256"
        }
      ],
      "name": "LikeNFT",
      "outputs": [],
      "stateMutability": "payable",
      "type": "function",
      "payable": true
    },
    {
      "inputs": [
        {
          "internalType": "address",
          "name": "_minter",
          "type": "address"
        },
        {
          "internalType": "uint256",
          "name": "_tokenId",
          "type": "uint256"
        }
      ],
      "name": "PacmanNFT",
      "outputs": [],
      "stateMutability": "payable",
      "type": "function",
      "payable": true
    },
    {
      "inputs": [
        {
          "internalType": "uint256",
          "name": "_pacmanprice",
          "type": "uint256"
        }
      ],
      "name": "setPacmanPrice",
      "outputs": [],
      "stateMutability": "nonpayable",
      "type": "function"
    },
    {
      "inputs": [],
      "name": "getPacmanPrice",
      "outputs": [
        {
          "internalType": "uint256",
          "name": "",
          "type": "uint256"
        }
      ],
      "stateMutability": "view",
      "type": "function",
      "constant": true
    }
  ],
  "bytecode": "0x60a060405273216ed590cb7ec3417cab82699ae493522fecf58073ffffffffffffffffffffffffffffffffffffffff1660809073ffffffffffffffffffffffffffffffffffffffff1660601b81525060016003553480156200006057600080fd5b50604051620010bd380380620010bd833981810160405281019062000086919062000166565b306000806101000a81548173ffffffffffffffffffffffffffffffffffffffff021916908373ffffffffffffffffffffffffffffffffffffffff16021790555033600260006101000a81548173ffffffffffffffffffffffffffffffffffffffff021916908373ffffffffffffffffffffffffffffffffffffffff16021790555080600160006101000a81548173ffffffffffffffffffffffffffffffffffffffff021916908373ffffffffffffffffffffffffffffffffffffffff16021790555050620001ff565b6000815190506200016081620001e5565b92915050565b6000602082840312156200017f576200017e620001e0565b5b60006200018f848285016200014f565b91505092915050565b6000620001a582620001c0565b9050919050565b6000620001b98262000198565b9050919050565b600073ffffffffffffffffffffffffffffffffffffffff82169050919050565b600080fd5b620001f081620001ac565b8114620001fc57600080fd5b50565b60805160601c610e9862000225600039600081816102a601526104c50152610e986000f3fe60806040526004361061009c5760003560e01c806354b579921161006457806354b579921461018e5780636fabf29a146101cc578063818bf15d146101f55780638da5cb5b14610232578063983ddbe21461025d578063dfe00038146102885761009c565b806306e6caad146100a157806316d21124146100cc5780631b388691146100f75780632e4dcb951461011357806335b1d5c714610150575b600080fd5b3480156100ad57600080fd5b506100b66102a4565b6040516100c39190610be1565b60405180910390f35b3480156100d857600080fd5b506100e16102c8565b6040516100ee9190610c4e565b60405180910390f35b610111600480360381019061010c9190610aed565b6102d2565b005b34801561011f57600080fd5b5061013a60048036038101906101359190610a93565b6105c5565b6040516101479190610c4e565b60405180910390f35b34801561015c57600080fd5b5061017760048036038101906101729190610b5a565b6105e3565b604051610185929190610c92565b60405180910390f35b34801561019a57600080fd5b506101b560048036038101906101b09190610b5a565b610607565b6040516101c3929190610c92565b60405180910390f35b3480156101d857600080fd5b506101f360048036038101906101ee9190610b5a565b61062b565b005b34801561020157600080fd5b5061021c60048036038101906102179190610a93565b6106e9565b6040516102299190610c4e565b60405180910390f35b34801561023e57600080fd5b50610247610707565b6040516102549190610be1565b60405180910390f35b34801561026957600080fd5b5061027261072d565b60405161027f9190610c33565b60405180910390f35b6102a2600480360381019061029d9190610aed565b610753565b005b7f000000000000000000000000000000000000000000000000000000000000000081565b6000600354905090565b8173ffffffffffffffffffffffffffffffffffffffff163373ffffffffffffffffffffffffffffffffffffffff16141561030b57600080fd5b600160009054906101000a900473ffffffffffffffffffffffffffffffffffffffff1673ffffffffffffffffffffffffffffffffffffffff166318160ddd6040518163ffffffff1660e01b815260040160206040518083038186803b15801561037357600080fd5b505afa158015610387573d6000803e3d6000fd5b505050506040513d601f19601f820116820180604052508101906103ab9190610b87565b8111156103b757600080fd5b60016005600083815260200190815260200160002060000160008282546103de9190610cbb565b925050819055508060056000838152602001908152602001600020600101819055506001600760003373ffffffffffffffffffffffffffffffffffffffff1673ffffffffffffffffffffffffffffffffffffffff16815260200190815260200160002060000160008282546104539190610cbb565b92505081905550600760003373ffffffffffffffffffffffffffffffffffffffff1673ffffffffffffffffffffffffffffffffffffffff1681526020019081526020016000206001018190806001815401808255809150506001900390600052602060002001600090919091909150557f000000000000000000000000000000000000000000000000000000000000000073ffffffffffffffffffffffffffffffffffffffff166323b872dd3384670de0b6b3a76400006003546105179190610d11565b6040518463ffffffff1660e01b815260040161053593929190610bfc565b602060405180830381600087803b15801561054f57600080fd5b505af1158015610563573d6000803e3d6000fd5b505050506040513d601f19601f820116820180604052508101906105879190610b2d565b507fc590a088f361ec73e81a82cf2313cb91c99654d206dd72caec2cc1efbbe581ff81336040516105b9929190610c69565b60405180910390a15050565b60076020528060005260406000206000915090508060000154905081565b60046020528060005260406000206000915090508060000154908060010154905082565b60056020528060005260406000206000915090508060000154908060010154905082565b600260009054906101000a900473ffffffffffffffffffffffffffffffffffffffff1673ffffffffffffffffffffffffffffffffffffffff163373ffffffffffffffffffffffffffffffffffffffff161461068557600080fd5b600260009054906101000a900473ffffffffffffffffffffffffffffffffffffffff1673ffffffffffffffffffffffffffffffffffffffff163373ffffffffffffffffffffffffffffffffffffffff16146106df57600080fd5b8060038190555050565b60066020528060005260406000206000915090508060000154905081565b600260009054906101000a900473ffffffffffffffffffffffffffffffffffffffff1681565b600160009054906101000a900473ffffffffffffffffffffffffffffffffffffffff1681565b8173ffffffffffffffffffffffffffffffffffffffff16600160009054906101000a900473ffffffffffffffffffffffffffffffffffffffff1673ffffffffffffffffffffffffffffffffffffffff16636352211e836040518263ffffffff1660e01b81526004016107c59190610c4e565b60206040518083038186803b1580156107dd57600080fd5b505afa1580156107f1573d6000803e3d6000fd5b505050506040513d601f19601f820116820180604052508101906108159190610ac0565b73ffffffffffffffffffffffffffffffffffffffff161461083557600080fd5b600160009054906101000a900473ffffffffffffffffffffffffffffffffffffffff1673ffffffffffffffffffffffffffffffffffffffff166318160ddd6040518163ffffffff1660e01b815260040160206040518083038186803b15801561089d57600080fd5b505afa1580156108b1573d6000803e3d6000fd5b505050506040513d601f19601f820116820180604052508101906108d59190610b87565b8111156108e157600080fd5b60016004600083815260200190815260200160002060000160008282546109089190610cbb565b925050819055508060046000838152602001908152602001600020600101819055506001600660003373ffffffffffffffffffffffffffffffffffffffff1673ffffffffffffffffffffffffffffffffffffffff168152602001908152602001600020600001600082825461097d9190610cbb565b92505081905550600660003373ffffffffffffffffffffffffffffffffffffffff1673ffffffffffffffffffffffffffffffffffffffff1681526020019081526020016000206001018190806001815401808255809150506001900390600052602060002001600090919091909150557fd317d768fbf35562fd63a0aa2aaf96e46c72fa74724b52ecc4afde3c359afcdc8133604051610a1e929190610c69565b60405180910390a15050565b600081359050610a3981610e1d565b92915050565b600081519050610a4e81610e1d565b92915050565b600081519050610a6381610e34565b92915050565b600081359050610a7881610e4b565b92915050565b600081519050610a8d81610e4b565b92915050565b600060208284031215610aa957610aa8610e18565b5b6000610ab784828501610a2a565b91505092915050565b600060208284031215610ad657610ad5610e18565b5b6000610ae484828501610a3f565b91505092915050565b60008060408385031215610b0457610b03610e18565b5b6000610b1285828601610a2a565b9250506020610b2385828601610a69565b9150509250929050565b600060208284031215610b4357610b42610e18565b5b6000610b5184828501610a54565b91505092915050565b600060208284031215610b7057610b6f610e18565b5b6000610b7e84828501610a69565b91505092915050565b600060208284031215610b9d57610b9c610e18565b5b6000610bab84828501610a7e565b91505092915050565b610bbd81610d6b565b82525050565b610bcc81610db3565b82525050565b610bdb81610da9565b82525050565b6000602082019050610bf66000830184610bb4565b92915050565b6000606082019050610c116000830186610bb4565b610c1e6020830185610bb4565b610c2b6040830184610bd2565b949350505050565b6000602082019050610c486000830184610bc3565b92915050565b6000602082019050610c636000830184610bd2565b92915050565b6000604082019050610c7e6000830185610bd2565b610c8b6020830184610bb4565b9392505050565b6000604082019050610ca76000830185610bd2565b610cb46020830184610bd2565b9392505050565b6000610cc682610da9565b9150610cd183610da9565b9250827fffffffffffffffffffffffffffffffffffffffffffffffffffffffffffffffff03821115610d0657610d05610de9565b5b828201905092915050565b6000610d1c82610da9565b9150610d2783610da9565b9250817fffffffffffffffffffffffffffffffffffffffffffffffffffffffffffffffff0483118215151615610d6057610d5f610de9565b5b828202905092915050565b6000610d7682610d89565b9050919050565b60008115159050919050565b600073ffffffffffffffffffffffffffffffffffffffff82169050919050565b6000819050919050565b6000610dbe82610dc5565b9050919050565b6000610dd082610dd7565b9050919050565b6000610de282610d89565b9050919050565b7f4e487b7100000000000000000000000000000000000000000000000000000000600052601160045260246000fd5b600080fd5b610e2681610d6b565b8114610e3157600080fd5b50565b610e3d81610d7d565b8114610e4857600080fd5b50565b610e5481610da9565b8114610e5f57600080fd5b5056fea26469706673582212206da1a95d465167c78a4c789a64f3a2d219f754f162258b2a90743ab3b44b239864736f6c63430008070033",
  "immutableReferences": {
    "808": [
      {
        "length": 32,
        "start": 678
      },
      {
        "length": 32,
        "start": 1221
      }
    ]
  },
  "source": "//              \n//           \n//                        \n//                       \n//        \n//                                                                        \n// zonulet.io\n// SPDX-License-Identifier: MIT\n\npragma solidity >0.6.2;\n\nimport \"./ZonuletNFT.sol\";\nimport \"../openzeppelin/token/ERC20/IERC20.sol\";\nimport \"../openzeppelin/token/ERC20/extensions/IERC20Metadata.sol\";\nimport \"../openzeppelin/access/Ownable.sol\";\nimport \"../openzeppelin/utils/math/SafeMath.sol\";\nimport \"../openzeppelin/SafeMathInt.sol\";\nimport \"../openzeppelin/SafeMathUint.sol\";\nimport \"../openzeppelin/token/ERC20/ERC20.sol\";\n\n\ncontract ZonuletNFTLikes {\n\n    address admin;\n    ZonuletNFT public zonuletNFT;\n\n    address public immutable ZONU = address(0x216eD590Cb7Ec3417CAb82699ae493522fECf580); \n\n    event LikedNFT(uint256 _tokenId, address _liker);\n\n    event PacmanedNFT(uint256 _tokenId, address _pacmaniser);\n\n    address public owner;\n\n    constructor(ZonuletNFT _zonuletNFT) {\n        admin = address(this);\n        owner = msg.sender;\n        zonuletNFT = _zonuletNFT;\n    }\n\n    modifier onlyOwner() {\n        require(msg.sender == owner);\n        _;\n    }\n\n    uint256 pacmanprice = 1;\n\n    struct NFTLikes {\n        uint likes;\n        uint nftId;\n    }\n\n    struct NFTPacmans {\n        uint pacmans;\n        uint nftId;\n    }\n\n    struct Liker {\n        uint totallikes;\n        uint[] nfts;\n    }\n\n    struct Pacmaniser {\n        uint totalpacman;\n        uint[] nfts;\n    }\n\n    mapping(uint => NFTLikes) public nftLikes;\n    mapping(uint => NFTPacmans) public nftPacmans;\n\n    mapping(address => Liker) public likers;\n    mapping(address => Pacmaniser) public pacmanisers;\n\n    function LikeNFT(address _owner, uint256 _tokenId) public payable {\n        require(zonuletNFT.ownerOf(_tokenId) == _owner);\n        require(_tokenId <= zonuletNFT.totalSupply());\n\n        nftLikes[_tokenId].likes += 1;\n        nftLikes[_tokenId].nftId = _tokenId; \n        likers[msg.sender].totallikes += 1;\n        likers[msg.sender].nfts.push(_tokenId);\n\n        emit LikedNFT(_tokenId, msg.sender);\n    }\n\n    function PacmanNFT(address _minter, uint256 _tokenId) public payable {\n        require(msg.sender != _minter);\n        require(_tokenId <= zonuletNFT.totalSupply());\n\n        nftPacmans[_tokenId].pacmans += 1;\n        nftPacmans[_tokenId].nftId = _tokenId;\n        pacmanisers[msg.sender].totalpacman += 1;\n        pacmanisers[msg.sender].nfts.push(_tokenId);\n\n        IERC20(ZONU).transferFrom(msg.sender, _minter, pacmanprice*1e18);\n        emit PacmanedNFT(_tokenId, msg.sender);\n    }\n\n    function setPacmanPrice(uint256 _pacmanprice) public onlyOwner {\n        require(msg.sender == owner);\n        pacmanprice = _pacmanprice;\n    }\n\n    function getPacmanPrice() public view returns (uint256) {\n        return pacmanprice;\n    }\n\n}",
  "sourcePath": "/mnt/e/ETH-DENVER/INFURA/truffle/contracts/ZonuletNFTLikes.sol",
  "compiler": {
    "name": "solc",
    "version": "0.8.7+commit.e28d00a7.Emscripten.clang"
  },
  "schemaVersion": "3.4.12",
  "updatedAt": "2023-02-26T02:37:37.427Z",
  "networkType": "ethereum",
  "devdoc": {
    "kind": "dev",
    "methods": {},
    "version": 1
  },
  "userdoc": {
    "kind": "user",
    "methods": {},
    "version": 1
  }
}