{
  "_format": "hh-sol-artifact-1",
  "contractName": "ZoNulet",
  "sourceName": "contracts/ZoNulet.sol",
  "abi": [
    {
      "inputs": [],
      "stateMutability": "nonpayable",
      "type": "constructor"
    },
    {
      "anonymous": false,
      "inputs": [
        {
          "indexed": true,
          "internalType": "address",
          "name": "owner",
          "type": "address"
        },
        {
          "indexed": true,
          "internalType": "address",
          "name": "spender",
          "type": "address"
        },
        {
          "indexed": false,
          "internalType": "uint256",
          "name": "value",
          "type": "uint256"
        }
      ],
      "name": "Approval",
      "type": "event"
    },
    {
      "anonymous": false,
      "inputs": [
        {
          "indexed": true,
          "internalType": "address",
          "name": "account",
          "type": "address"
        },
        {
          "indexed": false,
          "internalType": "bool",
          "name": "isExcluded",
          "type": "bool"
        }
      ],
      "name": "ExcludeFromFees",
      "type": "event"
    },
    {
      "anonymous": false,
      "inputs": [
        {
          "indexed": false,
          "internalType": "address[]",
          "name": "accounts",
          "type": "address[]"
        },
        {
          "indexed": false,
          "internalType": "bool",
          "name": "isExcluded",
          "type": "bool"
        }
      ],
      "name": "ExcludeMultipleAccountsFromFees",
      "type": "event"
    },
    {
      "anonymous": false,
      "inputs": [
        {
          "indexed": true,
          "internalType": "uint256",
          "name": "newValue",
          "type": "uint256"
        },
        {
          "indexed": true,
          "internalType": "uint256",
          "name": "oldValue",
          "type": "uint256"
        }
      ],
      "name": "GasForProcessingUpdated",
      "type": "event"
    },
    {
      "anonymous": false,
      "inputs": [
        {
          "indexed": true,
          "internalType": "address",
          "name": "newLiquidityWallet",
          "type": "address"
        },
        {
          "indexed": true,
          "internalType": "address",
          "name": "oldLiquidityWallet",
          "type": "address"
        }
      ],
      "name": "LiquidityWalletUpdated",
      "type": "event"
    },
    {
      "anonymous": false,
      "inputs": [
        {
          "indexed": true,
          "internalType": "address",
          "name": "previousOwner",
          "type": "address"
        },
        {
          "indexed": true,
          "internalType": "address",
          "name": "newOwner",
          "type": "address"
        }
      ],
      "name": "OwnershipTransferred",
      "type": "event"
    },
    {
      "anonymous": false,
      "inputs": [
        {
          "indexed": false,
          "internalType": "uint256",
          "name": "iterations",
          "type": "uint256"
        },
        {
          "indexed": false,
          "internalType": "uint256",
          "name": "claims",
          "type": "uint256"
        },
        {
          "indexed": false,
          "internalType": "uint256",
          "name": "lastProcessedIndex",
          "type": "uint256"
        },
        {
          "indexed": true,
          "internalType": "bool",
          "name": "automatic",
          "type": "bool"
        },
        {
          "indexed": false,
          "internalType": "uint256",
          "name": "gas",
          "type": "uint256"
        },
        {
          "indexed": true,
          "internalType": "address",
          "name": "processor",
          "type": "address"
        }
      ],
      "name": "ProcessedDividendTracker",
      "type": "event"
    },
    {
      "anonymous": false,
      "inputs": [
        {
          "indexed": false,
          "internalType": "uint256",
          "name": "tokensSwapped",
          "type": "uint256"
        },
        {
          "indexed": false,
          "internalType": "uint256",
          "name": "amount",
          "type": "uint256"
        }
      ],
      "name": "SendDividends",
      "type": "event"
    },
    {
      "anonymous": false,
      "inputs": [
        {
          "indexed": true,
          "internalType": "address",
          "name": "pair",
          "type": "address"
        },
        {
          "indexed": true,
          "internalType": "bool",
          "name": "value",
          "type": "bool"
        }
      ],
      "name": "SetAutomatedMarketMakerPair",
      "type": "event"
    },
    {
      "anonymous": false,
      "inputs": [
        {
          "indexed": false,
          "internalType": "uint256",
          "name": "tokensSwapped",
          "type": "uint256"
        },
        {
          "indexed": false,
          "internalType": "uint256",
          "name": "ethReceived",
          "type": "uint256"
        },
        {
          "indexed": false,
          "internalType": "uint256",
          "name": "tokensIntoLiqudity",
          "type": "uint256"
        }
      ],
      "name": "SwapAndLiquify",
      "type": "event"
    },
    {
      "anonymous": false,
      "inputs": [
        {
          "indexed": true,
          "internalType": "address",
          "name": "from",
          "type": "address"
        },
        {
          "indexed": true,
          "internalType": "address",
          "name": "to",
          "type": "address"
        },
        {
          "indexed": false,
          "internalType": "uint256",
          "name": "value",
          "type": "uint256"
        }
      ],
      "name": "Transfer",
      "type": "event"
    },
    {
      "anonymous": false,
      "inputs": [
        {
          "indexed": true,
          "internalType": "address",
          "name": "newAddress",
          "type": "address"
        },
        {
          "indexed": true,
          "internalType": "address",
          "name": "oldAddress",
          "type": "address"
        }
      ],
      "name": "UpdateDividendTracker",
      "type": "event"
    },
    {
      "anonymous": false,
      "inputs": [
        {
          "indexed": true,
          "internalType": "address",
          "name": "newAddress",
          "type": "address"
        },
        {
          "indexed": true,
          "internalType": "address",
          "name": "oldAddress",
          "type": "address"
        }
      ],
      "name": "UpdateUniswapV2Router",
      "type": "event"
    },
    {
      "inputs": [],
      "name": "DEZU",
      "outputs": [
        {
          "internalType": "address",
          "name": "",
          "type": "address"
        }
      ],
      "stateMutability": "view",
      "type": "function"
    },
    {
      "inputs": [],
      "name": "DEZURewardsFee",
      "outputs": [
        {
          "internalType": "uint256",
          "name": "",
          "type": "uint256"
        }
      ],
      "stateMutability": "view",
      "type": "function"
    },
    {
      "inputs": [
        {
          "internalType": "address",
          "name": "",
          "type": "address"
        }
      ],
      "name": "_isBlacklisted",
      "outputs": [
        {
          "internalType": "bool",
          "name": "",
          "type": "bool"
        }
      ],
      "stateMutability": "view",
      "type": "function"
    },
    {
      "inputs": [],
      "name": "_marketingWalletAddress",
      "outputs": [
        {
          "internalType": "address",
          "name": "",
          "type": "address"
        }
      ],
      "stateMutability": "view",
      "type": "function"
    },
    {
      "inputs": [
        {
          "internalType": "address",
          "name": "owner",
          "type": "address"
        },
        {
          "internalType": "address",
          "name": "spender",
          "type": "address"
        }
      ],
      "name": "allowance",
      "outputs": [
        {
          "internalType": "uint256",
          "name": "",
          "type": "uint256"
        }
      ],
      "stateMutability": "view",
      "type": "function"
    },
    {
      "inputs": [
        {
          "internalType": "address",
          "name": "spender",
          "type": "address"
        },
        {
          "internalType": "uint256",
          "name": "amount",
          "type": "uint256"
        }
      ],
      "name": "approve",
      "outputs": [
        {
          "internalType": "bool",
          "name": "",
          "type": "bool"
        }
      ],
      "stateMutability": "nonpayable",
      "type": "function"
    },
    {
      "inputs": [
        {
          "internalType": "address",
          "name": "",
          "type": "address"
        }
      ],
      "name": "automatedMarketMakerPairs",
      "outputs": [
        {
          "internalType": "bool",
          "name": "",
          "type": "bool"
        }
      ],
      "stateMutability": "view",
      "type": "function"
    },
    {
      "inputs": [
        {
          "internalType": "address",
          "name": "account",
          "type": "address"
        }
      ],
      "name": "balanceOf",
      "outputs": [
        {
          "internalType": "uint256",
          "name": "",
          "type": "uint256"
        }
      ],
      "stateMutability": "view",
      "type": "function"
    },
    {
      "inputs": [
        {
          "internalType": "address",
          "name": "account",
          "type": "address"
        },
        {
          "internalType": "bool",
          "name": "value",
          "type": "bool"
        }
      ],
      "name": "blacklistAddress",
      "outputs": [],
      "stateMutability": "nonpayable",
      "type": "function"
    },
    {
      "inputs": [],
      "name": "claim",
      "outputs": [],
      "stateMutability": "nonpayable",
      "type": "function"
    },
    {
      "inputs": [],
      "name": "deadWallet",
      "outputs": [
        {
          "internalType": "address",
          "name": "",
          "type": "address"
        }
      ],
      "stateMutability": "view",
      "type": "function"
    },
    {
      "inputs": [],
      "name": "decimals",
      "outputs": [
        {
          "internalType": "uint8",
          "name": "",
          "type": "uint8"
        }
      ],
      "stateMutability": "view",
      "type": "function"
    },
    {
      "inputs": [
        {
          "internalType": "address",
          "name": "spender",
          "type": "address"
        },
        {
          "internalType": "uint256",
          "name": "subtractedValue",
          "type": "uint256"
        }
      ],
      "name": "decreaseAllowance",
      "outputs": [
        {
          "internalType": "bool",
          "name": "",
          "type": "bool"
        }
      ],
      "stateMutability": "nonpayable",
      "type": "function"
    },
    {
      "inputs": [
        {
          "internalType": "address",
          "name": "account",
          "type": "address"
        }
      ],
      "name": "dividendTokenBalanceOf",
      "outputs": [
        {
          "internalType": "uint256",
          "name": "",
          "type": "uint256"
        }
      ],
      "stateMutability": "view",
      "type": "function"
    },
    {
      "inputs": [],
      "name": "dividendTracker",
      "outputs": [
        {
          "internalType": "contract ZoNuletDividendTracker",
          "name": "",
          "type": "address"
        }
      ],
      "stateMutability": "view",
      "type": "function"
    },
    {
      "inputs": [
        {
          "internalType": "address",
          "name": "account",
          "type": "address"
        }
      ],
      "name": "excludeFromDividends",
      "outputs": [],
      "stateMutability": "nonpayable",
      "type": "function"
    },
    {
      "inputs": [
        {
          "internalType": "address",
          "name": "account",
          "type": "address"
        },
        {
          "internalType": "bool",
          "name": "excluded",
          "type": "bool"
        }
      ],
      "name": "excludeFromFees",
      "outputs": [],
      "stateMutability": "nonpayable",
      "type": "function"
    },
    {
      "inputs": [
        {
          "internalType": "address[]",
          "name": "accounts",
          "type": "address[]"
        },
        {
          "internalType": "bool",
          "name": "excluded",
          "type": "bool"
        }
      ],
      "name": "excludeMultipleAccountsFromFees",
      "outputs": [],
      "stateMutability": "nonpayable",
      "type": "function"
    },
    {
      "inputs": [],
      "name": "gasForProcessing",
      "outputs": [
        {
          "internalType": "uint256",
          "name": "",
          "type": "uint256"
        }
      ],
      "stateMutability": "view",
      "type": "function"
    },
    {
      "inputs": [
        {
          "internalType": "address",
          "name": "account",
          "type": "address"
        }
      ],
      "name": "getAccountDividendsInfo",
      "outputs": [
        {
          "internalType": "address",
          "name": "",
          "type": "address"
        },
        {
          "internalType": "int256",
          "name": "",
          "type": "int256"
        },
        {
          "internalType": "int256",
          "name": "",
          "type": "int256"
        },
        {
          "internalType": "uint256",
          "name": "",
          "type": "uint256"
        },
        {
          "internalType": "uint256",
          "name": "",
          "type": "uint256"
        },
        {
          "internalType": "uint256",
          "name": "",
          "type": "uint256"
        },
        {
          "internalType": "uint256",
          "name": "",
          "type": "uint256"
        },
        {
          "internalType": "uint256",
          "name": "",
          "type": "uint256"
        }
      ],
      "stateMutability": "view",
      "type": "function"
    },
    {
      "inputs": [
        {
          "internalType": "uint256",
          "name": "index",
          "type": "uint256"
        }
      ],
      "name": "getAccountDividendsInfoAtIndex",
      "outputs": [
        {
          "internalType": "address",
          "name": "",
          "type": "address"
        },
        {
          "internalType": "int256",
          "name": "",
          "type": "int256"
        },
        {
          "internalType": "int256",
          "name": "",
          "type": "int256"
        },
        {
          "internalType": "uint256",
          "name": "",
          "type": "uint256"
        },
        {
          "internalType": "uint256",
          "name": "",
          "type": "uint256"
        },
        {
          "internalType": "uint256",
          "name": "",
          "type": "uint256"
        },
        {
          "internalType": "uint256",
          "name": "",
          "type": "uint256"
        },
        {
          "internalType": "uint256",
          "name": "",
          "type": "uint256"
        }
      ],
      "stateMutability": "view",
      "type": "function"
    },
    {
      "inputs": [],
      "name": "getClaimWait",
      "outputs": [
        {
          "internalType": "uint256",
          "name": "",
          "type": "uint256"
        }
      ],
      "stateMutability": "view",
      "type": "function"
    },
    {
      "inputs": [],
      "name": "getLastProcessedIndex",
      "outputs": [
        {
          "internalType": "uint256",
          "name": "",
          "type": "uint256"
        }
      ],
      "stateMutability": "view",
      "type": "function"
    },
    {
      "inputs": [],
      "name": "getNumberOfDividendTokenHolders",
      "outputs": [
        {
          "internalType": "uint256",
          "name": "",
          "type": "uint256"
        }
      ],
      "stateMutability": "view",
      "type": "function"
    },
    {
      "inputs": [],
      "name": "getTotalDividendsDistributed",
      "outputs": [
        {
          "internalType": "uint256",
          "name": "",
          "type": "uint256"
        }
      ],
      "stateMutability": "view",
      "type": "function"
    },
    {
      "inputs": [
        {
          "internalType": "address",
          "name": "spender",
          "type": "address"
        },
        {
          "internalType": "uint256",
          "name": "addedValue",
          "type": "uint256"
        }
      ],
      "name": "increaseAllowance",
      "outputs": [
        {
          "internalType": "bool",
          "name": "",
          "type": "bool"
        }
      ],
      "stateMutability": "nonpayable",
      "type": "function"
    },
    {
      "inputs": [
        {
          "internalType": "address",
          "name": "account",
          "type": "address"
        }
      ],
      "name": "isExcludedFromFees",
      "outputs": [
        {
          "internalType": "bool",
          "name": "",
          "type": "bool"
        }
      ],
      "stateMutability": "view",
      "type": "function"
    },
    {
      "inputs": [],
      "name": "liquidityFee",
      "outputs": [
        {
          "internalType": "uint256",
          "name": "",
          "type": "uint256"
        }
      ],
      "stateMutability": "view",
      "type": "function"
    },
    {
      "inputs": [],
      "name": "marketingFee",
      "outputs": [
        {
          "internalType": "uint256",
          "name": "",
          "type": "uint256"
        }
      ],
      "stateMutability": "view",
      "type": "function"
    },
    {
      "inputs": [],
      "name": "maxWalletTokens",
      "outputs": [
        {
          "internalType": "uint256",
          "name": "",
          "type": "uint256"
        }
      ],
      "stateMutability": "view",
      "type": "function"
    },
    {
      "inputs": [],
      "name": "name",
      "outputs": [
        {
          "internalType": "string",
          "name": "",
          "type": "string"
        }
      ],
      "stateMutability": "view",
      "type": "function"
    },
    {
      "inputs": [],
      "name": "owner",
      "outputs": [
        {
          "internalType": "address",
          "name": "",
          "type": "address"
        }
      ],
      "stateMutability": "view",
      "type": "function"
    },
    {
      "inputs": [
        {
          "internalType": "uint256",
          "name": "gas",
          "type": "uint256"
        }
      ],
      "name": "processDividendTracker",
      "outputs": [],
      "stateMutability": "nonpayable",
      "type": "function"
    },
    {
      "inputs": [],
      "name": "renounceOwnership",
      "outputs": [],
      "stateMutability": "nonpayable",
      "type": "function"
    },
    {
      "inputs": [
        {
          "internalType": "address",
          "name": "pair",
          "type": "address"
        },
        {
          "internalType": "bool",
          "name": "value",
          "type": "bool"
        }
      ],
      "name": "setAutomatedMarketMakerPair",
      "outputs": [],
      "stateMutability": "nonpayable",
      "type": "function"
    },
    {
      "inputs": [
        {
          "internalType": "uint256",
          "name": "value",
          "type": "uint256"
        }
      ],
      "name": "setDEZURewardsFee",
      "outputs": [],
      "stateMutability": "nonpayable",
      "type": "function"
    },
    {
      "inputs": [
        {
          "internalType": "uint256",
          "name": "value",
          "type": "uint256"
        }
      ],
      "name": "setLiquidityFee",
      "outputs": [],
      "stateMutability": "nonpayable",
      "type": "function"
    },
    {
      "inputs": [
        {
          "internalType": "uint256",
          "name": "value",
          "type": "uint256"
        }
      ],
      "name": "setMarketingFee",
      "outputs": [],
      "stateMutability": "nonpayable",
      "type": "function"
    },
    {
      "inputs": [
        {
          "internalType": "address payable",
          "name": "wallet",
          "type": "address"
        }
      ],
      "name": "setMarketingWallet",
      "outputs": [],
      "stateMutability": "nonpayable",
      "type": "function"
    },
    {
      "inputs": [],
      "name": "swapTokensAtAmount",
      "outputs": [
        {
          "internalType": "uint256",
          "name": "",
          "type": "uint256"
        }
      ],
      "stateMutability": "view",
      "type": "function"
    },
    {
      "inputs": [],
      "name": "symbol",
      "outputs": [
        {
          "internalType": "string",
          "name": "",
          "type": "string"
        }
      ],
      "stateMutability": "view",
      "type": "function"
    },
    {
      "inputs": [],
      "name": "totalFees",
      "outputs": [
        {
          "internalType": "uint256",
          "name": "",
          "type": "uint256"
        }
      ],
      "stateMutability": "view",
      "type": "function"
    },
    {
      "inputs": [],
      "name": "totalSupply",
      "outputs": [
        {
          "internalType": "uint256",
          "name": "",
          "type": "uint256"
        }
      ],
      "stateMutability": "view",
      "type": "function"
    },
    {
      "inputs": [
        {
          "internalType": "address",
          "name": "recipient",
          "type": "address"
        },
        {
          "internalType": "uint256",
          "name": "amount",
          "type": "uint256"
        }
      ],
      "name": "transfer",
      "outputs": [
        {
          "internalType": "bool",
          "name": "",
          "type": "bool"
        }
      ],
      "stateMutability": "nonpayable",
      "type": "function"
    },
    {
      "inputs": [
        {
          "internalType": "address",
          "name": "sender",
          "type": "address"
        },
        {
          "internalType": "address",
          "name": "recipient",
          "type": "address"
        },
        {
          "internalType": "uint256",
          "name": "amount",
          "type": "uint256"
        }
      ],
      "name": "transferFrom",
      "outputs": [
        {
          "internalType": "bool",
          "name": "",
          "type": "bool"
        }
      ],
      "stateMutability": "nonpayable",
      "type": "function"
    },
    {
      "inputs": [
        {
          "internalType": "address",
          "name": "newOwner",
          "type": "address"
        }
      ],
      "name": "transferOwnership",
      "outputs": [],
      "stateMutability": "nonpayable",
      "type": "function"
    },
    {
      "inputs": [],
      "name": "uniswapV2Pair",
      "outputs": [
        {
          "internalType": "address",
          "name": "",
          "type": "address"
        }
      ],
      "stateMutability": "view",
      "type": "function"
    },
    {
      "inputs": [],
      "name": "uniswapV2Router",
      "outputs": [
        {
          "internalType": "contract IUniswapV2Router02",
          "name": "",
          "type": "address"
        }
      ],
      "stateMutability": "view",
      "type": "function"
    },
    {
      "inputs": [
        {
          "internalType": "uint256",
          "name": "claimWait",
          "type": "uint256"
        }
      ],
      "name": "updateClaimWait",
      "outputs": [],
      "stateMutability": "nonpayable",
      "type": "function"
    },
    {
      "inputs": [
        {
          "internalType": "address",
          "name": "newAddress",
          "type": "address"
        }
      ],
      "name": "updateDividendTracker",
      "outputs": [],
      "stateMutability": "nonpayable",
      "type": "function"
    },
    {
      "inputs": [
        {
          "internalType": "uint256",
          "name": "newValue",
          "type": "uint256"
        }
      ],
      "name": "updateGasForProcessing",
      "outputs": [],
      "stateMutability": "nonpayable",
      "type": "function"
    },
    {
      "inputs": [
        {
          "internalType": "uint256",
          "name": "maxWallet",
          "type": "uint256"
        }
      ],
      "name": "updateMaxWallet",
      "outputs": [],
      "stateMutability": "nonpayable",
      "type": "function"
    },
    {
      "inputs": [
        {
          "internalType": "address",
          "name": "newAddress",
          "type": "address"
        }
      ],
      "name": "updateUniswapV2Router",
      "outputs": [],
      "stateMutability": "nonpayable",
      "type": "function"
    },
    {
      "inputs": [
        {
          "internalType": "address",
          "name": "account",
          "type": "address"
        }
      ],
      "name": "withdrawableDividendOf",
      "outputs": [
        {
          "internalType": "uint256",
          "name": "",
          "type": "uint256"
        }
      ],
      "stateMutability": "view",
      "type": "function"
    },
    {
      "stateMutability": "payable",
      "type": "receive"
    }
  ],
  "bytecode": "0x60a06040526009805461dead6001600160a01b03199091161790557f55dd6d5b534e4b5ec178f99ec344b6915e78ccb60000000000000000000000006080526a02e5276153cd3fb3800000600a556b04d8c55aefb8c05b5c000000600b556003600d819055600e819055600f8190556200009f906200008b818062000632602090811b620024b517901c565b6200063260201b620024b51790919060201c565b601055601180546001600160a01b03191673516a27f4bda0eec020ab104035f64b248197c4d4179055620493e0601255348015620000dc57600080fd5b506040805180820182526007815266169bd39d5b195d60ca1b6020808301918252835180850190945260048452635a4f4e5560e01b908401528151919291620001289160039162000a1b565b5080516200013e90600490602084019062000a1b565b5050506000620001536200069460201b60201c565b600580546001600160a01b0319166001600160a01b038316908117909155604051919250906000907f8be0079c531659141344cd1fd0a4f28419497f9722a3daafe3b4186f6b6457e0908290a350604051620001af9062000aa0565b604051809103906000f080158015620001cc573d6000803e3d6000fd5b50600860006101000a8154816001600160a01b0302191690836001600160a01b0316021790555060007392eb06c72201974b74264b14c6fdb316ab335ae790506000816001600160a01b031663c45a01556040518163ffffffff1660e01b815260040160206040518083038186803b1580156200024857600080fd5b505afa1580156200025d573d6000803e3d6000fd5b505050506040513d60208110156200027457600080fd5b5051604080516315ab88c960e31b815290516001600160a01b039283169263c9c653969230929187169163ad5c464891600480820192602092909190829003018186803b158015620002c557600080fd5b505afa158015620002da573d6000803e3d6000fd5b505050506040513d6020811015620002f157600080fd5b5051604080516001600160e01b031960e086901b1681526001600160a01b0393841660048201529290911660248301525160448083019260209291908290030181600087803b1580156200034457600080fd5b505af115801562000359573d6000803e3d6000fd5b505050506040513d60208110156200037057600080fd5b5051600680546001600160a01b038086166001600160a01b03199283161790925560078054928416929091169190911790559050620003b181600162000698565b6008546040805163031e79db60e41b81526001600160a01b0390921660048301819052905190916331e79db091602480830192600092919082900301818387803b158015620003ff57600080fd5b505af115801562000414573d6000803e3d6000fd5b50506008546040805163031e79db60e41b815230600482015290516001600160a01b0390921693506331e79db0925060248082019260009290919082900301818387803b1580156200046557600080fd5b505af11580156200047a573d6000803e3d6000fd5b50506008546001600160a01b031691506331e79db090506200049b620007cb565b6040518263ffffffff1660e01b815260040180826001600160a01b03168152602001915050600060405180830381600087803b158015620004db57600080fd5b505af1158015620004f0573d6000803e3d6000fd5b50506008546009546040805163031e79db60e41b81526001600160a01b03928316600482015290519190921693506331e79db09250602480830192600092919082900301818387803b1580156200054657600080fd5b505af11580156200055b573d6000803e3d6000fd5b50506008546040805163031e79db60e41b81526001600160a01b03878116600483015291519190921693506331e79db09250602480830192600092919082900301818387803b158015620005ae57600080fd5b505af1158015620005c3573d6000803e3d6000fd5b50505050620005e3620005db620007cb60201b60201c565b6001620007da565b601154620005fc906001600160a01b03166001620007da565b62000609306001620007da565b6200062a62000617620007cb565b6b033b2e3c9fd0803ce800000062000907565b505062000ac5565b6000828201838110156200068d576040805162461bcd60e51b815260206004820152601b60248201527f536166654d6174683a206164646974696f6e206f766572666c6f770000000000604482015290519081900360640190fd5b9392505050565b3390565b6001600160a01b03821660009081526014602052604090205460ff1615158115151415620006f85760405162461bcd60e51b815260040180806020018281038252604181526020018062006aa36041913960600191505060405180910390fd5b6001600160a01b0382166000908152601460205260409020805460ff191682158015919091179091556200078f576008546040805163031e79db60e41b81526001600160a01b038581166004830152915191909216916331e79db091602480830192600092919082900301818387803b1580156200077557600080fd5b505af11580156200078a573d6000803e3d6000fd5b505050505b604051811515906001600160a01b038416907fffa9187bf1f18bf477bd0ea1bcbb64e93b6a98132473929edfce215cd9b16fab90600090a35050565b6005546001600160a01b031690565b620007e462000694565b6005546001600160a01b0390811691161462000847576040805162461bcd60e51b815260206004820181905260248201527f4f776e61626c653a2063616c6c6572206973206e6f7420746865206f776e6572604482015290519081900360640190fd5b6001600160a01b03821660009081526013602052604090205460ff1615158115151415620008a75760405162461bcd60e51b815260040180806020018281038252603381526020018062006ae46033913960400191505060405180910390fd5b6001600160a01b038216600081815260136020908152604091829020805460ff1916851515908117909155825190815291517f9d8f7706ea1113d1a167b526eca956215946dd36cc7df39eb16180222d8b5df79281900390910190a25050565b6001600160a01b03821662000963576040805162461bcd60e51b815260206004820152601f60248201527f45524332303a206d696e7420746f20746865207a65726f206164647265737300604482015290519081900360640190fd5b620009716000838362000a16565b6200098d816002546200063260201b620024b51790919060201c565b6002556001600160a01b03821660009081526020818152604090912054620009c0918390620024b562000632821b17901c565b6001600160a01b0383166000818152602081815260408083209490945583518581529351929391927fddf252ad1be2c89b69c2b068fc378daa952ba7f163c4a11628f55a4df523b3ef9281900390910190a35050565b505050565b828054600181600116156101000203166002900490600052602060002090601f016020900481019282601f1062000a5e57805160ff191683800117855562000a8e565b8280016001018555821562000a8e579182015b8281111562000a8e57825182559160200191906001019062000a71565b5062000a9c92915062000aae565b5090565b612343806200476083390190565b5b8082111562000a9c576000815560010162000aaf565b60805160601c613c5f62000b016000398061224a5280612f995280613043528061310f528061321752806132e0528061358b5250613c5f6000f3fe6080604052600436106103395760003560e01c80636b67c4df116101ab578063a457c2d7116100f7578063dd62ed3e11610095578063e7841ec01161006f578063e7841ec014610c01578063e98030c714610c16578063f27fd25414610c40578063f2fde38b14610c6a57610340565b8063dd62ed3e14610b9c578063e2f4560514610bd7578063e457b8a814610bec57610340565b8063ad56c13c116100d1578063ad56c13c14610a31578063b62496f514610aaf578063c024666814610ae2578063c492f04614610b1d57610340565b8063a457c2d71461098c578063a8b9d240146109c5578063a9059cbb146109f857610340565b806388bdd9be1161016457806398118cb41161013e57806398118cb4146109125780639a7a23d6146109275780639c1b8af514610962578063a26579ad1461097757610340565b806388bdd9be146108b55780638da5cb5b146108e857806395d89b41146108fd57610340565b80636b67c4df146107ef578063700bb1911461080457806370a082311461082e578063715018a61461086157806385141a7714610876578063871c128d1461088b57610340565b806337f60ed7116102855780634fbee1931161022357806363a803e1116101fd57806363a803e11461075f57806364b0f6531461077457806365b8dbc0146107895780636843cd84146107bc57610340565b80634fbee193146106cf5780635d098b3814610702578063625e764c1461073557610340565b8063455a43961161025f578063455a43961461065557806349bd5a5e146106905780634a152ef2146106a55780634e71d92d146106ba57610340565b806337f60ed7146105dd57806339509351146106075780634144d9e41461064057610340565b80631cdd3be3116102f257806330bb4cff116102cc57806330bb4cff14610540578063313ce5671461055557806331e79db014610580578063357bf15c146105b357610340565b80631cdd3be3146104b557806323b872dd146104e85780632c1f52161461052b57610340565b806306fdde0314610345578063095ea7b3146103cf57806313114a9d1461041c5780631694505e1461044357806318160ddd146104745780631c499ab01461048957610340565b3661034057005b600080fd5b34801561035157600080fd5b5061035a610c9d565b6040805160208082528351818301528351919283929083019185019080838360005b8381101561039457818101518382015260200161037c565b50505050905090810190601f1680156103c15780820380516001836020036101000a031916815260200191505b509250505060405180910390f35b3480156103db57600080fd5b50610408600480360360408110156103f257600080fd5b506001600160a01b038135169060200135610d33565b604080519115158252519081900360200190f35b34801561042857600080fd5b50610431610d51565b60408051918252519081900360200190f35b34801561044f57600080fd5b50610458610d57565b604080516001600160a01b039092168252519081900360200190f35b34801561048057600080fd5b50610431610d66565b34801561049557600080fd5b506104b3600480360360208110156104ac57600080fd5b5035610d6c565b005b3480156104c157600080fd5b50610408600480360360208110156104d857600080fd5b50356001600160a01b0316610dd3565b3480156104f457600080fd5b506104086004803603606081101561050b57600080fd5b506001600160a01b03813581169160208101359091169060400135610de8565b34801561053757600080fd5b50610458610e6f565b34801561054c57600080fd5b50610431610e7e565b34801561056157600080fd5b5061056a610ef4565b6040805160ff9092168252519081900360200190f35b34801561058c57600080fd5b506104b3600480360360208110156105a357600080fd5b50356001600160a01b0316610ef9565b3480156105bf57600080fd5b506104b3600480360360208110156105d657600080fd5b5035610fba565b3480156105e957600080fd5b506104b36004803603602081101561060057600080fd5b5035611038565b34801561061357600080fd5b506104086004803603604081101561062a57600080fd5b506001600160a01b0381351690602001356110ab565b34801561064c57600080fd5b506104586110f9565b34801561066157600080fd5b506104b36004803603604081101561067857600080fd5b506001600160a01b0381351690602001351515611108565b34801561069c57600080fd5b5061045861118b565b3480156106b157600080fd5b5061043161119a565b3480156106c657600080fd5b506104b36111a0565b3480156106db57600080fd5b50610408600480360360208110156106f257600080fd5b50356001600160a01b0316611225565b34801561070e57600080fd5b506104b36004803603602081101561072557600080fd5b50356001600160a01b0316611243565b34801561074157600080fd5b506104b36004803603602081101561075857600080fd5b50356112bd565b34801561076b57600080fd5b5061043161132f565b34801561078057600080fd5b50610431611335565b34801561079557600080fd5b506104b3600480360360208110156107ac57600080fd5b50356001600160a01b031661137a565b3480156107c857600080fd5b50610431600480360360208110156107df57600080fd5b50356001600160a01b03166115ff565b3480156107fb57600080fd5b50610431611682565b34801561081057600080fd5b506104b36004803603602081101561082757600080fd5b5035611688565b34801561083a57600080fd5b506104316004803603602081101561085157600080fd5b50356001600160a01b031661176f565b34801561086d57600080fd5b506104b361178a565b34801561088257600080fd5b5061045861182c565b34801561089757600080fd5b506104b3600480360360208110156108ae57600080fd5b503561183b565b3480156108c157600080fd5b506104b3600480360360208110156108d857600080fd5b50356001600160a01b0316611958565b3480156108f457600080fd5b50610458611caf565b34801561090957600080fd5b5061035a611cbe565b34801561091e57600080fd5b50610431611d1f565b34801561093357600080fd5b506104b36004803603604081101561094a57600080fd5b506001600160a01b0381351690602001351515611d25565b34801561096e57600080fd5b50610431611dd4565b34801561098357600080fd5b50610431611dda565b34801561099857600080fd5b50610408600480360360408110156109af57600080fd5b506001600160a01b038135169060200135611e1f565b3480156109d157600080fd5b50610431600480360360208110156109e857600080fd5b50356001600160a01b0316611e87565b348015610a0457600080fd5b5061040860048036036040811015610a1b57600080fd5b506001600160a01b038135169060200135611ed8565b348015610a3d57600080fd5b50610a6460048036036020811015610a5457600080fd5b50356001600160a01b0316611eec565b604080516001600160a01b0390991689526020890197909752878701959095526060870193909352608086019190915260a085015260c084015260e083015251908190036101000190f35b348015610abb57600080fd5b5061040860048036036020811015610ad257600080fd5b50356001600160a01b0316611fcc565b348015610aee57600080fd5b506104b360048036036040811015610b0557600080fd5b506001600160a01b0381351690602001351515611fe1565b348015610b2957600080fd5b506104b360048036036040811015610b4057600080fd5b810190602081018135640100000000811115610b5b57600080fd5b820183602082011115610b6d57600080fd5b80359060200191846020830284011164010000000083111715610b8f57600080fd5b91935091503515156120f7565b348015610ba857600080fd5b5061043160048036036040811015610bbf57600080fd5b506001600160a01b0381358116916020013516612217565b348015610be357600080fd5b50610431612242565b348015610bf857600080fd5b50610458612248565b348015610c0d57600080fd5b5061043161226c565b348015610c2257600080fd5b506104b360048036036020811015610c3957600080fd5b50356122b1565b348015610c4c57600080fd5b50610a6460048036036020811015610c6357600080fd5b5035612356565b348015610c7657600080fd5b506104b360048036036020811015610c8d57600080fd5b50356001600160a01b03166123bc565b60038054604080516020601f6002600019610100600188161502019095169490940493840181900481028201810190925282815260609390929091830182828015610d295780601f10610cfe57610100808354040283529160200191610d29565b820191906000526020600020905b815481529060010190602001808311610d0c57829003601f168201915b5050505050905090565b6000610d47610d40612516565b848461251a565b5060015b92915050565b60105481565b6006546001600160a01b031681565b60025490565b610d74612516565b6005546001600160a01b03908116911614610dc4576040805162461bcd60e51b81526020600482018190526024820152600080516020613b15833981519152604482015290519081900360640190fd5b670de0b6b3a764000002600b55565b600c6020526000908152604090205460ff1681565b6000610df5848484612606565b610e6584610e01612516565b610e6085604051806060016040528060288152602001613aed602891396001600160a01b038a16600090815260016020526040812090610e3f612516565b6001600160a01b031681526020810191909152604001600020549190612bda565b61251a565b5060019392505050565b6008546001600160a01b031681565b600854604080516342d359d760e11b815290516000926001600160a01b0316916385a6b3ae916004808301926020929190829003018186803b158015610ec357600080fd5b505afa158015610ed7573d6000803e3d6000fd5b505050506040513d6020811015610eed57600080fd5b5051905090565b601290565b610f01612516565b6005546001600160a01b03908116911614610f51576040805162461bcd60e51b81526020600482018190526024820152600080516020613b15833981519152604482015290519081900360640190fd5b6008546040805163031e79db60e41b81526001600160a01b038481166004830152915191909216916331e79db091602480830192600092919082900301818387803b158015610f9f57600080fd5b505af1158015610fb3573d6000803e3d6000fd5b5050505050565b610fc2612516565b6005546001600160a01b03908116911614611012576040805162461bcd60e51b81526020600482018190526024820152600080516020613b15833981519152604482015290519081900360640190fd5b600e819055600f54600d54611032919061102c90846124b5565b906124b5565b60105550565b611040612516565b6005546001600160a01b03908116911614611090576040805162461bcd60e51b81526020600482018190526024820152600080516020613b15833981519152604482015290519081900360640190fd5b600d819055600f54600e54611032919061102c9084906124b5565b6000610d476110b8612516565b84610e6085600160006110c9612516565b6001600160a01b03908116825260208083019390935260409182016000908120918c1681529252902054906124b5565b6011546001600160a01b031681565b611110612516565b6005546001600160a01b03908116911614611160576040805162461bcd60e51b81526020600482018190526024820152600080516020613b15833981519152604482015290519081900360640190fd5b6001600160a01b03919091166000908152600c60205260409020805460ff1916911515919091179055565b6007546001600160a01b031681565b600d5481565b6008546040805163bc4c4b3760e01b815233600482015260006024820181905291516001600160a01b039093169263bc4c4b3792604480840193602093929083900390910190829087803b1580156111f757600080fd5b505af115801561120b573d6000803e3d6000fd5b505050506040513d602081101561122157600080fd5b5050565b6001600160a01b031660009081526013602052604090205460ff1690565b61124b612516565b6005546001600160a01b0390811691161461129b576040805162461bcd60e51b81526020600482018190526024820152600080516020613b15833981519152604482015290519081900360640190fd5b601180546001600160a01b0319166001600160a01b0392909216919091179055565b6112c5612516565b6005546001600160a01b03908116911614611315576040805162461bcd60e51b81526020600482018190526024820152600080516020613b15833981519152604482015290519081900360640190fd5b600f819055600e54600d5461103291839161102c916124b5565b600b5481565b600854604080516304ddf6ef60e11b815290516000926001600160a01b0316916309bbedde916004808301926020929190829003018186803b158015610ec357600080fd5b611382612516565b6005546001600160a01b039081169116146113d2576040805162461bcd60e51b81526020600482018190526024820152600080516020613b15833981519152604482015290519081900360640190fd5b6006546001600160a01b038281169116141561141f5760405162461bcd60e51b815260040180806020018281038252602c8152602001806138e2602c913960400191505060405180910390fd5b6006546040516001600160a01b03918216918316907f8fc842bbd331dfa973645f4ed48b11683d501ebf1352708d77a5da2ab49a576e90600090a3600680546001600160a01b0319166001600160a01b0383811691909117918290556040805163c45a015560e01b815290516000939092169163c45a015591600480820192602092909190829003018186803b1580156114b857600080fd5b505afa1580156114cc573d6000803e3d6000fd5b505050506040513d60208110156114e257600080fd5b5051600654604080516315ab88c960e31b815290516001600160a01b039384169363c9c6539693309391169163ad5c464891600480820192602092909190829003018186803b15801561153457600080fd5b505afa158015611548573d6000803e3d6000fd5b505050506040513d602081101561155e57600080fd5b5051604080516001600160e01b031960e086901b1681526001600160a01b0393841660048201529290911660248301525160448083019260209291908290030181600087803b1580156115b057600080fd5b505af11580156115c4573d6000803e3d6000fd5b505050506040513d60208110156115da57600080fd5b5051600780546001600160a01b0319166001600160a01b039092169190911790555050565b600854604080516370a0823160e01b81526001600160a01b038481166004830152915160009392909216916370a0823191602480820192602092909190829003018186803b15801561165057600080fd5b505afa158015611664573d6000803e3d6000fd5b505050506040513d602081101561167a57600080fd5b505192915050565b600f5481565b600854604080516001624d3b8760e01b03198152600481018490529051600092839283926001600160a01b039092169163ffb2c4799160248082019260609290919082900301818787803b1580156116df57600080fd5b505af11580156116f3573d6000803e3d6000fd5b505050506040513d606081101561170957600080fd5b5080516020808301516040938401518451848152928301829052828501819052606083018990529351929650945091925032916000917fc864333d6121033635ab41b29ae52f10a22cf4438c3e4f1c4c68518feb2f8a989181900360800190a350505050565b6001600160a01b031660009081526020819052604090205490565b611792612516565b6005546001600160a01b039081169116146117e2576040805162461bcd60e51b81526020600482018190526024820152600080516020613b15833981519152604482015290519081900360640190fd5b6005546040516000916001600160a01b0316907f8be0079c531659141344cd1fd0a4f28419497f9722a3daafe3b4186f6b6457e0908390a3600580546001600160a01b0319169055565b6009546001600160a01b031681565b611843612516565b6005546001600160a01b03908116911614611893576040805162461bcd60e51b81526020600482018190526024820152600080516020613b15833981519152604482015290519081900360640190fd5b62030d4081101580156118a957506207a1208111155b6118e45760405162461bcd60e51b815260040180806020018281038252603d815260200180613b35603d913960400191505060405180910390fd5b6012548114156119255760405162461bcd60e51b81526004018080602001828103825260358152602001806139b26035913960400191505060405180910390fd5b60125460405182907f40d7e40e79af4e8e5a9b3c57030d8ea93f13d669c06d448c4d631d4ae7d23db790600090a3601255565b611960612516565b6005546001600160a01b039081169116146119b0576040805162461bcd60e51b81526020600482018190526024820152600080516020613b15833981519152604482015290519081900360640190fd5b6008546001600160a01b03828116911614156119fd5760405162461bcd60e51b81526004018080602001828103825260368152602001806139566036913960400191505060405180910390fd5b6000819050306001600160a01b0316816001600160a01b0316638da5cb5b6040518163ffffffff1660e01b815260040160206040518083038186803b158015611a4557600080fd5b505afa158015611a59573d6000803e3d6000fd5b505050506040513d6020811015611a6f57600080fd5b50516001600160a01b031614611ab65760405162461bcd60e51b815260040180806020018281038252604d815260200180613a7f604d913960600191505060405180910390fd5b806001600160a01b03166331e79db0826040518263ffffffff1660e01b815260040180826001600160a01b03168152602001915050600060405180830381600087803b158015611b0557600080fd5b505af1158015611b19573d6000803e3d6000fd5b50506040805163031e79db60e41b815230600482015290516001600160a01b03851693506331e79db09250602480830192600092919082900301818387803b158015611b6457600080fd5b505af1158015611b78573d6000803e3d6000fd5b50505050806001600160a01b03166331e79db0611b93611caf565b6040518263ffffffff1660e01b815260040180826001600160a01b03168152602001915050600060405180830381600087803b158015611bd257600080fd5b505af1158015611be6573d6000803e3d6000fd5b50506006546040805163031e79db60e41b81526001600160a01b039283166004820152905191851693506331e79db0925060248082019260009290919082900301818387803b158015611c3857600080fd5b505af1158015611c4c573d6000803e3d6000fd5b50506008546040516001600160a01b03918216935090851691507f90c7d74461c613da5efa97d90740869367d74ab3aa5837aa4ae9a975f954b7a890600090a3600880546001600160a01b0319166001600160a01b039290921691909117905550565b6005546001600160a01b031690565b60048054604080516020601f6002600019610100600188161502019095169490940493840181900481028201810190925282815260609390929091830182828015610d295780601f10610cfe57610100808354040283529160200191610d29565b600e5481565b611d2d612516565b6005546001600160a01b03908116911614611d7d576040805162461bcd60e51b81526020600482018190526024820152600080516020613b15833981519152604482015290519081900360640190fd5b6007546001600160a01b0383811691161415611dca5760405162461bcd60e51b815260040180806020018281038252604a815260200180613b72604a913960600191505060405180910390fd5b6112218282612c71565b60125481565b60085460408051631bc9e27b60e21b815290516000926001600160a01b031691636f2789ec916004808301926020929190829003018186803b158015610ec357600080fd5b6000610d47611e2c612516565b84610e6085604051806060016040528060258152602001613c056025913960016000611e56612516565b6001600160a01b03908116825260208083019390935260409182016000908120918d16815292529020549190612bda565b600854604080516302a2e74960e61b81526001600160a01b0384811660048301529151600093929092169163a8b9d24091602480820192602092909190829003018186803b15801561165057600080fd5b6000610d47611ee5612516565b8484612606565b600080600080600080600080600860009054906101000a90046001600160a01b03166001600160a01b031663fbcbc0f18a6040518263ffffffff1660e01b815260040180826001600160a01b031681526020019150506101006040518083038186803b158015611f5b57600080fd5b505afa158015611f6f573d6000803e3d6000fd5b505050506040513d610100811015611f8657600080fd5b508051602082015160408301516060840151608085015160a086015160c087015160e090970151959e50939c50919a509850965094509092509050919395975091939597565b60146020526000908152604090205460ff1681565b611fe9612516565b6005546001600160a01b03908116911614612039576040805162461bcd60e51b81526020600482018190526024820152600080516020613b15833981519152604482015290519081900360640190fd5b6001600160a01b03821660009081526013602052604090205460ff16151581151514156120975760405162461bcd60e51b8152600401808060200182810382526033815260200180613a286033913960400191505060405180910390fd5b6001600160a01b038216600081815260136020908152604091829020805460ff1916851515908117909155825190815291517f9d8f7706ea1113d1a167b526eca956215946dd36cc7df39eb16180222d8b5df79281900390910190a25050565b6120ff612516565b6005546001600160a01b0390811691161461214f576040805162461bcd60e51b81526020600482018190526024820152600080516020613b15833981519152604482015290519081900360640190fd5b60005b828110156121a457816013600086868581811061216b57fe5b602090810292909201356001600160a01b0316835250810191909152604001600020805460ff1916911515919091179055600101612152565b507f7fdaf542373fa84f4ee8d662c642f44e4c2276a217d7d29e548b6eb29a233b35838383604051808060200183151581526020018281038252858582818152602001925060200280828437600083820152604051601f909101601f1916909201829003965090945050505050a1505050565b6001600160a01b03918216600090815260016020908152604080832093909416825291909152205490565b600a5481565b7f000000000000000000000000000000000000000000000000000000000000000081565b6008546040805163039e107b60e61b815290516000926001600160a01b03169163e7841ec0916004808301926020929190829003018186803b158015610ec357600080fd5b6122b9612516565b6005546001600160a01b03908116911614612309576040805162461bcd60e51b81526020600482018190526024820152600080516020613b15833981519152604482015290519081900360640190fd5b6008546040805163e98030c760e01b81526004810184905290516001600160a01b039092169163e98030c79160248082019260009290919082900301818387803b158015610f9f57600080fd5b600080600080600080600080600860009054906101000a90046001600160a01b03166001600160a01b0316635183d6fd8a6040518263ffffffff1660e01b8152600401808281526020019150506101006040518083038186803b158015611f5b57600080fd5b6123c4612516565b6005546001600160a01b03908116911614612414576040805162461bcd60e51b81526020600482018190526024820152600080516020613b15833981519152604482015290519081900360640190fd5b6001600160a01b0381166124595760405162461bcd60e51b815260040180806020018281038252602681526020018061390e6026913960400191505060405180910390fd5b6005546040516001600160a01b038084169216907f8be0079c531659141344cd1fd0a4f28419497f9722a3daafe3b4186f6b6457e090600090a3600580546001600160a01b0319166001600160a01b0392909216919091179055565b60008282018381101561250f576040805162461bcd60e51b815260206004820152601b60248201527f536166654d6174683a206164646974696f6e206f766572666c6f770000000000604482015290519081900360640190fd5b9392505050565b3390565b6001600160a01b03831661255f5760405162461bcd60e51b8152600401808060200182810382526024815260200180613be16024913960400191505060405180910390fd5b6001600160a01b0382166125a45760405162461bcd60e51b81526004018080602001828103825260228152602001806139346022913960400191505060405180910390fd5b6001600160a01b03808416600081815260016020908152604080832094871680845294825291829020859055815185815291517f8c5be1e5ebec7d5bd14f71427d1e84f3dd0314c0f7b2291e5b200ac8c7c3b9259281900390910190a3505050565b6001600160a01b03831661264b5760405162461bcd60e51b8152600401808060200182810382526025815260200180613bbc6025913960400191505060405180910390fd5b6001600160a01b0382166126905760405162461bcd60e51b81526004018080602001828103825260238152602001806138bf6023913960400191505060405180910390fd5b6001600160a01b0383166000908152600c602052604090205460ff161580156126d257506001600160a01b0382166000908152600c602052604090205460ff16155b612719576040805162461bcd60e51b8152602060048201526013602482015272426c61636b6c6973746564206164647265737360681b604482015290519081900360640190fd5b612721611caf565b6001600160a01b0316836001600160a01b03161415801561275b5750612745611caf565b6001600160a01b0316826001600160a01b031614155b801561277257506001600160a01b03821661dead14155b801561278c57506007546001600160a01b03838116911614155b156127e357600061279c8361176f565b9050600b5482820111156127e15760405162461bcd60e51b8152600401808060200182810382526024815260200180613a5b6024913960400191505060405180910390fd5b505b806127f9576127f483836000612d9f565b612bd5565b60006128043061176f565b600a54909150811080159081906128255750600754600160a01b900460ff16155b801561284a57506001600160a01b03851660009081526014602052604090205460ff16155b801561286f5750612859611caf565b6001600160a01b0316856001600160a01b031614155b8015612894575061287e611caf565b6001600160a01b0316846001600160a01b031614155b15612924576007805460ff60a01b1916600160a01b179055601054600f546000916128ca916128c4908690612efa565b90612f53565b90506128d581612f95565b60006128f26010546128c4600e5487612efa90919063ffffffff16565b90506128fd81613184565b60006129083061176f565b90506129138161320a565b50506007805460ff60a01b19169055505b6007546001600160a01b03861660009081526013602052604090205460ff600160a01b90920482161591168061297257506001600160a01b03851660009081526013602052604090205460ff165b1561297b575060005b80156129ec57600061299d60646128c460105488612efa90919063ffffffff16565b6001600160a01b03871660009081526014602052604090205490915060ff16156129d3576129d160646128c4876001612efa565b015b6129dd8582613403565b94506129ea873083612d9f565b505b6129f7868686612d9f565b6008546001600160a01b031663e30443bc87612a128161176f565b6040518363ffffffff1660e01b815260040180836001600160a01b0316815260200182815260200192505050600060405180830381600087803b158015612a5857600080fd5b505af1925050508015612a69575060015b506008546001600160a01b031663e30443bc86612a858161176f565b6040518363ffffffff1660e01b815260040180836001600160a01b0316815260200182815260200192505050600060405180830381600087803b158015612acb57600080fd5b505af1925050508015612adc575060015b50600754600160a01b900460ff16612bd157601254600854604080516001624d3b8760e01b031981526004810184905290516001600160a01b039092169163ffb2c479916024808201926060929091908290030181600087803b158015612b4257600080fd5b505af1925050508015612b7657506040513d6060811015612b6257600080fd5b508051602082015160409092015190919060015b612b7f57612bcf565b604080518481526020810184905280820183905260608101869052905132916001917fc864333d6121033635ab41b29ae52f10a22cf4438c3e4f1c4c68518feb2f8a989181900360800190a35050505b505b5050505b505050565b60008184841115612c695760405162461bcd60e51b81526004018080602001828103825283818151815260200191508051906020019080838360005b83811015612c2e578181015183820152602001612c16565b50505050905090810190601f168015612c5b5780820380516001836020036101000a031916815260200191505b509250505060405180910390fd5b505050900390565b6001600160a01b03821660009081526014602052604090205460ff1615158115151415612ccf5760405162461bcd60e51b81526004018080602001828103825260418152602001806139e76041913960600191505060405180910390fd5b6001600160a01b0382166000908152601460205260409020805460ff19168215801591909117909155612d63576008546040805163031e79db60e41b81526001600160a01b038581166004830152915191909216916331e79db091602480830192600092919082900301818387803b158015612d4a57600080fd5b505af1158015612d5e573d6000803e3d6000fd5b505050505b604051811515906001600160a01b038416907fffa9187bf1f18bf477bd0ea1bcbb64e93b6a98132473929edfce215cd9b16fab90600090a35050565b6001600160a01b038316612de45760405162461bcd60e51b8152600401808060200182810382526025815260200180613bbc6025913960400191505060405180910390fd5b6001600160a01b038216612e295760405162461bcd60e51b81526004018080602001828103825260238152602001806138bf6023913960400191505060405180910390fd5b612e34838383612bd5565b612e718160405180606001604052806026815260200161398c602691396001600160a01b0386166000908152602081905260409020549190612bda565b6001600160a01b038085166000908152602081905260408082209390935590841681522054612ea090826124b5565b6001600160a01b038084166000818152602081815260409182902094909455805185815290519193928716927fddf252ad1be2c89b69c2b068fc378daa952ba7f163c4a11628f55a4df523b3ef92918290030190a3505050565b600082612f0957506000610d4b565b82820282848281612f1657fe5b041461250f5760405162461bcd60e51b8152600401808060200182810382526021815260200180613acc6021913960400191505060405180910390fd5b600061250f83836040518060400160405280601a81526020017f536166654d6174683a206469766973696f6e206279207a65726f000000000000815250613445565b60007f00000000000000000000000000000000000000000000000000000000000000006001600160a01b03166370a08231306040518263ffffffff1660e01b815260040180826001600160a01b0316815260200191505060206040518083038186803b15801561300457600080fd5b505afa158015613018573d6000803e3d6000fd5b505050506040513d602081101561302e57600080fd5b5051905061303b826134aa565b60006130e0827f00000000000000000000000000000000000000000000000000000000000000006001600160a01b03166370a08231306040518263ffffffff1660e01b815260040180826001600160a01b0316815260200191505060206040518083038186803b1580156130ae57600080fd5b505afa1580156130c2573d6000803e3d6000fd5b505050506040513d60208110156130d857600080fd5b505190613403565b6011546040805163a9059cbb60e01b81526001600160a01b0392831660048201526024810184905290519293507f00000000000000000000000000000000000000000000000000000000000000009091169163a9059cbb916044808201926020929091908290030181600087803b15801561315a57600080fd5b505af115801561316e573d6000803e3d6000fd5b505050506040513d6020811015610fb357600080fd5b6000613191826002612f53565b9050600061319f8383613403565b9050476131ab836136a0565b60006131b74783613403565b90506131c38382613806565b604080518581526020810183905280820185905290517f17bbfb9a6069321b6ded73bd96327c9e6b7212a5cd51ff219cd61370acafb5619181900360600190a15050505050565b613213816134aa565b60007f00000000000000000000000000000000000000000000000000000000000000006001600160a01b03166370a08231306040518263ffffffff1660e01b815260040180826001600160a01b0316815260200191505060206040518083038186803b15801561328257600080fd5b505afa158015613296573d6000803e3d6000fd5b505050506040513d60208110156132ac57600080fd5b50516008546040805163a9059cbb60e01b81526001600160a01b0392831660048201526024810184905290519293506000927f00000000000000000000000000000000000000000000000000000000000000009092169163a9059cbb9160448082019260209290919082900301818787803b15801561332a57600080fd5b505af115801561333e573d6000803e3d6000fd5b505050506040513d602081101561335457600080fd5b505190508015612bd55760085460408051631d6ad42d60e31b81526004810185905290516001600160a01b039092169163eb56a1689160248082019260009290919082900301818387803b1580156133ab57600080fd5b505af11580156133bf573d6000803e3d6000fd5b5050604080518681526020810186905281517f80195cc573b02cc48460cbca6e6e4cc85ddb91959d946e1c3025ea3d87942dc39450908190039091019150a1505050565b600061250f83836040518060400160405280601e81526020017f536166654d6174683a207375627472616374696f6e206f766572666c6f770000815250612bda565b600081836134945760405162461bcd60e51b8152602060048201818152835160248401528351909283926044909101919085019080838360008315612c2e578181015183820152602001612c16565b5060008385816134a057fe5b0495945050505050565b6040805160038082526080820190925260609160208201838036833701905050905030816000815181106134da57fe5b6001600160a01b03928316602091820292909201810191909152600654604080516315ab88c960e31b81529051919093169263ad5c4648926004808301939192829003018186803b15801561352e57600080fd5b505afa158015613542573d6000803e3d6000fd5b505050506040513d602081101561355857600080fd5b505181518290600190811061356957fe5b60200260200101906001600160a01b031690816001600160a01b0316815250507f0000000000000000000000000000000000000000000000000000000000000000816002815181106135b757fe5b6001600160a01b0392831660209182029290920101526006546135dd913091168461251a565b600654604051635c11d79560e01b8152600481018481526000602483018190523060648401819052426084850181905260a060448601908152875160a487015287516001600160a01b0390971696635c11d795968a968a9594939092909160c40190602080880191028083838b5b8381101561366357818101518382015260200161364b565b505050509050019650505050505050600060405180830381600087803b15801561368c57600080fd5b505af1158015612bd1573d6000803e3d6000fd5b604080516002808252606080830184529260208301908036833701905050905030816000815181106136ce57fe5b6001600160a01b03928316602091820292909201810191909152600654604080516315ab88c960e31b81529051919093169263ad5c4648926004808301939192829003018186803b15801561372257600080fd5b505afa158015613736573d6000803e3d6000fd5b505050506040513d602081101561374c57600080fd5b505181518290600190811061375d57fe5b6001600160a01b039283166020918202929092010152600654613783913091168461251a565b60065460405163791ac94760e01b8152600481018481526000602483018190523060648401819052426084850181905260a060448601908152875160a487015287516001600160a01b039097169663791ac947968a968a9594939092909160c40190602087810191028083838b831561366357818101518382015260200161364b565b60065461381e9030906001600160a01b03168461251a565b6006546040805163f305d71960e01b8152306004820152602481018590526000604482018190526064820181905260848201524260a482015290516001600160a01b039092169163f305d71991849160c480830192606092919082900301818588803b15801561388d57600080fd5b505af11580156138a1573d6000803e3d6000fd5b50505050506040513d60608110156138b857600080fd5b5050505056fe45524332303a207472616e7366657220746f20746865207a65726f20616464726573735a6f4e756c65743a2054686520726f7574657220616c726561647920686173207468617420616464726573734f776e61626c653a206e6577206f776e657220697320746865207a65726f206164647265737345524332303a20617070726f766520746f20746865207a65726f20616464726573735a6f4e756c65743a20546865206469766964656e6420747261636b657220616c7265616479206861732074686174206164647265737345524332303a207472616e7366657220616d6f756e7420657863656564732062616c616e63655a6f4e756c65743a2043616e6e6f742075706461746520676173466f7250726f63657373696e6720746f2073616d652076616c75655a6f4e756c65743a204175746f6d61746564206d61726b6574206d616b6572207061697220697320616c72656164792073657420746f20746861742076616c75655a6f4e756c65743a204163636f756e7420697320616c7265616479207468652076616c7565206f6620276578636c756465642745786365656473206d6178696d756d2077616c6c657420746f6b656e20616d6f756e742e5a6f4e756c65743a20546865206e6577206469766964656e6420747261636b6572206d757374206265206f776e656420627920746865205a6f4e756c657420746f6b656e20636f6e7472616374536166654d6174683a206d756c7469706c69636174696f6e206f766572666c6f7745524332303a207472616e7366657220616d6f756e74206578636565647320616c6c6f77616e63654f776e61626c653a2063616c6c6572206973206e6f7420746865206f776e65725a6f4e756c65743a20676173466f7250726f63657373696e67206d757374206265206265747765656e203230302c30303020616e64203530302c3030305a6f4e756c65743a20546865204465785377617020706169722063616e6e6f742062652072656d6f7665642066726f6d206175746f6d617465644d61726b65744d616b6572506169727345524332303a207472616e736665722066726f6d20746865207a65726f206164647265737345524332303a20617070726f76652066726f6d20746865207a65726f206164647265737345524332303a2064656372656173656420616c6c6f77616e63652062656c6f77207a65726fa264697066735822122084dec09fb21f3811a88404b1bf6e6c36264c70216b209fc241a47290bad91fa264736f6c634300060c003360c06040527f55dd6d5b534e4b5ec178f99ec344b6915e78ccb60000000000000000000000006080523480156200003557600080fd5b5060408051808201825260188082527f5a6f4e756c65745f4469766964656e645f547261636b657200000000000000006020808401828152855180870190965292855284015281519192918391839162000092916003916200012b565b508051620000a89060049060208401906200012b565b5050506000620000bd6200012760201b60201c565b600580546001600160a01b0319166001600160a01b038316908117909155604051919250906000907f8be0079c531659141344cd1fd0a4f28419497f9722a3daafe3b4186f6b6457e0908290a35050610e1060115550692a5a058fc295ed00000060a052620001c7565b3390565b828054600181600116156101000203166002900490600052602060002090601f016020900481019282601f106200016e57805160ff19168380011785556200019e565b828001600101855582156200019e579182015b828111156200019e57825182559160200191906001019062000181565b50620001ac929150620001b0565b5090565b5b80821115620001ac5760008155600101620001b1565b60805160601c60a05161214b620001f860003980610f1d5280610fea5250806111365280611ac4525061214b6000f3fe608060405234801561001057600080fd5b506004361061021c5760003560e01c80638da5cb5b11610125578063dd62ed3e116100ad578063e98030c71161007c578063e98030c714610666578063eb56a16814610683578063f2fde38b146106a0578063fbcbc0f1146106c6578063ffb2c479146106ec5761021c565b8063dd62ed3e146105fc578063e30443bc1461062a578063e457b8a814610656578063e7841ec01461065e5761021c565b8063a8b9d240116100f4578063a8b9d2401461054e578063a9059cbb14610574578063aafd847a146105a0578063bc4c4b37146105c6578063be10b614146105f45761021c565b80638da5cb5b146104d057806391b89fba146104f457806395d89b411461051a578063a457c2d7146105225761021c565b806331e79db0116101a85780636a474002116101775780636a4740021461048a5780636f2789ec1461049257806370a082311461049a578063715018a6146104c057806385a6b3ae146104c85761021c565b806331e79db0146103a857806339509351146103d05780634e7b827f146103fc5780635183d6fd146104225761021c565b8063226cfa3d116101ef578063226cfa3d1461030057806323b872dd1461032657806327ce01471461035c5780633009a60914610382578063313ce5671461038a5761021c565b806306fdde0314610221578063095ea7b31461029e57806309bbedde146102de57806318160ddd146102f8575b600080fd5b610229610727565b6040805160208082528351818301528351919283929083019185019080838360005b8381101561026357818101518382015260200161024b565b50505050905090810190601f1680156102905780820380516001836020036101000a031916815260200191505b509250505060405180910390f35b6102ca600480360360408110156102b457600080fd5b506001600160a01b0381351690602001356107bd565b604080519115158252519081900360200190f35b6102e66107db565b60408051918252519081900360200190f35b6102e66107e1565b6102e66004803603602081101561031657600080fd5b50356001600160a01b03166107e7565b6102ca6004803603606081101561033c57600080fd5b506001600160a01b038135811691602081013590911690604001356107f9565b6102e66004803603602081101561037257600080fd5b50356001600160a01b0316610880565b6102e66108df565b6103926108e5565b6040805160ff9092168252519081900360200190f35b6103ce600480360360208110156103be57600080fd5b50356001600160a01b03166108ea565b005b6102ca600480360360408110156103e657600080fd5b506001600160a01b038135169060200135610a46565b6102ca6004803603602081101561041257600080fd5b50356001600160a01b0316610a94565b61043f6004803603602081101561043857600080fd5b5035610aa9565b604080516001600160a01b0390991689526020890197909752878701959095526060870193909352608086019190915260a085015260c084015260e083015251908190036101000190f35b6103ce610c08565b6102e6610c3f565b6102e6600480360360208110156104b057600080fd5b50356001600160a01b0316610c45565b6103ce610c60565b6102e6610d02565b6104d8610d08565b604080516001600160a01b039092168252519081900360200190f35b6102e66004803603602081101561050a57600080fd5b50356001600160a01b0316610d17565b610229610d22565b6102ca6004803603604081101561053857600080fd5b506001600160a01b038135169060200135610d83565b6102e66004803603602081101561056457600080fd5b50356001600160a01b0316610deb565b6102ca6004803603604081101561058a57600080fd5b506001600160a01b038135169060200135610e17565b6102e6600480360360208110156105b657600080fd5b50356001600160a01b0316610e2b565b6102ca600480360360408110156105dc57600080fd5b506001600160a01b0381351690602001351515610e46565b6102e6610f1b565b6102e66004803603604081101561061257600080fd5b506001600160a01b0381358116916020013516610f3f565b6103ce6004803603604081101561064057600080fd5b506001600160a01b038135169060200135610f6a565b6104d8611134565b6102e6611158565b6103ce6004803603602081101561067c57600080fd5b503561115e565b6103ce6004803603602081101561069957600080fd5b503561127a565b6103ce600480360360208110156106b657600080fd5b50356001600160a01b0316611364565b61043f600480360360208110156106dc57600080fd5b50356001600160a01b031661145d565b6107096004803603602081101561070257600080fd5b50356115d0565b60408051938452602084019290925282820152519081900360600190f35b60038054604080516020601f60026000196101006001881615020190951694909404938401819004810282018101909252828152606093909290918301828280156107b35780601f10610788576101008083540402835291602001916107b3565b820191906000526020600020905b81548152906001019060200180831161079657829003601f168201915b5050505050905090565b60006107d16107ca6116ce565b84846116d2565b5060015b92915050565b600a5490565b60025490565b60106020526000908152604090205481565b60006108068484846117be565b610876846108126116ce565b61087185604051806060016040528060288152602001612064602891396001600160a01b038a166000908152600160205260408120906108506116ce565b6001600160a01b0316815260208101919091526040016000205491906117f5565b6116d2565b5060019392505050565b6001600160a01b038116600090815260076020526040812054600160801b906108cf906108ca906108c46108bf6108b688610c45565b6006549061188c565b6118ec565b906118fc565b61192f565b816108d657fe5b0490505b919050565b600e5481565b601290565b6108f26116ce565b6005546001600160a01b03908116911614610942576040805162461bcd60e51b8152602060048201819052602482015260008051602061208c833981519152604482015290519081900360640190fd5b6001600160a01b0381166000908152600f602052604090205460ff161561096857600080fd5b6001600160a01b0381166000908152600f60205260408120805460ff19166001179055610996908290611942565b6040805163131836e760e21b8152600a60048201526001600160a01b0383166024820152905173__$3dbaca6973400734f029126d97475bc274$__91634c60db9c916044808301926000929190829003018186803b1580156109f757600080fd5b505af4158015610a0b573d6000803e3d6000fd5b50506040516001600160a01b03841692507fa878b31040b2e6d0a9a3d3361209db3908ba62014b0dca52adbaee451d128b259150600090a250565b60006107d1610a536116ce565b846108718560016000610a646116ce565b6001600160a01b03908116825260208083019390935260409182016000908120918c16815292529020549061199b565b600f6020526000908152604090205460ff1681565b600080600080600080600080600a73__$3dbaca6973400734f029126d97475bc274$__63deb3d89690916040518263ffffffff1660e01b81526004018082815260200191505060206040518083038186803b158015610b0757600080fd5b505af4158015610b1b573d6000803e3d6000fd5b505050506040513d6020811015610b3157600080fd5b50518910610b58575060009650600019955085945086935083925082915081905080610bfd565b6000600a73__$3dbaca6973400734f029126d97475bc274$__63d1aa9e7e90918c6040518363ffffffff1660e01b8152600401808381526020018281526020019250505060206040518083038186803b158015610bb457600080fd5b505af4158015610bc8573d6000803e3d6000fd5b505050506040513d6020811015610bde57600080fd5b50519050610beb8161145d565b98509850985098509850985098509850505b919395975091939597565b60405162461bcd60e51b815260040180806020018281038252606b815260200180611fd8606b913960800191505060405180910390fd5b60115481565b6001600160a01b031660009081526020819052604090205490565b610c686116ce565b6005546001600160a01b03908116911614610cb8576040805162461bcd60e51b8152602060048201819052602482015260008051602061208c833981519152604482015290519081900360640190fd5b6005546040516000916001600160a01b0316907f8be0079c531659141344cd1fd0a4f28419497f9722a3daafe3b4186f6b6457e0908390a3600580546001600160a01b0319169055565b60095481565b6005546001600160a01b031690565b60006107d582610deb565b60048054604080516020601f60026000196101006001881615020190951694909404938401819004810282018101909252828152606093909290918301828280156107b35780601f10610788576101008083540402835291602001916107b3565b60006107d1610d906116ce565b84610871856040518060600160405280602581526020016120f16025913960016000610dba6116ce565b6001600160a01b03908116825260208083019390935260409182016000908120918d168152925290205491906117f5565b6001600160a01b0381166000908152600860205260408120546107d590610e1184610880565b906119f5565b60006107d1610e246116ce565b84846117be565b6001600160a01b031660009081526008602052604090205490565b6000610e506116ce565b6005546001600160a01b03908116911614610ea0576040805162461bcd60e51b8152602060048201819052602482015260008051602061208c833981519152604482015290519081900360640190fd5b6000610eab84611a37565b90508015610f11576001600160a01b0384166000818152601060209081526040918290204290558151848152915186151593927fa2c38e2d2fb7e3e1912d937fd1ca11ed6d51864dee4cfa7a7bf02becd7acf09292908290030190a360019150506107d5565b5060009392505050565b7f000000000000000000000000000000000000000000000000000000000000000081565b6001600160a01b03918216600090815260016020908152604080832093909416825291909152205490565b610f726116ce565b6005546001600160a01b03908116911614610fc2576040805162461bcd60e51b8152602060048201819052602482015260008051602061208c833981519152604482015290519081900360640190fd5b6001600160a01b0382166000908152600f602052604090205460ff1615610fe857611130565b7f0000000000000000000000000000000000000000000000000000000000000000811061109e576110198282611942565b60408051632f0ad01760e21b8152600a60048201526001600160a01b038416602482015260448101839052905173__$3dbaca6973400734f029126d97475bc274$__9163bc2b405c916064808301926000929190829003018186803b15801561108157600080fd5b505af4158015611095573d6000803e3d6000fd5b50505050611123565b6110a9826000611942565b6040805163131836e760e21b8152600a60048201526001600160a01b0384166024820152905173__$3dbaca6973400734f029126d97475bc274$__91634c60db9c916044808301926000929190829003018186803b15801561110a57600080fd5b505af415801561111e573d6000803e3d6000fd5b505050505b61112e826001610e46565b505b5050565b7f000000000000000000000000000000000000000000000000000000000000000081565b600e5490565b6111666116ce565b6005546001600160a01b039081169116146111b6576040805162461bcd60e51b8152602060048201819052602482015260008051602061208c833981519152604482015290519081900360640190fd5b610e1081101580156111cb5750620151808111155b6112065760405162461bcd60e51b815260040180806020018281038252604d815260200180611f1e604d913960600191505060405180910390fd5b6011548114156112475760405162461bcd60e51b815260040180806020018281038252603f815260200180611f6b603f913960400191505060405180910390fd5b60115460405182907f474ea64804364a1e29a4487ddb63c3342a2dd826ccd8acf48825e680a0e6f20f90600090a3601155565b6112826116ce565b6005546001600160a01b039081169116146112d2576040805162461bcd60e51b8152602060048201819052602482015260008051602061208c833981519152604482015290519081900360640190fd5b60006112dc6107e1565b116112e657600080fd5b8015611361576113176112f76107e1565b61130583600160801b61188c565b8161130c57fe5b60065491900461199b565b60065560408051828152905133917fa493a9229478c3fcd73f66d2cdeb7f94fd0f341da924d1054236d78454116511919081900360200190a260095461135d908261199b565b6009555b50565b61136c6116ce565b6005546001600160a01b039081169116146113bc576040805162461bcd60e51b8152602060048201819052602482015260008051602061208c833981519152604482015290519081900360640190fd5b6001600160a01b0381166114015760405162461bcd60e51b8152600401808060200182810382526026815260200180611ed66026913960400191505060405180910390fd5b6005546040516001600160a01b038084169216907f8be0079c531659141344cd1fd0a4f28419497f9722a3daafe3b4186f6b6457e090600090a3600580546001600160a01b0319166001600160a01b0392909216919091179055565b600080600080600080600080889750600a73__$3dbaca6973400734f029126d97475bc274$__6317e142d190918a6040518363ffffffff1660e01b815260040180838152602001826001600160a01b031681526020019250505060206040518083038186803b1580156114cf57600080fd5b505af41580156114e3573d6000803e3d6000fd5b505050506040513d60208110156114f957600080fd5b5051965060001995506000871261155d57600e5487111561152957600e54611522908890611bc6565b955061155d565b600e54600a546000911061153e57600061154d565b600e54600a5461154d916119f5565b905061155988826118fc565b9650505b61156688610deb565b945061157188610880565b6001600160a01b03891660009081526010602052604090205490945092508261159b5760006115a9565b6011546115a990849061199b565b91504282116115b95760006115c3565b6115c382426119f5565b9050919395975091939597565b600a5460009081908190806115f0575050600e54600092508291506116c7565b600e546000805a90506000805b898410801561160b57508582105b156116b657600a54600190950194851061162457600094505b6000600a600001868154811061163657fe5b60009182526020808320909101546001600160a01b0316808352601090915260409091205490915061166790611bf8565b1561168357611677816001610e46565b15611683576001909101905b60019092019160005a9050808511156116ad576116aa6116a386836119f5565b879061199b565b95505b93506115fd9050565b600e85905590975095509193505050505b9193909250565b3390565b6001600160a01b0383166117175760405162461bcd60e51b81526004018080602001828103825260248152602001806120cd6024913960400191505060405180910390fd5b6001600160a01b03821661175c5760405162461bcd60e51b8152600401808060200182810382526022815260200180611efc6022913960400191505060405180910390fd5b6001600160a01b03808416600081815260016020908152604080832094871680845294825291829020859055815185815291517f8c5be1e5ebec7d5bd14f71427d1e84f3dd0314c0f7b2291e5b200ac8c7c3b9259281900390910190a3505050565b60405162461bcd60e51b815260040180806020018281038252602e815260200180611faa602e913960400191505060405180910390fd5b600081848411156118845760405162461bcd60e51b81526004018080602001828103825283818151815260200191508051906020019080838360005b83811015611849578181015183820152602001611831565b50505050905090810190601f1680156118765780820380516001836020036101000a031916815260200191505b509250505060405180910390fd5b505050900390565b60008261189b575060006107d5565b828202828482816118a857fe5b04146118e55760405162461bcd60e51b81526004018080602001828103825260218152602001806120436021913960400191505060405180910390fd5b9392505050565b600081818112156107d557600080fd5b60008282018183128015906119115750838112155b80611926575060008312801561192657508381125b6118e557600080fd5b60008082121561193e57600080fd5b5090565b600061194d83610c45565b90508082111561197557600061196383836119f5565b905061196f8482611c1f565b5061112e565b8082101561112e57600061198982846119f5565b90506119958482611c83565b50505050565b6000828201838110156118e5576040805162461bcd60e51b815260206004820152601b60248201527f536166654d6174683a206164646974696f6e206f766572666c6f770000000000604482015290519081900360640190fd5b60006118e583836040518060400160405280601e81526020017f536166654d6174683a207375627472616374696f6e206f766572666c6f7700008152506117f5565b600080611a4383610deb565b90508015611bbd576001600160a01b038316600090815260086020526040902054611a6e908261199b565b6001600160a01b038416600081815260086020908152604091829020939093558051848152905191927fee503bee2bb6a87e57bc57db795f98137327401a0e7b7ce42e37926cc1a9ca4d92918290030190a260007f00000000000000000000000000000000000000000000000000000000000000006001600160a01b031663a9059cbb85846040518363ffffffff1660e01b815260040180836001600160a01b0316815260200182815260200192505050602060405180830381600087803b158015611b3957600080fd5b505af1158015611b4d573d6000803e3d6000fd5b505050506040513d6020811015611b6357600080fd5b5051905080611bb5576001600160a01b038416600090815260086020526040902054611b8f90836119f5565b6001600160a01b03851660009081526008602052604081209190915592506108da915050565b5090506108da565b50600092915050565b6000818303818312801590611bdb5750838113155b80611926575060008312801561192657508381136118e557600080fd5b600042821115611c0a575060006108da565b601154611c1742846119f5565b101592915050565b611c298282611cc7565b611c63611c446108bf8360065461188c90919063ffffffff16565b6001600160a01b03841660009081526007602052604090205490611bc6565b6001600160a01b0390921660009081526007602052604090209190915550565b611c8d8282611db7565b611c63611ca86108bf8360065461188c90919063ffffffff16565b6001600160a01b038416600090815260076020526040902054906118fc565b6001600160a01b038216611d22576040805162461bcd60e51b815260206004820152601f60248201527f45524332303a206d696e7420746f20746865207a65726f206164647265737300604482015290519081900360640190fd5b611d2e6000838361112e565b600254611d3b908261199b565b6002556001600160a01b038216600090815260208190526040902054611d61908261199b565b6001600160a01b0383166000818152602081815260408083209490945583518581529351929391927fddf252ad1be2c89b69c2b068fc378daa952ba7f163c4a11628f55a4df523b3ef9281900390910190a35050565b6001600160a01b038216611dfc5760405162461bcd60e51b81526004018080602001828103825260218152602001806120ac6021913960400191505060405180910390fd5b611e088260008361112e565b611e4581604051806060016040528060228152602001611eb4602291396001600160a01b03851660009081526020819052604090205491906117f5565b6001600160a01b038316600090815260208190526040902055600254611e6b90826119f5565b6002556040805182815290516000916001600160a01b038516917fddf252ad1be2c89b69c2b068fc378daa952ba7f163c4a11628f55a4df523b3ef9181900360200190a3505056fe45524332303a206275726e20616d6f756e7420657863656564732062616c616e63654f776e61626c653a206e6577206f776e657220697320746865207a65726f206164647265737345524332303a20617070726f766520746f20746865207a65726f20616464726573735a6f4e756c65745f4469766964656e645f547261636b65723a20636c61696d57616974206d757374206265207570646174656420746f206265747765656e203120616e6420323420686f7572735a6f4e756c65745f4469766964656e645f547261636b65723a2043616e6e6f742075706461746520636c61696d5761697420746f2073616d652076616c75655a6f4e756c65745f4469766964656e645f547261636b65723a204e6f207472616e736665727320616c6c6f7765645a6f4e756c65745f4469766964656e645f547261636b65723a2077697468647261774469766964656e642064697361626c65642e20557365207468652027636c61696d272066756e6374696f6e206f6e20746865206d61696e205a6f4e756c657420636f6e74726163742e536166654d6174683a206d756c7469706c69636174696f6e206f766572666c6f7745524332303a207472616e7366657220616d6f756e74206578636565647320616c6c6f77616e63654f776e61626c653a2063616c6c6572206973206e6f7420746865206f776e657245524332303a206275726e2066726f6d20746865207a65726f206164647265737345524332303a20617070726f76652066726f6d20746865207a65726f206164647265737345524332303a2064656372656173656420616c6c6f77616e63652062656c6f77207a65726fa2646970667358221220b7b574f6c2aeb5e48061994a41a258fbdb90d3a4b7c33f08abfdb7bbe0f16ccd64736f6c634300060c00335a6f4e756c65743a204175746f6d61746564206d61726b6574206d616b6572207061697220697320616c72656164792073657420746f20746861742076616c75655a6f4e756c65743a204163636f756e7420697320616c7265616479207468652076616c7565206f6620276578636c7564656427",
  "linkReferences": {
    "contracts/ZoNulet.sol": {
      "IterableMapping": [
        {
          "length": 20,
          "start": 21270
        },
        {
          "length": 20,
          "start": 21521
        },
        {
          "length": 20,
          "start": 21686
        },
        {
          "length": 20,
          "start": 22944
        },
        {
          "length": 20,
          "start": 23081
        },
        {
          "length": 20,
          "start": 24008
        }
      ]
    }
  },
  "deployedLinkReferences": {}
}