{
  "contractName": "ZonuletOracleV2",
  "abi": [
    {
      "inputs": [],
      "stateMutability": "nonpayable",
      "type": "constructor"
    },
    {
      "inputs": [],
      "name": "getLatestMATICPrice",
      "outputs": [
        {
          "internalType": "int256",
          "name": "",
          "type": "int256"
        }
      ],
      "stateMutability": "view",
      "type": "function"
    },
    {
      "inputs": [
        {
          "internalType": "address",
          "name": "pairAddress",
          "type": "address"
        },
        {
          "internalType": "uint256",
          "name": "amount",
          "type": "uint256"
        }
      ],
      "name": "getLatestTokenPrice",
      "outputs": [
        {
          "internalType": "uint256",
          "name": "",
          "type": "uint256"
        }
      ],
      "stateMutability": "view",
      "type": "function"
    }
  ],
  "bytecode": "0x608060405234801561001057600080fd5b50600080546001600160a01b03191673d0d5e3db44de05e9f294bb0a3beeaf030de24ada179055610586806100466000396000f3fe608060405234801561001057600080fd5b50600436106100365760003560e01c806389f7f3d21461003b578063a6b7d36614610060575b600080fd5b61004e610049366004610311565b610068565b60405190815260200160405180910390f35b61004e61021b565b6000808390506000816001600160a01b031663d21220a76040518163ffffffff1660e01b815260040160206040518083038186803b1580156100a957600080fd5b505afa1580156100bd573d6000803e3d6000fd5b505050506040513d601f19601f820116820180604052508101906100e191906102ed565b9050600080836001600160a01b0316630902f1ac6040518163ffffffff1660e01b815260040160606040518083038186803b15801561011f57600080fd5b505afa158015610133573d6000803e3d6000fd5b505050506040513d601f19601f82011682018060405250810190610157919061033d565b506001600160701b031691506001600160701b031691506000836001600160a01b031663313ce5676040518163ffffffff1660e01b815260040160206040518083038186803b1580156101a957600080fd5b505afa1580156101bd573d6000803e3d6000fd5b505050506040513d601f19601f820116820180604052508101906101e1919061038d565b6101ec90600a61045b565b6101f69084610503565b9050816102038289610503565b61020d91906103f6565b955050505050505b92915050565b60008060008060008060008054906101000a90046001600160a01b03166001600160a01b031663feaf968c6040518163ffffffff1660e01b815260040160a06040518083038186803b15801561027057600080fd5b505afa158015610284573d6000803e3d6000fd5b505050506040513d601f19601f820116820180604052508101906102a891906103a6565b50919998505050505050505050565b80516001600160701b03811681146102ce57600080fd5b919050565b805169ffffffffffffffffffff811681146102ce57600080fd5b6000602082840312156102ff57600080fd5b815161030a81610538565b9392505050565b6000806040838503121561032457600080fd5b823561032f81610538565b946020939093013593505050565b60008060006060848603121561035257600080fd5b61035b846102b7565b9250610369602085016102b7565b9150604084015163ffffffff8116811461038257600080fd5b809150509250925092565b60006020828403121561039f57600080fd5b5051919050565b600080600080600060a086880312156103be57600080fd5b6103c7866102d3565b94506020860151935060408601519250606086015191506103ea608087016102d3565b90509295509295909350565b60008261041357634e487b7160e01b600052601260045260246000fd5b500490565b600181815b8085111561045357816000190482111561043957610439610522565b8085161561044657918102915b93841c939080029061041d565b509250929050565b600061030a838360008261047157506001610215565b8161047e57506000610215565b8160018114610494576002811461049e576104ba565b6001915050610215565b60ff8411156104af576104af610522565b50506001821b610215565b5060208310610133831016604e8410600b84101617156104dd575081810a610215565b6104e78383610418565b80600019048211156104fb576104fb610522565b029392505050565b600081600019048311821515161561051d5761051d610522565b500290565b634e487b7160e01b600052601160045260246000fd5b6001600160a01b038116811461054d57600080fd5b5056fea264697066735822122003b26936d702b54df86dbd8679c1a83703300ab520e147a4a7932871e065e85f64736f6c63430008070033",
  "immutableReferences": {},
  "source": "//              \n//           \n//                        \n//                       \n//        \n//                                                                        \n// SPDX-License-Identifier: MIT\npragma solidity 0.8.7;\n\nimport \"./IDexSwapPair.sol\";\nimport \"../chainlink/AggregatorV3Interface.sol\";\n\n/**\n * @dev Interface of the ERC20 standard as defined in the EIP.\n */\ninterface IERC20 {\n    /**\n     * @dev Returns the amount of tokens in existence.\n     */\n    function totalSupply() external view returns (uint256);\n\n    /**\n     * @dev Returns the amount of tokens owned by `account`.\n     */\n    function balanceOf(address account) external view returns (uint256);\n    \n    function decimals() external virtual view returns (uint256);\n\n    /**\n     * @dev Moves `amount` tokens from the caller's account to `recipient`.\n     *\n     * Returns a boolean value indicating whether the operation succeeded.\n     *\n     * Emits a {Transfer} event.\n     */\n    function transfer(address recipient, uint256 amount) external returns (bool);\n\n    /**\n     * @dev Returns the remaining number of tokens that `spender` will be\n     * allowed to spend on behalf of `owner` through {transferFrom}. This is\n     * zero by default.\n     *\n     * This value changes when {approve} or {transferFrom} are called.\n     */\n    function allowance(address owner, address spender) external view returns (uint256);\n\n    /**\n     * @dev Sets `amount` as the allowance of `spender` over the caller's tokens.\n     *\n     * Returns a boolean value indicating whether the operation succeeded.\n     *\n     * IMPORTANT: Beware that changing an allowance with this method brings the risk\n     * that someone may use both the old and the new allowance by unfortunate\n     * transaction ordering. One possible solution to mitigate this race\n     * condition is to first reduce the spender's allowance to 0 and set the\n     * desired value afterwards:\n     * https://github.com/ethereum/EIPs/issues/20#issuecomment-263524729\n     *\n     * Emits an {Approval} event.\n     */\n    function approve(address spender, uint256 amount) external returns (bool);\n\n    /**\n     * @dev Moves `amount` tokens from `sender` to `recipient` using the\n     * allowance mechanism. `amount` is then deducted from the caller's\n     * allowance.\n     *\n     * Returns a boolean value indicating whether the operation succeeded.\n     *\n     * Emits a {Transfer} event.\n     */\n    function transferFrom(\n        address sender,\n        address recipient,\n        uint256 amount\n    ) external returns (bool);\n\n    /**\n     * @dev Emitted when `value` tokens are moved from one account (`from`) to\n     * another (`to`).\n     *\n     * Note that `value` may be zero.\n     */\n    event Transfer(address indexed from, address indexed to, uint256 value);\n\n    /**\n     * @dev Emitted when the allowance of a `spender` for an `owner` is set by\n     * a call to {approve}. `value` is the new allowance.\n     */\n    event Approval(address indexed owner, address indexed spender, uint256 value);\n}\n\ncontract ZonuletOracleV2  {\n\n    AggregatorV3Interface internal priceFeed;\n\n    constructor()  {\n        priceFeed = AggregatorV3Interface(0xd0D5e3DB44DE05E9F294BB0a3bEEaF030DE24Ada); // matic/usd\n    }\n\n    function getLatestMATICPrice() public view returns (int) {\n        (\n            uint80 roundID, \n            int price,\n            uint startedAt,\n            uint timeStamp,\n            uint80 answeredInRound\n        ) = priceFeed.latestRoundData();\n        return price;\n    }\n\n    function getLatestTokenPrice(address pairAddress, uint amount) public view returns (uint)\n    {\n        IDexSwapPair pair = IDexSwapPair(pairAddress);\n        IERC20 token1 = IERC20(pair.token1());\n        (uint Res0, uint Res1,) = pair.getReserves();\n    \n        uint res0 = Res0*(10**token1.decimals());\n        return((amount*res0)/Res1); // return amount of token0 needed to buy token1\n    }\n}",
  "sourcePath": "/mnt/e/ETH-DENVER/INFURA/truffle/contracts/ZonuletOracleV2.sol",
  "compiler": {
    "name": "solc",
    "version": "0.8.7+commit.e28d00a7.Emscripten.clang"
  },
  "schemaVersion": "3.4.12",
  "updatedAt": "2023-02-28T12:01:19.440Z",
  "devdoc": {
    "kind": "dev",
    "methods": {},
    "version": 1
  },
  "userdoc": {
    "kind": "user",
    "methods": {},
    "version": 1
  }
}