{
  "_format": "hh-sol-artifact-1",
  "contractName": "ZonuletZDEX",
  "sourceName": "contracts/ZonuletZDEX.sol",
  "abi": [
    {
      "inputs": [],
      "stateMutability": "nonpayable",
      "type": "constructor"
    },
    {
      "inputs": [
        {
          "internalType": "uint256",
          "name": "zonuAmount",
          "type": "uint256"
        }
      ],
      "name": "getEstimatedFILECOINforZONU",
      "outputs": [
        {
          "internalType": "uint256[]",
          "name": "",
          "type": "uint256[]"
        }
      ],
      "stateMutability": "view",
      "type": "function"
    },
    {
      "inputs": [
        {
          "internalType": "uint256",
          "name": "filecoinAmount",
          "type": "uint256"
        }
      ],
      "name": "getEstimatedZONUforFILECOIN",
      "outputs": [
        {
          "internalType": "uint256[]",
          "name": "",
          "type": "uint256[]"
        }
      ],
      "stateMutability": "view",
      "type": "function"
    },
    {
      "inputs": [],
      "name": "uniswapRouter",
      "outputs": [
        {
          "internalType": "contract IUniswapV2Router02",
          "name": "",
          "type": "address"
        }
      ],
      "stateMutability": "view",
      "type": "function"
    },
    {
      "inputs": [
        {
          "internalType": "uint256",
          "name": "zonuAmount",
          "type": "uint256"
        },
        {
          "internalType": "uint256",
          "name": "deadline",
          "type": "uint256"
        }
      ],
      "name": "zonulet",
      "outputs": [],
      "stateMutability": "payable",
      "type": "function"
    },
    {
      "stateMutability": "payable",
      "type": "receive"
    }
  ],
  "bytecode": "0x6080604052600180546001600160a01b0319167348a47b30a3e6b2edea037d57172618df8641893117905534801561003657600080fd5b50600080546001600160a01b03191673369bb77c15855182e908f1b179feb968ca190fc7179055610a018061006c6000396000f3fe6080604052600436106100435760003560e01c806348e2d6011461004f5780636fd0f92f14610085578063735de9f71461009a578063fede0b2a146100ec57600080fd5b3661004a57005b600080fd5b34801561005b57600080fd5b5061006f61006a36600461083a565b61010c565b60405161007c91906108c6565b60405180910390f35b610098610093366004610853565b6101cb565b005b3480156100a657600080fd5b506000546100c79073ffffffffffffffffffffffffffffffffffffffff1681565b60405173ffffffffffffffffffffffffffffffffffffffff909116815260200161007c565b3480156100f857600080fd5b5061006f61010736600461083a565b610476565b60005460609073ffffffffffffffffffffffffffffffffffffffff16631f00ca74836101366104a0565b6040518363ffffffff1660e01b815260040161015392919061090a565b60006040518083038186803b15801561016b57600080fd5b505afa15801561017f573d6000803e3d6000fd5b505050506040513d6000823e601f3d9081017fffffffffffffffffffffffffffffffffffffffffffffffffffffffffffffffe01682016040526101c59190810190610757565b92915050565b60408051600280825260608201835260009260208301908036833701905050905060008054906101000a900473ffffffffffffffffffffffffffffffffffffffff1673ffffffffffffffffffffffffffffffffffffffff1663ad5c46486040518163ffffffff1660e01b815260040160206040518083038186803b15801561025257600080fd5b505afa158015610266573d6000803e3d6000fd5b505050506040513d601f19601f8201168201806040525081019061028a919061071a565b8160008151811061029d5761029d61096d565b73ffffffffffffffffffffffffffffffffffffffff928316602091820292909201015260018054835192169183919081106102da576102da61096d565b73ffffffffffffffffffffffffffffffffffffffff92831660209182029290920101526000546040517ffb3bdb4100000000000000000000000000000000000000000000000000000000815291169063fb3bdb4190349061034590879086903390899060040161092b565b6000604051808303818588803b15801561035e57600080fd5b505af1158015610372573d6000803e3d6000fd5b50505050506040513d6000823e601f3d9081017fffffffffffffffffffffffffffffffffffffffffffffffffffffffffffffffe01682016040526103b99190810190610757565b50604051600090339047908381818185875af1925050503d80600081146103fc576040519150601f19603f3d011682016040523d82523d6000602084013e610401565b606091505b5050905080610470576040517f08c379a000000000000000000000000000000000000000000000000000000000815260206004820152601d60248201527f7a6f6e756c6574207a61702042495420726566756e64206661696c6564000000604482015260640160405180910390fd5b50505050565b60005460609073ffffffffffffffffffffffffffffffffffffffff1663d06ca61f836101366105dd565b6040805160028082526060808301845292600092919060208301908036833701905050905060008054906101000a900473ffffffffffffffffffffffffffffffffffffffff1673ffffffffffffffffffffffffffffffffffffffff1663ad5c46486040518163ffffffff1660e01b815260040160206040518083038186803b15801561052b57600080fd5b505afa15801561053f573d6000803e3d6000fd5b505050506040513d601f19601f82011682018060405250810190610563919061071a565b816000815181106105765761057661096d565b73ffffffffffffffffffffffffffffffffffffffff928316602091820292909201015260018054835192169183919081106105b3576105b361096d565b73ffffffffffffffffffffffffffffffffffffffff90921660209283029190910190910152919050565b60408051600280825260608083018452926000929190602083019080368337505060018054835193945073ffffffffffffffffffffffffffffffffffffffff1692849250811061062f5761062f61096d565b602002602001019073ffffffffffffffffffffffffffffffffffffffff16908173ffffffffffffffffffffffffffffffffffffffff168152505060008054906101000a900473ffffffffffffffffffffffffffffffffffffffff1673ffffffffffffffffffffffffffffffffffffffff1663ad5c46486040518163ffffffff1660e01b815260040160206040518083038186803b1580156106cf57600080fd5b505afa1580156106e3573d6000803e3d6000fd5b505050506040513d601f19601f82011682018060405250810190610707919061071a565b816000815181106105b3576105b361096d565b60006020828403121561072c57600080fd5b815173ffffffffffffffffffffffffffffffffffffffff8116811461075057600080fd5b9392505050565b6000602080838503121561076a57600080fd5b825167ffffffffffffffff8082111561078257600080fd5b818501915085601f83011261079657600080fd5b8151818111156107a8576107a861099c565b8060051b6040517fffffffffffffffffffffffffffffffffffffffffffffffffffffffffffffffe0603f830116810181811085821117156107eb576107eb61099c565b604052828152858101935084860182860187018a101561080a57600080fd5b600095505b8386101561082d57805185526001959095019493860193860161080f565b5098975050505050505050565b60006020828403121561084c57600080fd5b5035919050565b6000806040838503121561086657600080fd5b50508035926020909101359150565b600081518084526020808501945080840160005b838110156108bb57815173ffffffffffffffffffffffffffffffffffffffff1687529582019590820190600101610889565b509495945050505050565b6020808252825182820181905260009190848201906040850190845b818110156108fe578351835292840192918401916001016108e2565b50909695505050505050565b8281526040602082015260006109236040830184610875565b949350505050565b8481526080602082015260006109446080830186610875565b73ffffffffffffffffffffffffffffffffffffffff949094166040830152506060015292915050565b7f4e487b7100000000000000000000000000000000000000000000000000000000600052603260045260246000fd5b7f4e487b7100000000000000000000000000000000000000000000000000000000600052604160045260246000fdfea264697066735822122054c34e3aaa3f2717abf9f2d3e0cc3f9be7e3963e80abb55b1a50ed39418cb6c564736f6c63430008070033",
  "linkReferences": {},
  "deployedLinkReferences": {}
}