{
  "contractName": "ZonuletNFTLikes",
  "abi": [
    {
      "inputs": [
        {
          "internalType": "contract ZonuletNFT",
          "name": "_zonuletNFT",
          "type": "address"
        }
      ],
      "stateMutability": "nonpayable",
      "type": "constructor"
    },
    {
      "anonymous": false,
      "inputs": [
        {
          "indexed": false,
          "internalType": "uint256",
          "name": "_tokenId",
          "type": "uint256"
        },
        {
          "indexed": false,
          "internalType": "address",
          "name": "_liker",
          "type": "address"
        }
      ],
      "name": "LikedNFT",
      "type": "event"
    },
    {
      "anonymous": false,
      "inputs": [
        {
          "indexed": false,
          "internalType": "uint256",
          "name": "_tokenId",
          "type": "uint256"
        },
        {
          "indexed": false,
          "internalType": "address",
          "name": "_pacmaniser",
          "type": "address"
        }
      ],
      "name": "PacmanedNFT",
      "type": "event"
    },
    {
      "inputs": [],
      "name": "ZONU",
      "outputs": [
        {
          "internalType": "address",
          "name": "",
          "type": "address"
        }
      ],
      "stateMutability": "view",
      "type": "function",
      "constant": true
    },
    {
      "inputs": [
        {
          "internalType": "address",
          "name": "",
          "type": "address"
        }
      ],
      "name": "likers",
      "outputs": [
        {
          "internalType": "uint256",
          "name": "totallikes",
          "type": "uint256"
        }
      ],
      "stateMutability": "view",
      "type": "function",
      "constant": true
    },
    {
      "inputs": [
        {
          "internalType": "uint256",
          "name": "",
          "type": "uint256"
        }
      ],
      "name": "nftLikes",
      "outputs": [
        {
          "internalType": "uint256",
          "name": "likes",
          "type": "uint256"
        },
        {
          "internalType": "uint256",
          "name": "nftId",
          "type": "uint256"
        }
      ],
      "stateMutability": "view",
      "type": "function",
      "constant": true
    },
    {
      "inputs": [
        {
          "internalType": "uint256",
          "name": "",
          "type": "uint256"
        }
      ],
      "name": "nftPacmans",
      "outputs": [
        {
          "internalType": "uint256",
          "name": "pacmans",
          "type": "uint256"
        },
        {
          "internalType": "uint256",
          "name": "nftId",
          "type": "uint256"
        }
      ],
      "stateMutability": "view",
      "type": "function",
      "constant": true
    },
    {
      "inputs": [],
      "name": "owner",
      "outputs": [
        {
          "internalType": "address",
          "name": "",
          "type": "address"
        }
      ],
      "stateMutability": "view",
      "type": "function",
      "constant": true
    },
    {
      "inputs": [
        {
          "internalType": "address",
          "name": "",
          "type": "address"
        }
      ],
      "name": "pacmanisers",
      "outputs": [
        {
          "internalType": "uint256",
          "name": "totalpacman",
          "type": "uint256"
        }
      ],
      "stateMutability": "view",
      "type": "function",
      "constant": true
    },
    {
      "inputs": [],
      "name": "zonuletNFT",
      "outputs": [
        {
          "internalType": "contract ZonuletNFT",
          "name": "",
          "type": "address"
        }
      ],
      "stateMutability": "view",
      "type": "function",
      "constant": true
    },
    {
      "inputs": [
        {
          "internalType": "address",
          "name": "_owner",
          "type": "address"
        },
        {
          "internalType": "uint256",
          "name": "_tokenId",
          "type": "uint256"
        }
      ],
      "name": "LikeNFT",
      "outputs": [],
      "stateMutability": "payable",
      "type": "function",
      "payable": true
    },
    {
      "inputs": [
        {
          "internalType": "address",
          "name": "_minter",
          "type": "address"
        },
        {
          "internalType": "uint256",
          "name": "_tokenId",
          "type": "uint256"
        }
      ],
      "name": "PacmanNFT",
      "outputs": [],
      "stateMutability": "payable",
      "type": "function",
      "payable": true
    },
    {
      "inputs": [
        {
          "internalType": "uint256",
          "name": "_pacmanprice",
          "type": "uint256"
        }
      ],
      "name": "setPacmanPrice",
      "outputs": [],
      "stateMutability": "nonpayable",
      "type": "function"
    },
    {
      "inputs": [],
      "name": "getPacmanPrice",
      "outputs": [
        {
          "internalType": "uint256",
          "name": "",
          "type": "uint256"
        }
      ],
      "stateMutability": "view",
      "type": "function",
      "constant": true
    }
  ],
  "bytecode": "0x60a06040527f496a89968fb0e0effe32db03102b613084239ed3000000000000000000000000608052600160035534801561003957600080fd5b506040516108fe3803806108fe83398101604081905261005891610096565b600080546001600160a01b0319908116301790915560028054821633179055600180546001600160a01b0393909316929091169190911790556100c6565b6000602082840312156100a857600080fd5b81516001600160a01b03811681146100bf57600080fd5b9392505050565b60805160601c6108146100ea6000396000818160b3015261039f01526108146000f3fe60806040526004361061009c5760003560e01c806354b579921161006457806354b579921461019c5780636fabf29a146101d0578063818bf15d146101f05780638da5cb5b1461021d578063983ddbe21461023d578063dfe000381461025d57600080fd5b806306e6caad146100a157806316d21124146100f25780631b388691146101115780632e4dcb951461012657806335b1d5c714610153575b600080fd5b3480156100ad57600080fd5b506100d57f000000000000000000000000000000000000000000000000000000000000000081565b6040516001600160a01b0390911681526020015b60405180910390f35b3480156100fe57600080fd5b506003545b6040519081526020016100e9565b61012461011f3660046106f9565b610270565b005b34801561013257600080fd5b506101036101413660046106b8565b60076020526000908152604090205481565b34801561015f57600080fd5b5061018761016e366004610747565b6004602052600090815260409020805460019091015482565b604080519283526020830191909152016100e9565b3480156101a857600080fd5b506101876101b7366004610747565b6005602052600090815260409020805460019091015482565b3480156101dc57600080fd5b506101246101eb366004610747565b6104a7565b3480156101fc57600080fd5b5061010361020b3660046106b8565b60066020526000908152604090205481565b34801561022957600080fd5b506002546100d5906001600160a01b031681565b34801561024957600080fd5b506001546100d5906001600160a01b031681565b61012461026b3660046106f9565b6104da565b336001600160a01b038316141561028657600080fd5b600160009054906101000a90046001600160a01b03166001600160a01b03166318160ddd6040518163ffffffff1660e01b815260040160206040518083038186803b1580156102d457600080fd5b505afa1580156102e8573d6000803e3d6000fd5b505050506040513d601f19601f8201168201806040525081019061030c9190610760565b81111561031857600080fd5b6000818152600560205260408120805460019290610337908490610779565b90915550506000818152600560209081526040808320600190810185905533845260079092528220805491929091610370908490610779565b9091555050336000818152600760209081526040822060019081018054918201815583529120018290556003547f00000000000000000000000000000000000000000000000000000000000000006001600160a01b0316916323b872dd9185906103e290670de0b6b3a7640000610791565b6040516001600160e01b031960e086901b1681526001600160a01b0393841660048201529290911660248301526044820152606401602060405180830381600087803b15801561043157600080fd5b505af1158015610445573d6000803e3d6000fd5b505050506040513d601f19601f820116820180604052508101906104699190610725565b50604080518281523360208201527fc590a088f361ec73e81a82cf2313cb91c99654d206dd72caec2cc1efbbe581ff91015b60405180910390a15050565b6002546001600160a01b031633146104be57600080fd5b6002546001600160a01b031633146104d557600080fd5b600355565b6001546040516331a9108f60e11b8152600481018390526001600160a01b03848116921690636352211e9060240160206040518083038186803b15801561052057600080fd5b505afa158015610534573d6000803e3d6000fd5b505050506040513d601f19601f8201168201806040525081019061055891906106dc565b6001600160a01b03161461056b57600080fd5b600160009054906101000a90046001600160a01b03166001600160a01b03166318160ddd6040518163ffffffff1660e01b815260040160206040518083038186803b1580156105b957600080fd5b505afa1580156105cd573d6000803e3d6000fd5b505050506040513d601f19601f820116820180604052508101906105f19190610760565b8111156105fd57600080fd5b600081815260046020526040812080546001929061061c908490610779565b90915550506000818152600460209081526040808320600190810185905533845260069092528220805491929091610655908490610779565b90915550503360008181526006602090815260408083206001908101805491820181558452928290209092018490558151848152908101929092527fd317d768fbf35562fd63a0aa2aaf96e46c72fa74724b52ecc4afde3c359afcdc910161049b565b6000602082840312156106ca57600080fd5b81356106d5816107c6565b9392505050565b6000602082840312156106ee57600080fd5b81516106d5816107c6565b6000806040838503121561070c57600080fd5b8235610717816107c6565b946020939093013593505050565b60006020828403121561073757600080fd5b815180151581146106d557600080fd5b60006020828403121561075957600080fd5b5035919050565b60006020828403121561077257600080fd5b5051919050565b6000821982111561078c5761078c6107b0565b500190565b60008160001904831182151516156107ab576107ab6107b0565b500290565b634e487b7160e01b600052601160045260246000fd5b6001600160a01b03811681146107db57600080fd5b5056fea264697066735822122043e28db22e0cb87a96c1d070f93fd7f39e553e01b868ab4cdb717afac4462f2464736f6c63430008070033",
  "immutableReferences": {
    "368": [
      {
        "length": 32,
        "start": 179
      },
      {
        "length": 32,
        "start": 927
      }
    ]
  },
  "source": "//              \n//           \n//                        \n//                       \n//        \n//                                                                        \n// SPDX-License-Identifier: MIT\n\npragma solidity 0.8.7;\n\nimport \"./ZonuletNFT.sol\";\nimport \"../openzeppelin/token/ERC721/extensions/ERC721Full.sol\";\nimport \"../openzeppelin/token/ERC20/IERC20.sol\";\nimport \"../openzeppelin/token/ERC20/extensions/IERC20Metadata.sol\";\nimport \"../openzeppelin/access/Ownable.sol\";\nimport \"../openzeppelin/utils/math/SafeMath.sol\";\nimport \"../openzeppelin/utils/math/SafeMathInt.sol\";\nimport \"../openzeppelin/utils/math/SafeMathUint.sol\";\nimport \"../openzeppelin/token/ERC20/ERC20.sol\";\n\ncontract ZonuletNFTLikes {\n\n    address admin;\n    ZonuletNFT public zonuletNFT;\n\n    address public immutable ZONU = address(0x496a89968Fb0e0EffE32Db03102B613084239ED3); \n\n    event LikedNFT(uint256 _tokenId, address _liker);\n\n    event PacmanedNFT(uint256 _tokenId, address _pacmaniser);\n\n    address public owner;\n\n    constructor(ZonuletNFT _zonuletNFT) {\n        admin = address(this);\n        owner = msg.sender;\n        zonuletNFT = _zonuletNFT;\n    }\n\n    modifier onlyOwner() {\n        require(msg.sender == owner);\n        _;\n    }\n\n    uint256 pacmanprice = 1;\n\n    struct NFTLikes {\n        uint likes;\n        uint nftId;\n    }\n\n    struct NFTPacmans {\n        uint pacmans;\n        uint nftId;\n    }\n\n    struct Liker {\n        uint totallikes;\n        uint[] nfts;\n    }\n\n    struct Pacmaniser {\n        uint totalpacman;\n        uint[] nfts;\n    }\n\n    mapping(uint => NFTLikes) public nftLikes;\n    mapping(uint => NFTPacmans) public nftPacmans;\n\n    mapping(address => Liker) public likers;\n    mapping(address => Pacmaniser) public pacmanisers;\n\n    function LikeNFT(address _owner, uint256 _tokenId) public payable {\n        require(zonuletNFT.ownerOf(_tokenId) == _owner);\n        require(_tokenId <= zonuletNFT.totalSupply());\n\n        nftLikes[_tokenId].likes += 1;\n        nftLikes[_tokenId].nftId = _tokenId; \n        likers[msg.sender].totallikes += 1;\n        likers[msg.sender].nfts.push(_tokenId);\n\n        emit LikedNFT(_tokenId, msg.sender);\n    }\n\n    function PacmanNFT(address _minter, uint256 _tokenId) public payable {\n        require(msg.sender != _minter);\n        require(_tokenId <= zonuletNFT.totalSupply());\n\n        nftPacmans[_tokenId].pacmans += 1;\n        nftPacmans[_tokenId].nftId = _tokenId;\n        pacmanisers[msg.sender].totalpacman += 1;\n        pacmanisers[msg.sender].nfts.push(_tokenId);\n\n        IERC20(ZONU).transferFrom(msg.sender, _minter, pacmanprice*1e18);\n        emit PacmanedNFT(_tokenId, msg.sender);\n    }\n\n    function setPacmanPrice(uint256 _pacmanprice) public onlyOwner {\n        require(msg.sender == owner);\n        pacmanprice = _pacmanprice;\n    }\n\n    function getPacmanPrice() public view returns (uint256) {\n        return pacmanprice;\n    }\n\n}",
  "sourcePath": "/mnt/e/ETH-DENVER/INFURA/truffle/contracts/ZonuletNFTLikes.sol",
  "compiler": {
    "name": "solc",
    "version": "0.8.7+commit.e28d00a7.Emscripten.clang"
  },
  "schemaVersion": "3.4.12",
  "updatedAt": "2023-02-28T12:12:04.061Z",
  "networkType": "ethereum",
  "devdoc": {
    "kind": "dev",
    "methods": {},
    "version": 1
  },
  "userdoc": {
    "kind": "user",
    "methods": {},
    "version": 1
  }
}