{
  "contractName": "ZonuletNFT",
  "abi": [
    {
      "inputs": [],
      "stateMutability": "nonpayable",
      "type": "constructor"
    },
    {
      "anonymous": false,
      "inputs": [
        {
          "indexed": true,
          "internalType": "address",
          "name": "owner",
          "type": "address"
        },
        {
          "indexed": true,
          "internalType": "address",
          "name": "approved",
          "type": "address"
        },
        {
          "indexed": true,
          "internalType": "uint256",
          "name": "tokenId",
          "type": "uint256"
        }
      ],
      "name": "Approval",
      "type": "event"
    },
    {
      "anonymous": false,
      "inputs": [
        {
          "indexed": true,
          "internalType": "address",
          "name": "owner",
          "type": "address"
        },
        {
          "indexed": true,
          "internalType": "address",
          "name": "operator",
          "type": "address"
        },
        {
          "indexed": false,
          "internalType": "bool",
          "name": "approved",
          "type": "bool"
        }
      ],
      "name": "ApprovalForAll",
      "type": "event"
    },
    {
      "anonymous": false,
      "inputs": [
        {
          "indexed": true,
          "internalType": "address",
          "name": "from",
          "type": "address"
        },
        {
          "indexed": true,
          "internalType": "address",
          "name": "to",
          "type": "address"
        },
        {
          "indexed": true,
          "internalType": "uint256",
          "name": "tokenId",
          "type": "uint256"
        }
      ],
      "name": "Transfer",
      "type": "event"
    },
    {
      "inputs": [
        {
          "internalType": "address",
          "name": "to",
          "type": "address"
        },
        {
          "internalType": "uint256",
          "name": "tokenId",
          "type": "uint256"
        }
      ],
      "name": "approve",
      "outputs": [],
      "stateMutability": "nonpayable",
      "type": "function"
    },
    {
      "inputs": [
        {
          "internalType": "address",
          "name": "owner",
          "type": "address"
        }
      ],
      "name": "balanceOf",
      "outputs": [
        {
          "internalType": "uint256",
          "name": "",
          "type": "uint256"
        }
      ],
      "stateMutability": "view",
      "type": "function",
      "constant": true
    },
    {
      "inputs": [
        {
          "internalType": "uint256",
          "name": "",
          "type": "uint256"
        }
      ],
      "name": "categories",
      "outputs": [
        {
          "internalType": "string",
          "name": "",
          "type": "string"
        }
      ],
      "stateMutability": "view",
      "type": "function",
      "constant": true
    },
    {
      "inputs": [
        {
          "internalType": "uint256",
          "name": "tokenId",
          "type": "uint256"
        }
      ],
      "name": "getApproved",
      "outputs": [
        {
          "internalType": "address",
          "name": "",
          "type": "address"
        }
      ],
      "stateMutability": "view",
      "type": "function",
      "constant": true
    },
    {
      "inputs": [
        {
          "internalType": "uint256",
          "name": "",
          "type": "uint256"
        }
      ],
      "name": "imageData",
      "outputs": [
        {
          "internalType": "string",
          "name": "name",
          "type": "string"
        },
        {
          "internalType": "string",
          "name": "mimeType",
          "type": "string"
        },
        {
          "internalType": "string",
          "name": "ipfsData",
          "type": "string"
        },
        {
          "internalType": "string",
          "name": "category",
          "type": "string"
        },
        {
          "internalType": "string",
          "name": "description",
          "type": "string"
        },
        {
          "internalType": "string",
          "name": "url",
          "type": "string"
        },
        {
          "internalType": "uint256",
          "name": "price",
          "type": "uint256"
        }
      ],
      "stateMutability": "view",
      "type": "function",
      "constant": true
    },
    {
      "inputs": [
        {
          "internalType": "uint256",
          "name": "",
          "type": "uint256"
        }
      ],
      "name": "images",
      "outputs": [
        {
          "internalType": "string",
          "name": "",
          "type": "string"
        }
      ],
      "stateMutability": "view",
      "type": "function",
      "constant": true
    },
    {
      "inputs": [
        {
          "internalType": "address",
          "name": "owner",
          "type": "address"
        },
        {
          "internalType": "address",
          "name": "operator",
          "type": "address"
        }
      ],
      "name": "isApprovedForAll",
      "outputs": [
        {
          "internalType": "bool",
          "name": "",
          "type": "bool"
        }
      ],
      "stateMutability": "view",
      "type": "function",
      "constant": true
    },
    {
      "inputs": [
        {
          "internalType": "uint256",
          "name": "",
          "type": "uint256"
        }
      ],
      "name": "mimetypes",
      "outputs": [
        {
          "internalType": "string",
          "name": "",
          "type": "string"
        }
      ],
      "stateMutability": "view",
      "type": "function",
      "constant": true
    },
    {
      "inputs": [],
      "name": "name",
      "outputs": [
        {
          "internalType": "string",
          "name": "",
          "type": "string"
        }
      ],
      "stateMutability": "view",
      "type": "function",
      "constant": true
    },
    {
      "inputs": [
        {
          "internalType": "uint256",
          "name": "tokenId",
          "type": "uint256"
        }
      ],
      "name": "ownerOf",
      "outputs": [
        {
          "internalType": "address",
          "name": "",
          "type": "address"
        }
      ],
      "stateMutability": "view",
      "type": "function",
      "constant": true
    },
    {
      "inputs": [
        {
          "internalType": "address",
          "name": "from",
          "type": "address"
        },
        {
          "internalType": "address",
          "name": "to",
          "type": "address"
        },
        {
          "internalType": "uint256",
          "name": "tokenId",
          "type": "uint256"
        }
      ],
      "name": "safeTransferFrom",
      "outputs": [],
      "stateMutability": "nonpayable",
      "type": "function"
    },
    {
      "inputs": [
        {
          "internalType": "address",
          "name": "from",
          "type": "address"
        },
        {
          "internalType": "address",
          "name": "to",
          "type": "address"
        },
        {
          "internalType": "uint256",
          "name": "tokenId",
          "type": "uint256"
        },
        {
          "internalType": "bytes",
          "name": "_data",
          "type": "bytes"
        }
      ],
      "name": "safeTransferFrom",
      "outputs": [],
      "stateMutability": "nonpayable",
      "type": "function"
    },
    {
      "inputs": [
        {
          "internalType": "address",
          "name": "operator",
          "type": "address"
        },
        {
          "internalType": "bool",
          "name": "approved",
          "type": "bool"
        }
      ],
      "name": "setApprovalForAll",
      "outputs": [],
      "stateMutability": "nonpayable",
      "type": "function"
    },
    {
      "inputs": [
        {
          "internalType": "bytes4",
          "name": "interfaceId",
          "type": "bytes4"
        }
      ],
      "name": "supportsInterface",
      "outputs": [
        {
          "internalType": "bool",
          "name": "",
          "type": "bool"
        }
      ],
      "stateMutability": "view",
      "type": "function",
      "constant": true
    },
    {
      "inputs": [],
      "name": "symbol",
      "outputs": [
        {
          "internalType": "string",
          "name": "",
          "type": "string"
        }
      ],
      "stateMutability": "view",
      "type": "function",
      "constant": true
    },
    {
      "inputs": [
        {
          "internalType": "uint256",
          "name": "index",
          "type": "uint256"
        }
      ],
      "name": "tokenByIndex",
      "outputs": [
        {
          "internalType": "uint256",
          "name": "",
          "type": "uint256"
        }
      ],
      "stateMutability": "view",
      "type": "function",
      "constant": true
    },
    {
      "inputs": [
        {
          "internalType": "address",
          "name": "owner",
          "type": "address"
        },
        {
          "internalType": "uint256",
          "name": "index",
          "type": "uint256"
        }
      ],
      "name": "tokenOfOwnerByIndex",
      "outputs": [
        {
          "internalType": "uint256",
          "name": "",
          "type": "uint256"
        }
      ],
      "stateMutability": "view",
      "type": "function",
      "constant": true
    },
    {
      "inputs": [
        {
          "internalType": "uint256",
          "name": "tokenId",
          "type": "uint256"
        }
      ],
      "name": "tokenURI",
      "outputs": [
        {
          "internalType": "string",
          "name": "",
          "type": "string"
        }
      ],
      "stateMutability": "view",
      "type": "function",
      "constant": true
    },
    {
      "inputs": [],
      "name": "totalSupply",
      "outputs": [
        {
          "internalType": "uint256",
          "name": "",
          "type": "uint256"
        }
      ],
      "stateMutability": "view",
      "type": "function",
      "constant": true
    },
    {
      "inputs": [
        {
          "internalType": "address",
          "name": "from",
          "type": "address"
        },
        {
          "internalType": "address",
          "name": "to",
          "type": "address"
        },
        {
          "internalType": "uint256",
          "name": "tokenId",
          "type": "uint256"
        }
      ],
      "name": "transferFrom",
      "outputs": [],
      "stateMutability": "nonpayable",
      "type": "function"
    },
    {
      "inputs": [
        {
          "internalType": "string",
          "name": "_name",
          "type": "string"
        },
        {
          "internalType": "string",
          "name": "_mimeType",
          "type": "string"
        },
        {
          "internalType": "string",
          "name": "_ipfsData",
          "type": "string"
        },
        {
          "internalType": "string",
          "name": "_category",
          "type": "string"
        },
        {
          "internalType": "string",
          "name": "_description",
          "type": "string"
        },
        {
          "internalType": "string",
          "name": "_url",
          "type": "string"
        },
        {
          "internalType": "uint256",
          "name": "_price",
          "type": "uint256"
        }
      ],
      "name": "mint",
      "outputs": [
        {
          "internalType": "uint256",
          "name": "",
          "type": "uint256"
        }
      ],
      "stateMutability": "nonpayable",
      "type": "function"
    },
    {
      "inputs": [
        {
          "internalType": "address",
          "name": "_to",
          "type": "address"
        },
        {
          "internalType": "uint256",
          "name": "_tokenId",
          "type": "uint256"
        }
      ],
      "name": "approveNFT",
      "outputs": [],
      "stateMutability": "nonpayable",
      "type": "function"
    },
    {
      "inputs": [
        {
          "internalType": "address",
          "name": "_address",
          "type": "address"
        },
        {
          "internalType": "uint256",
          "name": "_tokenId",
          "type": "uint256"
        }
      ],
      "name": "isApprovedOrOwner",
      "outputs": [
        {
          "internalType": "bool",
          "name": "",
          "type": "bool"
        }
      ],
      "stateMutability": "view",
      "type": "function",
      "constant": true
    },
    {
      "inputs": [
        {
          "internalType": "uint256",
          "name": "_id",
          "type": "uint256"
        },
        {
          "internalType": "uint256",
          "name": "_price",
          "type": "uint256"
        }
      ],
      "name": "updatePrice",
      "outputs": [
        {
          "internalType": "bool",
          "name": "",
          "type": "bool"
        }
      ],
      "stateMutability": "nonpayable",
      "type": "function"
    },
    {
      "inputs": [
        {
          "internalType": "address",
          "name": "_to",
          "type": "address"
        },
        {
          "internalType": "uint256",
          "name": "_tokenId",
          "type": "uint256"
        },
        {
          "internalType": "uint256",
          "name": "_price",
          "type": "uint256"
        }
      ],
      "name": "approveForSale",
      "outputs": [],
      "stateMutability": "nonpayable",
      "type": "function"
    },
    {
      "inputs": [
        {
          "internalType": "address",
          "name": "_to",
          "type": "address"
        },
        {
          "internalType": "uint256",
          "name": "_tokenId",
          "type": "uint256"
        },
        {
          "internalType": "uint256",
          "name": "_price",
          "type": "uint256"
        },
        {
          "internalType": "uint256",
          "name": "_time",
          "type": "uint256"
        }
      ],
      "name": "approveForAuction",
      "outputs": [],
      "stateMutability": "nonpayable",
      "type": "function"
    },
    {
      "inputs": [
        {
          "internalType": "uint256",
          "name": "_tokenId",
          "type": "uint256"
        }
      ],
      "name": "nftSold",
      "outputs": [],
      "stateMutability": "nonpayable",
      "type": "function"
    }
  ],
  "bytecode": "0x60806040523480156200001157600080fd5b50604080518082018252600a815269169bdb9d5b195d13919560b21b602080830191825283518085019094526007845266169bdb9d53919560ca1b908401528151919291620000639160009162000082565b5080516200007990600190602084019062000082565b50505062000165565b828054620000909062000128565b90600052602060002090601f016020900481019282620000b45760008555620000ff565b82601f10620000cf57805160ff1916838001178555620000ff565b82800160010185558215620000ff579182015b82811115620000ff578251825591602001919060010190620000e2565b506200010d92915062000111565b5090565b5b808211156200010d576000815560010162000112565b600181811c908216806200013d57607f821691505b602082108114156200015f57634e487b7160e01b600052602260045260246000fd5b50919050565b6125b280620001756000396000f3fe608060405234801561001057600080fd5b50600436106101a95760003560e01c80634f6ccce7116100f9578063a22cb46511610097578063c87b56dd11610071578063c87b56dd146103c3578063d2c8d276146103d6578063e985e9c5146103e9578063fbd4bae11461042557600080fd5b8063a22cb4651461038a578063b88d4fde1461039d578063c6cdbe5e146103b057600080fd5b806382367b2d116100d357806382367b2d14610349578063848564821461035c57806395d89b411461036f5780639600dd831461037757600080fd5b80634f6ccce7146103105780636352211e1461032357806370a082311461033657600080fd5b806318160ddd116101665780632f745c59116101405780632f745c59146102c457806341160d47146102d757806342842e0e146102ea578063430c2081146102fd57600080fd5b806318160ddd1461028c57806323b872dd1461029e578063250d6b5d146102b157600080fd5b806301ffc9a7146101ae578063061ba2f1146101d657806306fdde03146101fc578063081812fc14610211578063095ea7b31461023c57806316875c1114610251575b600080fd5b6101c16101bc3660046120b3565b610438565b60405190151581526020015b60405180910390f35b6101e96101e43660046121ed565b610463565b6040516101cd97969594939291906122ef565b6102046107cd565b6040516101cd91906122dc565b61022461021f3660046121ed565b61085f565b6040516001600160a01b0390911681526020016101cd565b61024f61024a36600461201d565b6108f9565b005b61024f61025f3660046121ed565b6000908152601160209081526040808320805460ff19908116909155601090925290912080549091169055565b6008545b6040519081526020016101cd565b61024f6102ac366004611f29565b610a0f565b6102046102bf3660046121ed565b610a40565b6102906102d236600461201d565b610aec565b61024f6102e536600461207a565b610b82565b61024f6102f8366004611f29565b610bf0565b6101c161030b36600461201d565b610c0b565b61029061031e3660046121ed565b610c1e565b6102246103313660046121ed565b610cb1565b610290610344366004611edb565b610d28565b6101c1610357366004612206565b610daf565b61020461036a3660046121ed565b610de7565b610204610df7565b61024f61038536600461201d565b610e06565b61024f610398366004611fe1565b610e14565b61024f6103ab366004611f65565b610ed9565b6102046103be3660046121ed565b610f11565b6102046103d13660046121ed565b610f21565b6102906103e43660046120ed565b6110a8565b6101c16103f7366004611ef6565b6001600160a01b03918216600090815260056020908152604080832093909416825291909152205460ff1690565b61024f610433366004612047565b61132f565b60006001600160e01b0319821663780e9d6360e01b148061045d575061045d82611379565b92915050565b600e6020526000908152604090208054819061047e9061248b565b80601f01602080910402602001604051908101604052809291908181526020018280546104aa9061248b565b80156104f75780601f106104cc576101008083540402835291602001916104f7565b820191906000526020600020905b8154815290600101906020018083116104da57829003601f168201915b50505050509080600101805461050c9061248b565b80601f01602080910402602001604051908101604052809291908181526020018280546105389061248b565b80156105855780601f1061055a57610100808354040283529160200191610585565b820191906000526020600020905b81548152906001019060200180831161056857829003601f168201915b50505050509080600201805461059a9061248b565b80601f01602080910402602001604051908101604052809291908181526020018280546105c69061248b565b80156106135780601f106105e857610100808354040283529160200191610613565b820191906000526020600020905b8154815290600101906020018083116105f657829003601f168201915b5050505050908060030180546106289061248b565b80601f01602080910402602001604051908101604052809291908181526020018280546106549061248b565b80156106a15780601f10610676576101008083540402835291602001916106a1565b820191906000526020600020905b81548152906001019060200180831161068457829003601f168201915b5050505050908060040180546106b69061248b565b80601f01602080910402602001604051908101604052809291908181526020018280546106e29061248b565b801561072f5780601f106107045761010080835404028352916020019161072f565b820191906000526020600020905b81548152906001019060200180831161071257829003601f168201915b5050505050908060050180546107449061248b565b80601f01602080910402602001604051908101604052809291908181526020018280546107709061248b565b80156107bd5780601f10610792576101008083540402835291602001916107bd565b820191906000526020600020905b8154815290600101906020018083116107a057829003601f168201915b5050505050908060060154905087565b6060600080546107dc9061248b565b80601f01602080910402602001604051908101604052809291908181526020018280546108089061248b565b80156108555780601f1061082a57610100808354040283529160200191610855565b820191906000526020600020905b81548152906001019060200180831161083857829003601f168201915b5050505050905090565b6000818152600260205260408120546001600160a01b03166108dd5760405162461bcd60e51b815260206004820152602c60248201527f4552433732313a20617070726f76656420717565727920666f72206e6f6e657860448201526b34b9ba32b73a103a37b5b2b760a11b60648201526084015b60405180910390fd5b506000908152600460205260409020546001600160a01b031690565b600061090482610cb1565b9050806001600160a01b0316836001600160a01b031614156109725760405162461bcd60e51b815260206004820152602160248201527f4552433732313a20617070726f76616c20746f2063757272656e74206f776e656044820152603960f91b60648201526084016108d4565b336001600160a01b038216148061098e575061098e81336103f7565b610a005760405162461bcd60e51b815260206004820152603860248201527f4552433732313a20617070726f76652063616c6c6572206973206e6f74206f7760448201527f6e6572206e6f7220617070726f76656420666f7220616c6c000000000000000060648201526084016108d4565b610a0a83836113c9565b505050565b610a193382611437565b610a355760405162461bcd60e51b81526004016108d4906123cb565b610a0a83838361152a565b600d8181548110610a5057600080fd5b906000526020600020016000915090508054610a6b9061248b565b80601f0160208091040260200160405190810160405280929190818152602001828054610a979061248b565b8015610ae45780601f10610ab957610100808354040283529160200191610ae4565b820191906000526020600020905b815481529060010190602001808311610ac757829003601f168201915b505050505081565b6000610af783610d28565b8210610b595760405162461bcd60e51b815260206004820152602b60248201527f455243373231456e756d657261626c653a206f776e657220696e646578206f7560448201526a74206f6620626f756e647360a81b60648201526084016108d4565b506001600160a01b03919091166000908152600660209081526040808320938352929052205490565b60008381526011602052604090205460ff1615610b9e57600080fd5b6000838152601060205260409020805460ff19166001179055610bc18484610e06565b604080518082018252928352602080840192835260009485526012905290922090518155905160019091015550565b610a0a83838360405180602001604052806000815250610ed9565b6000610c178383611437565b9392505050565b6000610c2960085490565b8210610c8c5760405162461bcd60e51b815260206004820152602c60248201527f455243373231456e756d657261626c653a20676c6f62616c20696e646578206f60448201526b7574206f6620626f756e647360a01b60648201526084016108d4565b60088281548110610c9f57610c9f612537565b90600052602060002001549050919050565b6000818152600260205260408120546001600160a01b03168061045d5760405162461bcd60e51b815260206004820152602960248201527f4552433732313a206f776e657220717565727920666f72206e6f6e657869737460448201526832b73a103a37b5b2b760b91b60648201526084016108d4565b60006001600160a01b038216610d935760405162461bcd60e51b815260206004820152602a60248201527f4552433732313a2062616c616e636520717565727920666f7220746865207a65604482015269726f206164647265737360b01b60648201526084016108d4565b506001600160a01b031660009081526003602052604090205490565b600033610dbb84610cb1565b6001600160a01b031614610dce57600080fd5b506000918252600e602052604090912060060155600190565b600b8181548110610a5057600080fd5b6060600180546107dc9061248b565b610e1082826108f9565b5050565b6001600160a01b038216331415610e6d5760405162461bcd60e51b815260206004820152601960248201527f4552433732313a20617070726f766520746f2063616c6c65720000000000000060448201526064016108d4565b3360008181526005602090815260408083206001600160a01b03871680855290835292819020805460ff191686151590811790915590519081529192917f17307eab39ab6107e8899845ad3d59bd9653f200f220920489ca2b5937696c31910160405180910390a35050565b610ee33383611437565b610eff5760405162461bcd60e51b81526004016108d4906123cb565b610f0b848484846116d5565b50505050565b600c8181548110610a5057600080fd5b6000818152600260205260409020546060906001600160a01b0316610fa25760405162461bcd60e51b815260206004820152603160248201527f45524337323155524953746f726167653a2055524920717565727920666f72206044820152703737b732bc34b9ba32b73a103a37b5b2b760791b60648201526084016108d4565b6000828152600a602052604081208054610fbb9061248b565b80601f0160208091040260200160405190810160405280929190818152602001828054610fe79061248b565b80156110345780601f1061100957610100808354040283529160200191611034565b820191906000526020600020905b81548152906001019060200180831161101757829003601f168201915b50505050509050600061105260408051602081019091526000815290565b9050805160001415611065575092915050565b81511561109757808260405160200161107f929190612270565b60405160208183030381529060405292505050919050565b6110a084611708565b949350505050565b6000600f886040516110ba9190612254565b9081526040519081900360200190205460ff16156110d757600080fd5b6111176040518060e00160405280606081526020016060815260200160608152602001606081526020016060815260200160608152602001600081525090565b888152602080820189905260408201889052606082018790526080820186905260a0820185905260c08201849052600b80546001810182556000919091528a51611188927f0175b7a638427703f0dbe7bb9bbf987a2551717b34e79f33b5b1008d1fa01db9909201918c0190611d90565b50600c805460018101825560009190915286516111cc917fdf6966c971051c3d54ec59162606531493a51404a002842f56009d7e5cf4a8c701906020890190611d90565b50600d80546001810182556000919091528851611210917fd7b6990105719101dabeb77144f2a3385c8033acd3af97e9423a695e81ad1eb5019060208b0190611d90565b50600b5460009061122390600190612448565b6000818152600e60209081526040909120845180519394508593919261124e92849290910190611d90565b5060208281015180516112679260018501920190611d90565b5060408201518051611283916002840191602090910190611d90565b506060820151805161129f916003840191602090910190611d90565b50608082015180516112bb916004840191602090910190611d90565b5060a082015180516112d7916005840191602090910190611d90565b5060c082015181600601559050506112ef33826117ef565b6001600f8b6040516113019190612254565b908152604051908190036020019020805491151560ff19909216919091179055915050979650505050505050565b60008281526010602052604090205460ff161561134b57600080fd5b6000828152601160205260409020805460ff1916600117905561136e8282610daf565b50610a0a8383610e06565b60006001600160e01b031982166380ac58cd60e01b14806113aa57506001600160e01b03198216635b5e139f60e01b145b8061045d57506301ffc9a760e01b6001600160e01b031983161461045d565b600081815260046020526040902080546001600160a01b0319166001600160a01b03841690811790915581906113fe82610cb1565b6001600160a01b03167f8c5be1e5ebec7d5bd14f71427d1e84f3dd0314c0f7b2291e5b200ac8c7c3b92560405160405180910390a45050565b6000818152600260205260408120546001600160a01b03166114b05760405162461bcd60e51b815260206004820152602c60248201527f4552433732313a206f70657261746f7220717565727920666f72206e6f6e657860448201526b34b9ba32b73a103a37b5b2b760a11b60648201526084016108d4565b60006114bb83610cb1565b9050806001600160a01b0316846001600160a01b031614806114f65750836001600160a01b03166114eb8461085f565b6001600160a01b0316145b806110a057506001600160a01b0380821660009081526005602090815260408083209388168352929052205460ff166110a0565b826001600160a01b031661153d82610cb1565b6001600160a01b0316146115a55760405162461bcd60e51b815260206004820152602960248201527f4552433732313a207472616e73666572206f6620746f6b656e2074686174206960448201526839903737ba1037bbb760b91b60648201526084016108d4565b6001600160a01b0382166116075760405162461bcd60e51b8152602060048201526024808201527f4552433732313a207472616e7366657220746f20746865207a65726f206164646044820152637265737360e01b60648201526084016108d4565b61161283838361193d565b61161d6000826113c9565b6001600160a01b0383166000908152600360205260408120805460019290611646908490612448565b90915550506001600160a01b038216600090815260036020526040812080546001929061167490849061241c565b909155505060008181526002602052604080822080546001600160a01b0319166001600160a01b0386811691821790925591518493918716917fddf252ad1be2c89b69c2b068fc378daa952ba7f163c4a11628f55a4df523b3ef91a4505050565b6116e084848461152a565b6116ec848484846119f5565b610f0b5760405162461bcd60e51b81526004016108d490612379565b6000818152600260205260409020546060906001600160a01b03166117875760405162461bcd60e51b815260206004820152602f60248201527f4552433732314d657461646174613a2055524920717565727920666f72206e6f60448201526e3732bc34b9ba32b73a103a37b5b2b760891b60648201526084016108d4565b600061179e60408051602081019091526000815290565b905060008151116117be5760405180602001604052806000815250610c17565b806117c884611b02565b6040516020016117d9929190612270565b6040516020818303038152906040529392505050565b6001600160a01b0382166118455760405162461bcd60e51b815260206004820181905260248201527f4552433732313a206d696e7420746f20746865207a65726f206164647265737360448201526064016108d4565b6000818152600260205260409020546001600160a01b0316156118aa5760405162461bcd60e51b815260206004820152601c60248201527f4552433732313a20746f6b656e20616c7265616479206d696e7465640000000060448201526064016108d4565b6118b66000838361193d565b6001600160a01b03821660009081526003602052604081208054600192906118df90849061241c565b909155505060008181526002602052604080822080546001600160a01b0319166001600160a01b03861690811790915590518392907fddf252ad1be2c89b69c2b068fc378daa952ba7f163c4a11628f55a4df523b3ef908290a45050565b6001600160a01b0383166119985761199381600880546000838152600960205260408120829055600182018355919091527ff3f7a9fe364faab93b216da50a3214154f22a0a2b415b23a84c8169e8b636ee30155565b6119bb565b816001600160a01b0316836001600160a01b0316146119bb576119bb8382611c00565b6001600160a01b0382166119d257610a0a81611c9d565b826001600160a01b0316826001600160a01b031614610a0a57610a0a8282611d4c565b60006001600160a01b0384163b15611af757604051630a85bd0160e11b81526001600160a01b0385169063150b7a0290611a3990339089908890889060040161229f565b602060405180830381600087803b158015611a5357600080fd5b505af1925050508015611a83575060408051601f3d908101601f19168201909252611a80918101906120d0565b60015b611add573d808015611ab1576040519150601f19603f3d011682016040523d82523d6000602084013e611ab6565b606091505b508051611ad55760405162461bcd60e51b81526004016108d490612379565b805181602001fd5b6001600160e01b031916630a85bd0160e11b1490506110a0565b506001949350505050565b606081611b265750506040805180820190915260018152600360fc1b602082015290565b8160005b8115611b505780611b3a816124c6565b9150611b499050600a83612434565b9150611b2a565b60008167ffffffffffffffff811115611b6b57611b6b61254d565b6040519080825280601f01601f191660200182016040528015611b95576020820181803683370190505b5090505b84156110a057611baa600183612448565b9150611bb7600a866124e1565b611bc290603061241c565b60f81b818381518110611bd757611bd7612537565b60200101906001600160f81b031916908160001a905350611bf9600a86612434565b9450611b99565b60006001611c0d84610d28565b611c179190612448565b600083815260076020526040902054909150808214611c6a576001600160a01b03841660009081526006602090815260408083208584528252808320548484528184208190558352600790915290208190555b5060009182526007602090815260408084208490556001600160a01b039094168352600681528383209183525290812055565b600854600090611caf90600190612448565b60008381526009602052604081205460088054939450909284908110611cd757611cd7612537565b906000526020600020015490508060088381548110611cf857611cf8612537565b6000918252602080832090910192909255828152600990915260408082208490558582528120556008805480611d3057611d30612521565b6001900381819060005260206000200160009055905550505050565b6000611d5783610d28565b6001600160a01b039093166000908152600660209081526040808320868452825280832085905593825260079052919091209190915550565b828054611d9c9061248b565b90600052602060002090601f016020900481019282611dbe5760008555611e04565b82601f10611dd757805160ff1916838001178555611e04565b82800160010185558215611e04579182015b82811115611e04578251825591602001919060010190611de9565b50611e10929150611e14565b5090565b5b80821115611e105760008155600101611e15565b600067ffffffffffffffff80841115611e4457611e4461254d565b604051601f8501601f19908116603f01168101908282118183101715611e6c57611e6c61254d565b81604052809350858152868686011115611e8557600080fd5b858560208301376000602087830101525050509392505050565b80356001600160a01b0381168114611eb657600080fd5b919050565b600082601f830112611ecc57600080fd5b610c1783833560208501611e29565b600060208284031215611eed57600080fd5b610c1782611e9f565b60008060408385031215611f0957600080fd5b611f1283611e9f565b9150611f2060208401611e9f565b90509250929050565b600080600060608486031215611f3e57600080fd5b611f4784611e9f565b9250611f5560208501611e9f565b9150604084013590509250925092565b60008060008060808587031215611f7b57600080fd5b611f8485611e9f565b9350611f9260208601611e9f565b925060408501359150606085013567ffffffffffffffff811115611fb557600080fd5b8501601f81018713611fc657600080fd5b611fd587823560208401611e29565b91505092959194509250565b60008060408385031215611ff457600080fd5b611ffd83611e9f565b91506020830135801515811461201257600080fd5b809150509250929050565b6000806040838503121561203057600080fd5b61203983611e9f565b946020939093013593505050565b60008060006060848603121561205c57600080fd5b61206584611e9f565b95602085013595506040909401359392505050565b6000806000806080858703121561209057600080fd5b61209985611e9f565b966020860135965060408601359560600135945092505050565b6000602082840312156120c557600080fd5b8135610c1781612563565b6000602082840312156120e257600080fd5b8151610c1781612563565b600080600080600080600060e0888a03121561210857600080fd5b873567ffffffffffffffff8082111561212057600080fd5b61212c8b838c01611ebb565b985060208a013591508082111561214257600080fd5b61214e8b838c01611ebb565b975060408a013591508082111561216457600080fd5b6121708b838c01611ebb565b965060608a013591508082111561218657600080fd5b6121928b838c01611ebb565b955060808a01359150808211156121a857600080fd5b6121b48b838c01611ebb565b945060a08a01359150808211156121ca57600080fd5b506121d78a828b01611ebb565b92505060c0880135905092959891949750929550565b6000602082840312156121ff57600080fd5b5035919050565b6000806040838503121561221957600080fd5b50508035926020909101359150565b6000815180845261224081602086016020860161245f565b601f01601f19169290920160200192915050565b6000825161226681846020870161245f565b9190910192915050565b6000835161228281846020880161245f565b83519083019061229681836020880161245f565b01949350505050565b6001600160a01b03858116825284166020820152604081018390526080606082018190526000906122d290830184612228565b9695505050505050565b602081526000610c176020830184612228565b60e08152600061230260e083018a612228565b8281036020840152612314818a612228565b905082810360408401526123288189612228565b9050828103606084015261233c8188612228565b905082810360808401526123508187612228565b905082810360a08401526123648186612228565b9150508260c083015298975050505050505050565b60208082526032908201527f4552433732313a207472616e7366657220746f206e6f6e20455243373231526560408201527131b2b4bb32b91034b6b83632b6b2b73a32b960711b606082015260800190565b60208082526031908201527f4552433732313a207472616e736665722063616c6c6572206973206e6f74206f6040820152701ddb995c881b9bdc88185c1c1c9bdd9959607a1b606082015260800190565b6000821982111561242f5761242f6124f5565b500190565b6000826124435761244361250b565b500490565b60008282101561245a5761245a6124f5565b500390565b60005b8381101561247a578181015183820152602001612462565b83811115610f0b5750506000910152565b600181811c9082168061249f57607f821691505b602082108114156124c057634e487b7160e01b600052602260045260246000fd5b50919050565b60006000198214156124da576124da6124f5565b5060010190565b6000826124f0576124f061250b565b500690565b634e487b7160e01b600052601160045260246000fd5b634e487b7160e01b600052601260045260246000fd5b634e487b7160e01b600052603160045260246000fd5b634e487b7160e01b600052603260045260246000fd5b634e487b7160e01b600052604160045260246000fd5b6001600160e01b03198116811461257957600080fd5b5056fea264697066735822122048f1ed839477eba65d2ca792bf7fa310843d1a2ec4aa18d7506d97b357de6fdc64736f6c63430008070033",
  "immutableReferences": {},
  "source": "//              \n//           \n//                        \n//                       \n//        \n//                                                                        \n// SPDX-License-Identifier: MIT\n\npragma solidity 0.8.7;\n\nimport \"../openzeppelin/token/ERC721/extensions/ERC721Full.sol\";\nimport \"../openzeppelin/token/ERC721/extensions/IERC721Metadata.sol\";\n\n\ncontract ZonuletNFT is IERC721Metadata, ERC721Full{\n\n  struct metadata { \n    string name;\n    string mimeType;\n    string ipfsData;\n    string category;\n    string description;\n    string url;\n    uint price;\n  }\n\n  string[] public images;\n  string[] public categories;\n  string[] public mimetypes;\n  mapping(uint => metadata) public imageData;\n  mapping(string => bool) _imageExists;\n\n  mapping(uint => bool) _listedForAuction;\n  mapping(uint => bool) _listedForSale;\n\n\n  struct auctionData { \n  uint price;\n  uint time;\n  }\n  mapping(uint => auctionData) tokenAuction;\n\n\n  constructor() ERC721(\"ZonuletNFT\", \"ZonuNFT\")  {}\n\n  function mint(string memory _name, string memory _mimeType, string memory _ipfsData, string memory _category, string memory _description, string memory _url, uint _price) public returns (uint){\n    require(!_imageExists[_name]);\n\n    metadata memory md;\n    md.name = _name;\n    md.mimeType = _mimeType;\n    md.ipfsData = _ipfsData;\n    md.category = _category;\n    md.description = _description;\n    md.url = _url;\n    md.price = _price;\n    \n    images.push(_name);\n    categories.push(_category);\n    mimetypes.push(_mimeType);\n    uint _id = images.length -1;\n    imageData[_id] = md;\n    _mint(msg.sender, _id);\n    _imageExists[_name] = true;\n\n    return _id;\n  }\n\n  function approveNFT(address _to, uint _tokenId) public {\n    approve(_to, _tokenId);\n  }\n  \n  function isApprovedOrOwner(address _address, uint _tokenId) public view returns (bool){\n    return _isApprovedOrOwner(_address, _tokenId);\n  }\n\n  function updatePrice(uint _id, uint _price) public returns (bool){\n    require(ownerOf(_id) == msg.sender);\n    imageData[_id].price = _price;\n\n    return true;\n  }\n\n  function approveForSale(address _to, uint _tokenId, uint _price) public {\n    require(_listedForAuction[_tokenId] == false);\n    _listedForSale[_tokenId] = true;\n    updatePrice(_tokenId, _price);\n    approveNFT(_to, _tokenId);\n  }\n\n  function approveForAuction(address _to, uint _tokenId, uint _price, uint _time) public {\n    require(_listedForSale[_tokenId] == false);\n    _listedForAuction[_tokenId] = true;\n    // updatePrice(_tokenId, _price);\n    approveNFT(_to, _tokenId);\n\n    auctionData memory ad;\n    ad.price = _price;\n    ad.time = _time;\n\n    tokenAuction[_tokenId] = ad;\n  }\n\n  function nftSold(uint _tokenId) public {\n    _listedForSale[_tokenId] = false;\n    _listedForAuction[_tokenId] = false;\n  }\n\n}",
  "sourcePath": "/mnt/e/ETH-DENVER/INFURA/truffle/contracts/ZonuletNFT.sol",
  "compiler": {
    "name": "solc",
    "version": "0.8.7+commit.e28d00a7.Emscripten.clang"
  },
  "schemaVersion": "3.4.12",
  "updatedAt": "2023-02-28T12:12:03.902Z",
  "networkType": "ethereum",
  "devdoc": {
    "kind": "dev",
    "methods": {
      "approve(address,uint256)": {
        "details": "See {IERC721-approve}."
      },
      "balanceOf(address)": {
        "details": "See {IERC721-balanceOf}."
      },
      "getApproved(uint256)": {
        "details": "See {IERC721-getApproved}."
      },
      "isApprovedForAll(address,address)": {
        "details": "See {IERC721-isApprovedForAll}."
      },
      "name()": {
        "details": "See {IERC721Metadata-name}."
      },
      "ownerOf(uint256)": {
        "details": "See {IERC721-ownerOf}."
      },
      "safeTransferFrom(address,address,uint256)": {
        "details": "See {IERC721-safeTransferFrom}."
      },
      "safeTransferFrom(address,address,uint256,bytes)": {
        "details": "See {IERC721-safeTransferFrom}."
      },
      "setApprovalForAll(address,bool)": {
        "details": "See {IERC721-setApprovalForAll}."
      },
      "supportsInterface(bytes4)": {
        "details": "See {IERC165-supportsInterface}."
      },
      "symbol()": {
        "details": "See {IERC721Metadata-symbol}."
      },
      "tokenByIndex(uint256)": {
        "details": "See {IERC721Enumerable-tokenByIndex}."
      },
      "tokenOfOwnerByIndex(address,uint256)": {
        "details": "See {IERC721Enumerable-tokenOfOwnerByIndex}."
      },
      "tokenURI(uint256)": {
        "details": "See {IERC721Metadata-tokenURI}."
      },
      "totalSupply()": {
        "details": "See {IERC721Enumerable-totalSupply}."
      },
      "transferFrom(address,address,uint256)": {
        "details": "See {IERC721-transferFrom}."
      }
    },
    "version": 1
  },
  "userdoc": {
    "kind": "user",
    "methods": {},
    "version": 1
  }
}