{
  "contractName": "AMM",
  "abi": [
    {
      "inputs": [
        {
          "internalType": "string",
          "name": "_poolName",
          "type": "string"
        },
        {
          "internalType": "string",
          "name": "_poolSymbol",
          "type": "string"
        },
        {
          "internalType": "address",
          "name": "_tokenFactoryAddress",
          "type": "address"
        },
        {
          "internalType": "address",
          "name": "_priceFeederAddress",
          "type": "address"
        },
        {
          "internalType": "address",
          "name": "_perpetualAddress",
          "type": "address"
        }
      ],
      "stateMutability": "nonpayable",
      "type": "constructor"
    },
    {
      "anonymous": false,
      "inputs": [],
      "name": "CreatedAMM",
      "type": "event"
    },
    {
      "anonymous": false,
      "inputs": [
        {
          "indexed": true,
          "internalType": "address",
          "name": "previousOwner",
          "type": "address"
        },
        {
          "indexed": true,
          "internalType": "address",
          "name": "newOwner",
          "type": "address"
        }
      ],
      "name": "OwnershipTransferred",
      "type": "event"
    },
    {
      "anonymous": false,
      "inputs": [
        {
          "components": [
            {
              "internalType": "uint256",
              "name": "lastFundingTime",
              "type": "uint256"
            },
            {
              "internalType": "int256",
              "name": "lastPremium",
              "type": "int256"
            },
            {
              "internalType": "int256",
              "name": "lastEMAPremium",
              "type": "int256"
            },
            {
              "internalType": "uint256",
              "name": "lastIndexPrice",
              "type": "uint256"
            },
            {
              "internalType": "int256",
              "name": "accumulatedFundingPerContract",
              "type": "int256"
            }
          ],
          "indexed": false,
          "internalType": "struct Types.FundingState",
          "name": "fundingState",
          "type": "tuple"
        }
      ],
      "name": "UpdateFundingRate",
      "type": "event"
    },
    {
      "anonymous": false,
      "inputs": [
        {
          "indexed": true,
          "internalType": "address",
          "name": "priceFeeder",
          "type": "address"
        }
      ],
      "name": "UpdatePriceFeeder",
      "type": "event"
    },
    {
      "inputs": [
        {
          "internalType": "address",
          "name": "_address",
          "type": "address"
        }
      ],
      "name": "addAddress",
      "outputs": [],
      "stateMutability": "nonpayable",
      "type": "function"
    },
    {
      "inputs": [],
      "name": "emaAlpha",
      "outputs": [
        {
          "internalType": "int256",
          "name": "",
          "type": "int256"
        }
      ],
      "stateMutability": "view",
      "type": "function",
      "constant": true
    },
    {
      "inputs": [],
      "name": "emaAlpha2",
      "outputs": [
        {
          "internalType": "int256",
          "name": "",
          "type": "int256"
        }
      ],
      "stateMutability": "view",
      "type": "function",
      "constant": true
    },
    {
      "inputs": [],
      "name": "emaAlpha2Ln",
      "outputs": [
        {
          "internalType": "int256",
          "name": "",
          "type": "int256"
        }
      ],
      "stateMutability": "view",
      "type": "function",
      "constant": true
    },
    {
      "inputs": [],
      "name": "fundingCalculator",
      "outputs": [
        {
          "internalType": "contract IFundingCalculator",
          "name": "",
          "type": "address"
        }
      ],
      "stateMutability": "view",
      "type": "function",
      "constant": true
    },
    {
      "inputs": [],
      "name": "fundingDampener",
      "outputs": [
        {
          "internalType": "int256",
          "name": "",
          "type": "int256"
        }
      ],
      "stateMutability": "view",
      "type": "function",
      "constant": true
    },
    {
      "inputs": [],
      "name": "isOwner",
      "outputs": [
        {
          "internalType": "bool",
          "name": "",
          "type": "bool"
        }
      ],
      "stateMutability": "view",
      "type": "function",
      "constant": true
    },
    {
      "inputs": [
        {
          "internalType": "address",
          "name": "_address",
          "type": "address"
        }
      ],
      "name": "isWhitelisted",
      "outputs": [
        {
          "internalType": "bool",
          "name": "",
          "type": "bool"
        }
      ],
      "stateMutability": "view",
      "type": "function",
      "constant": true
    },
    {
      "inputs": [],
      "name": "markPremiumLimit",
      "outputs": [
        {
          "internalType": "int256",
          "name": "",
          "type": "int256"
        }
      ],
      "stateMutability": "view",
      "type": "function",
      "constant": true
    },
    {
      "inputs": [],
      "name": "owner",
      "outputs": [
        {
          "internalType": "address",
          "name": "",
          "type": "address"
        }
      ],
      "stateMutability": "view",
      "type": "function",
      "constant": true
    },
    {
      "inputs": [],
      "name": "perpetual",
      "outputs": [
        {
          "internalType": "contract IPerpetual",
          "name": "",
          "type": "address"
        }
      ],
      "stateMutability": "view",
      "type": "function",
      "constant": true
    },
    {
      "inputs": [],
      "name": "priceFeeder",
      "outputs": [
        {
          "internalType": "contract IPriceFeeder",
          "name": "",
          "type": "address"
        }
      ],
      "stateMutability": "view",
      "type": "function",
      "constant": true
    },
    {
      "inputs": [
        {
          "internalType": "address",
          "name": "_address",
          "type": "address"
        }
      ],
      "name": "removeAddress",
      "outputs": [],
      "stateMutability": "nonpayable",
      "type": "function"
    },
    {
      "inputs": [],
      "name": "renounceOwnership",
      "outputs": [],
      "stateMutability": "nonpayable",
      "type": "function"
    },
    {
      "inputs": [],
      "name": "shareToken",
      "outputs": [
        {
          "internalType": "contract IExpandedIERC20",
          "name": "",
          "type": "address"
        }
      ],
      "stateMutability": "view",
      "type": "function",
      "constant": true
    },
    {
      "inputs": [
        {
          "internalType": "address",
          "name": "newOwner",
          "type": "address"
        }
      ],
      "name": "transferOwnership",
      "outputs": [],
      "stateMutability": "nonpayable",
      "type": "function"
    },
    {
      "inputs": [],
      "name": "updatePremiumPrize",
      "outputs": [
        {
          "internalType": "uint256",
          "name": "",
          "type": "uint256"
        }
      ],
      "stateMutability": "view",
      "type": "function",
      "constant": true
    },
    {
      "inputs": [],
      "name": "version",
      "outputs": [
        {
          "internalType": "uint16",
          "name": "",
          "type": "uint16"
        }
      ],
      "stateMutability": "view",
      "type": "function",
      "constant": true
    },
    {
      "inputs": [
        {
          "internalType": "address",
          "name": "_priceFeederAddress",
          "type": "address"
        }
      ],
      "name": "setPriceFeeder",
      "outputs": [],
      "stateMutability": "nonpayable",
      "type": "function"
    },
    {
      "inputs": [
        {
          "internalType": "uint256",
          "name": "value",
          "type": "uint256"
        }
      ],
      "name": "setUpdatePremiumPrize",
      "outputs": [],
      "stateMutability": "nonpayable",
      "type": "function"
    },
    {
      "inputs": [
        {
          "internalType": "int256",
          "name": "value",
          "type": "int256"
        }
      ],
      "name": "setMarkPremiumLimit",
      "outputs": [],
      "stateMutability": "nonpayable",
      "type": "function"
    },
    {
      "inputs": [
        {
          "internalType": "int256",
          "name": "value",
          "type": "int256"
        }
      ],
      "name": "setEmaAlpha",
      "outputs": [],
      "stateMutability": "nonpayable",
      "type": "function"
    },
    {
      "inputs": [
        {
          "internalType": "int256",
          "name": "value",
          "type": "int256"
        }
      ],
      "name": "setFundingDampener",
      "outputs": [],
      "stateMutability": "nonpayable",
      "type": "function"
    },
    {
      "inputs": [
        {
          "internalType": "int256",
          "name": "value",
          "type": "int256"
        }
      ],
      "name": "setAccumulatedFundingPerContract",
      "outputs": [],
      "stateMutability": "nonpayable",
      "type": "function"
    },
    {
      "inputs": [],
      "name": "currentFundingRate",
      "outputs": [
        {
          "internalType": "int256",
          "name": "",
          "type": "int256"
        }
      ],
      "stateMutability": "nonpayable",
      "type": "function"
    },
    {
      "inputs": [],
      "name": "lastFundingRate",
      "outputs": [
        {
          "internalType": "int256",
          "name": "",
          "type": "int256"
        }
      ],
      "stateMutability": "view",
      "type": "function",
      "constant": true
    },
    {
      "inputs": [],
      "name": "updateIndex",
      "outputs": [],
      "stateMutability": "nonpayable",
      "type": "function"
    },
    {
      "inputs": [],
      "name": "shareTokenAddress",
      "outputs": [
        {
          "internalType": "address",
          "name": "",
          "type": "address"
        }
      ],
      "stateMutability": "view",
      "type": "function",
      "constant": true
    },
    {
      "inputs": [],
      "name": "indexPrice",
      "outputs": [
        {
          "internalType": "uint256",
          "name": "price",
          "type": "uint256"
        },
        {
          "internalType": "uint256",
          "name": "timestamp",
          "type": "uint256"
        }
      ],
      "stateMutability": "view",
      "type": "function",
      "constant": true
    },
    {
      "inputs": [
        {
          "internalType": "address",
          "name": "_fundingCalculatorAddress",
          "type": "address"
        }
      ],
      "name": "setFundingCalculator",
      "outputs": [],
      "stateMutability": "nonpayable",
      "type": "function"
    },
    {
      "inputs": [
        {
          "internalType": "uint256",
          "name": "amount",
          "type": "uint256"
        }
      ],
      "name": "createPool",
      "outputs": [],
      "stateMutability": "nonpayable",
      "type": "function"
    },
    {
      "inputs": [
        {
          "internalType": "uint256",
          "name": "amount",
          "type": "uint256"
        }
      ],
      "name": "addLiquidity",
      "outputs": [],
      "stateMutability": "nonpayable",
      "type": "function"
    },
    {
      "inputs": [
        {
          "internalType": "uint256",
          "name": "shareAmount",
          "type": "uint256"
        }
      ],
      "name": "removeLiquidity",
      "outputs": [],
      "stateMutability": "nonpayable",
      "type": "function"
    },
    {
      "inputs": [],
      "name": "positionSize",
      "outputs": [
        {
          "internalType": "uint256",
          "name": "",
          "type": "uint256"
        }
      ],
      "stateMutability": "view",
      "type": "function",
      "constant": true
    },
    {
      "inputs": [],
      "name": "currentAvailableMargin",
      "outputs": [
        {
          "internalType": "uint256",
          "name": "",
          "type": "uint256"
        }
      ],
      "stateMutability": "nonpayable",
      "type": "function"
    },
    {
      "inputs": [],
      "name": "getAvailableMargin",
      "outputs": [
        {
          "internalType": "uint256",
          "name": "",
          "type": "uint256"
        }
      ],
      "stateMutability": "view",
      "type": "function",
      "constant": true
    },
    {
      "inputs": [],
      "name": "currentFairPrice",
      "outputs": [
        {
          "internalType": "uint256",
          "name": "",
          "type": "uint256"
        }
      ],
      "stateMutability": "nonpayable",
      "type": "function"
    },
    {
      "inputs": [],
      "name": "currentMarkPrice",
      "outputs": [
        {
          "internalType": "uint256",
          "name": "",
          "type": "uint256"
        }
      ],
      "stateMutability": "nonpayable",
      "type": "function"
    },
    {
      "inputs": [],
      "name": "getMarkPrice",
      "outputs": [
        {
          "internalType": "uint256",
          "name": "",
          "type": "uint256"
        }
      ],
      "stateMutability": "view",
      "type": "function",
      "constant": true
    },
    {
      "inputs": [],
      "name": "getFairPrice",
      "outputs": [
        {
          "internalType": "uint256",
          "name": "",
          "type": "uint256"
        }
      ],
      "stateMutability": "view",
      "type": "function",
      "constant": true
    },
    {
      "inputs": [],
      "name": "lastFundingState",
      "outputs": [
        {
          "components": [
            {
              "internalType": "uint256",
              "name": "lastFundingTime",
              "type": "uint256"
            },
            {
              "internalType": "int256",
              "name": "lastPremium",
              "type": "int256"
            },
            {
              "internalType": "int256",
              "name": "lastEMAPremium",
              "type": "int256"
            },
            {
              "internalType": "uint256",
              "name": "lastIndexPrice",
              "type": "uint256"
            },
            {
              "internalType": "int256",
              "name": "accumulatedFundingPerContract",
              "type": "int256"
            }
          ],
          "internalType": "struct Types.FundingState",
          "name": "",
          "type": "tuple"
        }
      ],
      "stateMutability": "view",
      "type": "function",
      "constant": true
    },
    {
      "inputs": [],
      "name": "currentAccumulatedFundingPerContract",
      "outputs": [
        {
          "internalType": "int256",
          "name": "",
          "type": "int256"
        }
      ],
      "stateMutability": "nonpayable",
      "type": "function"
    },
    {
      "inputs": [],
      "name": "getAccumulatedFundingPerContract",
      "outputs": [
        {
          "internalType": "int256",
          "name": "",
          "type": "int256"
        }
      ],
      "stateMutability": "view",
      "type": "function",
      "constant": true
    },
    {
      "inputs": [
        {
          "internalType": "uint256",
          "name": "depositAmount",
          "type": "uint256"
        },
        {
          "internalType": "uint256",
          "name": "tradeAmount",
          "type": "uint256"
        },
        {
          "internalType": "uint256",
          "name": "limitPrice",
          "type": "uint256"
        },
        {
          "internalType": "uint256",
          "name": "deadline",
          "type": "uint256"
        }
      ],
      "name": "depositAndBuy",
      "outputs": [],
      "stateMutability": "nonpayable",
      "type": "function"
    },
    {
      "inputs": [
        {
          "internalType": "uint256",
          "name": "depositAmount",
          "type": "uint256"
        },
        {
          "internalType": "uint256",
          "name": "tradeAmount",
          "type": "uint256"
        },
        {
          "internalType": "uint256",
          "name": "limitPrice",
          "type": "uint256"
        },
        {
          "internalType": "uint256",
          "name": "deadline",
          "type": "uint256"
        }
      ],
      "name": "depositAndSell",
      "outputs": [],
      "stateMutability": "nonpayable",
      "type": "function"
    },
    {
      "inputs": [
        {
          "internalType": "uint256",
          "name": "amount",
          "type": "uint256"
        },
        {
          "internalType": "uint256",
          "name": "limitPrice",
          "type": "uint256"
        },
        {
          "internalType": "uint256",
          "name": "deadline",
          "type": "uint256"
        }
      ],
      "name": "buy",
      "outputs": [
        {
          "internalType": "uint256",
          "name": "",
          "type": "uint256"
        }
      ],
      "stateMutability": "nonpayable",
      "type": "function"
    },
    {
      "inputs": [
        {
          "internalType": "uint256",
          "name": "amount",
          "type": "uint256"
        },
        {
          "internalType": "uint256",
          "name": "limitPrice",
          "type": "uint256"
        },
        {
          "internalType": "uint256",
          "name": "deadline",
          "type": "uint256"
        }
      ],
      "name": "sell",
      "outputs": [
        {
          "internalType": "uint256",
          "name": "",
          "type": "uint256"
        }
      ],
      "stateMutability": "nonpayable",
      "type": "function"
    },
    {
      "inputs": [
        {
          "internalType": "uint256",
          "name": "amount",
          "type": "uint256"
        }
      ],
      "name": "getBuyPricePublic",
      "outputs": [
        {
          "internalType": "uint256",
          "name": "",
          "type": "uint256"
        }
      ],
      "stateMutability": "view",
      "type": "function",
      "constant": true
    },
    {
      "inputs": [
        {
          "internalType": "uint256",
          "name": "amount",
          "type": "uint256"
        }
      ],
      "name": "getSellPricePublic",
      "outputs": [
        {
          "internalType": "uint256",
          "name": "",
          "type": "uint256"
        }
      ],
      "stateMutability": "view",
      "type": "function",
      "constant": true
    },
    {
      "inputs": [],
      "name": "getCurrentPricePublic",
      "outputs": [
        {
          "internalType": "uint256",
          "name": "",
          "type": "uint256"
        }
      ],
      "stateMutability": "view",
      "type": "function",
      "constant": true
    }
  ],
  "bytecode": "0x6080604052670de0b6b3a7640000600b556611c37937e08000600c55660bd29acb4ffc98600d55670dd4e418dc140368600e55660bd7a6dd37709619600f556601c6bf526340006010553480156200005657600080fd5b50604051620041b6380380620041b68339810160408190526200007991620003fa565b6000805460ff19166001178155620000996001600160e01b036200022a16565b60008054610100600160a81b0319166101006001600160a01b038416908102919091178255604051929350917f8be0079c531659141344cd1fd0a4f28419497f9722a3daafe3b4186f6b6457e0908290a350620000fe6001600160e01b036200022e16565b620001116001600160e01b036200025e16565b60405163e8a0aed360e01b815283906001600160a01b0382169063e8a0aed390620001469089908990601290600401620004d1565b602060405180830381600087803b1580156200016157600080fd5b505af115801562000176573d6000803e3d6000fd5b505050506040513d601f19601f820116820180604052506200019c9190810190620003d4565b600780546001600160a01b03199081166001600160a01b039384161790915560088054821686841617905560098054909116918416919091179055620001e2336200026a565b6040517fc1b5b4df8fcd236ec161f8b917c0dbcf00b751cbc548708df183c0eead8c3ddc90600090a1506200021f6001600160e01b036200031916565b50505050506200060d565b3390565b60005460ff166200025c5760405162461bcd60e51b815260040162000253906200058a565b60405180910390fd5b565b6000805460ff19169055565b6200027d6001600160e01b036200032816565b6200029c5760405162461bcd60e51b8152600401620002539062000555565b806001600160a01b038116620002c65760405162461bcd60e51b815260040162000253906200050e565b6001600160a01b03821660009081526001602052604090205460ff1615620002ee5762000315565b6001600160a01b0382166000908152600160208190526040909120805460ff191690911790555b5050565b6000805460ff19166001179055565b6000805461010090046001600160a01b0316620003446200022a565b6001600160a01b031614905090565b600082601f83011262000364578081fd5b81516001600160401b03808211156200037b578283fd5b604051601f8301601f1916810160200182811182821017156200039c578485fd5b604052828152925082848301602001861015620003b857600080fd5b620003cb836020830160208801620005c1565b50505092915050565b600060208284031215620003e6578081fd5b8151620003f381620005f4565b9392505050565b600080600080600060a0868803121562000412578081fd5b85516001600160401b038082111562000429578283fd5b6200043789838a0162000353565b965060208801519150808211156200044d578283fd5b506200045c8882890162000353565b94505060408601516200046f81620005f4565b60608701519093506200048281620005f4565b60808701519092506200049581620005f4565b809150509295509295909350565b60008151808452620004bd816020860160208601620005c1565b601f01601f19169290920160200192915050565b600060608252620004e66060830186620004a3565b8281036020840152620004fa8186620004a3565b91505060ff83166040830152949350505050565b60208082526027908201527f76616c69646174657320616e206164647265737320746861742069742069736e60408201526609dd081b9d5b1b60ca1b606082015260800190565b6020808252818101527f4f776e61626c653a2063616c6c6572206973206e6f7420746865206f776e6572604082015260600190565b6020808252601f908201527f5265656e7472616e637947756172643a207265656e7472616e742063616c6c00604082015260600190565b60005b83811015620005de578181015183820152602001620005c4565b83811115620005ee576000848401525b50505050565b6001600160a01b03811681146200060a57600080fd5b50565b613b99806200061d6000396000f3fe608060405234801561001057600080fd5b50600436106102d65760003560e01c8063715018a611610182578063a8681826116100e9578063cf682c6a116100a2578063de12bcac1161007c578063de12bcac1461056b578063dedcd07414610573578063e21ebac91461057b578063f2fde38b1461058e576102d6565b8063cf682c6a1461053d578063d3c9727c14610545578063d42dc19714610558576102d6565b8063a8681826146104f7578063b1d7f7db146104ff578063b3fe37c314610507578063b8f110bc1461050f578063b9f412b014610522578063cb0d432f1461052a576102d6565b80638da5cb5b1161013b5780638da5cb5b146104b15780638f32d59b146104b957806395af65dd146104c1578063960fb9b2146104c95780639c8f9f23146104d15780639d0d2b88146104e4576102d6565b8063715018a61461046057806373da22bf146104685780638185f58c146104705780638259e6a0146104835780638407e5321461049657806384f523ad146104a9576102d6565b806338eada1c116102415780634928229a116101fa57806354fd4d50116101d457806354fd4d501461043357806360409632146104485780636c9fa59e146104505780636d16006914610458576102d6565b80634928229a146104055780634ba79dfe1461040d57806351c6590a14610420576102d6565b806338eada1c146103a75780633aef4d0b146103ba5780633af32abf146103c25780633b495ebf146103e25780633f923088146103ea57806340993b26146103f2576102d6565b80631d844c2d116102935780631d844c2d146103565780631e8a91b6146103695780631fada4851461037c5780632c4ac111146103845780632fe454b21461038c57806330e04ca11461039f576102d6565b8063025c7d03146102db57806306a7570c146102f057806310bace8c1461030e578063152f8cbe146103245780631927f7921461033957806319e67d751461034e575b600080fd5b6102ee6102e9366004613242565b6105a1565b005b6102f8610603565b6040516103059190613ac1565b60405180910390f35b610316610640565b604051610305929190613b3d565b61032c610774565b604051610305919061342b565b6103416107c7565b6040516103059190613381565b6103416107d6565b6102ee6103643660046131df565b6107e5565b6102ee610377366004613242565b610861565b6103416108ba565b61032c6108c9565b61032c61039a366004613242565b6108cf565b61032c610935565b6102ee6103b53660046131df565b61094c565b61032c6109e8565b6103d56103d03660046131df565b6109fa565b604051610305919061340b565b61032c610a18565b61032c610a1e565b61032c610400366004613325565b610a24565b61032c610a3a565b6102ee61041b3660046131df565b610a88565b6102ee61042e366004613242565b610af5565b61043b610de2565b6040516103059190613b2e565b61032c610de7565b610341610df1565b61032c610e00565b6102ee610e0a565b61032c610e7d565b61032c61047e366004613242565b610e83565b6102ee610491366004613242565b610ed2565b6102ee6104a43660046131df565b611124565b61032c611178565b610341611209565b6103d561121d565b61032c611246565b61032c611257565b6102ee6104df366004613242565b61125d565b6102ee6104f2366004613242565b611676565b61032c6116ad565b61032c6116bf565b61032c6116c9565b6102ee61051d366004613350565b6116cf565b6102ee611753565b6102ee610538366004613242565b611802565b61032c611879565b61032c610553366004613325565b61187f565b6102ee610566366004613242565b61188d565b61032c6118e6565b6103416118f8565b6102ee610589366004613350565b611907565b6102ee61059c3660046131df565b611983565b60006105ab6119b0565b90506105b6816109fa565b6105db5760405162461bcd60e51b81526004016105d2906137d3565b60405180910390fd5b600c548214156105fd5760405162461bcd60e51b81526004016105d290613988565b50600c55565b61060b613179565b506040805160a08101825260025481526003546020820152600454918101919091526005546060820152600654608082015290565b600080600860009054906101000a90046001600160a01b03166001600160a01b031663209652556040518163ffffffff1660e01b815260040160206040518083038186803b15801561069157600080fd5b505afa1580156106a5573d6000803e3d6000fd5b505050506040513d601f19601f820116820180604052506106c9919081019061325a565b9150600860009054906101000a90046001600160a01b03166001600160a01b031663188ec3566040518163ffffffff1660e01b815260040160206040518083038186803b15801561071957600080fd5b505afa15801561072d573d6000803e3d6000fd5b505050506040513d601f19601f82011682018060405250610751919081019061325a565b9050816107705760405162461bcd60e51b81526004016105d290613939565b9091565b60008060006107816119b4565b9092509050801580159061079457508115155b6107b05760405162461bcd60e51b81526004016105d290613964565b6107c0828263ffffffff611a5d16565b9250505090565b600a546001600160a01b031681565b6009546001600160a01b031681565b60006107ef6119b0565b90506107fa816109fa565b6108165760405162461bcd60e51b81526004016105d2906137d3565b600880546001600160a01b0319166001600160a01b0384169081179091556040517f0ee3c7edebc1b6525e2ecde5dee0d25becd16e7b855763eb620245092c3419ac90600090a25050565b600061086b6119b0565b9050610876816109fa565b6108925760405162461bcd60e51b81526004016105d2906137d3565b6010548214156108b45760405162461bcd60e51b81526004016105d290613988565b50601055565b6008546001600160a01b031681565b600d5481565b60008060006108dc6119b4565b909250905080158015906108ef57508115155b61090b5760405162461bcd60e51b81526004016105d290613964565b61092b61091e828663ffffffff611a8e16565b839063ffffffff611a5d16565b925050505b919050565b600061093f611abc565b610947611b9e565b905090565b61095461121d565b6109705760405162461bcd60e51b81526004016105d2906137d3565b806001600160a01b0381166109975760405162461bcd60e51b81526004016105d2906134c9565b6001600160a01b03821660009081526001602052604090205460ff16156109bd576109e4565b6001600160a01b0382166000908152600160208190526040909120805460ff191690911790555b5050565b60006109f2611abc565b610947610a3a565b6001600160a01b031660009081526001602052604090205460ff1690565b600e5481565b600b5481565b6000610a3233858585611c38565b949350505050565b600080610a45611e8a565b9050610a82610a6260105460000383611ecc90919063ffffffff16565b601054610a7690849063ffffffff611ee316565b9063ffffffff611ef316565b91505090565b610a9061121d565b610aac5760405162461bcd60e51b81526004016105d2906137d3565b6001600160a01b03811660009081526001602052604090205460ff16610ad157610af2565b6001600160a01b0381166000908152600160205260409020805460ff191690555b50565b60095460408051631006976960e11b815290516000926001600160a01b03169163200d2ed2916004808301926020929190829003018186803b158015610b3a57600080fd5b505afa158015610b4e573d6000803e3d6000fd5b505050506040513d601f19601f82011682018060405250610b729190810190613226565b6002811115610b7d57fe5b14610b9a5760405162461bcd60e51b81526004016105d2906135f6565b600080610ba5611f39565b90925090508015801590610bb857508115155b610bd45760405162461bcd60e51b81526004016105d290613964565b336000610be7848463ffffffff611a5d16565b90506000610c0c6002610c00888563ffffffff611f4c16565b9063ffffffff611f7416565b6009549091506001600160a01b031663f4d6045884610c29611fae565b610c3285611fbd565b6040518463ffffffff1660e01b8152600401610c50939291906133e7565b600060405180830381600087803b158015610c6a57600080fd5b505af1158015610c7e573d6000803e3d6000fd5b5050600954600092506001600160a01b031690506319d3b88b85610ca0611fae565b6001878c6040518663ffffffff1660e01b8152600401610cc49594939291906133ae565b6040805180830381600087803b158015610cdd57600080fd5b505af1158015610cf1573d6000803e3d6000fd5b505050506040513d601f19601f82011682018060405250610d159190810190613313565b509050610dc784610dc287610db68b600760009054906101000a90046001600160a01b03166001600160a01b03166318160ddd6040518163ffffffff1660e01b815260040160206040518083038186803b158015610d7257600080fd5b505afa158015610d86573d6000803e3d6000fd5b505050506040513d601f19601f82011682018060405250610daa919081019061325a565b9063ffffffff611f4c16565b9063ffffffff611a5d16565b611fea565b610dcf61208a565b610dd98482612156565b50505050505050565b600181565b60006109476123ba565b6007546001600160a01b031681565b6000610947612467565b610e1261121d565b610e2e5760405162461bcd60e51b81526004016105d2906137d3565b600080546040516101009091046001600160a01b0316907f8be0079c531659141344cd1fd0a4f28419497f9722a3daafe3b4186f6b6457e0908390a360008054610100600160a81b0319169055565b600f5481565b6000806000610e906119b4565b90925090508015801590610ea357508115155b610ebf5760405162461bcd60e51b81526004016105d290613964565b61092b61091e828663ffffffff61250116565b60008111610ef25760405162461bcd60e51b81526004016105d2906138a1565b60095460408051631006976960e11b815290516000926001600160a01b03169163200d2ed2916004808301926020929190829003018186803b158015610f3757600080fd5b505afa158015610f4b573d6000803e3d6000fd5b505050506040513d601f19601f82011682018060405250610f6f9190810190613226565b6002811115610f7a57fe5b14610f975760405162461bcd60e51b81526004016105d2906135f6565b610f9f611178565b15610fbc5760405162461bcd60e51b81526004016105d290613679565b336000610fc7612543565b9050600080610fd4610640565b9092509050610fe38284612547565b6009546001600160a01b031663f4d6045885610ffd611fae565b61101a6110156002610c00898d63ffffffff611f4c16565b611fbd565b6040518463ffffffff1660e01b8152600401611038939291906133e7565b600060405180830381600087803b15801561105257600080fd5b505af1158015611066573d6000803e3d6000fd5b5050600954600092506001600160a01b031690506319d3b88b86611088611fae565b6001878b6040518663ffffffff1660e01b81526004016110ac9594939291906133ae565b6040805180830381600087803b1580156110c557600080fd5b505af11580156110d9573d6000803e3d6000fd5b505050506040513d601f19601f820116820180604052506110fd9190810190613313565b50905061110a8587611fea565b61111261208a565b61111c8582612156565b505050505050565b600061112e6119b0565b9050611139816109fa565b6111555760405162461bcd60e51b81526004016105d2906137d3565b50600a80546001600160a01b0319166001600160a01b0392909216919091179055565b6009546000906001600160a01b03166355f57510611194611fae565b6040518263ffffffff1660e01b81526004016111b09190613381565b60c06040518083038186803b1580156111c857600080fd5b505afa1580156111dc573d6000803e3d6000fd5b505050506040513d601f19601f820116820180604052506112009190810190613295565b60400151905090565b60005461010090046001600160a01b031690565b6000805461010090046001600160a01b03166112376119b0565b6001600160a01b031614905090565b6000611250611abc565b5060065490565b60065490565b60095460408051631006976960e11b815290516000926001600160a01b03169163200d2ed2916004808301926020929190829003018186803b1580156112a257600080fd5b505afa1580156112b6573d6000803e3d6000fd5b505050506040513d601f19601f820116820180604052506112da9190810190613226565b60028111156112e557fe5b146113025760405162461bcd60e51b81526004016105d2906135f6565b3360008061130e611f39565b9092509050801580159061132157508115155b61133d5760405162461bcd60e51b81526004016105d290613964565b6007546040516370a0823160e01b815285916001600160a01b0316906370a082319061136d903390600401613381565b60206040518083038186803b15801561138557600080fd5b505afa158015611399573d6000803e3d6000fd5b505050506040513d601f19601f820116820180604052506113bd919081019061325a565b10156113db5760405162461bcd60e51b81526004016105d290613626565b60006113ed838363ffffffff611a5d16565b9050600061148a600760009054906101000a90046001600160a01b03166001600160a01b03166318160ddd6040518163ffffffff1660e01b815260040160206040518083038186803b15801561144257600080fd5b505afa158015611456573d6000803e3d6000fd5b505050506040513d601f19601f8201168201806040525061147a919081019061325a565b610db6888663ffffffff611f4c16565b90506000600960009054906101000a90046001600160a01b03166001600160a01b0316634942f65f6040518163ffffffff1660e01b815260040160206040518083038186803b1580156114dc57600080fd5b505afa1580156114f0573d6000803e3d6000fd5b505050506040513d601f19601f82011682018060405250611514919081019061325a565b9050611536611529838363ffffffff61257916565b839063ffffffff61250116565b6009549092506001600160a01b031663f4d60458611552611fae565b8861156b6110156002610c008a8a63ffffffff611f4c16565b6040518463ffffffff1660e01b8152600401611589939291906133e7565b600060405180830381600087803b1580156115a357600080fd5b505af11580156115b7573d6000803e3d6000fd5b505050506115c586886125bb565b6009546000906001600160a01b03166319d3b88b886115e2611fae565b600288886040518663ffffffff1660e01b81526004016116069594939291906133ae565b6040805180830381600087803b15801561161f57600080fd5b505af1158015611633573d6000803e3d6000fd5b505050506040513d601f19601f820116820180604052506116579190810190613313565b50905061166261208a565b61166c8782612156565b5050505050505050565b60006116806119b0565b905061168b816109fa565b6116a75760405162461bcd60e51b81526004016105d2906137d3565b50600655565b60006116b7611abc565b610947612467565b6000610947611b9e565b60105481565b831561173a576009546040516317a790f160e11b81526001600160a01b0390911690632f4f21e2906117079033908890600401613395565b600060405180830381600087803b15801561172157600080fd5b505af1158015611735573d6000803e3d6000fd5b505050505b821561174d5761174b838383610a24565b505b50505050565b60095460408051631006976960e11b815290516000926001600160a01b03169163200d2ed2916004808301926020929190829003018186803b15801561179857600080fd5b505afa1580156117ac573d6000803e3d6000fd5b505050506040513d601f19601f820116820180604052506117d09190810190613226565b60028111156117db57fe5b146117f85760405162461bcd60e51b81526004016105d2906135f6565b61180061208a565b565b600061180c6119b0565b9050611817816109fa565b6118335760405162461bcd60e51b81526004016105d2906137d3565b600d548214156118555760405162461bcd60e51b81526004016105d290613988565b600d829055670de0b6b3a7640000829003600e556118728261261b565b600f555050565b600c5481565b6000610a32338585856128a2565b60006118976119b0565b90506118a2816109fa565b6118be5760405162461bcd60e51b81526004016105d2906137d3565b600b548214156118e05760405162461bcd60e51b81526004016105d290613988565b50600b55565b60006118f0611abc565b6109476123ba565b6007546001600160a01b031690565b8315611972576009546040516317a790f160e11b81526001600160a01b0390911690632f4f21e29061193f9033908890600401613395565b600060405180830381600087803b15801561195957600080fd5b505af115801561196d573d6000803e3d6000fd5b505050505b821561174d5761174b83838361187f565b61198b61121d565b6119a75760405162461bcd60e51b81526004016105d2906137d3565b610af281612a84565b3390565b6000806119bf6131a8565b6009546001600160a01b03166355f575106119d8611fae565b6040518263ffffffff1660e01b81526004016119f49190613381565b60c06040518083038186803b158015611a0c57600080fd5b505afa158015611a20573d6000803e3d6000fd5b505050506040513d601f19601f82011682018060405250611a449190810190613295565b9050611a4f81612b10565b925080604001519150509091565b600081611a7f611a7585670de0b6b3a7640000611f74565b6002855b04611a8e565b81611a8657fe5b049392505050565b600082820183811015611ab35760405162461bcd60e51b81526004016105d290613556565b90505b92915050565b60095460408051631006976960e11b815290516000926001600160a01b03169163200d2ed2916004808301926020929190829003018186803b158015611b0157600080fd5b505afa158015611b15573d6000803e3d6000fd5b505050506040513d601f19601f82011682018060405250611b399190810190613226565b6002811115611b4457fe5b14611b4e57611800565b6000611b58612543565b9050600080611b65610640565b600254919350915083141580611b7d57506005548214155b80611b89575060025481115b15611b9957611b99838383612c32565b505050565b6000611ba86131a8565b6009546001600160a01b03166355f57510611bc1611fae565b6040518263ffffffff1660e01b8152600401611bdd9190613381565b60c06040518083038186803b158015611bf557600080fd5b505afa158015611c09573d6000803e3d6000fd5b505050506040513d601f19601f82011682018060405250611c2d9190810190613295565b9050610a8281612b10565b600080600960009054906101000a90046001600160a01b03166001600160a01b031663200d2ed26040518163ffffffff1660e01b815260040160206040518083038186803b158015611c8957600080fd5b505afa158015611c9d573d6000803e3d6000fd5b505050506040513d601f19601f82011682018060405250611cc19190810190613226565b6002811115611ccc57fe5b14611ce95760405162461bcd60e51b81526004016105d2906135f6565b6009546040516336a250cf60e21b81526001600160a01b039091169063da89433c90611d1990879060040161342b565b60206040518083038186803b158015611d3157600080fd5b505afa158015611d45573d6000803e3d6000fd5b505050506040513d601f19601f82011682018060405250611d699190810190613206565b611d855760405162461bcd60e51b81526004016105d290613833565b6000611d9085612d3e565b905080841015611db25760405162461bcd60e51b81526004016105d2906134a2565b82611dbb612543565b1115611dd95760405162461bcd60e51b81526004016105d290613808565b6009546000906001600160a01b03166319d3b88b88611df6611fae565b6002868b6040518663ffffffff1660e01b8152600401611e1a9594939291906133ae565b6040805180830381600087803b158015611e3357600080fd5b505af1158015611e47573d6000803e3d6000fd5b505050506040513d601f19601f82011682018060405250611e6b9190810190613313565b509050611e7661208a565b611e808782612156565b9695505050505050565b600080611e9b600260030154611fbd565b90506000611eaa6110156123ba565b90506107c082611ec0838263ffffffff612d4b16565b9063ffffffff612d9116565b600081831315611edc5781611ab3565b5090919050565b600081831215611edc5781611ab3565b6000828201818312801590611f085750838112155b80611f1d5750600083128015611f1d57508381125b611ab35760405162461bcd60e51b81526004016105d29061373c565b600080611f44611abc565b6119bf6131a8565b6000670de0b6b3a7640000611a7f611f648585611f74565b6002670de0b6b3a7640000611a79565b600082611f8357506000611ab6565b82820282848281611f9057fe5b0414611ab35760405162461bcd60e51b81526004016105d290613767565b6009546001600160a01b031690565b60006001600160ff1b03821115611fe65760405162461bcd60e51b81526004016105d290613a43565b5090565b6007546040516340c10f1960e01b81526001600160a01b03909116906340c10f199061201c9085908590600401613395565b602060405180830381600087803b15801561203657600080fd5b505af115801561204a573d6000803e3d6000fd5b505050506040513d601f19601f8201168201806040525061206e9190810190613206565b6109e45760405162461bcd60e51b81526004016105d290613654565b60095460408051631006976960e11b815290516000926001600160a01b03169163200d2ed2916004808301926020929190829003018186803b1580156120cf57600080fd5b505afa1580156120e3573d6000803e3d6000fd5b505050506040513d601f19601f820116820180604052506121079190810190613226565b600281111561211257fe5b1461212f5760405162461bcd60e51b81526004016105d2906135f6565b6000612139612543565b9050600080612146610640565b9092509050611b99838383612c32565b600954604080516345a15a0160e01b815290516000926001600160a01b0316916345a15a01916004808301926020929190829003018186803b15801561219b57600080fd5b505afa1580156121af573d6000803e3d6000fd5b505050506040513d601f19601f820116820180604052506121d3919081019061325a565b905081156122795760095460405163f50c138b60e01b81526001600160a01b039091169063f50c138b9061220d9086908590600401613395565b60206040518083038186803b15801561222557600080fd5b505afa158015612239573d6000803e3d6000fd5b505050506040513d601f19601f8201168201806040525061225d9190810190613206565b6122795760405162461bcd60e51b81526004016105d2906139b2565b600954604051631eacda4160e31b81526001600160a01b039091169063f566d208906122ab9086908590600401613395565b60206040518083038186803b1580156122c357600080fd5b505afa1580156122d7573d6000803e3d6000fd5b505050506040513d601f19601f820116820180604052506122fb9190810190613206565b6123175760405162461bcd60e51b81526004016105d29061358d565b6009546001600160a01b031663f566d208612330611fae565b836040518363ffffffff1660e01b815260040161234e929190613395565b60206040518083038186803b15801561236657600080fd5b505afa15801561237a573d6000803e3d6000fd5b505050506040513d601f19601f8201168201806040525061239e9190810190613206565b611b995760405162461bcd60e51b81526004016105d29061387d565b6000806123cb600260030154611fbd565b905060006123e4600c5483612dd390919063ffffffff16565b905060006124006123f3612df9565b849063ffffffff611ef316565b9050612422612415848463ffffffff611ef316565b829063ffffffff611ecc16565b9050612444612437848463ffffffff612d4b16565b829063ffffffff611ee316565b905061245f61245a82600063ffffffff611ee316565b612dff565b935050505090565b60006124716131a8565b6009546001600160a01b03166355f5751061248a611fae565b6040518263ffffffff1660e01b81526004016124a69190613381565b60c06040518083038186803b1580156124be57600080fd5b505afa1580156124d2573d6000803e3d6000fd5b505050506040513d601f19601f820116820180604052506124f69190810190613295565b9050610a8281612e21565b6000611ab383836040518060400160405280601e81526020017f536166654d6174683a207375627472616374696f6e206f766572666c6f770000815250612e63565b4290565b600254156125675760405162461bcd60e51b81526004016105d2906136d8565b60025560055560006003819055600455565b6000611ab383836040518060400160405280601881526020017f536166654d6174683a206d6f64756c6f206279207a65726f0000000000000000815250612e8f565b600754604051632770a7eb60e21b81526001600160a01b0390911690639dc29fac906125ed9085908590600401613395565b600060405180830381600087803b15801561260757600080fd5b505af115801561111c573d6000803e3d6000fd5b600080821361263c5760405162461bcd60e51b81526004016105d2906136a1565b701d6329f1c35ca4bfabb9f561000000000082131561266d5760405162461bcd60e51b81526004016105d2906135b4565b60006012670de0b6b3a76400005b67016345785d8a000085136126aa5784600a0294506f01bb7635c5de48ef4ce5b7b41cc43db08303925061267b565b678ac7230489e8000085126126d957600a850594506f01bb7635c5de48ef4ce5b7b41cc43db0830192506126aa565b670de0b6b3a7640000851215612716576126fb856725b946ebc0b36173612dd3565b94506ec097ce7bc90715b34b9f1000000000830392506126d9565b6725b946ebc0b3617385131561275357612738856725b946ebc0b36173612d91565b94506ec097ce7bc90715b34b9f100000000083019250612716565b670de0b6b3a7640000851415612780578061276e8483612ec3565b8161277557fe5b059350505050610930565b6725b946ebc0b361738514156127b7578061279b8483612ec3565b816127a257fe5b05670de0b6b3a7640000019350505050610930565b938402936e4e16f927cdca7f15b39123f740f5d192909201916f0120e3b5b9ad8aa08cf16e980000000060008187016ec097ce7bc90715b34b9f10000000006f0120e3b5b9ad8aa08cf16e97ffffffff198901028161281257fe5b059050806002028501945060006ec097ce7bc90715b34b9f10000000008283028161283957fe5b05905060035b6ec097ce7bc90715b34b9f10000000008383020592508060ff16836002028161286457fe5b059690960195600201602760ff82161061287d57612882565b61283f565b8461288d8887612ec3565b8161289457fe5b059998505050505050505050565b600080600960009054906101000a90046001600160a01b03166001600160a01b031663200d2ed26040518163ffffffff1660e01b815260040160206040518083038186803b1580156128f357600080fd5b505afa158015612907573d6000803e3d6000fd5b505050506040513d601f19601f8201168201806040525061292b9190810190613226565b600281111561293657fe5b146129535760405162461bcd60e51b81526004016105d2906135f6565b6009546040516336a250cf60e21b81526001600160a01b039091169063da89433c9061298390879060040161342b565b60206040518083038186803b15801561299b57600080fd5b505afa1580156129af573d6000803e3d6000fd5b505050506040513d601f19601f820116820180604052506129d39190810190613206565b6129ef5760405162461bcd60e51b81526004016105d290613833565b60006129fa85612f0d565b905080841115612a1c5760405162461bcd60e51b81526004016105d2906134a2565b82612a25612543565b1115612a435760405162461bcd60e51b81526004016105d290613808565b6009546000906001600160a01b03166319d3b88b88612a60611fae565b6001868b6040518663ffffffff1660e01b8152600401611e1a9594939291906133ae565b6001600160a01b038116612aaa5760405162461bcd60e51b81526004016105d290613510565b600080546040516001600160a01b038085169361010090930416917f8be0079c531659141344cd1fd0a4f28419497f9722a3daafe3b4186f6b6457e091a3600080546001600160a01b0390921661010002610100600160a81b0319909216919091179055565b805160095460208301516040516324c374e760e21b81526000939284926001600160a01b039091169163930dd39c91612b4b91600401613416565b60206040518083038186803b158015612b6357600080fd5b505afa158015612b77573d6000803e3d6000fd5b505050506040513d601f19601f82011682018060405250612b9b919081019061325a565b9050612bba612bad8560600151611fbd565b839063ffffffff612d4b16565b9150612bf0612bad8560800151612be4612bd78860400151611fbd565b859063ffffffff612dd316565b9063ffffffff612d4b16565b9150612c1c612bad8560a00151612be4612c0d8860400151611fbd565b6006549063ffffffff612dd316565b915061092b61245a83600063ffffffff611ee316565b600254612c3e57611b99565b612c466131a8565b6009546001600160a01b03166355f57510612c5f611fae565b6040518263ffffffff1660e01b8152600401612c7b9190613381565b60c06040518083038186803b158015612c9357600080fd5b505afa158015612ca7573d6000803e3d6000fd5b505050506040513d601f19601f82011682018060405250612ccb9190810190613295565b9050806040015160001415612ce05750611b99565b600254821115612cf557612cf5818484612f1a565b612d00818486612f1a565b7fc0f950314c1203122896795efe729e8208b4c58eb5d6f41c476f32c773250a5d6002604051612d309190613afb565b60405180910390a150505050565b6000806000610e90611f39565b6000818303818312801590612d605750838113155b80612d755750600083128015612d7557508381135b611ab35760405162461bcd60e51b81526004016105d290613a93565b600080821215612da8578160000391508260000392505b81612dc4612dbe85670de0b6b3a7640000613074565b84612ec3565b81612dcb57fe5b059392505050565b6000670de0b6b3a7640000612dc4612deb8585613074565b670de0b6b3a7640000612ec3565b60045490565b600080821215611fe65760405162461bcd60e51b81526004016105d290613a6d565b604081015160009080612e465760405162461bcd60e51b81526004016105d2906139d5565b6000612e5184612b10565b905061092b818363ffffffff611a5d16565b60008184841115612e875760405162461bcd60e51b81526004016105d2919061344f565b505050900390565b60008183612eb05760405162461bcd60e51b81526004016105d2919061344f565b50828481612eba57fe5b06949350505050565b6000808213612ee45760405162461bcd60e51b81526004016105d290613705565b60008312612f0057612ef98360028405611ef3565b9050611ab6565b611ab38360028405612d4b565b60008060006108dc611f39565b600254612f395760405162461bcd60e51b81526004016105d2906139d5565b600254811015612f5b5760405162461bcd60e51b81526004016105d290613902565b600254811461305e57600254600090612f7f9061101590849063ffffffff61250116565b600a546004546003546005549394506000936001600160a01b0390931692635e035d9c9286929091612fb090611fbd565b6040518563ffffffff1660e01b8152600401612fcf9493929190613434565b604080518083038186803b158015612fe657600080fd5b505afa158015612ffa573d6000803e3d6000fd5b505050506040513d601f19601f8201168201806040525061301e9190810190613272565b6004919091559050613053613044613037617080611fbd565b839063ffffffff6130df16565b6006549063ffffffff611ef316565b600655505060028190555b600582905561306c83613143565b600355505050565b60008261308357506000611ab6565b826000191480156130975750600160ff1b82145b156130b45760405162461bcd60e51b81526004016105d290613a0c565b828202828482816130c157fe5b0514611ab35760405162461bcd60e51b81526004016105d290613a0c565b6000816130fe5760405162461bcd60e51b81526004016105d2906137a8565b816000191480156131125750600160ff1b83145b1561312f5760405162461bcd60e51b81526004016105d2906138d6565b600082848161313a57fe5b05949350505050565b60008061315261101584612e21565b9050613172613165600260030154611fbd565b829063ffffffff612d4b16565b9392505050565b6040518060a0016040528060008152602001600081526020016000815260200160008152602001600081525090565b6040805160c08101909152600080825260208201908152602001600081526020016000815260200160008152602001600081525090565b6000602082840312156131f0578081fd5b81356001600160a01b0381168114611ab3578182fd5b600060208284031215613217578081fd5b81518015158114611ab3578182fd5b600060208284031215613237578081fd5b8151611ab381613b56565b600060208284031215613253578081fd5b5035919050565b60006020828403121561326b578081fd5b5051919050565b60008060408385031215613284578081fd5b505080516020909101519092909150565b600060c082840312156132a6578081fd5b60405160c0810181811067ffffffffffffffff821117156132c5578283fd5b6040528251815260208301516132da81613b56565b8060208301525060408301516040820152606083015160608201526080830151608082015260a083015160a08201528091505092915050565b60008060408385031215613284578182fd5b600080600060608486031215613339578081fd5b505081359360208301359350604090920135919050565b60008060008060808587031215613365578081fd5b5050823594602084013594506040840135936060013592509050565b6001600160a01b0391909116815260200190565b6001600160a01b03929092168252602082015260400190565b6001600160a01b0386811682528516602082015260a081016133cf85613b4b565b60408301526060820193909352608001529392505050565b6001600160a01b039384168152919092166020820152604081019190915260600190565b901515815260200190565b6020810161342383613b4b565b825292915050565b90815260200190565b93845260208401929092526040830152606082015260800190565b6000602080835283518082850152825b8181101561347b5785810183015185820160400152820161345f565b8181111561348c5783604083870101525b50601f01601f1916929092016040019392505050565b6020808252600d908201526c1c1c9a58d9481b1a5b5a5d1959609a1b604082015260600190565b60208082526027908201527f76616c69646174657320616e206164647265737320746861742069742069736e60408201526609dd081b9d5b1b60ca1b606082015260800190565b60208082526026908201527f4f776e61626c653a206e6577206f776e657220697320746865207a65726f206160408201526564647265737360d01b606082015260800190565b6020808252601b908201527f536166654d6174683a206164646974696f6e206f766572666c6f770000000000604082015260600190565b6020808252600d908201526c73656e64657220756e7361666560981b604082015260600190565b60208082526022908201527f6c6f6745206f6e6c7920616363657074732076203c3d2031653232202a203165604082015261062760f31b606082015260800190565b60208082526016908201527577726f6e672070657270657475616c2073746174757360501b604082015260600190565b602080825260149082015273736861726542616c616e636520746f6f206c6f7760601b604082015260600190565b6020808252600b908201526a1b5a5b9d0819985a5b195960aa1b604082015260600190565b6020808252600e908201526d706f6f6c206e6f7420656d70747960901b604082015260600190565b60208082526017908201527f6c6f6745206f66206e65676174697665206e756d626572000000000000000000604082015260600190565b602080825260139082015272185b1c9958591e481a5b9a5d1a585b1a5e9959606a1b604082015260600190565b6020808252601f908201527f726f756e6448616c665570206f6e6c7920737570706f7274732079203e203000604082015260600190565b6020808252601190820152706164646974696f6e206f766572666c6f7760781b604082015260600190565b60208082526021908201527f536166654d6174683a206d756c7469706c69636174696f6e206f766572666c6f6040820152607760f81b606082015260800190565b602080825260119082015270776469766973696f6e206279207a65726f60781b604082015260600190565b6020808252818101527f4f776e61626c653a2063616c6c6572206973206e6f7420746865206f776e6572604082015260600190565b602080825260119082015270191958591b1a5b9948195e18d959591959607a1b604082015260600190565b6020808252602a908201527f616d6f756e74206d75737420626520646976697369626c652062792074726164604082015269696e674c6f7453697a6560b01b606082015260800190565b6020808252600a9082015269616d6d20756e7361666560b01b604082015260600190565b6020808252818101527f616d6f756e74206d7573742062652067726561746572207468616e207a65726f604082015260600190565b602080825260129082015271776469766973696f6e206f766572666c6f7760701b604082015260600190565b6020808252601f908201527f74696d6520737465707320286e29206d75737420626520706f73697469766500604082015260600190565b60208082526011908201527034b73232bc10383934b1b29032b93937b960791b604082015260600190565b6020808252600a9082015269195b5c1d1e481c1bdbdb60b21b604082015260600190565b60208082526010908201526f6475706c6963617465642076616c756560801b604082015260600190565b602080825260099082015268696d20756e7361666560b81b604082015260600190565b6020808252601f908201527f66756e64696e6720696e697469616c697a6174696f6e20726571756972656400604082015260600190565b60208082526018908201527f776d756c7469706c69636174696f6e206f766572666c6f770000000000000000604082015260600190565b60208082526010908201526f75696e74323536206f766572666c6f7760801b604082015260600190565b6020808252600c908201526b696e74206f766572666c6f7760a01b604082015260600190565b6020808252601490820152737375627472616374696f6e206f766572666c6f7760601b604082015260600190565b600060a082019050825182526020830151602083015260408301516040830152606083015160608301526080830151608083015292915050565b81548152600182015460208201526002820154604082015260038201546060820152600490910154608082015260a00190565b61ffff91909116815260200190565b918252602082015260400190565b806003811061093057fe5b60038110610af257600080fdfea264697066735822122047493b2426245d2a24428daa938588933bbe756c4dc1638d2f6073e47adebc3564736f6c63430006030033",
  "source": "pragma solidity ^0.6.0;\npragma experimental ABIEncoderV2;\n\nimport \"./utility/Lockable.sol\";\nimport \"./utility/SafeMath.sol\";\nimport \"./utility/LibMathSigned.sol\";\nimport \"./utility/Address.sol\";\nimport \"./utility/Whitelist.sol\";\nimport \"./utility/Types.sol\";\nimport \"./TokenFactory.sol\";\nimport \"./interfaces/IAMM.sol\";\nimport \"./interfaces/IPerpetual.sol\";\nimport \"./interfaces/IPriceFeeder.sol\";\n\n/**\n * @title AMM contract\n */\n\ninterface IFundingCalculator {\n\n    function getAccumulatedFunding(int256, int256, int256, int256) external view returns (int256, int256);\n\n}\n\ncontract AMM is Lockable, Whitelist, IAMM {\n    using SafeMath for uint256;\n    using LibMathSigned for int256;\n    using Address for address;\n\n    // Version number\n    uint16 public constant version = 1;\n\n    uint256 private constant FUNDING_PERIOD = 28800; // 8 * 3600;\n    Types.FundingState private fundingState;\n\n    // Share token created by this contract.\n    IExpandedIERC20 public shareToken;\n    // Price feeder contract.\n    IPriceFeeder public priceFeeder;\n    // Perpetual contract.\n    IPerpetual public perpetual;\n\n    IFundingCalculator public fundingCalculator;\n\n    // Adjustable params\n    uint256 public updatePremiumPrize = 1000000000000000000; // 1\n\n    int256 public markPremiumLimit = 5000000000000000; // 0.5%\n\n    int256 public emaAlpha = 3327787021630616; // 2 / (600 + 1)\n    int256 public emaAlpha2 = 996672212978369384; // 10**18 - emaAlpha\n    int256 public emaAlpha2Ln = -3333336419758231; // ln(emaAlpha2)\n    int256 public fundingDampener = 500000000000000; // 0.05%\n    \n    event CreatedAMM();\n    event UpdateFundingRate(Types.FundingState fundingState);\n    event UpdatePriceFeeder(address indexed priceFeeder);\n\n    constructor(\n        string memory _poolName,\n        string memory _poolSymbol,\n        address _tokenFactoryAddress,\n        address _priceFeederAddress,\n        address _perpetualAddress\n    ) public nonReentrant() {\n        TokenFactory tf = TokenFactory(_tokenFactoryAddress);\n        shareToken = tf.createToken(_poolName, _poolSymbol, 18);\n\n        priceFeeder = IPriceFeeder(_priceFeederAddress);\n        perpetual = IPerpetual(_perpetualAddress);\n\n        addAddress(msg.sender);\n\n        emit CreatedAMM();\n    }\n\n    function setPriceFeeder(address _priceFeederAddress) external onlyWhitelisted() {\n        priceFeeder = IPriceFeeder(_priceFeederAddress);\n\n         emit UpdatePriceFeeder(_priceFeederAddress);\n    }\n\n    function setUpdatePremiumPrize(uint256 value) external onlyWhitelisted() {\n        require(value != updatePremiumPrize, \"duplicated value\");\n        updatePremiumPrize = value;\n    }\n\n    function setMarkPremiumLimit(int256 value) external onlyWhitelisted() {\n        require(value != markPremiumLimit, \"duplicated value\");\n        markPremiumLimit = value;\n    }\n\n    function setEmaAlpha(int256 value) external onlyWhitelisted() {\n        require(value != emaAlpha, \"duplicated value\");\n        emaAlpha = value;\n        emaAlpha2 = 10**18 - value;\n        emaAlpha2Ln = value.wln();\n    }\n\n    function setFundingDampener(int256 value) external onlyWhitelisted() {\n        require(value != fundingDampener, \"duplicated value\");\n        fundingDampener = value;\n    }\n\n    function setAccumulatedFundingPerContract(int256 value) external onlyWhitelisted() {\n        fundingState.accumulatedFundingPerContract = value;\n    }\n\n    function currentFundingRate() public returns (int256) {\n        _funding();\n        return lastFundingRate();\n    }\n\n    function lastFundingRate() public view returns (int256) {\n        int256 rate = _lastPremiumRate(); \n        return rate.max(fundingDampener).add(rate.min(-fundingDampener));\n    }\n\n    function updateIndex() public {\n        require(perpetual.status() == Types.Status.NORMAL, \"wrong perpetual status\");\n        _forceFunding();\n    }\n\n    /**\n     * @dev Share token's ERC20 address.\n     */\n    function shareTokenAddress() public override view returns (address) {\n        return address(shareToken);\n    }\n\n    /**\n     * @dev Read the price from Oracle\n     */\n    function indexPrice()\n        public\n        override\n        view\n        returns (uint256 price, uint256 timestamp)\n    {\n        price = priceFeeder.getValue();\n        timestamp = priceFeeder.getTimestamp();\n\n        require(price != 0, \"index price error\");\n    }\n\n    function setFundingCalculator(address _fundingCalculatorAddress) external onlyWhitelisted() {\n        fundingCalculator = IFundingCalculator(_fundingCalculatorAddress);\n    }\n\n    function createPool(uint256 amount) public {\n        require(amount > 0, \"amount must be greater than zero\");\n        require(perpetual.status() == Types.Status.NORMAL, \"wrong perpetual status\");\n        require(positionSize() == 0, \"pool not empty\");\n\n        address trader = msg.sender;\n        uint256 blockTime = _getBlockTimestamp();\n        uint256 newIndexPrice;\n        uint256 newIndexTimestamp;\n        (newIndexPrice, newIndexTimestamp) = indexPrice();\n\n        _initFunding(newIndexPrice, blockTime);\n        perpetual.transferCollateral(trader, _tradingAccount(), (newIndexPrice.wmul(amount).mul(2).toInt256()));\n        (uint256 opened, ) = perpetual.tradePosition(\n            trader,\n            _tradingAccount(),\n            Types.Side.SHORT,\n            newIndexPrice,\n            amount\n        );\n        _mintShareTokenTo(trader, amount);\n\n        _forceFunding(); // x, y changed, so fair price changed. we need funding now\n        _mustSafe(trader, opened);\n    }\n\n    \n\n    function addLiquidity(uint256 amount) public {\n        require(perpetual.status() == Types.Status.NORMAL, \"wrong perpetual status\");\n\n        uint256 oldAvailableMargin;\n        uint256 oldPoolPositionSize;\n        (oldAvailableMargin, oldPoolPositionSize) = _currentXY();\n        require(oldPoolPositionSize != 0 && oldAvailableMargin != 0, \"empty pool\");\n\n        address trader = msg.sender;\n        uint256 price = oldAvailableMargin.wdiv(oldPoolPositionSize);\n\n        uint256 collateralAmount = amount.wmul(price).mul(2);\n        perpetual.transferCollateral(trader, _tradingAccount(), collateralAmount.toInt256());\n        (uint256 opened, ) = perpetual.tradePosition(trader, _tradingAccount(), Types.Side.SHORT, price, amount);\n\n        _mintShareTokenTo(trader, shareToken.totalSupply().wmul(amount).wdiv(oldPoolPositionSize));\n\n        _forceFunding(); // x, y changed, so fair price changed. we need funding now\n        _mustSafe(trader, opened);\n    }\n\n    function removeLiquidity(uint256 shareAmount) public {\n        require(perpetual.status() == Types.Status.NORMAL, \"wrong perpetual status\");\n\n        address trader = msg.sender;\n        uint256 oldAvailableMargin;\n        uint256 oldPoolPositionSize;\n        (oldAvailableMargin, oldPoolPositionSize) = _currentXY();\n        require(oldPoolPositionSize != 0 && oldAvailableMargin != 0, \"empty pool\");\n        require(shareToken.balanceOf(msg.sender) >= shareAmount, \"shareBalance too low\");\n        uint256 price = oldAvailableMargin.wdiv(oldPoolPositionSize);\n        uint256 amount = shareAmount.wmul(oldPoolPositionSize).wdiv(shareToken.totalSupply());\n        // align to lotSize\n        uint256 lotSize = perpetual.lotSize();\n        amount = amount.sub(amount.mod(lotSize));\n\n        perpetual.transferCollateral(_tradingAccount(), trader, (price.wmul(amount).mul(2)).toInt256());\n        _burnShareTokenFrom(trader, shareAmount);\n        (uint256 opened, ) = perpetual.tradePosition(trader, _tradingAccount(), Types.Side.LONG, price, amount);\n\n        _forceFunding(); // x, y changed, so fair price changed. we need funding now\n        _mustSafe(trader, opened);\n    }\n\n    /**\n     * @notice Pool's position size (y).\n     */\n    function positionSize() public view returns (uint256) {\n        return perpetual.positions(_tradingAccount()).size;\n    }\n\n    function currentAvailableMargin() public override returns (uint256) {\n        _funding();\n        return _lastAvailableMargin();\n    }\n\n    function getAvailableMargin() public view returns (uint256) {\n        return _lastAvailableMargin();\n    }\n\n    function currentFairPrice() public returns (uint256) {\n        _funding();\n        return _lastFairPrice();\n    }\n\n    function currentMarkPrice() public override returns (uint256) {\n        _funding();\n        return _lastMarkPrice();\n    }\n\n    function getMarkPrice() public view returns (uint256) {\n        return _lastMarkPrice();\n    }\n\n    function getFairPrice() public view returns (uint256) {\n        return _lastFairPrice();\n    }\n\n    function lastFundingState() public view returns (Types.FundingState memory) {\n        return fundingState;\n    }\n\n    function currentAccumulatedFundingPerContract() public override returns (int256) {\n        _funding();\n        return fundingState.accumulatedFundingPerContract;\n    }\n\n    function getAccumulatedFundingPerContract() public view returns (int256) {\n        return fundingState.accumulatedFundingPerContract;\n    }\n\n    function depositAndBuy(\n        uint256 depositAmount,\n        uint256 tradeAmount,\n        uint256 limitPrice,\n        uint256 deadline\n    )\n        public\n    {\n        if (depositAmount > 0) {\n            perpetual.depositFor(msg.sender, depositAmount);\n        }\n        if (tradeAmount > 0) {\n            buy(tradeAmount, limitPrice, deadline);\n        }\n    }\n\n    function depositAndSell(\n        uint256 depositAmount,\n        uint256 tradeAmount,\n        uint256 limitPrice,\n        uint256 deadline\n    )\n        public\n    {\n        if (depositAmount > 0) {\n            perpetual.depositFor(msg.sender, depositAmount);\n        }\n        if (tradeAmount > 0) {\n            sell(tradeAmount, limitPrice, deadline);\n        }\n    }\n\n    /**\n     * @dev Buy/long with AMM.\n     */\n    function buy(\n        uint256 amount,\n        uint256 limitPrice,\n        uint256 deadline\n    ) public returns (uint256) {\n        return _buyFrom(msg.sender, amount, limitPrice, deadline);\n    }\n\n    /**\n     * @dev Sell/short with AMM.\n     */\n    function sell(\n        uint256 amount,\n        uint256 limitPrice,\n        uint256 deadline\n    ) public returns (uint256) {\n        return _sellFrom(msg.sender, amount, limitPrice, deadline);\n    }\n\n    // INTERNAL FUCTIONS\n    function _funding() internal {\n        if (perpetual.status() != Types.Status.NORMAL) {\n            return;\n        }\n        uint256 blockTime = _getBlockTimestamp();\n        uint256 newIndexPrice;\n        uint256 newIndexTimestamp;\n        (newIndexPrice, newIndexTimestamp) = indexPrice();\n        if (\n            blockTime != fundingState.lastFundingTime || // condition 1\n            newIndexPrice != fundingState.lastIndexPrice || // condition 2, especially when updateIndex and buy/sell are in the same block\n            newIndexTimestamp > fundingState.lastFundingTime // condition 2\n        ) {\n            _forceFunding(blockTime, newIndexPrice, newIndexTimestamp);\n        }\n\n    } \n\n    function _lastMarkPrice() internal view returns (uint256) {\n        int256 index = fundingState.lastIndexPrice.toInt256();\n        int256 limit = index.wmul(markPremiumLimit);\n        int256 p = index.add(_lastEMAPremium());\n        p = p.min(index.add(limit));\n        p = p.max(index.sub(limit));\n        return p.max(0).toUint256();\n    }\n\n    function _lastEMAPremium() internal view returns (int256) {\n        return fundingState.lastEMAPremium;\n    }\n\n    function _forceFunding() internal {\n        require(perpetual.status() == Types.Status.NORMAL, \"wrong perpetual status\");\n        uint256 blockTime = _getBlockTimestamp();\n        uint256 newIndexPrice;\n        uint256 newIndexTimestamp;\n        (newIndexPrice, newIndexTimestamp) = indexPrice();\n        _forceFunding(blockTime, newIndexPrice, newIndexTimestamp);\n    }\n\n    function _tradingAccount() internal view returns (address) {\n        return address(perpetual);\n    }\n\n    function _forceFunding(uint256 blockTime, uint256 newIndexPrice, uint256 newIndexTimestamp) private {\n        if (fundingState.lastFundingTime == 0) {\n            // funding initialization required. but in this case, it's safe to just do nothing and return\n            return;\n        }\n        Types.PositionData memory account = perpetual.positions(_tradingAccount());\n        if (account.size == 0) {\n            // empty pool. it's safe to just do nothing and return\n            return;\n        }\n\n        if (newIndexTimestamp > fundingState.lastFundingTime) {\n            // the 1st update\n            _nextStateWithTimespan(account, newIndexPrice, newIndexTimestamp);\n        }\n        // the 2nd update;\n        _nextStateWithTimespan(account, newIndexPrice, blockTime);\n\n        emit UpdateFundingRate(fundingState);\n    }\n\n    function _lastPremiumRate() internal view returns (int256) {\n        int256 index = fundingState.lastIndexPrice.toInt256();\n        int256 rate = _lastMarkPrice().toInt256();\n        rate = rate.sub(index).wdiv(index);\n        return rate;\n    }\n\n    function _getBlockTimestamp() virtual internal view returns (uint256) {\n        // solium-disable-next-line security/no-block-members\n        return block.timestamp;\n    }\n\n    function _buyFrom(\n        address trader,\n        uint256 amount,\n        uint256 limitPrice,\n        uint256 deadline\n    )\n        internal\n        returns (uint256) {\n        require(perpetual.status() == Types.Status.NORMAL, \"wrong perpetual status\");\n        require(perpetual.isValidTradingLotSize(amount), \"amount must be divisible by tradingLotSize\");\n\n        uint256 price = getBuyPrice(amount);\n        require(limitPrice >= price, \"price limited\");\n        require(_getBlockTimestamp() <= deadline, \"deadline exceeded\");\n        (uint256 opened, ) = perpetual.tradePosition(trader, _tradingAccount(), Types.Side.LONG, price, amount);\n\n        _forceFunding(); // x, y changed, so fair price changed. we need funding now\n        _mustSafe(trader, opened);\n        return opened;\n    }\n\n    function _sellFrom(\n        address trader,\n        uint256 amount,\n        uint256 limitPrice,\n        uint256 deadline\n    ) internal returns (uint256) {\n        require(perpetual.status() == Types.Status.NORMAL, \"wrong perpetual status\");\n        require(perpetual.isValidTradingLotSize(amount), \"amount must be divisible by tradingLotSize\");\n\n        uint256 price = getSellPrice(amount);\n        require(limitPrice <= price, \"price limited\");\n        require(_getBlockTimestamp() <= deadline, \"deadline exceeded\");\n        (uint256 opened, ) = perpetual.tradePosition(trader, _tradingAccount(), Types.Side.SHORT, price, amount);\n\n        _forceFunding(); // x, y changed, so fair price changed. we need funding now\n        _mustSafe(trader, opened);\n        return opened;\n    }\n\n    function _mintShareTokenTo(address trader, uint256 amount) internal {\n        require(shareToken.mint(trader, amount), \"mint failed\");\n    }\n\n    function _burnShareTokenFrom(address trader, uint256 amount) internal {\n        shareToken.burn(trader, amount);\n    }\n\n    function getBuyPrice(uint256 amount) internal returns (uint256 price) {\n        uint256 x;\n        uint256 y;\n        (x, y) = _currentXY();\n        require(y != 0 && x != 0, \"empty pool\");\n        return x.wdiv(y.sub(amount));\n    }\n\n    function getBuyPricePublic(uint256 amount) public view returns (uint256) {\n        uint256 x;\n        uint256 y;\n        (x, y) = _currentXYNoFunding();\n        require(y != 0 && x != 0, \"empty pool\");\n        return x.wdiv(y.sub(amount));\n    }\n\n    function getSellPrice(uint256 amount) internal returns (uint256 price) {\n        uint256 x;\n        uint256 y;\n        (x, y) = _currentXY();\n        require(y != 0 && x != 0, \"empty pool\");\n        return x.wdiv(y.add(amount));\n    }\n\n    function getSellPricePublic(uint256 amount) public view returns (uint256) {\n        uint256 x;\n        uint256 y;\n        (x, y) = _currentXYNoFunding();\n        require(y != 0 && x != 0, \"empty pool\");\n        return x.wdiv(y.add(amount));\n    }\n\n    function getCurrentPricePublic() public view returns (uint256) {\n        uint256 x;\n        uint256 y;\n        (x, y) = _currentXYNoFunding();\n        require(y != 0 && x != 0, \"empty pool\");\n        return x.wdiv(y);\n    }\n\n    function _lastFairPrice() internal view returns (uint256) {\n        Types.PositionData memory account = perpetual.positions(_tradingAccount());\n        return _fairPriceFromPoolAccount(account);\n    }\n\n    function _currentXY() internal returns (uint256 x, uint256 y) {\n        _funding();\n        Types.PositionData memory account = perpetual.positions(_tradingAccount());\n        x = _availableMarginFromPoolAccount(account);\n        y = account.size;\n    }\n\n    function _currentXYNoFunding() internal view returns (uint256 x, uint256 y) {\n        Types.PositionData memory account = perpetual.positions(_tradingAccount());\n        x = _availableMarginFromPoolAccount(account);\n        y = account.size;\n    }\n\n    function _mustSafe(address trader, uint256 opened) internal {\n        // perpetual.markPrice is a little different from ours\n        uint256 perpetualMarkPrice = perpetual.markPrice();\n        if (opened > 0) {\n            require(perpetual.isIMSafeWithPrice(trader, perpetualMarkPrice), \"im unsafe\");\n        }\n        require(perpetual.isSafeWithPrice(trader, perpetualMarkPrice), \"sender unsafe\");\n        require(perpetual.isSafeWithPrice(_tradingAccount(), perpetualMarkPrice), \"amm unsafe\");\n    }\n\n    function _nextStateWithTimespan(\n        Types.PositionData memory account,\n        uint256 newIndexPrice,\n        uint256 endTimestamp\n    ) private {\n        require(fundingState.lastFundingTime != 0, \"funding initialization required\");\n        require(endTimestamp >= fundingState.lastFundingTime, \"time steps (n) must be positive\");\n\n        // update ema\n        if (fundingState.lastFundingTime != endTimestamp) {\n            int256 timeDelta = endTimestamp.sub(fundingState.lastFundingTime).toInt256();\n            int256 acc;\n            (fundingState.lastEMAPremium, acc) = fundingCalculator.getAccumulatedFunding(\n                timeDelta,\n                fundingState.lastEMAPremium,\n                fundingState.lastPremium,\n                fundingState.lastIndexPrice.toInt256() // ema is according to the old index\n            );\n            fundingState.accumulatedFundingPerContract = fundingState.accumulatedFundingPerContract.add(\n                acc.div(FUNDING_PERIOD.toInt256())\n            );\n            fundingState.lastFundingTime = endTimestamp;\n        }\n        \n        // always update\n        fundingState.lastIndexPrice = newIndexPrice; // should update before premium()\n        fundingState.lastPremium = _premiumFromPoolAccount(account);\n    }\n\n    function _premiumFromPoolAccount(Types.PositionData memory account) internal view returns (int256) {\n        int256 p = _fairPriceFromPoolAccount(account).toInt256();\n        p = p.sub(fundingState.lastIndexPrice.toInt256());\n        return p;\n    }\n\n    function _fairPriceFromPoolAccount(Types.PositionData memory account) internal view returns (uint256) {\n        uint256 y = account.size;\n        require(y > 0, \"funding initialization required\");\n        uint256 x = _availableMarginFromPoolAccount(account);\n        return x.wdiv(y);\n    }\n\n    function _availableMarginFromPoolAccount(Types.PositionData memory account) internal view returns (uint256) {\n        int256 available = account.rawCollateral;\n        int256 socialLossPerContract = perpetual.socialLossPerContract(account.side);\n        available = available.sub(account.entryValue.toInt256());\n        available = available.sub(socialLossPerContract.wmul(account.size.toInt256()).sub(account.entrySocialLoss));\n        available = available.sub(\n            fundingState.accumulatedFundingPerContract.wmul(account.size.toInt256()).sub(account.entryFundingLoss)\n        );\n        return available.max(0).toUint256();\n    }\n\n    function _lastAvailableMargin() internal view returns (uint256) {\n        Types.PositionData memory account = perpetual.positions(_tradingAccount());\n        return _availableMarginFromPoolAccount(account);\n    }\n\n    function _initFunding(uint256 newIndexPrice, uint256 blockTime) private {\n        require(fundingState.lastFundingTime == 0, \"already initialized\");\n        fundingState.lastFundingTime = blockTime;\n        fundingState.lastIndexPrice = newIndexPrice;\n        fundingState.lastPremium = 0;\n        fundingState.lastEMAPremium = 0;\n    }\n\n\n}\n",
  "sourcePath": "",
  "compiler": {
    "name": "solc",
    "version": "0.6.3+commit.8dda9521.Emscripten.clang"
  },
  "schemaVersion": "3.4.12",
  "updatedAt": "2023-03-05T09:13:54.323Z",
  "networkType": "ethereum",
  "devdoc": {
    "methods": {
      "addAddress(address)": {
        "details": "adds a given address to the whitelist ",
        "params": {
          "_address": "address to add"
        }
      },
      "buy(uint256,uint256,uint256)": {
        "details": "Buy/long with AMM."
      },
      "indexPrice()": {
        "details": "Read the price from Oracle"
      },
      "isOwner()": {
        "details": "Returns true if the caller is the current owner."
      },
      "isWhitelisted(address)": {
        "details": "returns true if a given address is whitelisted, false if not ",
        "params": {
          "_address": "address to check "
        },
        "returns": {
          "_0": "true if the address is whitelisted, false if not"
        }
      },
      "owner()": {
        "details": "Returns the address of the current owner."
      },
      "removeAddress(address)": {
        "details": "removes a given address from the whitelist ",
        "params": {
          "_address": "address to remove"
        }
      },
      "renounceOwnership()": {
        "details": "Leaves the contract without owner. It will not be possible to call `onlyOwner` functions anymore. Can only be called by the current owner.     * NOTE: Renouncing ownership will leave the contract without an owner, thereby removing any functionality that is only available to the owner."
      },
      "sell(uint256,uint256,uint256)": {
        "details": "Sell/short with AMM."
      },
      "shareTokenAddress()": {
        "details": "Share token's ERC20 address."
      },
      "transferOwnership(address)": {
        "details": "Transfers ownership of the contract to a new account (`newOwner`). Can only be called by the current owner."
      }
    }
  },
  "userdoc": {
    "methods": {
      "positionSize()": {
        "notice": "Pool's position size (y)."
      }
    }
  }
}