{
  "contractName": "ZonuletNFTSale",
  "abi": [
    {
      "inputs": [
        {
          "internalType": "contract ZonuletNFT",
          "name": "_zonuletNFT",
          "type": "address"
        }
      ],
      "stateMutability": "nonpayable",
      "type": "constructor"
    },
    {
      "anonymous": false,
      "inputs": [
        {
          "indexed": false,
          "internalType": "uint256",
          "name": "_tokenId",
          "type": "uint256"
        },
        {
          "indexed": false,
          "internalType": "address",
          "name": "_buyer",
          "type": "address"
        },
        {
          "indexed": false,
          "internalType": "uint256",
          "name": "_price",
          "type": "uint256"
        }
      ],
      "name": "BoughtNFT",
      "type": "event"
    },
    {
      "anonymous": false,
      "inputs": [
        {
          "indexed": false,
          "internalType": "uint256",
          "name": "_tokenId",
          "type": "uint256"
        },
        {
          "indexed": false,
          "internalType": "address",
          "name": "_gifter",
          "type": "address"
        },
        {
          "indexed": false,
          "internalType": "address",
          "name": "_receiver",
          "type": "address"
        }
      ],
      "name": "GiftedNFT",
      "type": "event"
    },
    {
      "inputs": [],
      "name": "ZONU",
      "outputs": [
        {
          "internalType": "address",
          "name": "",
          "type": "address"
        }
      ],
      "stateMutability": "view",
      "type": "function"
    },
    {
      "inputs": [],
      "name": "zonuletNFT",
      "outputs": [
        {
          "internalType": "contract ZonuletNFT",
          "name": "",
          "type": "address"
        }
      ],
      "stateMutability": "view",
      "type": "function"
    },
    {
      "inputs": [
        {
          "internalType": "address",
          "name": "_owner",
          "type": "address"
        },
        {
          "internalType": "uint256",
          "name": "_tokenId",
          "type": "uint256"
        },
        {
          "internalType": "uint256",
          "name": "_price",
          "type": "uint256"
        }
      ],
      "name": "BuyNFT",
      "outputs": [],
      "stateMutability": "payable",
      "type": "function"
    },
    {
      "inputs": [
        {
          "internalType": "address",
          "name": "_owner",
          "type": "address"
        },
        {
          "internalType": "uint256",
          "name": "_tokenId",
          "type": "uint256"
        },
        {
          "internalType": "uint256",
          "name": "_price",
          "type": "uint256"
        }
      ],
      "name": "AuctionSold",
      "outputs": [],
      "stateMutability": "payable",
      "type": "function"
    },
    {
      "inputs": [
        {
          "internalType": "address",
          "name": "_gifter",
          "type": "address"
        },
        {
          "internalType": "uint256",
          "name": "_tokenId",
          "type": "uint256"
        },
        {
          "internalType": "address",
          "name": "_receiver",
          "type": "address"
        }
      ],
      "name": "GiftNFT",
      "outputs": [],
      "stateMutability": "payable",
      "type": "function"
    }
  ],
  "bytecode": "0x60a060405273216ed590cb7ec3417cab82699ae493522fecf58073ffffffffffffffffffffffffffffffffffffffff1660809073ffffffffffffffffffffffffffffffffffffffff168152503480156200005857600080fd5b50604051620014ad380380620014ad83398181016040528101906200007e919062000184565b306000806101000a81548173ffffffffffffffffffffffffffffffffffffffff021916908373ffffffffffffffffffffffffffffffffffffffff16021790555080600160006101000a81548173ffffffffffffffffffffffffffffffffffffffff021916908373ffffffffffffffffffffffffffffffffffffffff16021790555050620001b6565b600080fd5b600073ffffffffffffffffffffffffffffffffffffffff82169050919050565b600062000138826200010b565b9050919050565b60006200014c826200012b565b9050919050565b6200015e816200013f565b81146200016a57600080fd5b50565b6000815190506200017e8162000153565b92915050565b6000602082840312156200019d576200019c62000106565b5b6000620001ad848285016200016d565b91505092915050565b6080516112ce620001df6000396000818160fb01528181610597015261094b01526112ce6000f3fe60806040526004361061004a5760003560e01c806306e6caad1461004f57806332a73af71461007a5780635be1ddda146100965780635d963241146100b2578063983ddbe2146100ce575b600080fd5b34801561005b57600080fd5b506100646100f9565b6040516100719190610bc3565b60405180910390f35b610094600480360381019061008f9190610c54565b61011d565b005b6100b060048036038101906100ab9190610ca7565b6103f4565b005b6100cc60048036038101906100c79190610ca7565b6107a8565b005b3480156100da57600080fd5b506100e3610b5c565b6040516100f09190610d59565b60405180910390f35b7f000000000000000000000000000000000000000000000000000000000000000081565b8073ffffffffffffffffffffffffffffffffffffffff168373ffffffffffffffffffffffffffffffffffffffff160361015557600080fd5b3373ffffffffffffffffffffffffffffffffffffffff16600160009054906101000a900473ffffffffffffffffffffffffffffffffffffffff1673ffffffffffffffffffffffffffffffffffffffff16636352211e846040518263ffffffff1660e01b81526004016101c79190610d83565b602060405180830381865afa1580156101e4573d6000803e3d6000fd5b505050506040513d601f19601f820116820180604052508101906102089190610db3565b73ffffffffffffffffffffffffffffffffffffffff161461022857600080fd5b8273ffffffffffffffffffffffffffffffffffffffff163373ffffffffffffffffffffffffffffffffffffffff1614610296576040517f08c379a000000000000000000000000000000000000000000000000000000000815260040161028d90610e3d565b60405180910390fd5b600160009054906101000a900473ffffffffffffffffffffffffffffffffffffffff1673ffffffffffffffffffffffffffffffffffffffff166323b872dd8483856040518463ffffffff1660e01b81526004016102f593929190610e5d565b600060405180830381600087803b15801561030f57600080fd5b505af1158015610323573d6000803e3d6000fd5b50505050600160009054906101000a900473ffffffffffffffffffffffffffffffffffffffff1673ffffffffffffffffffffffffffffffffffffffff166316875c11836040518263ffffffff1660e01b81526004016103829190610d83565b600060405180830381600087803b15801561039c57600080fd5b505af11580156103b0573d6000803e3d6000fd5b505050507f076ab3c32614c4e17da999e88c733bcf65509b9481261530a4370338629073d48284836040516103e793929190610e94565b60405180910390a1505050565b8273ffffffffffffffffffffffffffffffffffffffff16600160009054906101000a900473ffffffffffffffffffffffffffffffffffffffff1673ffffffffffffffffffffffffffffffffffffffff16636352211e846040518263ffffffff1660e01b81526004016104669190610d83565b602060405180830381865afa158015610483573d6000803e3d6000fd5b505050506040513d601f19601f820116820180604052508101906104a79190610db3565b73ffffffffffffffffffffffffffffffffffffffff16146104c757600080fd5b6000600160009054906101000a900473ffffffffffffffffffffffffffffffffffffffff1673ffffffffffffffffffffffffffffffffffffffff1663061ba2f1846040518263ffffffff1660e01b81526004016105249190610d83565b600060405180830381865afa158015610541573d6000803e3d6000fd5b505050506040513d6000823e3d601f19601f8201168201806040525081019061056a9190611041565b9091929394955090919293945090919293509091925090915090508091505080821461059557600080fd5b7f000000000000000000000000000000000000000000000000000000000000000073ffffffffffffffffffffffffffffffffffffffff166323b872dd3386670de0b6b3a7640000866105e791906111ba565b6040518463ffffffff1660e01b815260040161060593929190610e5d565b6020604051808303816000875af1158015610624573d6000803e3d6000fd5b505050506040513d601f19601f820116820180604052508101906106489190611234565b50600160009054906101000a900473ffffffffffffffffffffffffffffffffffffffff1673ffffffffffffffffffffffffffffffffffffffff166323b872dd8533866040518463ffffffff1660e01b81526004016106a893929190610e5d565b600060405180830381600087803b1580156106c257600080fd5b505af11580156106d6573d6000803e3d6000fd5b50505050600160009054906101000a900473ffffffffffffffffffffffffffffffffffffffff1673ffffffffffffffffffffffffffffffffffffffff166316875c11846040518263ffffffff1660e01b81526004016107359190610d83565b600060405180830381600087803b15801561074f57600080fd5b505af1158015610763573d6000803e3d6000fd5b505050507fb6a905095cc0da6554868381c57c41a8a986dbee5b595c4921562f0bfc29c16b83338460405161079a93929190611261565b60405180910390a150505050565b8273ffffffffffffffffffffffffffffffffffffffff16600160009054906101000a900473ffffffffffffffffffffffffffffffffffffffff1673ffffffffffffffffffffffffffffffffffffffff16636352211e846040518263ffffffff1660e01b815260040161081a9190610d83565b602060405180830381865afa158015610837573d6000803e3d6000fd5b505050506040513d601f19601f8201168201806040525081019061085b9190610db3565b73ffffffffffffffffffffffffffffffffffffffff161461087b57600080fd5b6000600160009054906101000a900473ffffffffffffffffffffffffffffffffffffffff1673ffffffffffffffffffffffffffffffffffffffff1663061ba2f1846040518263ffffffff1660e01b81526004016108d89190610d83565b600060405180830381865afa1580156108f5573d6000803e3d6000fd5b505050506040513d6000823e3d601f19601f8201168201806040525081019061091e9190611041565b9091929394955090919293945090919293509091925090915090508091505080821461094957600080fd5b7f000000000000000000000000000000000000000000000000000000000000000073ffffffffffffffffffffffffffffffffffffffff166323b872dd3386670de0b6b3a76400008661099b91906111ba565b6040518463ffffffff1660e01b81526004016109b993929190610e5d565b6020604051808303816000875af11580156109d8573d6000803e3d6000fd5b505050506040513d601f19601f820116820180604052508101906109fc9190611234565b50600160009054906101000a900473ffffffffffffffffffffffffffffffffffffffff1673ffffffffffffffffffffffffffffffffffffffff166323b872dd8533866040518463ffffffff1660e01b8152600401610a5c93929190610e5d565b600060405180830381600087803b158015610a7657600080fd5b505af1158015610a8a573d6000803e3d6000fd5b50505050600160009054906101000a900473ffffffffffffffffffffffffffffffffffffffff1673ffffffffffffffffffffffffffffffffffffffff166316875c11846040518263ffffffff1660e01b8152600401610ae99190610d83565b600060405180830381600087803b158015610b0357600080fd5b505af1158015610b17573d6000803e3d6000fd5b505050507fb6a905095cc0da6554868381c57c41a8a986dbee5b595c4921562f0bfc29c16b833384604051610b4e93929190611261565b60405180910390a150505050565b600160009054906101000a900473ffffffffffffffffffffffffffffffffffffffff1681565b600073ffffffffffffffffffffffffffffffffffffffff82169050919050565b6000610bad82610b82565b9050919050565b610bbd81610ba2565b82525050565b6000602082019050610bd86000830184610bb4565b92915050565b6000604051905090565b600080fd5b600080fd5b610bfb81610ba2565b8114610c0657600080fd5b50565b600081359050610c1881610bf2565b92915050565b6000819050919050565b610c3181610c1e565b8114610c3c57600080fd5b50565b600081359050610c4e81610c28565b92915050565b600080600060608486031215610c6d57610c6c610be8565b5b6000610c7b86828701610c09565b9350506020610c8c86828701610c3f565b9250506040610c9d86828701610c09565b9150509250925092565b600080600060608486031215610cc057610cbf610be8565b5b6000610cce86828701610c09565b9350506020610cdf86828701610c3f565b9250506040610cf086828701610c3f565b9150509250925092565b6000819050919050565b6000610d1f610d1a610d1584610b82565b610cfa565b610b82565b9050919050565b6000610d3182610d04565b9050919050565b6000610d4382610d26565b9050919050565b610d5381610d38565b82525050565b6000602082019050610d6e6000830184610d4a565b92915050565b610d7d81610c1e565b82525050565b6000602082019050610d986000830184610d74565b92915050565b600081519050610dad81610bf2565b92915050565b600060208284031215610dc957610dc8610be8565b5b6000610dd784828501610d9e565b91505092915050565b600082825260208201905092915050565b7f4f6e6c79206f776e65722063616e2067696674204e4654000000000000000000600082015250565b6000610e27601783610de0565b9150610e3282610df1565b602082019050919050565b60006020820190508181036000830152610e5681610e1a565b9050919050565b6000606082019050610e726000830186610bb4565b610e7f6020830185610bb4565b610e8c6040830184610d74565b949350505050565b6000606082019050610ea96000830186610d74565b610eb66020830185610bb4565b610ec36040830184610bb4565b949350505050565b600080fd5b600080fd5b6000601f19601f8301169050919050565b7f4e487b7100000000000000000000000000000000000000000000000000000000600052604160045260246000fd5b610f1e82610ed5565b810181811067ffffffffffffffff82111715610f3d57610f3c610ee6565b5b80604052505050565b6000610f50610bde565b9050610f5c8282610f15565b919050565b600067ffffffffffffffff821115610f7c57610f7b610ee6565b5b610f8582610ed5565b9050602081019050919050565b60005b83811015610fb0578082015181840152602081019050610f95565b60008484015250505050565b6000610fcf610fca84610f61565b610f46565b905082815260208101848484011115610feb57610fea610ed0565b5b610ff6848285610f92565b509392505050565b600082601f83011261101357611012610ecb565b5b8151611023848260208601610fbc565b91505092915050565b60008151905061103b81610c28565b92915050565b600080600080600080600060e0888a0312156110605761105f610be8565b5b600088015167ffffffffffffffff81111561107e5761107d610bed565b5b61108a8a828b01610ffe565b975050602088015167ffffffffffffffff8111156110ab576110aa610bed565b5b6110b78a828b01610ffe565b965050604088015167ffffffffffffffff8111156110d8576110d7610bed565b5b6110e48a828b01610ffe565b955050606088015167ffffffffffffffff81111561110557611104610bed565b5b6111118a828b01610ffe565b945050608088015167ffffffffffffffff81111561113257611131610bed565b5b61113e8a828b01610ffe565b93505060a088015167ffffffffffffffff81111561115f5761115e610bed565b5b61116b8a828b01610ffe565b92505060c061117c8a828b0161102c565b91505092959891949750929550565b7f4e487b7100000000000000000000000000000000000000000000000000000000600052601160045260246000fd5b60006111c582610c1e565b91506111d083610c1e565b92508282026111de81610c1e565b915082820484148315176111f5576111f461118b565b5b5092915050565b60008115159050919050565b611211816111fc565b811461121c57600080fd5b50565b60008151905061122e81611208565b92915050565b60006020828403121561124a57611249610be8565b5b60006112588482850161121f565b91505092915050565b60006060820190506112766000830186610d74565b6112836020830185610bb4565b6112906040830184610d74565b94935050505056fea2646970667358221220d7f22ad9fe6de684d83173e82fdaad22f68be524d647d0dff585cc8a60e1b9a964736f6c63430008120033",
  "immutableReferences": {
    "1085": [
      {
        "length": 32,
        "start": 251
      },
      {
        "length": 32,
        "start": 1431
      },
      {
        "length": 32,
        "start": 2379
      }
    ]
  },
  "source": "//              \n//           \n//                        \n//                       \n//        \n//                                                                        \n// zonulet.io\n// SPDX-License-Identifier: MIT\n\npragma solidity >0.6.2;\n\nimport \"./ZonuletNFT.sol\";\nimport \"./ZonuletNFT.sol\";\nimport \"../openzeppelin/token/ERC20/IERC20.sol\";\nimport \"../openzeppelin/token/ERC20/extensions/IERC20Metadata.sol\";\nimport \"../openzeppelin/access/Ownable.sol\";\nimport \"../openzeppelin/utils/math/SafeMath.sol\";\nimport \"../openzeppelin/SafeMathInt.sol\";\nimport \"../openzeppelin/SafeMathUint.sol\";\nimport \"../openzeppelin/token/ERC20/ERC20.sol\";\n\ncontract ZonuletNFTSale {\n\n    address admin;\n    ZonuletNFT public zonuletNFT;\n\n    address public immutable ZONU = address(0x216eD590Cb7Ec3417CAb82699ae493522fECf580); \n\n    event BoughtNFT(uint256 _tokenId, address _buyer, uint256 _price);\n\n    event GiftedNFT(uint256 _tokenId, address _gifter, address _receiver);\n\n    constructor(ZonuletNFT _zonuletNFT) {\n        admin = address(this);\n        zonuletNFT = _zonuletNFT;\n    }\n\n    function BuyNFT(address _owner, uint256 _tokenId, uint256 _price) public payable {\n        require(zonuletNFT.ownerOf(_tokenId) == _owner);\n        uint price;\n        (, , , , , , price) = zonuletNFT.imageData(_tokenId);\n        require(_price == price);\n\n        IERC20(ZONU).transferFrom(msg.sender, _owner, _price*1e18);\n        zonuletNFT.transferFrom(_owner, msg.sender, _tokenId);\n        zonuletNFT.nftSold(_tokenId);\n        emit BoughtNFT(_tokenId, msg.sender, _price);\n    }\n\n    function AuctionSold(address _owner, uint256 _tokenId, uint256 _price) public payable {\n        require(zonuletNFT.ownerOf(_tokenId) == _owner);\n        uint price;\n        (, , , , , , price) = zonuletNFT.imageData(_tokenId);\n        require(_price == price);\n\n        IERC20(ZONU).transferFrom(msg.sender, _owner, _price*1e18);\n        zonuletNFT.transferFrom(_owner, msg.sender, _tokenId);\n        zonuletNFT.nftSold(_tokenId);\n        emit BoughtNFT(_tokenId, msg.sender, _price);\n    }\n\n    function GiftNFT(address _gifter, uint256 _tokenId, address _receiver) public payable {\n        require(_gifter != _receiver);\n        require(zonuletNFT.ownerOf(_tokenId) == msg.sender);\n        require(msg.sender == _gifter, \"Only owner can gift NFT\");\n\n        zonuletNFT.transferFrom(_gifter, _receiver, _tokenId);\n        zonuletNFT.nftSold(_tokenId);\n        emit GiftedNFT(_tokenId, _gifter, _receiver);\n    }\n\n}",
  "sourcePath": "/mnt/e/ETH-DENVER/INFURA/truffle/contracts/ZonuletNFTSale.sol",
  "compiler": {
    "name": "solc",
    "version": "0.8.18+commit.87f61d96.Emscripten.clang"
  },
  "schemaVersion": "3.4.12",
  "updatedAt": "2023-02-26T01:52:56.111Z",
  "devdoc": {
    "kind": "dev",
    "methods": {},
    "version": 1
  },
  "userdoc": {
    "kind": "user",
    "methods": {},
    "version": 1
  }
}